:100000000C9489010C94B6010C94B6010C94B601C1
:100010000C94B6010C94B6010C94B6010C94B60184
:100020000C94B6010C94B6010C94B6010C94B60174
:100030000C94B6010C94EB190C94B6010C94B60117
:100040000C94B6010C94B6010C94B6010C94B60154
:100050000C94B6010C94B6010C94B6010C94B7271D
:100060000C94B6010C941A210C9446220C94B601FF
:100070000C94B6010C94B6010C94B6010C94B60124
:100080000C94B6010C94B6010C94B6010C94B60114
:100090000C9456210C947A220C94B6010C9490087E
:1000A0000C94B6010C94B6010C94B6010C94B601F4
:1000B0000C94B6010C94B6010C94B6010C94B601E4
:1000C0000C94B6010C94B6010C94B6010C949221D8
:1000D0000C94AE220C94B6010C94CE210C94E22226
:1000E0000C94B601005EBCE2613FDD83C29C7E20C1
:1000F000A3FD1F419DC3217FFCA2401E5F01E3BD04
:100100003E6082DC237D9FC1421CFEA0E1BF5D03F7
:1001100080DE3C62BEE0025CDF81633D7C22C09EEB
:100120001D43A1FF4618FAA427799BC584DA3866D7
:10013000E5BB5907DB856739BAE406581947A5FBC3
:100140007826C49A653BD987045AB8E6A7F91B45B7
:10015000C6987A24F8A6441A99C7257B3A6486D8AB
:100160005B05E7B98CD2306EEDB3510F4E10F2AC97
:100170002F7193CD114FADF3702ECC92D38D6F3183
:10018000B2EC0E50AFF1134DCE90722C6D33D18F77
:100190000C52B0EE326C8ED0530DEFB1F0AE4C126B
:1001A00091CF2D73CA947628ABF517490856B4EA57
:1001B0006937D58B5709EBB536688AD495CB297743
:1001C000F4AA4816E9B7550B88D6346A2B7597C937
:1001D0004A14F6A8742AC896154BA9F7B6E80A542B
:1001E000D7896B3500002100240027002A002D004C
:1001F0003000330001010000040107010A01000082
:100200002200250028002B002E00310034000201BE
:100210000000050108010B0100002000230026005A
:1002200029002C002F00320000010000030106010C
:10023000090105050505070508080808020202026C
:100240000A0A080804040404010101010101010172
:100250000303030303030303040707070C0C0C0C3D
:100260000C0C0C0C02020202060606060606060626
:100270000B0B0B0B0B0B0B0B0102102020080810B3
:100280002040102040800201020108040201010206
:1002900004081020408080402010080402018004DF
:1002A000020180402010080402010804020101023A
:1002B0000408102040800102040810204080000043
:1002C000090A02080B0C0D070603040100000000D8
:1002D000000000000000000000000000000000001E
:1002E0000000000000000000000011100F000000DE
:1002F00000000000000000000000000000000000FE
:1003000000000000B6027D0AF31D1E2047202324B2
:10031000172011241FBECFEFD1E2DEBFCDBF00E01A
:100320000CBF13E0A0E0B2E0EEE5FCE500E00BBF9F
:1003300002C007900D92A635B107D9F71BBE18E091
:10034000A6E5B3E001C01D92A132B107E1F713E0C9
:10035000C0E1D3E004C02297FE010E941E2EC430EB
:10036000D107C9F70E949E270C94222E0C940000FE
:10037000EF92FF920F93DF93CF93CDB7DEB76097E5
:100380000FB6F894DEBF0FBECDBFA82F002309F42F
:1003900061C07E010894E11CF11C88E0F701119214
:1003A0008A95E9F729833A834B835C836D837E8347
:1003B000AF83988780E2801BE82FFF27E7FDF09549
:1003C0004D815E816F817885181684F01D861E86AA
:1003D0001F86188A882799278E1B9F0B04C0769545
:1003E0006795579547958A95D2F728C0202F3327D0
:1003F00027FD3095DB01CA01022E04C0B695A795F2
:10040000979587950A94D2F78D879E87AF87B88B8B
:1004100004C0440F551F661F771FEA95D2F78981E4
:100420009A81AB81BC8104C0B695A79597958795B5
:100430002A95D2F7482B592B6A2B7B2B49875A8751
:100440006B877C8729853A854B855C856D857E85A4
:10045000AF8598898A2F60960FB6F894DEBF0FBEDD
:10046000CDBFCF91DF910F91FF90EF900895EF9264
:10047000FF920F93DF93CF93CDB7DEB760970FB6A0
:10048000F894DEBF0FBECDBFA82F002309F461C0D2
:100490007E010894E11CF11C88E0F70111928A9515
:1004A000E9F729833A834B835C836D837E83AF8333
:1004B000988780E2801BE82FFF27E7FDF0954981B0
:1004C0005A816B817C81181684F019861A861B86E6
:1004D0001C86882799278E1B9F0B04C0440F551F2D
:1004E000661F771F8A95D2F728C0202F332727FD54
:1004F0003095DB01CA01022E04C0880F991FAA1F84
:10050000BB1F0A94D2F789879A87AB87BC8704C040
:100510007695679557954795EA95D2F78D819E8197
:10052000AF81B88504C0880F991FAA1FBB1F2A95E9
:10053000D2F7482B592B6A2B7B2B4D875E876F8711
:10054000788B29853A854B855C856D857E85AF8561
:1005500098898A2F60960FB6F894DEBF0FBECDBF84
:10056000CF91DF910F91FF90EF90089586E593E092
:1005700064E245E226E20E94CD1A089583EC92E0FF
:100580000E94D00D0895EF92FF920F931F93DF9377
:10059000CF93CDB7DEB767970FB6F894DEBF0FBE27
:1005A000CDBF8E01085F1F4FC8010E94BF1A78019E
:1005B0008E01005F1F4F86E593E00E94561B288B3B
:1005C000398B4A8B5B8B6C8B7D8B8E8B9F8BD70192
:1005D000F80188E001900D928150E1F764E670E047
:1005E00080E090E00E949F282D853E8587E02D3D8C
:1005F000380708F38B858D8388858B8389858A836B
:100600008C858E838A8589838F858C83822F825BFC
:100610008F83CE0101960E94590C67960FB6F8940D
:10062000DEBF0FBECDBFCF91DF911F910F91FF9025
:10063000EF900895EF92FF920F931F938C010E9409
:10064000F40DBC01C8014AE050E00E948E2680E013
:10065000E82E82E0F82EC801B7010E94A1260E9470
:10066000EC0DBC01C8014AE050E00E948E26C80192
:10067000B7010E94A1260E94E70DBC01C8014AE013
:1006800050E00E948E261F910F91FF90EF900895E9
:100690000F931F93CF93DF93EC018B0162E072E025
:1006A0000E94A1260A30110524F4CE0160E30E94C5
:1006B0008325CE01B8014AE050E00E948E26DF91EA
:1006C000CF911F910F9108950F931F938C010E945A
:1006D0000C0EBC01C8014AE050E00E948E260E9428
:1006E000040EBC01C8010E9448030E94FC0DBC011D
:1006F000C8010E9448031F910F91089581E090E086
:100700000895CF93DF93EC0169897A8981E693E0BC
:100710000E940F1CED85FE85892BA9F482E090E0F4
:100720009183808393838283EF85F889809163032B
:10073000909164039183808380916103909162031F
:100740009583848306C081E090E0918380839383C6
:100750008283DF91CF910895FC0184E792E0918339
:100760008083CF010E94D10408950F931F938C01C1
:1007700084E792E0F80191838083C8010E94D1044C
:10078000C8010E94AE271F910F910895CF92DF926A
:10079000EF92FF920F931F937C016B0162E008E8D8
:1007A00013E120E030E00E94CC0584E792E0F701FD
:1007B00091838083D28AC18A1F910F91FF90EF901D
:1007C000DF90CF900895FC0182E892E091838083CE
:1007D000CF010E94D10408950F931F938C0182E8EA
:1007E00092E0F80191838083C8010E94D104C8017E
:1007F0000E94AE271F910F910895EF92FF920F93E1
:100800001F93CF93DF937C01DC0151968C910E9462
:1008100018068C010E940B0FF70163897489C801C7
:100820000E94EA0EC80164E441E00E94AA0E62E35D
:1008300070E080E090E00E949F28C8010E940B0FAA
:1008400080936503D70153966D917C915497C801AD
:100850000E94EA0EC8016EEB40E00E94AA0EC6E6B6
:10086000D3E0C8010E94590E8993B3E0CF36DB076D
:10087000C1F7CE01099768E00E94140E90916E03B3
:10088000D7011D96ED91FC911E97891729F081E003
:1008900090E09183808348C082E090E091838083E0
:1008A0009091670380E020916603422F50E0482B2F
:1008B000592BF7018289882399F083E0440F551F53
:1008C0008A95E1F780916D038031B9F420916C0332
:1008D0008CE090E0821B9109407F480F591F0DC0AA
:1008E00080916A03807611F4487F07C0803211F44A
:1008F0004C7F03C0803409F44E7FD7011F960D91C1
:100900001C915097BA01882777FD8095982F0E94F7
:10091000992C20E030E040E85DE30E944D2DF80185
:100920006083718382839383DF91CF911F910F91B5
:10093000FF90EF900895BF92CF92DF92EF92FF92D7
:100940000F931F93CF93DF93EC01B62E7A016901C9
:10095000AC014B5E5F4F61E008E813E120E030E05E
:100960000E94CC0582E892E099838883B98AFC8A48
:10097000EB8ADE8ACD8AF7018081823239F08832B3
:1009800029F0803121F481E08A8B01C01A8ADF913D
:10099000CF911F910F91FF90EF90DF90CF90BF907C
:1009A0000895FC0180E992E0918380830895FC0121
:1009B00080E992E091838083089570E0660F771F4D
:1009C000DC011D96ED91FC911E97E60FF71F8081CB
:1009D0009181089580E090E00895DF92EF92FF9278
:1009E0000F931F93CF93DF937C01EB01D42E042F41
:1009F00010E0C801880F991FEB81FC81E80FF91FF7
:100A000060817181C7010E94A126C70166E072E082
:100A10000E94A126E881F9810680F781E02DCE01B0
:100A20006D2D19958130910509F440C082309105F2
:100A300019F0892BB9F13FC0E881F9810084F18573
:100A4000E02DCE016D2D1995892B91F4C801880FE9
:100A5000991F880F991FEF85F889E80FF91F4081CA
:100A6000518162817381C70121E030E00E948827B3
:100A7000E881F9810084F185E02DCE016D2D199575
:100A80000197C9F4000F111F000F111FEF85F8899E
:100A9000E00FF11F60817181C7014AE050E00E94C0
:100AA0008E2609C0C70168E072E003C0C7016AE092
:100AB00072E00E94A126DF91CF911F910F91FF90CC
:100AC000EF90DF9008950F931F938C010E94ED0427
:100AD000C8010E948B251F910F910895EF92FF92FC
:100AE0001F93CF93DF937C01EB0110E006C0C70199
:100AF000BE01412F0E9463051F5F8A811817B8F35A
:100B0000DF91CF911F91FF90EF900895EF92FF92A8
:100B10000F931F93CF93DF93EC010E94FF277B017C
:100B20008C0189859A85AB85BC85A8019701281B16
:100B3000390B4A0B5B0B8D819E81AF81B8852817DD
:100B400039074A075B0710F480E005C0E986FA869A
:100B50000B871C8781E0DF91CF911F910F91FF9050
:100B6000EF900895CF93DF93EC010E9486058823D0
:100B700039F0E881F9810190F081E02DCE011995DD
:100B8000DF91CF910895FC0180E992E09183808309
:100B9000CF010E94AE270895BF92CF92DF92EF92CD
:100BA000FF920F931F93CF93DF93EC01B62E680152
:100BB000790180E992E0998388836A835C834B831F
:100BC000062F10E0C801880F991F880F991F0E94F7
:100BD000B127988B8F87C801880F991F0E94B12772
:100BE0009E878D87CD82DE82EF82F8860E94FF2766
:100BF000685E73408040904069877A878B879C87C6
:100C000020E080E090E008C0ED85FE85E80FF91F48
:100C1000118210822F5F02962B15B0F3DF91CF91D6
:100C20001F910F91FF90EF90DF90CF90BF900895AC
:100C3000FF920F931F93CF93DF93F82EC09172030F
:100C4000D091730394E020E030E009C0F901E4584A
:100C5000FC4F80818F1509F4922F2F5F3F4F2C1787
:100C60003D07A4F3943061F5C430D1051CF0E0E0F9
:100C7000F0E02FC08EE090E00E94B427182F092FDB
:100C80006F2D0E94560FFE01EE0FFF1FEC58FC4F18
:100C9000108301838091720390917303FC01E458E7
:100CA000FC4FF082FC01EE0FFF1FEC58FC4F01904F
:100CB000F081E02D0196909373038093720309C035
:100CC000E92FF0E0EE0FFF1FEC58FC4F0190F08190
:100CD000E02DCF01DF91CF911F910F91FF900895EB
:100CE00006970E947406089582E090E008950697A2
:100CF0000E947B06089581E090E0089506970E9487
:100D0000820608950F931F938C018EE992E0F801FB
:100D100091838083429697838683C80106960E94BA
:100D2000D104C8010E94F7061F910F9108950697FC
:100D30000E949B0608950F931F938C018EE992E009
:100D4000F80191838083429697838683C801069633
:100D50000E94D104C8010E94F706C8010E94AE2774
:100D60001F910F91089506970E94B70608950F935B
:100D70001F93FC01058916890E94A407F80180834E
:100D800011821F910F910895CF92DF92EF92FF92FF
:100D90000F931F937C01E62F6901BA014E2F0E9429
:100DA0007B07A701495E5F4FC701069661E001E03E
:100DB00010E020E030E00E94CC058EE992E0F701DF
:100DC00091838083429697838683D08EC78A1F91B2
:100DD0000F91FF90EF90DF90CF900895FC018EEB84
:100DE00092E091838083CF010E94A7070895FC01C0
:100DF0008EEB92E091838083CF010E94A707089534
:100E00000F931F938C018EEB92E0F8019183808306
:100E1000C8010E94A707C8010E94AE271F910F9129
:100E20000895462FFC01648175816F5F7F4F89E2D1
:100E300095E00E94B31A08950F931F938C010E94AE
:100E4000BC07C80160E00E9411071F910F9108952F
:100E50000F931F938C010E94C307C80161E00E9499
:100E600011071F910F910895EF92FF920F931F9317
:100E70008C0189E2E82E85E0F82EF8016481758105
:100E8000C70145E50E94B31AF801648175816E5F60
:100E90007F4FC7014AEA0E94B31A1F910F91FF903A
:100EA000EF900895FC01648175816F5F7F4F89E247
:100EB00095E00E94AC1A811181E00895CF93DF93F1
:100EC000EC016C817D8189E295E00E94AC1A853548
:100ED00011F090E00CC06C817D816E5F7F4F89E2E4
:100EE00095E00E94AC1A90E08A3A09F491E0892FCB
:100EF000DF91CF9108950F931F93CF93DF93EC0170
:100F00008B01642F40E00E94CB078EEB92E0998327
:100F100088831D830C83CE010E945E07882349F0DD
:100F2000CE010E945207882339F0CE010E94280783
:100F300006C0CE010E943407CE010E941C07DF913B
:100F4000CF911F910F910895FC0182810895FC01BA
:100F50008AEC92E0918380830895FC018AEC92E010
:100F6000918380830895FC018AEC92E091838083D1
:100F7000CF010E94AE270895FC011282838161E0B7
:100F80000E94BA290895FC0181E08283838160E098
:100F90000E94BA290895FC01862F2AEC32E03183A1
:100FA00020834283638361E00E9407290895382FDC
:100FB000413210F040E042C0809180038823E1F785
:100FC00091E090938003209382038FEF8093ED0351
:100FD0001092A80341504093A9034F5F909381035F
:100FE00080918103330F832B80938103809183034E
:100FF000813041F410928303809181038093BB0080
:1010000085EC01C085EE8093BC0080918003813027
:10101000E1F38091A803841710F44091A80320E025
:1010200030E00AC0FB01E20FF31FD901A857BC4F03
:101030008C9180832F5F3F4F2417A0F3842F089556
:101040000F931F93582F122F413210F081E04AC0A6
:10105000809180038823E1F782E0809380030093EE
:1010600082038FEF8093ED031092A8034093A903AE
:10107000A8E8B3E0FB0102C081918D938E2F861BFF
:101080008417D0F31092810380918103550F852B33
:101090008093810380918303813041F41092830314
:1010A000809181038093BB0085EC01C085EE809325
:1010B000BC00112321F0809180038230E1F3809104
:1010C000ED038F3F11F480E00DC08091ED0380327D
:1010D00011F482E007C08091ED03803311F084E0C9
:1010E00001C083E01F910F910895482F613210F0E5
:1010F00081E0089580918003843011F082E00895AA
:101100006093CB03AAEAB3E0842F9C01F90102C0EB
:1011100081918D938E2F841B8617D0F380E00895E4
:101120001F920F920FB60F920BB60F9211242F93AE
:101130003F934F935F936F937F938F939F93AF935F
:10114000BF93EF93FF938091B90090E0887F9070F8
:101150008036910509F4F2C081369105CCF58832CC
:10116000910509F47BC089329105B4F48031910571
:1011700009F46FC0813191053CF4009709F447C12F
:10118000089709F04FC165C08831910509F466C020
:10119000809709F047C182C08034910509F4A4C04A
:1011A0008134910544F48033910509F482C0C897D5
:1011B00009F038C189C08035910509F489C08835A6
:1011C000910509F496C08834910509F02BC1AEC091
:1011D0008839910509F413C189399105ECF48837F0
:1011E000910509F4ABC0893791054CF48836910517
:1011F00009F4A4C08037910509F014C19FC0883854
:10120000910509F4FCC08039910509F49DC080382E
:10121000910509F007C198C0803B910509F4C6C04B
:10122000813B91054CF4803A910509F49FC0883ABE
:10123000910509F0F7C0BAC0803C910509F4E3C0FC
:10124000883C910509F4DFC0883B910509F0EAC0AC
:10125000C2C0809181038093BB00CFC09091A8034E
:101260008091A903981768F49091A803E92FF0E002
:10127000E857FC4F80818093BB009F5F9093A80349
:10128000BCC080918203882309F44BC085ED809314
:10129000BC008091BC0084FDFCCFC2C080E2809382
:1012A000ED0385ED8093BC008091BC0084FDFCCFF4
:1012B000B7C080E38093ED0385ED8093BC008091FF
:1012C000BC0084FDFCCFACC088E38093ED039BC0E1
:1012D0008091A8039091BB00E82FF0E0E857FC4F05
:1012E00090838F5F8093A8039091A8038091A903B6
:1012F00082C08091A8039091BB00E82FF0E0E857EE
:10130000FC4F90838F5F8093A80380918203882392
:1013100041F085ED8093BC008091BC0084FDFCCF42
:101320007FC081E08093830384EA6EC085ED809363
:10133000BC008091BC0084FDFCCF72C083E0809330
:1013400080031092EC0359C08091EC03803208F0C6
:1013500056C08091EC039091BB00E82FF0E0E4537D
:10136000FC4F90838F5F8093EC0347C08091EC0328
:10137000803230F4E091EC03F0E0E453FC4F108253
:1013800085ED8093BC008091BC0084FDFCCF109261
:1013900080036091EC03E0918603F09187038CEC6D
:1013A00093E070E019951092EC032DC084E08093D7
:1013B00080031092CA031092CB03E0918403F09152
:1013C000850319958091CB03882329F481E08093CC
:1013D000CB031092AA039091CA03E92FF0E0E655DF
:1013E000FC4F80818093BB009F5F9093CA039091D4
:1013F000CA038091CB03981710F485EC01C085E8EF
:101400008093BC000FC085EC8093BC0009C0109293
:10141000ED0385ED8093BC008091BC0084FDFCCF82
:1014200010928003FF91EF91BF91AF919F918F91A7
:101430007F916F915F914F913F912F910F900BBED4
:101440000F900FBE0F901F9018951092800381E0AF
:10145000809382031092830384E161E00E94BA29A1
:1014600085E161E00E94BA29E9EBF0E080818E7F9E
:10147000808380818D7F808388E48093B80085E4B9
:101480008093BC00089581E080933304609310043E
:101490001092310410923204089520910F0430E02C
:1014A00080910E04281B3109C901089540910E0452
:1014B00080910F04481718F02FEF3FEF0AC0E42F78
:1014C000F0E0E251FC4F8081282F30E04F5F4093E5
:1014D0000E04C9010895E0910E0480910F04E817ED
:1014E00018F0EFEFFFEF06C0F0E0E251FC4F808113
:1014F000E82FF0E0CF01089508951092370410927C
:10150000360488EE93E0A0E0B0E080933804909336
:101510003904A0933A04B0933B0486ED92E0909393
:101520003504809334040895CF92DF92EF92FF92B6
:101530000F931F93CF93DF937C016B018A018091FE
:1015400033048823A1F0C0E0D0E00DC0D701ED91B5
:10155000FC91D601AC0FBD1F0190F081E02DC701B9
:101560006C9119952196C017D10780F304C0CB0167
:10157000642F0E947508C801DF91CF911F910F91D0
:10158000FF90EF90DF90CF900895DF93CF930F926D
:10159000CDB7DEB7FC016983809133048823C9F09D
:1015A00080913204803238F081E090E0938382832E
:1015B00020E030E015C080913104E82FF0E0EF5ECC
:1015C000FB4F998190838F5F809331048093320425
:1015D00005C0CE01019661E00E94750821E030E06F
:1015E000C9010F90CF91DF9108950F93062F80913D
:1015F000100461E174E04091320421E00E9420086F
:101600001092310410923204109233040F91089515
:1016100061E00E94F50A0895413208F040E2862F09
:101620006EEE73E00E94D70710920E0480930F04B1
:10163000089521E00E940C0B089510920E04109260
:101640000F0410923104109232040E94250A08956A
:101650008F929F92AF92BF92CF92DF92EF92FF92C2
:101660000F931F93CF93DF937B018C01EA012CE34F
:1016700030E040E050E00E94E62D6883C801B701E9
:101680002CE330E040E050E00E94E62D122F032FC3
:10169000F42EE52E622F732F842F952F2CE330E04C
:1016A00040E050E00E94E62D6983612F702F8F2D5E
:1016B0009E2D2CE330E040E050E00E94E62D122FFA
:1016C000032FF42EE52E622F732F842F952F28E100
:1016D00030E040E050E00E94E62D6A83612F702FD9
:1016E0008F2D9E2D28E130E040E050E00E94E62D55
:1016F00079018A01C801B7016C5F7F4F8F4F9F4FFF
:1017000027E030E040E050E00E94E62D6F5F6B8301
:1017100020E0AA24BB24650101C02F5F822E9924FA
:10172000F401EE54F84FCF0183709070892B99F437
:10173000CF0164E670E00E94D32D892B39F4CF01EC
:1017400060E971E00E94D32D892B29F48EE691E0A7
:10175000A0E0B0E004C08DE691E0A0E0B0E0A80E0B
:10176000B91ECA1EDB1EC501A0E0B0E0E816F906EE
:101770000A071B0790F62E83F401EE54F84F83E01E
:10178000882E912C8E229F228114910499F4CF01EE
:1017900064E670E00E94D32D892B39F4CF0160E913
:1017A00071E00E94D32D892B29F48EE691E0A0E010
:1017B000B0E004C08DE691E0A0E0B0E0A81AB90A5C
:1017C000CA0ADB0A980187010A191B092C093D097D
:1017D000CF0164E670E00E94D32D7C01CF0160E967
:1017E00071E00E94D32DAC01E2EEF2E060E06130E6
:1017F00051F48114910449F4E114F10441F44115C8
:10180000510529F002C0808103C08CE101C08DE147
:1018100090E0A0E0B0E0081719072A073B0740F066
:10182000081B190B2A0B3B0B6F5F31966C30F9F6D6
:101830006F5F6D83802F8F5F8C83DF91CF911F91BE
:101840000F91FF90EF90DF90CF90BF90AF909F905F
:101850008F900895EF92FF920F931F937B018C015D
:101860008091570490915804A0915904B0915A0462
:10187000E816F9060A071B0771F0C801B7014CE426
:1018800054E00E94280BE0925704F0925804009311
:10189000590410935A041F910F91FF90EF900895EF
:1018A0000E942A0C2091520430E02E54384FC90176
:1018B00008954F925F926F927F928F929F92AF9214
:1018C000BF92CF92DF92EF92FF920F931F93CF932D
:1018D000DF934C01DC0116961C91612F70E080E0D3
:1018E00090E020E833E341EE51E00E94B42D5B012B
:1018F0006C0122EB37E0E12FF0E0EE54F84F1DC011
:10190000C90183709070892BB1F4C90164E670E05D
:101910000E94D32D892B39F4C90160E971E00E943E
:10192000D32D892B41F480E891E5A1E0B0E0A80E29
:10193000B91ECA1EDB1E2F5F3F4F2E173F0701F750
:10194000D40115968C91482E5524C90164E670E0A7
:101950000E94D32D7C01C90160E971E00E94D32D62
:101960008C01C1E0D0E093E0692E712C62227322D9
:1019700027C0C230D10591F46114710479F4E114E7
:10198000F10419F40115110549F480E89BE3A6E27E
:10199000B0E0A80EB91ECA1EDB1E11C0FE01EF5139
:1019A000FD4F608170E080E090E020E831E541E0AB
:1019B00050E00E94B42DA60EB71EC81ED91E219657
:1019C000C415D505B4F2D40112966C9170E080E094
:1019D00090E020E13EE040E050E00E94B42D7B0129
:1019E0008C01F401618170E080E090E02CE330E054
:1019F00040E050E00E94B42DE60EF71E081F191FAC
:101A0000D4018C91E80EF11C011D111D14966C91EE
:101A100070E061507040882777FD8095982F20E80E
:101A200031E541E050E00E94B42DE60EF71E081F9C
:101A3000191FEA0CFB1C0C1D1D1DB701C801DF910D
:101A4000CF911F910F91FF90EF90DF90CF90BF90BB
:101A5000AF909F908F907F906F905F904F90089580
:101A6000609342047093430480934404909345042C
:101A700020915402309155024091560250915702E4
:101A8000260F371F481F591F2093460430934704E1
:101A9000409348045093490482E090E090934B04B3
:101AA00080934A040E94FF27609353047093540468
:101AB00080935504909356040895EF92FF920F93EC
:101AC0001F931CC02F5F3F4F4F4F5F4F2093420427
:101AD00030934304409344045093450488EE93E0CC
:101AE000A0E0B0E0E80EF91E0A1F1B1FE0925304AD
:101AF000F092540400935504109356040E94FF275B
:101B0000E0905304F0905404009155041091560451
:101B10006E197F09800B910B209142043091430490
:101B20004091440450914504685E73408040904069
:101B300048F68091460490914704A0914804B091E2
:101B40004904281739074A075B07E8F0E091400489
:101B5000F09141043097B9F019956115710581052F
:101B6000910519F00E94300D0EC020E030E0809108
:101B70004A0490914B04892B11F021E030E030931E
:101B80004B0420934A046091420470914304809175
:101B90004404909145041F910F91FF90EF90089598
:101BA00090934104809340048091420490914304B7
:101BB000A0914404B0914504809346049093470457
:101BC000A0934804B09349040E945D0D08950E94BB
:101BD0005D0D0E94500C08950E945D0D0E942A0C1C
:101BE0008091510490E008950E945D0D0E942A0C9E
:101BF0008091500490E008950E945D0D0E942A0C8F
:101C000080914C0490E008950E945D0D0E942A0C82
:101C100080914D0490E008950E945D0D0E942A0C71
:101C200080914E0490E00895DC0180E00BC0E82F25
:101C3000F0E08D9190E0E827F927EC51FF4FE49117
:101C400061508E2F662399F70895DF92EF92FF92ED
:101C50000F931F93FC01E08001811281F894F80139
:101C600081818E2981838281DE2CD0948D21828393
:101C700083E090E00E943328F80181818D218183E7
:101C80008AE090E00E943328F8010081789485E38F
:101C900090E00E94332880E010E0FF240E211F21F5
:101CA000012B09F081E01F910F91FF90EF90DF90E1
:101CB0000895EF92FF920F931F93CF93DF937C01D0
:101CC00001E010E0C0E0D0E0C7010E94250E8111C4
:101CD000102B000F2196C830D105B1F7812FDF916D
:101CE000CF911F910F91FF90EF9008951F93CF9385
:101CF000DF93FC011081C181D281912F909560FF0B
:101D000012C0F8948A8189238A838981812B8983EF
:101D10008AE090E00E9433288A81812B8A8378941C
:101D200087E390E011C0F8948A8189238A838981AE
:101D3000812B898381E490E00E9433288A81812B62
:101D40008A83789485E090E00E943328DF91CF91D8
:101D50001F910895CF92DF92EF92FF920F931F93FE
:101D6000CF93DF938C01E42EFF24F394C0E0D0E006
:101D7000C62EDD2460E08F2D90E08C219D21892BE3
:101D800009F061E0C8010E94760EFF0C2196C83070
:101D9000D10581F7EE20A9F4F894D8011196ED91C0
:101DA000FC91129791818C91809598239183119643
:101DB000ED91FC91129792818C918095982392835A
:101DC0007894DF91CF911F910F91FF90EF90DF906A
:101DD000CF900895EF92FF920F931F93CF93DF93CD
:101DE0008C017B0165E540E00E94AA0EC0E0D0E0D6
:101DF000F701EC0FFD1FC801608140E00E94AA0EB0
:101E00002196C830D105A1F7DF91CF911F910F9195
:101E1000FF90EF900895DF92EF92FF920F931F9340
:101E2000CF93DF93FC010081C181D281F894898135
:101E3000D02ED0948D21898378941DE7E02EFF2445
:101E4000115059F182E090E00E943328888190E09F
:101E50008E219F21892BA1F3F8948A818D218A8379
:101E60008981802B8983789480EE91E00E943328C9
:101E7000F89489818D21898386E490E00E9433283B
:101E8000888110E090E0E822F922EF2809F411E0BF
:101E900078948AE991E00E943328812FDF91CF91D5
:101EA0001F910F91FF90EF90DF900895FF920F9395
:101EB0001F938C01F62E862F60E00E9407298F2D3C
:101EC00090E0FC01E858FD4FE491D801EC938E5C62
:101ED0009D4FFC016491E62FF0E0EE0FFF1FE85EDE
:101EE000FD4F8591949112969C938E9311971B961A
:101EF0001C921B971D961C921D971C961C92F80114
:101F000087E090E012863197009711F00197FACFA1
:101F10001F910F91FF900895FC0112828FEF818332
:101F2000108213820895FC018381882331F0662397
:101F300019F48FEF8183089511820895CF93DF9371
:101F4000EC018B81882319F480E090E013C0898133
:101F500080958623888384E394E06A810E94430A03
:101F600084E394E068810E94C50A84E394E00E94BF
:101F7000080B90E020E030E0892B11F421E030E004
:101F8000C901DF91CF910895CF93DF93EC016A836C
:101F900084E394E00E941D0B84E394E06A8141E0B5
:101FA0000E94190B1B82882311F081E08B8384E34C
:101FB00094E00E94560A88838B8190E0DF91CF9154
:101FC000089508950895FC011382128282EF92E031
:101FD000918380830895FC01A081B18118962D9191
:101FE0003C9119976FEFF90119950895FC01A081B3
:101FF000B18118962D913C91199760E0F9011995DE
:102000000895DC01ED91FC910284F385E02D40E020
:1020100019950895FC016581862F846085836C6025
:10202000CF010E9401100895DC0117969C9117972B
:10203000491710F0492F415018968C91189780310C
:1020400039F4943029F4E42FF0E0E250FD4F04C05D
:10205000E42FF0E0EE5FFC4F8081680F6068CD01F7
:102060000E9401100895DC01ED91FC910284F3853A
:10207000E02D41E0199581E090E0089561E00E9433
:10208000011080ED97E00E9433280895CF93DF93ED
:10209000EC01423018F08C8188608C834F83688714
:1020A000222329F0413019F48C8184608C8364E60A
:1020B00070E080E090E00E949F286C8164FD31C058
:1020C000E881F9810284F385E02DCE0163E042E0EE
:1020D000199584E991E10E943328E881F98102840D
:1020E000F385E02DCE0163E042E0199584E991E1AA
:1020F0000E943328E881F9810284F385E02DCE0126
:1021000063E042E0199586E990E00E943328E88177
:10211000F9810284F385E02DCE0162E042E0199559
:1021200016C06062CE010E94011084E991E10E9414
:1021300033286C816062CE010E94011086E990E034
:102140000E9433286C816062CE010E9401106C8174
:102150006062CE010E94011084E08D83CE010E9456
:102160000A10CE010E943E1082E08E83CE0166E00E
:102170000E940110CE010E94EB0FDF91CF910895D4
:10218000DC0181E090E002C0880F991F6A95E2F7B8
:102190001C968C931C971A965C934E931997ED910D
:1021A000FC9111970084F185E02DCD0160E0199537
:1021B0000895DF92EF92FF920F931F938C01D62E1A
:1021C0008EE0E82EF12CE00EF11EF80162896D29F7
:1021D000C7010E949E0FF801628960956D21C701B9
:1021E0000E949E0F1F910F91FF90EF90DF90089536
:1021F000DC01FC0120E090E070E060FF02C0858916
:10220000282B9F5F3196943019F075956795F4CF20
:10221000413019F454964C9154971D968C911D970A
:10222000842B282BCD01622F0E94D91008950F9383
:102230001F93CF93DF93EC01142F062F0F704230C2
:1022400019F4602F40E00CC070E044E0759567958C
:102250004A95E1F7412F0E94F810CE01602F412FDF
:102260000E94F810DF91CF911F910F910895FC010A
:102270002485222399F081859285009719F466239D
:1022800029F406C0019721F4662311F4258701C0C3
:102290001586CF010E9665850E949E0F08950F93B7
:1022A0001F93CF93DF938C01EC012E96CE01F801A2
:1022B00063850E94C40F019719F020E030E00CC044
:1022C000CE0161E00E94930FF8011482CE0160E01C
:1022D0000E949E0F21E030E0C901DF91CF911F9154
:1022E0000F910895DF92EF92FF920F931F938C014D
:1022F000F62EE42ED22E0E944F11C8016F2D4E2DC6
:102300002D2D0E9446101F910F91FF90EF90DF90AE
:1023100008952F923F924F925F926F927F928F9289
:102320009F92AF92BF92CF92DF92EF92FF920F9364
:102330001F93DF93CF93CDB7DEB73C01962E442E8B
:10234000222E0E94E30F8AE093E0F30191838083C1
:10235000C3010E960E948C0FF30193861486158696
:102360001286118681E090E09C0102C0220F331F8B
:102370004A94E2F7228BFC0102C0EE0FFF1F2A9461
:10238000E2F71F01F301238A9C0102C0220F331FD1
:102390000A95E2F7248BFC0102C0EE0FFF1FEA94BE
:1023A000E2F77F01F301E58A9C0102C0220F331F8F
:1023B000CA94E2F7268BFC0102C0EE0FFF1FAA941D
:1023C000E2F75F01F301A78A02C0880F991F8A9480
:1023D000E2F7808FC3016E894F89588D0E94C0102B
:1023E000CF91DF911F910F91FF90EF90DF90CF90F1
:1023F000BF90AF909F908F907F906F905F904F9025
:102400003F902F900895DF92EF92FF920F931F93CA
:10241000CF93DF93EC01882777FD8095982F0E945A
:10242000992C7B018C0120E030E040E45FE30E94C6
:102430004D2D20E030E048E452E40E94FE2B0E9443
:10244000662CC617D70714F4DD241CC0DD24C80190
:10245000B70120E030E040EA5FE30E944D2D20E02C
:1024600030E048E452E40E94FE2B20E030E040E8F7
:102470005FE30E94962B0E94662C6C177D0714F078
:10248000DD24D3948D2D90E0DF91CF911F910F919A
:10249000FF90EF90DF9008956C597F4F0E940312D8
:1024A0000895645670400E940312089560935B047F
:1024B00010925D04089582E080935C0410922805D8
:1024C0000895AF92BF92CF92DF92EF92FF920F9357
:1024D0001F93CF93DF936B01DB011A96CD91DC91B3
:1024E0001B978A819B8168E273E20E944C12892BC0
:1024F00009F480C080912805843009F08CC08C815B
:102500009D816AEC78E00E945112892B09F483C006
:102510008E819F8160E372E00E944C12892B09F446
:102520007AC0F601118610868FEF9FEFAFEFBFEFF5
:1025300084839583A683B78381E090E09183808331
:1025400054C08C819D8164E971E10E945112892BF4
:1025500009F450C02696EE24FF24870123E0A22E22
:10256000B12C8881998160E372E00E944C12892B22
:1025700009F440C08A819B8160E476E00E94511298
:10258000892B69F0EE0CFF1C001F111F81E090E009
:10259000A0E0B0E0E82AF92A0A2B1B2B0CC08A81A4
:1025A0009B8160E372E00E945112892B19F1EE0CBD
:1025B000FF1C001F111F249691E4A916B10429F0F5
:1025C000A2E0B0E0AA0EBB1ECCCF80E290E0F60104
:1025D00091878087D6011496ED92FD920D931C93FE
:1025E000179781E090E08D939C9321E030E040E0EC
:1025F00050E004C020E030E040E050E0B901CA0102
:10260000DF91CF911F910F91FF90EF90DF90CF90CE
:10261000BF90AF90089580912805843458F391CFEE
:10262000AF92BF92CF92DF92EF92FF920F931F93E0
:10263000CF93DF936B01809128058A3108F480C025
:10264000DB011A96CD91DC911B9788819981845F7B
:10265000914080F4FB01118610868FEF9FEFAFEF62
:10266000BFEF84839583A683B78389E090E091834D
:10267000808361C08A819B8160E679E00E944C1270
:10268000892B09F45DC02696EE24FF24870162E0C1
:10269000A62EB12C30C0229788819981229668E5B8
:1026A00072E00E945112892B79F18881998160EB47
:1026B00074E00E944C12892B69F0EE0CFF1C001F85
:1026C000111F81E090E0A0E0B0E0E82AF92A0A2B8F
:1026D0001B2B0CC08881998168E572E00E944C1226
:1026E000892B71F1EE0CFF1C001F111FA2E0B0E05E
:1026F000AA0EBB1E24968091280595012F5F3F4F9F
:1027000090E0281739073CF2C50101979595879508
:10271000F601918780870C971CF41186108610C0F3
:10272000D6011496ED92FD920D931C93179782E0BB
:1027300090E08D939C9321E030E040E050E004C0B5
:1027400020E030E040E050E0B901CA01DF91CF91D4
:102750001F910F91FF90EF90DF90CF90BF90AF90BF
:102760000895AF92BF92CF92DF92EF92FF920F93B4
:102770001F93CF93DF936B01809128058A3108F472
:1027800089C0DB011A96CD91DC911B9788819981D4
:102790008052934080F4FB01118610868FEF9FEFEB
:1027A000AFEFBFEF84839583A683B78389E090E082
:1027B000918380836AC08A819B816CEA7DE00E945C
:1027C0004C12892B09F466C08C819D816CEA7DE0F6
:1027D0000E944C12892B09F45DC02896EE24FF2438
:1027E0008701A3E0AA2EB12C30C02297888199815D
:1027F000229666EB73E00E945112892B79F1888151
:10280000998160E679E00E944C12892B69F0EE0C08
:10281000FF1C001F111F81E090E0A0E0B0E0E82A5B
:10282000F92A0A2B1B2B0CC0888199816CEB72E072
:102830000E944C12892B71F1EE0CFF1C001F111F1E
:10284000A2E0B0E0AA0EBB1E249680912805950157
:102850002F5F3F4F90E0281739073CF2C5010197E1
:1028600095958795F601918780870C971CF41186C2
:10287000108610C0D6011496ED92FD920D931C9314
:10288000179789E090E08D939C9321E030E040E041
:1028900050E004C020E030E040E050E0B901CA015F
:1028A000DF91CF911F910F91FF90EF90DF90CF902C
:1028B000BF90AF9008956F927F928F929F92AF9248
:1028C000BF92CF92DF92EF92FF920F931F93CF931D
:1028D000DF934B0180912805823208F47AC0DB0136
:1028E0001A96CD91DC911B978A819B816EE571E0F0
:1028F0000E944C12892B09F46CC036E0A32EB12C37
:10290000AC0EBD1EEE24FF24870122E0C22ED12C86
:1029100037C0E5012297888199816EE977E00E94AE
:102920004C12892B69F0EE0CFF1C001F111F81E077
:1029300090E0A0E0B0E0E82AF92A0A2B1B2B0DC09A
:10294000888199816EEE72E00E944C12892B09F405
:1029500040C0EE0CFF1C001F111FD5018D919C91F2
:102960006EE571E00E945112E4E0F0E0AE0EBF1E91
:10297000892B11F463010FC022E030E0C20ED31E98
:1029800036010894611C711C8091280590E068163E
:1029900079060CF4BECFC601019795958795D401B1
:1029A00019969C938E93189740972CF419961C9225
:1029B0001E9218970EC0F401E482F58206831783F5
:1029C0008AE090E09183808321E030E040E050E0B5
:1029D00004C020E030E040E050E0B901CA01DF91DE
:1029E000CF911F910F91FF90EF90DF90CF90BF900C
:1029F000AF909F908F907F906F9008956F927F928D
:102A00008F929F92AF92BF92CF92DF92EF92FF92FE
:102A10000F931F93CF93DF93FB013A015901680194
:102A2000DA012D913C91848595852817390724F08A
:102A300071E0E72EF12C56C0C901880F991F02845E
:102A4000F385E02DE80FF91F80819181982E892E62
:102A500020FD06C00CE91FEF51E0E52EF12C04C06B
:102A600004E610E0EE24FF24B8016C0D7D1D892DD5
:102A7000982D0E940312892B19F021E030E020C02C
:102A8000E601CC0FDD1FB8016C0F7D1F892D982D3D
:102A90000E940312892B19F022E030E011C0CC0D06
:102AA000DD1D0C0F1D1F892D982DB8010E940312EA
:102AB000892B21F4EE24EA94FE2C14C023E030E0AC
:102AC000F50180819181019691838083821793071C
:102AD0004CF011821082D3018D919C911197019637
:102AE0008D939C93C701DF91CF911F910F91FF9020
:102AF000EF90DF90CF90BF90AF909F908F907F909E
:102B00006F9008952F923F924F925F926F927F92B3
:102B10008F929F92AF92BF92CF92DF92EF92FF92ED
:102B20000F931F93DF93CF9300D000D0CDB7DEB7C4
:102B30001C015B01809128058D3008F47EC081E086
:102B400090E09A8389831C821B82A3E08A2E912CB9
:102B50008C0E9D1EC1012E010894411C511CA20126
:102B6000940109E713E00E94FE14892B09F065C067
:102B7000C101B501A20194010E94FE14019709F060
:102B80005CC0C101B501A20194010E94FE14892B11
:102B900009F053C0CC24DD24760166247724C401D7
:102BA0008D829E832FC0C101B501A2012D813E817E
:102BB00009E713E00E94FE144C01C101B501A20116
:102BC0002D813E810E94FE1421E08216910479F449
:102BD000892B99F5CC0CDD1CEE1CFF1C81E090E0EC
:102BE000A0E0B0E0C82AD92AEA2AFB2A08C089282E
:102BF00021F5019711F5CC0CDD1CEE1CFF1C08948F
:102C0000611C711C8091280590E029813A81281768
:102C100039074CF2D50119967C926E921897F501FE
:102C2000C482D582E682F78283E090E0918380833C
:102C300021E030E040E050E004C020E030E040E03F
:102C400050E0B901CA0126960FB6F894DEBF0FBE58
:102C5000CDBFCF91DF911F910F91FF90EF90DF904B
:102C6000CF90BF90AF909F908F907F906F905F902C
:102C70004F903F902F9008952F923F924F925F92E6
:102C80006F927F928F929F92AF92BF92CF92DF927C
:102C9000EF92FF920F931F93DF93CF93CDB7DEB7E1
:102CA00028970FB6F894DEBF0FBECDBF1C014B01B5
:102CB000DB011C968D919C911D97181619060CF03E
:102CC000C4C081E090E09A8389831A960D911C918B
:102CD0001B97F801828193816AE67AE00E944C1288
:102CE000892B09F4B2C082E090E09A838983D801ED
:102CF00014968D919C91159769E773E00E9451128B
:102D0000892B09F4A2C083E090E09A8389831C8216
:102D10001B8203E0A02EB12CAC0EBD1EC101B4017C
:102D20003E010894611C711CA30195010CEB11E09C
:102D30000E94FE14892B09F088C0C101B401A301CF
:102D400095010E94FE14019709F07FC0CC24DD2478
:102D5000760144245524C501AD829E83C3016F8250
:102D6000988756C0C101B4014F8158852D813E819D
:102D70000CEB11E00E94FE143C01B3E04B16510431
:102D800061F4C101B4014F8158852D813E810E94BB
:102D9000FE146816790609F058C0C101B4014F81CC
:102DA00058852D813E810CEB11E00E94FE145C01E0
:102DB000E3E04E16510459F4C101B4014F81588526
:102DC0002D813E810E94FE14A816B906F1F561140A
:102DD000710489F4F1E0AF16B104B9F5CC0CDD1C37
:102DE000EE1CFF1C81E090E0A0E0B0E0C82AD92AE8
:102DF000EA2AFB2A0AC091E06916710431F5AB2872
:102E000021F5CC0CDD1CEE1CFF1C0894411C511C50
:102E100029813A81D4011C968D919C911D97281788
:102E200039070CF49FCF19965C924E921897F401D3
:102E3000C482D582E682F78284E090E09183808329
:102E400021E030E040E050E004C020E030E040E02D
:102E500050E0B901CA0128960FB6F894DEBF0FBE44
:102E6000CDBFCF91DF911F910F91FF90EF90DF9039
:102E7000CF90BF90AF909F908F907F906F905F901A
:102E80004F903F902F9008956F927F928F929F92D4
:102E9000AF92BF92CF92DF92EF92FF920F931F9368
:102EA000CF93DF937B01FB01C285D3858A819B8110
:102EB0006EEA7DE00E944C12892B09F474C08C816B
:102EC0009D8166ED76E00E944C12892B09F46BC05F
:102ED000269600E010E0DD24CC2499248824772471
:102EE000662483E0A82EB12C8881998166EF71E079
:102EF0000E944C12892B09F456C08A819B816CED8B
:102F000074E00E945112892B69F098014D2D5C2DBF
:102F1000692D782D872D962D01E00E943702022F12
:102F2000016013C08A819B8160E971E00E945112A7
:102F3000892BC9F198014D2D5C2D692D782D872D98
:102F4000962D01E00E943702022F132FD42EC52E9A
:102F5000962E872E782E692E2496F1E6AF16B104B0
:102F600029F082E090E0A80EB91EBECFC801F7019B
:102F700004839583468357839801872D962D00E21D
:102F80000E94B801C901F7012283938387E090E092
:102F90009183808380E390E09187808721E030E017
:102FA00040E050E004C020E030E040E050E0B901F3
:102FB000CA01DF91CF911F910F91FF90EF90DF90A9
:102FC000CF90BF90AF909F908F907F906F9008951B
:102FD0008F929F92AF92BF92CF92DF92EF92FF9229
:102FE0000F931F93CF93DF936B018091280582325B
:102FF00009F0B2C0DB011A96CD91DC911B978A8152
:103000009B8168E572E00E944C12892B09F4A4C0F0
:103010008091280521E030E0281B3109220F331F61
:10302000C21BD30B8881998168E572E00E944C1223
:10303000892B09F491C0F601118610868FEF9FEF5E
:10304000AFEFBFEF84839583A683B78388E090E0DA
:103050009183808369C080912805813208F469C01A
:10306000D50114968D919C91159760EA7FE00E949E
:103070005112892B09F45DC0E5012696EE24FF2448
:10308000870133E0832E912C8881998168E572E075
:103090000E944C12892B09F44CC08A819B8160E408
:1030A00076E00E945112892B69F0EE0CFF1C001F84
:1030B000111F81E090E0A0E0B0E0E82AF92A0A2B95
:1030C0001B2B0CC08A819B8166E272E00E94511228
:1030D000892B79F1EE0CFF1C001F111FA2E0B0E05C
:1030E0008A0E9B1E2496B3E28B16910469F6E6E4E1
:1030F000F0E0AE0EBF1ED5018D919C9168E572E0A7
:103100000E944C12892BA9F080E190E0F601918792
:103110008087D6011496ED92FD920D931C9317971C
:1031200088E090E08D939C9321E030E040E050E017
:1031300004C020E030E040E050E0B901CA01DF9176
:10314000CF911F910F91FF90EF90DF90CF90BF90A4
:10315000AF909F908F900895F601A284B384D5011B
:1031600012968D919C91139760E47FE10E944C121E
:10317000892B09F070CFDDCF2F923F924F925F9253
:103180006F927F928F929F92AF92BF92CF92DF9277
:10319000EF92FF920F931F93DF93CF930F920F92B3
:1031A000CDB7DEB71B01FB0184859585863091057F
:1031B0002CF420E030E040E050E081C0F5ECAF2E90
:1031C000FDE9BF2EFCE1CF2EF1E8DF2EE6E04E2E2A
:1031D000512C9C01220F331F3A83298359C0F101DE
:1031E000A285B385F2013497EA0FFB1FE080F180DE
:1031F000A40DB51D6D917C9180E090E00E94972C0C
:103200003B014C0100E010E0C801B7010E94972C7F
:103210007B018C012DEC3CEC4CE45FE30E944D2DD6
:103220009B01AC01C401B3010E94FA2B88231CF45A
:1032300000E010E018C0C401B3012DEC3CEC4CE4FC
:103240005FE30E944D2D9B01AC01C801B7010E94B4
:10325000FA2B082F112707FD10950027110F001FCB
:1032600011270F5F1F4FC601B50123E931E040E090
:1032700051E00E94B42D5801CC24B7FCC094DC2C42
:10328000A626B726C826D92622E030E0420E531ED5
:1032900089819A814816590609F0A1CFF101A482CB
:1032A000B582C682D78280E290E0918780878FEFD7
:1032B0009FEF9183808321E030E040E050E0B9014E
:1032C000CA010F900F90CF91DF911F910F91FF9046
:1032D000EF90DF90CF90BF90AF909F908F907F90B6
:1032E0006F905F904F903F902F9008950F931F9392
:1032F000CF93DF938C01EB0180E694E09B878A8774
:10330000809128058C871D8680915C04853009F0AA
:1033100057C0C8010E9461126115710581059105B0
:1033200009F051C0C801BE010E941013611571055A
:103330008105910509F047C0C801BE010E94B11383
:103340006115710581059105F1F5C801BE010E9465
:103350005B146115710581059105A9F5C801BE01D0
:103360000E948215611571058105910561F5C801FD
:10337000BE010E943C16611571058105910519F584
:10338000C801BE010E9444176115710581059105B0
:10339000D1F4C801BE010E94E817611571058105CD
:1033A000910589F4C801BE010E94BC186115710520
:1033B0008105910541F482E080935C041092280518
:1033C00020E030E002C021E030E0C901DF91CF9180
:1033D0001F910F9108951F920F920FB60F920BB687
:1033E0000F9211242F933F934F935F936F937F938B
:1033F0008F939F93AF93BF93EF93FF9380915B0461
:103400000E94ED29482F80915E0490915F040196FF
:1034100090935F0480935E0480912805843618F0B1
:1034200085E080935C0480915C048330D1F084302B
:1034300020F4823009F059C006C0843071F1853023
:1034400009F053C04CC0442309F04FC080915E0482
:1034500090915F048436910508F443C010922805CA
:103460001EC0413009F041C080912805E82FF0E0EE
:1034700020915E0430915F04EE0FFF1FE55AFB4F71
:10348000368325838F5F8093280510925F04109206
:103490005E0484E080935C0428C04423B9F48091E6
:1034A0002805E82FF0E020915E0430915F04EE0FD4
:1034B000FF1FE55AFB4F368325838F5F80932805D6
:1034C00010925F0410925E0483E0E4CF80915E046A
:1034D00090915F048536910540F085E0DBCF442371
:1034E00021F410925F0410925E0480915D048823A1
:1034F00029F0442311F42F9A01C02F98FF91EF91E6
:10350000BF91AF919F918F917F916F915F914F91FB
:103510003F912F910F900BBE0F900FBE0F901F90F9
:103520001895F89492E09093B0009093B10084E6DF
:103530008093B300E2EBF0E01082E08190937000A2
:10354000789482E080935C041092280580915B045B
:1035500060E00E9407290895F999FECF72BD61BD10
:10356000F89A80B50895F999FECF1FBA72BD61BD72
:1035700040BD0FB6F894FA9AF99A0FBE0895FC016F
:103580008AED97E09683858381E08483838310822C
:103590001182128285E0878308950F931F938C0117
:1035A000862FF80160834183228361E00E9407290E
:1035B000F801828161E00E9407291F910F9108950F
:1035C000FF920F931F938C01F62EFC01818161E025
:1035D0000E940729F8018181628140E02F2D0E941D
:1035E0001D2A1F910F91FF900895FF920F931F9333
:1035F000CF93DF938C01FC01818160E00E94072959
:10360000FF24C0E0D0E0F80181810E94ED2990E024
:103610000C2E02C0880F991F0A94E2F7F82AF801CD
:10362000828161E00E94BA2981E090E00E94332803
:10363000F801828160E00E94BA292196C830D10544
:1036400011F78F2DDF91CF911F910F91FF9008956A
:10365000EF92FF920F931F93CF93DF93EC018A8138
:1036600060E00E94BA29888161E00E94BA29CE01F7
:103670006FEB0E94E01A8E0148E0E42EF12CEC0E74
:10368000FD1ECE010E94F51AF80183830F5F1F4FC4
:103690000E151F05B1F7888160E00E94BA29DF91FD
:1036A000CF911F910F91FF90EF900895BF92CF920D
:1036B000DF92EF92FF920F931F93DF93CF93CDB7DB
:1036C000DEB728970FB6F894DEBF0FBECDBF7C01E2
:1036D0000E94281BF701A381AF77D480FFE7DF2288
:1036E000F7018581282F30E0482F4F7087FF13C0E6
:1036F0002072307015E0359527951A95E1F7C901CC
:10370000880F991F820F931F880F991F880F991F89
:10371000C42EC80E14C0C90180739070E4E0959562
:103720008795EA95E1F79C0173E0220F331F7A95A4
:10373000E1F7880F991F280F391FC42EC20EF70119
:1037400006815FE0B52EB0220F7702950F7010E072
:10375000C80143E0880F991F4A95E1F7000F111F38
:10376000080F6781162F1F706F7762956F7070E07A
:10377000CB0123E0880F991F2A95E1F7660F771F89
:10378000680F818590854A2F42954F7050E09A01CD
:1037900073E0220F331F7A95E1F7440F551F420F54
:1037A000AF704A0FAD2DA295AF70B0E09D01F3E070
:1037B000220F331FFA95E1F7AA0FBB1FA20FFFE0FC
:1037C000DF22AD0D0B0D610F282F22952F7030E0F9
:1037D000F90173E0EE0FFF1F7A95E1F7220F331F17
:1037E000E20FF31F8F708E0F282F30E02053384FD9
:1037F0003F832E83722F2C2D3A2F502F8F812896A6
:103800000FB6F894DEBF0FBECDBFCF91DF911F91F1
:103810000F91FF90EF90DF90CF90BF9008952F927F
:103820003F925F926F927F928F929F92AF92BF92E0
:10383000CF92DF92EF92FF920F931F93DF93CF937C
:1038400000D00F920F92CDB7DEB73C01962E1982B1
:103850001A821B821C821D82862F61E00E9407292A
:10386000892D60E00E94BA2962E170E080E090E07A
:103870000E949F28892D61E00E94BA2988E290E089
:103880000E943328892D60E00E94072900E117E299
:1038900005C001151105A1F101501040892D0E94AC
:1038A000ED29892BB1F300E117E205C001151105DF
:1038B00039F101501040892D0E94ED290197B1F393
:1038C00006C001151105E1F0015010400AC027E0C3
:1038D000822E5524AA24BB2491E0292E312C00E10C
:1038E00017E2892D0E94ED29892B59F30E940D289A
:1038F0006B017C0100E117E208C00115110519F404
:103900002EEF3FEF41C001501040892D0E94ED295C
:10391000019799F30E940D286C197D098E099F0962
:10392000693271058105910580F0E1E0F0E0EC0F6E
:10393000FD1FE50DF11D9101082C02C0220F331F60
:103940000A94E2F78081822B8083882021F45394AB
:1039500087E0882E01C08A940894A11CB11C88E2DB
:10396000A816B10409F0BBCF8981F30180831182CD
:103970009B8192831382980F8D81891719F420E01F
:1039800030E002C02FEF3FEFC9010F900F900F9072
:103990000F900F90CF91DF911F910F91FF90EF90BB
:1039A000DF90CF90BF90AF909F908F907F906F905F
:1039B0005F903F902F900895FC018AE193E09183FE
:1039C00080830895FC018AE193E0918380830895C8
:1039D0008FEF0895FC0185810895CF93DF93EC016B
:1039E0006B838A81681710F081508B838A899B8949
:1039F0000E94EB0F0E94FF276A877B878C879D8739
:103A00006E837F8388879987DF91CF910895CF93C5
:103A1000DF93EC01E881F9810280F381E02D6D8173
:103A20001995682F8F3F19F0CE010E94ED1CDF9190
:103A3000CF910895FC018481882369F085818823D2
:103A400011F0815085838581882311F484818583D9
:103A5000CF010E94071D0895FC019481992351F024
:103A600085818F5F8583981710F481E08583CF016E
:103A70000E94071D08950F931F938C018AE193E024
:103A8000F801918380834283138224831582738B90
:103A9000628B0E94FF27F801668377838087918776
:103AA0001F910F9108950F931F93CF93DF93EC0114
:103AB0000E94FF278B019C018E819F81A885B9857B
:103AC000B901A801481B590B6A0B7B0BDB01CA012A
:103AD00080519742A040B04060F00E831F8328873A
:103AE00039878B8190E06A81019670E00E94D32D26
:103AF0008B838E859F85A889B989B901A801481B48
:103B0000590B6A0B7B0BDB01CA0180519742A04025
:103B1000B04028F00E871F87288B398B1D828A853D
:103B20009B85AC85BD85B901A801481B590B6A0B63
:103B30007B0BDB01CA0180539547A040B04040F0A9
:103B40000A871B872C873D878A899B890E94F60FED
:103B5000E881F9810190F081E02DCE016B814D81EA
:103B60001995DF91CF911F910F910895FC018AE182
:103B700093E091838083CF010E94AE270895CF9375
:103B8000DF930E946820C8E6D5E0699179918CE8BE
:103B900095E00E946E0585E0C637D807B1F78CE83E
:103BA00095E06FE072E00E948B270E94FA1D0E9450
:103BB0003A2064E670E080E090E00E949F28DF9168
:103BC000CF9108958CE895E040E051EE60E070E020
:103BD0000E9416230E9477200E943F200E94BB1E55
:103BE0000E94BE0208958AE295E06CE270E00E94B5
:103BF000561208958AE295E06BE275E00E9476190C
:103C0000892B09F4B7C040912F0550913005609180
:103C10003105709132058CE895E020E130E00E949A
:103C20003A2680912F0590913005A0913105B091F1
:103C300032058D3D22E292072FEFA20720E0B20766
:103C400009F48FC08E3D22E292072FEFA20720E0F9
:103C5000B207C0F48F3E20E192072FEFA20720E0C9
:103C6000B20709F43DC0873E28E192072FEFA20773
:103C700020E0B20779F18D5F9240AF4FB04009F07C
:103C800075C072C085382AE792072FEFA20720E09F
:103C9000B20721F186382AE792072FEFA20720E02A
:103CA000B20738F48F5C9043AF4FB04009F05EC06C
:103CB0000FC0873528EA92072FEFA20720E0B2074E
:103CC00089F18F51904EAF4FB04009F04FC00AC0FC
:103CD00080E001C081E00E94342048C082E0FBCF38
:103CE00083E0F9CF0E942520813069F4E0917605C8
:103CF000F0917705A081B18112962D913C91139797
:103D0000CF01F90119950E942520823079F5E091C3
:103D10007805F0917905A081B18112962D913C91A1
:103D200013971BC00E942520813059F4E09176053D
:103D3000F0917705A081B1812D913C91CF01F901DE
:103D400019950E942520823089F4E0917805F09140
:103D50007905A081B1812D913C91CF01F90119958F
:103D600005C00E942A2002C00E942F208AE295E00E
:103D70000E945B1208958AE295E00E94911A0895CC
:103D800082E00895FC0186E293E091838083CF0175
:103D90000E94DC1C08950F931F938C0186E293E030
:103DA000F80191838083C8010E94DC1CC8010E9435
:103DB000AE271F910F910895FC01828993896CE1D0
:103DC00072E00E94A1260895FC018289938968E02F
:103DD00041E00E9414100895FC018289938960E0FB
:103DE00041E00E9414100895FC018289938968E0E3
:103DF00040E00E9414100895FC018289938960E0DC
:103E000040E00E94141008951F93CF93DF93EC01BC
:103E1000142F613009F442C0613038F0623009F487
:103E200067C0633009F0ACC098C00E94FC1EEC89EA
:103E3000FD89608171818A899B8940E00E94ED043F
:103E4000CE010E94DC1ECE010E94F41EEC89FD8989
:103E5000608171818A899B8941E00E94ED04CE01D5
:103E60000E94DC1ECE010E94EC1EEC89FD8962815D
:103E700073818A899B8940E00E94ED04CE010E94F3
:103E8000DC1ECE010E94E41EEC89FD8962817381F3
:103E90008A899B8941E00E94ED046FC00E94FC1E4C
:103EA000EC89FD89648175818A899B8940E00E9443
:103EB000ED04CE010E94DC1ECE010E94F41EEC89AE
:103EC000FD89668177818A899B8940E00E94ED04A3
:103ED000CE010E94DC1ECE010E94EC1EEC89FD8901
:103EE000608571858A899B8940E00E94ED042EC01F
:103EF0000E94FC1EEC89FD89628573858A899B89F5
:103F000040E00E94ED04113029F48A899B896AE21D
:103F10000E948325CE010E94DC1ECE010E94F41E69
:103F2000EC89FD89648575858A899B8940E00E94BA
:103F3000ED04123029F48A899B896AE20E94832564
:103F4000CE010E94DC1ECE010E94EC1ECE010E941A
:103F5000DC1ECE010E94E41E10C00E94FC1E8A8955
:103F60009B890E941A03CE010E94DC1ECE010E9492
:103F7000EC1E8A899B890E946403CE010E94DC1E8C
:103F8000DF91CF911F910895EF92FF920F931F93AE
:103F90008C017A0144E022E00E943B1D86E293E01E
:103FA000F80191838083F58AE48A1F910F91FF9035
:103FB000EF9008958F92AF92CF92EF920F9381304E
:103FC000910531F56F5F7F4F61F500D083E0EDB76C
:103FD000FEB781831382128289E395E067E242E0B3
:103FE00021E000E0E4E0EE2E75E0C72E56E0A52EBD
:103FF00037E0832E0E9489110F900F900F9082E579
:1040000095E069E375E048E655E00E94C41F09C0E9
:10401000892B39F46F5F7F4F21F482E595E00E9490
:10402000C21E0F91EF90CF90AF908F90089580E0D7
:1040300090E06FEF7FEF0E94DA1F089581E090E03B
:104040006FEF7FEF0E94DA1F089582E595E00E94EE
:10405000EA1C089582E595E00E941A1D089582E504
:1040600095E00E942C1D0895682F82E595E00E943E
:10407000ED1C089582E595E00E94531D089589E3A3
:1040800095E060E142E020E00E9472110895809185
:1040900058029091590290938505809384058091F0
:1040A0005A0290915B0290938705809386058091D8
:1040B0005C0290915D0290938905809388058091C0
:1040C0005E0290915F0290938B0580938A0508951C
:1040D000CF93DF93C8E6D5E0899199910E94B2050C
:1040E00085E0C637D807C1F7DF91CF910895EF92E9
:1040F000FF920F931F9383E190E00E94B427182F43
:10410000092F6AE170E044E855E00E94C60388E6A2
:10411000E82E85E0F82E109368050093690583E189
:1041200090E00E94B427182F092F6CE170E048E856
:1041300055E00E94C60310936A05F701038387E1E7
:1041400090E00E94B427182F092F2091600230912F
:10415000610268E14EE253E00E949B0410936C05FB
:10416000F701058387E190E00E94B427182F092FFB
:10417000209162023091630268E146E353E00E94BD
:104180009B0410936E05F701078387E190E00E947E
:10419000B427182F092F209164023091650268E13D
:1041A0004EE353E00E949B0410937005F7010187D2
:1041B00089E190E00E94B4278C0120916602309141
:1041C00067026EE140E050E00E94C406109377055C
:1041D000009376050115110519F480E090E002C006
:1041E000C8010696909373058093720589E190E06B
:1041F0000E94B4278C01209168023091690260E22C
:104200004AE050E00E94C4061093790500937805B7
:104210000115110519F480E090E002C0C80106966E
:1042200090937505809374051F910F91FF90EF9007
:10423000089508951F920F920FB60F920BB60F922A
:1042400011242F933F934F938F939F93EF93FF935B
:104250008091C00082FD19C04091C6008091AA05DE
:10426000282F30E02F5F3F4F2F7330708091AB05C8
:1042700090E02817390759F0E091AA05F0E0E457DB
:10428000FA4F42A32093AA0502C08091C600FF9175
:10429000EF919F918F914F913F912F910F900BBE76
:1042A0000F900FBE0F901F90189508951F920F92B8
:1042B0000FB60F920BB60F9211242F933F934F938B
:1042C0008F939F93EF93FF938091C80082FD19C055
:1042D0004091CE0080914C06282F30E02F5F3F4F59
:1042E0002F73307080914D0690E02817390759F0F0
:1042F000E0914C06F0E0E25DF94F42A320934C06BA
:1043000002C08091CE00FF91EF919F918F914F91CC
:104310003F912F910F900BBE0F900FBE0F901F90EB
:10432000189508951F920F920FB60F920BB60F9229
:1043300011242F933F934F938F939F93EF93FF936A
:104340008091D00082FD19C04091D6008091EE0688
:10435000282F30E02F5F3F4F2F7330708091EF0692
:1043600090E02817390759F0E091EE06F0E0E053AD
:10437000F94F42A32093EE0602C08091D600FF9130
:10438000EF919F918F914F913F912F910F900BBE85
:104390000F900FBE0F901F90189508951F920F92C7
:1043A0000FB60F920BB60F9211242F933F934F939A
:1043B0008F939F93EF93FF938091300182FD19C0FB
:1043C0004091360180919007282F30E02F5F3F4FBA
:1043D0002F7330708091910790E02817390759F0BA
:1043E000E0919007F0E0EE58F84F42A32093900739
:1043F00002C080913601FF91EF919F918F914F9173
:104400003F912F910F900BBE0F900FBE0F901F90FA
:1044100018958091AA052091AB0590E0805C9F4F94
:10442000821B91098F739070892B11F00E941921C2
:1044300080914C0620914D0690E0805C9F4F821B3E
:1044400091098F739070892B11F00E9455218091F2
:10445000EE062091EF0690E0805C9F4F821B910951
:104460008F739070892B11F00E9491218091900799
:104470002091910790E0805C9F4F821B91098F7380
:104480009070892B11F00E94CD2108951F920F92F8
:104490000FB60F920BB60F9211242F938F939F9309
:1044A000EF93FF939091AC058091AD05981731F48F
:1044B0008091C1008F7D8093C10010C0E091AD0557
:1044C000F0E0E251FA4F20818091AD0590E0019635
:1044D0008F7390708093AD052093C600FF91EF918C
:1044E0009F918F912F910F900BBE0F900FBE0F9049
:1044F0001F9018951F920F920FB60F920BB60F9246
:1045000011242F938F939F93EF93FF9390914E06D7
:1045100080914F06981731F48091C9008F7D809368
:10452000C90010C0E0914F06F0E0E057F94F20813C
:1045300080914F0690E001968F73907080934F06A4
:104540002093CE00FF91EF919F918F912F910F902B
:104550000BBE0F900FBE0F901F9018951F920F92D9
:104560000FB60F920BB60F9211242F938F939F9338
:10457000EF93FF939091F0068091F106981731F434
:104580008091D1008F7D8093D10010C0E091F10621
:10459000F0E0EE5CF84F20818091F10690E001960A
:1045A0008F7390708093F1062093D600FF91EF9166
:1045B0009F918F912F910F900BBE0F900FBE0F9078
:1045C0001F9018951F920F920FB60F920BB60F9275
:1045D00011242F938F939F93EF93FF9390919207C2
:1045E00080919307981731F4809131018F7D8093EA
:1045F000310110C0E0919307F0E0EC52F84F2081B8
:104600008091930790E001968F7390708093930749
:1046100020933601FF91EF919F918F912F910F90F1
:104620000BBE0F900FBE0F901F901895AF92BF92C8
:10463000DF92EF92FF920F931F93CF93DF93EC01E2
:104640007A018B01DD24403081EE580780E0680755
:1046500080E0780711F0DD24D39491E0A92EB12CED
:10466000E889F989DD2069F0C5010C8C02C0880F4A
:10467000991F0A94E2F7808360E079E08DE390E08F
:1046800005C0108260E874E88EE190E0A80197010F
:104690000E94E62D215030404040504056954795AD
:1046A0003795279580E12030380720F0DD2011F084
:1046B000DD24D6CFEC85FD853083EE85FF85208314
:1046C0001D8EEA89FB89408121E030E0C901088C18
:1046D00002C0880F991F0A94E2F7482B4083EA89A9
:1046E000FB894081C901098C02C0880F991F0A9477
:1046F000E2F7482B4083EA89FB894081C9010A8C93
:1047000002C0880F991F0A94E2F7482B4083EA8978
:10471000FB8980810B8C02C0220F331F0A94E2F7C1
:10472000209528232083DF91CF911F910F91FF9037
:10473000EF90DF90BF90AF900895FC01268D878D9C
:1047400030E0205C3F4F281B31092F733070C901C6
:104750000895FC01968D878D981719F42FEF3FEF80
:1047600006C0878DE80FF11D82A1282F30E0C90116
:104770000895DC015E969C915E975F968C915F97A1
:10478000981719F42FEF3FEF10C05F968C915F9749
:10479000FD01E80FF11D92A15F968C915F978F5FED
:1047A0008F735F968C93292F30E0C9010895DC0147
:1047B0005D968C915D97882339F05096ED91FC9130
:1047C0005197808186FFF9CF5D961C920895DC0198
:1047D00090968C919097282F30E02F5F3F4F2F734A
:1047E000307091968C91919790E028173907C9F312
:1047F00090968C919097FD01E80FF11DEE59FF4FB7
:10480000608390962C9390975296ED91FC915397DC
:10481000208181E090E05B960C905B9702C0880F4E
:10482000991F0A94E2F7282B208381E05D968C93F0
:104830005D975096ED91FC915197808180648083C3
:1048400081E090E008951F9310928F0510928E05DD
:1048500028EE33E040E050E020939005309391053E
:1048600040939205509393056AE473E070938D052D
:1048700060938C051092AD058091AD058093AC05D9
:104880001092AB058091AB058093AA0585EC90E072
:10489000909399058093980584EC90E090939B0504
:1048A00080939A0580EC90E090939D0580939C0501
:1048B00081EC90E090939F0580939E0582EC90E0C0
:1048C0009093A1058093A00586EC90E09093A305BA
:1048D0008093A20514E01093A405B3E0B093A5055E
:1048E000A7E0A093A605F5E0F093A705E1E0E0932B
:1048F000A8051092310610923006209332063093AC
:104900003306409334065093350670932F06609318
:104910002E0610924F0680914F0680934E061092FD
:104920004D0680914D0680934C068DEC90E090935F
:104930003B0680933A068CEC90E090933D06809382
:104940003C0688EC90E090933F0680933E0689EC0D
:1049500090E090934106809340068AEC90E090931B
:104960004306809342068EEC90E090934506809338
:10497000440610934606B0934706A0934806F0936A
:104980004906E0934A061092D3061092D20620936D
:10499000D4063093D5064093D6065093D70670932D
:1049A000D1066093D0061092F1068091F1068093B3
:1049B000F0061092EF068091EF068093EE0685EDEB
:1049C00090E09093DD068093DC0684ED90E0909378
:1049D000DF068093DE0680ED90E09093E106809301
:1049E000E00681ED90E09093E3068093E20682ED8D
:1049F00090E09093E5068093E40686ED90E0909336
:104A0000E7068093E6061093E806B093E906A093C4
:104A1000EA06F093EB06E093EC061092750710920D
:104A20007407209376073093770740937807509365
:104A300079077093730760937207109293078091C0
:104A4000930780939207109291078091910780932A
:104A5000900785E391E090937F0780937E0784E33E
:104A600091E0909381078093800780E391E0909399
:104A700083078093820781E391E090938507809379
:104A8000840782E391E0909387078093860786E30B
:104A900091E0909389078093880710938A07B093D9
:104AA0008B07A0938C07F0938D07E0938E071F91DF
:104AB0000895CF92DF92EF92FF920F931F93CF93BF
:104AC000DF937C016B018A01C0E0D0E00FC0D6010A
:104AD0006D916D01D701ED91FC910190F081E02D78
:104AE000C7011995C80FD91F0150104001151105B4
:104AF00071F7CE01DF91CF911F910F91FF90EF9051
:104B0000DF90CF900895DC01ED91FC910190F08150
:104B1000E02D19950895EF92FF920F931F938C014A
:104B2000DC01ED91FC910190F081E02D6DE0199593
:104B30007C01D801ED91FC910190F081E02DC8013C
:104B40006AE019959C012E0D3F1DC9011F910F911F
:104B5000FF90EF900895CF93DF93EC0161157105FD
:104B600019F420E030E00FC0DB010D900020E9F7E0
:104B70001197A61BB70BE881F9810280F381E02D24
:104B8000AD0119959C01C901DF91CF9108954F9214
:104B90005F927F928F929F92AF92BF92CF92DF925D
:104BA000EF92FF920F931F93DF93CF93CDB7DEB7B2
:104BB000A1970FB6F894DEBF0FBECDBF2C01742EA7
:104BC000CB01223008F42AE019A231E2C32ED12C05
:104BD000CC0EDD1E822E9924AA24BB24672D752FAE
:104BE000A50194010E94E62D79018A01C801B7014F
:104BF000A50194010E94B42D472D461B0894C108BD
:104C0000D1084A3014F4405D01C0495CF60140838C
:104C1000E114F1040105110521F07E2C5F2DC8017E
:104C2000DDCFC201B6010E94AB25A1960FB6F89464
:104C3000DEBF0FBECDBFCF91DF911F910F91FF90CF
:104C4000EF90DF90CF90BF90AF909F908F907F902C
:104C50005F904F900895DC012115310541F4ED91ED
:104C6000FC910190F081E02D642F199508950E9428
:104C7000C7250895EF92FF920F931F937C010E9426
:104C80002B268C01C7010E948B259C01200F311F10
:104C9000C9011F910F91FF90EF900895CF92DF927D
:104CA000EF92FF920F931F93CF93DF93EC016A0172
:104CB0007B012115310541F4E881F9810190F081F2
:104CC000E02D642F19951FC02A303105D1F477FFEC
:104CD00017C0E881F9810190F081E02D6DE219950E
:104CE0008C0144275527BA014C195D096E097F09CB
:104CF000CE012AE00E94C7259801280F391F04C061
:104D00002AE00E94C7259C01C901DF91CF911F9124
:104D10000F91FF90EF90DF90CF900895EF92FF9268
:104D20000F931F937B019A010027F7FC0095102F2A
:104D3000B801A7010E944E261F910F91FF90EF909E
:104D400008950E94AB2508957F928F929F92AF9213
:104D5000BF92CF92DF92EF92FF920F931F93CF9368
:104D6000DF934C017A018B01722ECB01BA01A801AD
:104D700097010E94B02D882321F0C40166E472E0FF
:104D800021C0C0E0D0E057016801E894D7F8C6011F
:104D9000B5012FEF3FEF4FE75FE70E94B02D88236B
:104DA00051F4C601B5012FEF3FEF4FE75FE70E94D7
:104DB000FA2B181614F0C1E0D0E0219739F0C401A5
:104DC0006AE472E00E94AB25EC0193C0C801B70110
:104DD0002FEF3FEF4FE75FE40E94492D181654F084
:104DE000C801B7012FEF3FEF4FE75FEC0E94FA2BAE
:104DF000882324F4C4016EE472E0E4CFC801B70153
:104E000020E030E040E050E00E94FA2B87FD03C034
:104E1000C0E0D0E00EC0D401ED91FC910190F08192
:104E2000E02DC4016DE21995EC0117FB109517F9FF
:104E3000109520E030E040E05FE3DD240BC0CA01C4
:104E4000B90120E030E040E251E40E94FE2B9B01DA
:104E5000AC01D394D71498F3C801B7010E94962BE4
:104E60005B016C010E946B2C7B018C01C401B801B9
:104E7000A7012AE030E00E942B26C80FD91F772017
:104E800039F0C40162E572E00E94AB25C80FD91F5A
:104E9000C801B7010E94972C9B01AC01C601B50166
:104EA0000E94952B24C020E030E040E251E40E94B3
:104EB0004D2D7B018C010E94662C5B016C01CC2482
:104EC000B7FCC094DC2CC401B601A5012AE030E097
:104ED0000E944E26C80FD91FC601B5010E94992C09
:104EE0009B01AC01C801B7010E94952B7A947720F1
:104EF000D1F6CE01DF91CF911F910F91FF90EF90EE
:104F0000DF90CF90BF90AF909F908F907F9008954B
:104F10000E94A4260895EF92FF920F931F937C01A5
:104F20000E94AB258C01C7010E948B25080F191F19
:104F3000C8011F910F91FF90EF900895CF93DF93D9
:104F40000E943D280E94E21DC9E0D2E20E94BF1DDE
:104F50002097E1F30E940922F9CF08950E94FC2ACC
:104F600008950E945F2A08950E945F2A08951F9263
:104F70000F920FB60F9211242F933F938F939F930D
:104F8000AF93BF938091180890911908A0911A08C7
:104F9000B0911B0830911C080196A11DB11D232F53
:104FA0002D5F2D3720F02D570196A11DB11D2093A7
:104FB0001C088093180890931908A0931A08B093BE
:104FC0001B088091140890911508A0911608B091C3
:104FD00017080196A11DB11D809314089093150820
:104FE000A0931608B0931708BF91AF919F918F912E
:104FF0003F912F910F900FBE0F901F9018958FB774
:10500000F894209118083091190840911A0850918D
:105010001B088FBFB901CA0108959FB7F89420916A
:10502000140830911508409116085091170886B55C
:10503000A89B06C08F3F21F02F5F3F4F4F4F5F4F20
:105040009FBF542F432F322F2227280F311D411D80
:10505000511D82E0220F331F441F551F8A95D1F73F
:10506000B901CA010895019739F0880F991F880F77
:10507000991F02970197F1F70895789484B582609B
:1050800084BD84B5816084BD85B5826085BD85B5EC
:10509000816085BDEEE6F0E0808181608083E1E89B
:1050A000F0E01082808182608083808181608083D3
:1050B000E0E8F0E0808181608083E1EBF0E08081D6
:1050C00084608083E0EBF0E0808181608083E1E9AF
:1050D000F0E0808182608083808181608083E0E96C
:1050E000F0E0808181608083E1EAF0E0808182608D
:1050F0008083808181608083E0EAF0E0808181604C
:105100008083E1E2F1E08081826080838081816040
:105110008083E0E2F1E0808181608083EAE7F0E073
:1051200080818460808380818260808380818160CF
:1051300080838081806880831092C1000895EF92FF
:10514000FF920F931F93CF93DF937B018C013FB7A7
:10515000F8948091140890911508A0911608B091C8
:10516000170826B5A89B05C02F3F19F00196A11D71
:10517000B11D3FBFBA2FA92F982F8827820F911DED
:10518000A11DB11D52E0880F991FAA1FBB1F5A9580
:10519000D1F7EC0130C00E94942B3FB7F894809176
:1051A000140890911508A0911608B091170826B51B
:1051B000A89B05C02F3F19F00196A11DB11D3FBF4F
:1051C000BA2FA92F982F8827820F911DA11DB11DDD
:1051D00032E0880F991FAA1FBB1F3A95D1F78C1B8D
:1051E0009D0B885E9340B8F20894E108F10801092C
:1051F0001109C851DC4FE114F1040105110559F6FC
:10520000DF91CF911F910F91FF90EF900895CF9371
:10521000DF93482F50E0CA0188589D4FFC0134911C
:105220004E5C5D4FFA018491882369F190E0880F0C
:10523000991FFC01EC51FE4FA591B491FC01E25085
:10524000FE4FC591D491662351F42FB7F8948C91F9
:10525000932F909589238C93888189230BC062308A
:1052600061F42FB7F8948C91932F909589238C93A8
:105270008881832B88832FBF06C09FB7F8948C91B9
:10528000832B8C939FBFDF91CF910895893009F4D0
:1052900049C08A30A0F4843051F1853040F4823026
:1052A00079F1833000F5813009F063C026C0873082
:1052B00079F1883098F5863009F05BC025C08D30D3
:1052C00009F442C08E3028F48B30B1F18C30C0F537
:1052D0002DC0803109F442C0813109F445C08F30BE
:1052E00009F047C037C0809180008F7703C080915C
:1052F00080008F7D80938000089584B58F7702C0F1
:1053000084B58F7D84BD08958091B0008F7703C0F0
:105310008091B0008F7D8093B000089580919000BF
:105320008F7707C0809190008F7D03C0809190009F
:10533000877F8093900008958091A0008F7707C0A9
:105340008091A0008F7D03C08091A000877F809313
:10535000A0000895809120018F7703C080912001E3
:105360008F7D80932001089580912001877F809315
:1053700020010895FF920F931F93F62E482F50E0BF
:10538000CA0182549D4FFC012491CA0188589D4F47
:10539000FC0114914E5C5D4FFA0104910023C9F0A9
:1053A000222319F0822F0E944629E02FF0E0EE0F11
:1053B000FF1FE250FE4FA591B4919FB7F894FF20D4
:1053C00021F48C911095812302C08C91812B8C93B8
:1053D0009FBF1F910F91FF9008950F931F93482F28
:1053E00050E0CA0182549D4FFC012491CA018858A3
:1053F0009D4FFC0104914E5C5D4FFA011491112305
:1054000019F420E030E015C0222319F0822F0E9409
:105410004629812F90E0880F991F885E9D4FFC01DF
:10542000A591B4918C9120E030E0802311F021E02F
:1054300030E0C9011F910F910895BF92CF92DF9282
:10544000EF92FF920F931F93CF93DF93E82EF62EE8
:10545000B42EC7E0D0E0022F10E087E0C82ED12C98
:10546000BB2059F4B6016C1B7D0BC80102C0959599
:1054700087956A95E2F7BC0107C0B8010C2E02C0FF
:10548000759567950A94E2F761708E2D0E94BA298E
:105490008F2D61E00E94BA298F2D60E00E94BA2909
:1054A00021979FEFCF3FD907D9F6DF91CF911F9179
:1054B0000F91FF90EF90DF90CF90BF9008950F93E2
:1054C0001F93CF93DF93BC018230910510F462E00B
:1054D00070E0E0911F08F091200840E050E0A0E06B
:1054E000B0E024C08081918186179707D0F086179D
:1054F000970771F482819381109729F013969C93FA
:105500008E9312972CC09093200880931F0827C079
:105510004115510519F08417950718F48D01AC0158
:10552000EF01DF01828193819C01F9013097D1F66F
:1055300041155105F9F0CA01861B970B843091057E
:1055400080F48A819B810115110521F0F801938374
:10555000828304C09093200880931F08FE01329636
:1055600045C0FE01E80FF91F61937193029799837B
:1055700088833CC080911D0890911E08892B41F4BE
:1055800080916C0290916D0290931E0880931D088B
:1055900040916E0250916F024115510541F44DB793
:1055A0005EB780916A0290916B02481B590B209163
:1055B0001D0830911E0824173507B0F4CA01821B5C
:1055C000930B8617970780F0AB014E5F5F4F8417F0
:1055D000950750F0420F531F50931E0840931D082B
:1055E000F9016193719302C0E0E0F0E0CF01DF9137
:1055F000CF911F910F910895CF93DF939C01009756
:1056000009F48FC0EC0122971B821A8260911F0857
:10561000709120086115710581F488819981820F4C
:10562000931F20911D0830911E082817390739F55E
:10563000D0931E08C0931D0874C0DB0140E050E009
:10564000AC17BD0708F1BB83AA83FE0121913191FC
:10565000E20FF31FAE17BF0779F48D919C9111975C
:10566000280F391F2E5F3F4F3983288312968D9163
:105670009C9113979B838A834115510571F4D093B4
:105680002008C0931F084DC012968D919C911397CE
:10569000AD01009711F0DC01D3CFDA011396DC9352
:1056A000CE931297FA0121913191E20FF31FCE1799
:1056B000DF0769F488819981280F391F2E5F3F4FDA
:1056C000FA01318320838A819B8193838283E0E086
:1056D000F0E0DB0112968D919C911397009719F0E1
:1056E000BC01FD01F6CFAB014E5F5F4FDB018D9139
:1056F0009C91840F951F20911D0830911E0828173A
:10570000390779F4309729F41092200810921F0875
:1057100002C0138212824250504050931E084093A0
:105720001D08DF91CF91089508955058BB27AA27EF
:105730000ED075C166D130F06BD120F031F49F3FAF
:1057400011F41EF45BC10EF4E095E7FB51C1E92FA3
:1057500077D180F3BA17620773078407950718F0AB
:1057600071F49EF58FC10EF4E0950B2EBA2FA02D8B
:105770000B01B90190010C01CA01A0011124FF27FE
:10578000591B99F0593F50F4503E68F11A16F040F9
:10579000A22F232F342F4427585FF3CF46953795F8
:1057A0002795A795F0405395C9F77EF41F16BA0BBD
:1057B000620B730B840BBAF09150A1F0FF0FBB1F6B
:1057C000661F771F881FC2F70EC0BA0F621F731FB4
:1057D000841F48F4879577956795B795F7959E3F11
:1057E00008F0B3CF9395880F08F09927EE0F97959F
:1057F00087950895D9D008F481E008950CD00FC1A1
:1058000007D140F0FED030F021F45F3F19F0F0C036
:10581000511139C1F3C014D198F39923C9F3552319
:10582000B1F3951B550BBB27AA2762177307840793
:1058300038F09F5F5F4F220F331F441FAA1FA9F349
:1058400033D00E2E3AF0E0E830D091505040E6953B
:10585000001CCAF729D0FE2F27D0660F771F881F9C
:10586000BB1F261737074807AB07B0E809F0BB0B8B
:10587000802DBF01FF2793585F4F2AF09E3F5105AF
:1058800068F0B6C000C15F3FECF3983EDCF386954C
:1058900077956795B795F7959F5FC9F7880F911D25
:1058A0009695879597F90895E1E0660F771F881F11
:1058B000BB1F621773078407BA0720F0621B730BC4
:1058C000840BBA0BEE1F88F7E095089504D0689416
:1058D000B111D9C00895BCD088F09F5790F0B92F6E
:1058E0009927B751A0F0D1F0660F771F881F991F35
:1058F0001AF0BA95C9F712C0B13081F0C3D0B1E047
:105900000895C0C0672F782F8827B85F39F0B93F56
:10591000CCF3869577956795B395D9F73EF4909536
:105920008095709561957F4F8F4F9F4F0895E894B4
:1059300009C097FB3EF490958095709561957F4FD7
:105940008F4F9F4F9923A9F0F92F96E9BB27939585
:10595000F695879577956795B795F111F8CFFAF495
:10596000BB0F11F460FF1BC06F5F7F4F8F4F9F4FC6
:1059700016C0882311F096E911C0772321F09EE824
:10598000872F762F05C0662371F096E8862F70E08A
:1059900060E02AF09A95660F771F881FDAF7880F64
:1059A0009695879597F90895990F0008550FAA0BBA
:1059B000E0E8FEEF16161706E807F907C0F0121622
:1059C0001306E407F50798F0621B730B840B950B25
:1059D00039F40A2661F0232B242B252B21F408957A
:1059E0000A2609F4A140A6958FEF811D811D089517
:1059F00097F99F6780E870E060E008959FEF80EC82
:105A0000089500240A941616170618060906089524
:105A100000240A9412161306140605060895092E8A
:105A20000394000C11F4882352F0BB0F40F4BF2BF9
:105A300011F460FF04C06F5F7F4F8F4F9F4F089539
:105A400057FD9058440F551F59F05F3F71F047952F
:105A5000880F97FB991F61F09F3F79F08795089514
:105A6000121613061406551FF2CF4695F1DF08C033
:105A7000161617061806991FF1CF86957105610550
:105A800008940895E894BB2766277727CB0197F9F8
:105A900008958ADF08F48FEF08950BD0C0CFB1DFEF
:105AA00028F0B6DF18F0952309F0A2CFA7CF112474
:105AB000EACFC6DFA0F3959FD1F3950F50E0551FB5
:105AC000629FF001729FBB27F00DB11D639FAA2753
:105AD000F00DB11DAA1F649F6627B00DA11D661FA2
