:100000000C94B0010C94DD010C94DD010C94DD0125
:100010000C94DD010C94DD010C94DD010C94DD01E8
:100020000C94DD010C94DD010C94DD010C94DD01D8
:100030000C94DD010C943F240C94DD010C94DD0143
:100040000C94DD010C94DD010C94DD010C94DD01B8
:100050000C94DD010C94DD010C94DD010C949F41A6
:100060000C94DD010C9496360C94DE370C94DD0173
:100070000C94DD010C94DD010C94DD010C94DD0188
:100080000C94DD010C94DD010C94DD010C94DD0178
:100090000C94D6360C941D380C94DD010C94CD12C2
:1000A0000C94DD010C94DD010C94DD010C94DD0158
:1000B0000C94DD010C94DD010C94DD010C94DD0148
:1000C0000C94DD010C94DD010C94DD010C941637C9
:1000D0000C945C380C94DD010C9456370C949B38CE
:1000E0000C94DD013139322E3136382E31342E3137
:1000F0003537004F6B00436F6E74656E742D547905
:1001000070653A20746578742F68746D6C0048547B
:1001100054502F312E3120323030204F4B00005EB2
:10012000BCE2613FDD83C29C7E20A3FD1F419DC3D5
:10013000217FFCA2401E5F01E3BD3E6082DC237D87
:100140009FC1421CFEA0E1BF5D0380DE3C62BEE0B9
:10015000025CDF81633D7C22C09E1D43A1FF4618E7
:10016000FAA427799BC584DA3866E5BB5907DB8595
:100170006739BAE406581947A5FB7826C49A653B47
:10018000D987045AB8E6A7F91B45C6987A24F8A679
:10019000441A99C7257B3A6486D85B05E7B98CD2A7
:1001A000306EEDB3510F4E10F2AC2F7193CD114F55
:1001B000ADF3702ECC92D38D6F31B2EC0E50AFF107
:1001C000134DCE90722C6D33D18F0C52B0EE326C39
:1001D0008ED0530DEFB1F0AE4C1291CF2D73CA9467
:1001E0007628ABF517490856B4EA6937D58B570915
:1001F000EBB536688AD495CB2977F4AA4816E9B7C7
:10020000550B88D6346A2B7597C94A14F6A8742AF8
:10021000C896154BA9F7B6E80A54D7896B35000084
:100220002100240027002A002D00300033000101A6
:100230000000040107010A01000022002500280037
:100240002B002E00310034000201000005010801DE
:100250000B01000020002300260029002C002F00A5
:100260003200000100000301060109010505050532
:10027000070508080808020202020A0A080804041E
:10028000040401010101010101010303030303034C
:100290000303040707070C0C0C0C0C0C0C0C0202DB
:1002A000020206060606060606060B0B0B0B0B0BD8
:1002B0000B0B010210202008081020401020408065
:1002C000020102010804020101020408102040801A
:1002D00080402010080402018004020180402010A8
:1002E00008040201080402010102040810204080F1
:1002F00001020408102040800000090A02080B0CCB
:100300000D070603040100000000000000000000CB
:1003100000000000000000000000000000000000DD
:100320000000000011100F0000000000000000009D
:100330000000000000000000000000000000B70501
:100340004D069B09C60BEF0BC10CBA143E29A02920
:100350006D2CEA2DE22FBB310B3A4D3B4606BF0B0D
:1003600011241FBECFEFD1E2DEBFCDBF00E00CBF36
:1003700014E0A0E0B2E0E8E6FEE800E00BBF02C057
:1003800007900D92AC32B107D9F71BBE19E0ACE271
:10039000B4E001C01D92A93DB107E1F713E0CCE53F
:1003A000D3E004C02297FE010E94EC46CE33D10771
:1003B000C9F70E948D3F0C9427470C940000EF92E0
:1003C000FF920F93DF93CF93CDB7DEB760970FB651
:1003D000F894DEBF0FBECDBFA82F002309F461C083
:1003E0007E010894E11CF11C88E0F70111928A95C6
:1003F000E9F729833A834B835C836D837E83AF83E4
:10040000988780E2801BE82FFF27E7FDF0954D815C
:100410005E816F817885181684F01D861E861F8682
:10042000188A882799278E1B9F0B04C0769567959D
:10043000579547958A95D2F728C0202F332727FD57
:100440003095DB01CA01022E04C0B695A795979599
:1004500087950A94D2F78D879E87AF87B88B04C0A3
:10046000440F551F661F771FEA95D2F789819A813D
:10047000AB81BC8104C0B695A795979587952A95C1
:10048000D2F7482B592B6A2B7B2B49875A876B87CE
:100490007C8729853A854B855C856D857E85AF8512
:1004A00098898A2F60960FB6F894DEBF0FBECDBF35
:1004B000CF91DF910F91FF90EF900895EF92FF920F
:1004C0000F93DF93CF93CDB7DEB760970FB6F89455
:1004D000DEBF0FBECDBFA82F002309F461C07E018F
:1004E0000894E11CF11C88E0F70111928A95E9F764
:1004F00029833A834B835C836D837E83AF839887A4
:1005000080E2801BE82FFF27E7FDF09549815A81A3
:100510006B817C81181684F019861A861B861C86CE
:10052000882799278E1B9F0B04C0440F551F661FF9
:10053000771F8A95D2F728C0202F332727FD3095C3
:10054000DB01CA01022E04C0880F991FAA1FBB1F1E
:100550000A94D2F789879A87AB87BC8704C07695BF
:10056000679557954795EA95D2F78D819E81AF8122
:10057000B88504C0880F991FAA1FBB1F2A95D2F700
:10058000482B592B6A2B7B2B4D875E876F87788B87
:1005900029853A854B855C856D857E85AF859889F3
:1005A0008A2F60960FB6F894DEBF0FBECDBFCF91F5
:1005B000DF910F91FF90EF900895FB01DC0102C0E5
:1005C00001900D9241505040D8F70895FB01DC0195
:1005D00001900D920020E1F70895FB01DC014150EC
:1005E000504048F001900D920020C9F701C01D92C3
:1005F00041505040E0F70895FB0151915523A9F077
:10060000BF01DC014D9145174111E1F759F4CD01CE
:100610000190002049F04D9140154111C9F3FB01B3
:100620004111EFCF81E090E001970895AEE0B0E096
:10063000ECE1F3E00C94FE460E891F8986E08C8382
:100640001A8309838FEF9FE79E838D839E01265E29
:100650003F4FCE010196688D798DA9010E943A0322
:100660002F813885020F131FF80110822E96E4E0C7
:100670000C941A47ABE0B0E0E0E4F3E00C94F046F1
:100680003C012B015A01FC0117821682838181FDF6
:1006900003C06FEF7FEFC6C19AE0892E1E01089458
:1006A000211C311CF3012381F20123FD859123FFDD
:1006B00081912F01882309F4B2C1853239F423FDD9
:1006C000859123FF81912F01853229F490E0B301B8
:1006D0000E942D05E7CF982FFF24EE249924FFE1F7
:1006E000FF15D0F09B3269F09C3228F4903259F01B
:1006F000933291F40EC09D3249F0903369F441E099
:1007000024C052E0F52A84E0F82A28C098E0F92AAB
:1007100025C0E0E1FE2A22C0F7FC29C0892F8053C2
:100720008A3070F4F6FE05C0989C902C1124980E27
:1007300015C0E89CE02C1124E80EF0E2FF2A0EC060
:100740009E3229F4F6FC6BC140E4F42A07C09C36C3
:1007500019F450E8F52A02C0983649F4F20123FD55
:10076000959123FF91912F01992309F0B8CF892FFB
:100770008554833018F08052833038F444E050E0E0
:10078000A40EB51E5FE359830FC0933631F0933743
:1007900079F0933509F056C020C0F5018081898336
:1007A00042E050E0A40EB51E610101E010E012C06D
:1007B000F501C080D180F6FC03C06FEF7FEF02C06F
:1007C000692D70E042E050E0A40EB51EC6010E9403
:1007D00022058C015FE7F52214C0F501C080D180AD
:1007E000F6FC03C06FEF7FEF02C0692D70E042E0BE
:1007F00050E0A40EB51EC6010E9417058C0150E8FA
:10080000F52AF3FE07C01AC080E290E0B3010E940F
:100810002D05EA948E2D90E008171907A8F30EC055
:10082000F601F7FC8591F7FE81916F0190E0B3012D
:100830000E942D05E110EA940150104001151105A8
:1008400079F7EAC0943611F0993669F5F7FE08C0D9
:10085000F501208131814281538184E090E00AC01A
:10086000F501808191819C01442737FD4095542FEB
:1008700082E090E0A80EB91E9FE6F92257FF09C05A
:1008800050954095309521953F4F4F4F5F4FE0E891
:10089000FE2ACA01B901A1012AE030E00E945905EF
:1008A000D82ED21840C0953729F41F2D1F7E2AE07C
:1008B00030E01DC01F2D197F9F3661F0903720F466
:1008C000983509F0ACC00FC0903739F0983709F06F
:1008D000A6C004C028E030E00AC0106114FD146016
:1008E00020E130E004C014FD166020E132E017FF83
:1008F00008C0F501608171818281938144E050E0FC
:1009000008C0F50180819181BC0180E090E042E067
:1009100050E0A40EB51EA1010E945905D82ED21890
:100920008FE7F82EF122F6FE0BC05EEFF522D91408
:1009300038F4F4FE07C0F2FC05C08FEEF82202C0C6
:100940001D2D01C0192DF4FE0DC0FE01ED0DF11D90
:100950008081803319F499EEF92208C01F5FF2FEFE
:1009600005C003C08F2D867809F01F5F0F2DF3FCA3
:1009700014C0F0FE0FC01E1510F09D2C0BC09D2C56
:100980009E0C911A1E2D06C080E290E0B3010E94D9
:100990002D051F5F1E15C0F304C01E1510F4E11ACB
:1009A00001C0EE2404FF0FC080E390E0B3010E9479
:1009B0002D0502FF1DC001FD03C088E790E00EC0B9
:1009C00088E590E00BC0802F867891F001FF02C08F
:1009D0008BE201C080E2F7FC8DE290E0B3010E945F
:1009E0002D0506C080E390E0B3010E942D059A9486
:1009F000D914C0F3DA94F101ED0DF11D808190E07E
:100A0000B3010E942D05DD20A9F706C080E290E029
:100A1000B3010E942D05EA94EE20C1F743CEF30105
:100A200066817781CB012B96E2E10C940C47FC01A7
:100A30000590615070400110D8F7809590958E0F09
:100A40009F1F0895FC016150704001900110D8F77C
:100A5000809590958E0F9F1F08950F931F93CF93AE
:100A6000DF938C01EB018B8181FF1BC082FF0DC0E6
:100A70002E813F818C819D812817390764F4E8819C
:100A8000F9810193F983E88306C0E885F985802F11
:100A90001995892B31F48E819F8101969F838E83D6
:100AA00002C00FEF1FEFC801DF91CF911F910F918F
:100AB0000895FA01AA27283051F1203181F1E894F4
:100AC0006F936E7F6E5F7F4F8F4F9F4FAF4FB1E041
:100AD0003ED0B4E03CD0670F781F891F9A1FA11D3C
:100AE000680F791F8A1F911DA11D6A0F711D811D3D
:100AF000911DA11D20D009F468943F912AE0269F02
:100B000011243019305D3193DEF6CF010895462F60
:100B10004770405D4193B3E00FD0C9F7F6CF462F41
:100B20004F70405D4A3318F0495D31FD40524193AA
:100B300002D0A9F7EACFB4E0A69597958795779567
:100B40006795BA95C9F700976105710508959B01EE
:100B5000AC010A2E06945795479537952795BA9577
:100B6000C9F7620F731F841F951FA01D08950F936F
:100B70008CE294E060E040E020E000E00E94413B35
:100B80000F910895CF93DF930E94100CC2EED4E032
:100B90006991799180E499E00E94AB0F84E0C03FB5
:100BA000D807B1F780E499E060E072E00E94303E3F
:100BB0000E94A2090E94E20B0E94160964E670E0FE
:100BC00080E090E00E948742DF91CF91089580E419
:100BD00099E040E051EE60E070E00E94DA380E9457
:100BE0001F0C0E94E70B0E94630A0E94C90C0E941E
:100BF0004E0908950F9381309105E9F56F5F7F4F9E
:100C000009F042C080E594E060E040E020E000E0D0
:100C10000E94413B86E594E060EC48EA2EE008EC57
:100C20000E94413B8CE594E060EC48EA2EE001E054
:100C30000E94413B82E694E068E048E028E008E05A
:100C40000E94413B88E694E060EC48EA2EE00DE922
:100C50000E94413B86E394E00E94902D83E494E05F
:100C600060E570E00E94C02F89E494E06DE072E0DE
:100C70000E94543F09C0892B39F46F5F7F4F21F4E4
:100C800089E494E00E94873F0F91089580E090E00E
:100C90006FEF7FEF0E94FA05089581E090E06FEF1B
:100CA0007FEF0E94FA0508956F927F928F929F9234
:100CB000AF92BF92CF92DF92EF92FF920F931F936A
:100CC000DF93CF93CDB7DEB7A9970FB6F894DEBF09
:100CD0000FBECDBF8E01035E1F4FC80163E474E0F9
:100CE0000E94AE30C8010E94E22D882309F0B6C0F0
:100CF000CFC0C7010E94AE2E892B09F4C3C0C70123
:100D00000E94922E182F80914D0490914E048436AB
:100D1000910528F489E494E0612F0E940D3F1A3078
:100D200009F0B0C080E499E069E474E00E94433EB9
:100D3000C7016EE071E00E942A3CC70166EF70E0D7
:100D40000E942A3CC7010E940A3CC70163EF70E081
:100D50000E942A3C61E070E080E090E00E948742BF
:100D6000C7010E94262EC3016EE072E00E94543F2C
:100D700089E494E0B3010E94A53E8C01C3010E9466
:100D8000873F101611065CF4E091F004F091F10435
:100D9000A081B1812D913C91CF01F9011995C40138
:100DA00063E172E00E94543F89E494E0B4010E9440
:100DB000A53E8C01C4010E94873F101611065CF409
:100DC000E091F204F091F304A081B1812D913C9166
:100DD000CF01F9011995C50168E172E00E94543F05
:100DE00089E494E0B5010E94A53E8C01C5010E94F2
:100DF000873F101611066CF4E091F004F091F104B5
:100E0000A081B18112962D913C911397CF01F901E8
:100E10001995C6016DE172E00E94543F89E494E0A7
:100E2000B6010E94A53E8C01C6010E94873F1016A4
:100E300011066CF4E091F204F091F304A081B18109
:100E400012962D913C911397CF01F901199589E4E0
:100E500094E06DE072E00E946E3F14C078013E01A4
:100E60000894611C711C28E0822E912C8C0E9D1E12
:100E70009FE0A92EB12CAC0EBD1E86E1C82ED12C50
:100E8000CC0EDD1EC7010E94022E882309F031CF4F
:100E9000A9960FB6F894DEBF0FBECDBFCF91DF91FC
:100EA0001F910F91FF90EF90DF90CF90BF90AF9088
:100EB0009F908F907F906F9008952F923F924F92C6
:100EC0005F926F927F928F929F92AF92BF92CF92DA
:100ED000DF92EF92FF920F931F93CF93DF931B014B
:100EE0005C01EA016624772411E044245524E3C020
:100EF000D501ED91FC91E82CA081B18116962D9140
:100F00003C911797CF01682DF9011995029709F0C7
:100F1000BEC0F50180819181682D0E941D0FBC012A
:100F200080EA94E043E050E00E94ED0280E499E022
:100F300060EA74E00E94303E112331F4CE0162E297
:100F400072E00E94E602219600D000D0EDB7FEB715
:100F50003196ADB7BEB71296DC93CE93119724E2CB
:100F600032E03383228380EA94E0958384830E9475
:100F70001603C80FD91FF501A081B1812DB73EB767
:100F80002A5F3F4F0FB6F8943EBF0FBE2DBFED91C5
:100F9000FC9111970084F185E02DCD016E2D1995FE
:100FA000009739F1019709F06EC0D5018D919C91A0
:100FB0006E2D0E94FB0E00D000D0EDB7FEB731962B
:100FC000ADB7BEB71296DC93CE93119728E232E00C
:100FD00033832283958384830E941603C80FD91F0D
:100FE0008DB79EB706960FB6F8949EBF0FBE8DBF05
:100FF0004AC0D5018D919C916E2D0E94E80E20E093
:1010000030E048EC52E40E9400460E9419457B0102
:101010008C01EDB7FEB738970FB6F894FEBF0FBE40
:10102000EDBFCDB6DEB60894C11CD11CD283C183FE
:10103000EBE2F2E0D6011396FC93EE931297C8010F
:1010400024E630E040E050E00E94BB46D601159611
:101050003C932E931497B701C80124E630E040E09A
:1010600050E00E94BB46F601778366830E94160318
:10107000C80FD91F2DB73EB7285F3F4F0FB6F89462
:101080003EBF0FBE2DBF0894611C711C10E0089478
:10109000811C911CD5018D919C910E941A0F90E0AA
:1010A000881699060CF424CF0894411C511CE2E0E8
:1010B000F0E0AE0EBF1E421453041CF488249924A1
:1010C000E9CFC301DF91CF911F910F91FF90EF9076
:1010D000DF90CF90BF90AF909F908F907F906F9058
:1010E0005F904F903F902F900895DF93CF9300D063
:1010F00000D0CDB7DEB78FE380936E0482EE94E02C
:1011000067E070E04FE654E00E945D07181619068C
:101110000CF083C08AE294E09A83898380916A0408
:1011200090916B04A0916C04B0916D048B839C83AF
:10113000AD83BE8386E394E0BE016F5F7F4F40E5E1
:1011400050E00E94DA2E892BE9F080E499E063E315
:1011500072E00E94303E86E394E061E472E00E9417
:10116000463D86E394E06EE674E00E94463D86E3E9
:1011700094E06FE472E00E94303E86E394E00E94C7
:101180000A3C10C080E499E069E572E00E94303EBC
:1011900080E499E06BE672E00E94303E86E394E0E2
:1011A0000E94262E86E394E00E94022E882361F09E
:1011B00086E394E00E94AE2E892B31F461E070E06A
:1011C00080E090E00E94874286E394E00E94022E35
:1011D000882331F486E394E00E94AE2E892B29F017
:1011E00086E394E00E94922EEFCF80E499E00E9483
:1011F0000A3C80E499E06BE672E00E94303E80E4B5
:1012000099E06AE772E00E94303E80E499E00E9433
:101210000A3C86E394E00E94262E26960FB6F894A8
:10122000DEBF0FBECDBFCF91DF910895EF92FF9249
:101230000F931F93E0903204F09033040091340434
:10124000109135040E94E741E61AF70A080B190BC2
:1012500081E1E81687E2F80680E0080780E01807D9
:10126000B0F08091320490913304A0913404B09195
:101270003504805F984DAF4FBF4F809332049093F9
:101280003304A0933404B09335040E9475080E947F
:1012900054061F910F91FF90EF900895DF93CF9325
:1012A000CDB7DEB72C970FB6F894DEBF0FBECDBF1B
:1012B0000E94E741609332047093330480933404B6
:1012C0009093350468EE73E080E090E00E948742DE
:1012D0002AE234E03A83298380915804909159049A
:1012E000A0915A04B0915B048B839C83AD83BE8331
:1012F00038872F838091640490916504A0916604DF
:10130000B091670489879A87AB87BC878FEF96E097
:1013100064ED72E0AE014F5F5F4F9E01295F3F4F6A
:101320000E94442D2C960FB6F894DEBF0FBECDBFA1
:10133000CF91DF91089584EA94E06CE270E00E941E
:10134000AA1C089584EA94E065EA74E00E94CA2326
:10135000892B09F4B7C04091A9045091AA04609167
:10136000AB047091AC0480E499E020E130E00E948D
:10137000CD3C8091A9049091AA04A091AB04B091B6
:10138000AC048D3D22E292072FEFA20720E0B207C6
:1013900009F48FC08E3D22E292072FEFA20720E0D2
:1013A000B207C0F48F3E20E192072FEFA20720E0A2
:1013B000B20709F43DC0873E28E192072FEFA2074C
:1013C00020E0B20779F18D5F9240AF4FB04009F055
:1013D00075C072C085382AE792072FEFA20720E078
:1013E000B20721F186382AE792072FEFA20720E003
:1013F000B20738F48F5C9043AF4FB04009F05EC045
:101400000FC0873528EA92072FEFA20720E0B20726
:1014100089F18F51904EAF4FB04009F04FC00AC0D4
:1014200080E001C081E00E94DC0B48C082E0FBCF7D
:1014300083E0F9CF0E94CD0B813069F4E091F00494
:10144000F091F104A081B18112962D913C911397F6
:10145000CF01F90119950E94CD0B823079F5E09109
:10146000F204F091F304A081B18112962D913C9188
:1014700013971BC00E94CD0B813059F4E091F0040A
:10148000F091F104A081B1812D913C91CF01F9013E
:1014900019950E94CD0B823089F4E091F204F0910D
:1014A000F304A081B1812D913C91CF01F9011995EF
:1014B00005C00E94D20B02C00E94D70B84EA94E0C0
:1014C0000E94AF1C089584EA94E00E94E5240895E8
:1014D00082E00895FC018AEF92E091838083CF013E
:1014E0000E94B23508950F931F938C018AEF92E00A
:1014F000F80191838083C8010E94B235C8010E941F
:1015000096411F910F910895FC01828993896DE89E
:1015100072E00E94463D0895FC018289938968E04B
:1015200041E00E94681A0895FC018289938960E075
:1015300041E00E94681A0895FC018289938968E05D
:1015400040E00E94681A0895FC018289938960E056
:1015500040E00E94681A08951F93CF93DF93EC0137
:10156000142F613009F442C0613038F0623009F460
:1015700067C0633009F0ACC098C00E94A40AEC892F
:10158000FD89608171818A899B8940E00E942A0FD0
:10159000CE010E94840ACE010E949C0AEC89FD893A
:1015A000608171818A899B8941E00E942A0FCE0166
:1015B0000E94840ACE010E94940AEC89FD8962810E
:1015C00073818A899B8940E00E942A0FCE010E9484
:1015D000840ACE010E948C0AEC89FD8962817381A4
:1015E0008A899B8941E00E942A0F6FC00E94A40A49
:1015F000EC89FD89648175818A899B8940E00E941C
:101600002A0FCE010E94840ACE010E949C0AEC8916
:10161000FD89668177818A899B8940E00E942A0F33
:10162000CE010E94840ACE010E94940AEC89FD89B1
:10163000608571858A899B8940E00E942A0F2EC0AF
:101640000E94A40AEC89FD89628573858A899B8939
:1016500040E00E942A0F113029F48A899B896AE2AE
:101660000E94023CCE010E94840ACE010E949C0A84
:10167000EC89FD89648575858A899B8940E00E9493
:101680002A0F123029F48A899B896AE20E94023C5F
:10169000CE010E94840ACE010E94940ACE010E94CB
:1016A000840ACE010E948C0A10C00E94A40A8A8972
:1016B0009B890E94250DCE010E94840ACE010E94C2
:1016C000940A8A899B890E946F0DCE010E94840A28
:1016D000DF91CF911F910895EF92FF920F931F9387
:1016E0008C017A0144E022E00E9411368AEF92E0F8
:1016F000F80191838083F58AE48A1F910F91FF900E
:10170000EF9008958F92AF92CF92EF920F93813026
:10171000910531F56F5F7F4F61F500D083E0EDB744
:10172000FEB781831382128283EB94E067E242E08A
:1017300021E000E0E4E0EE2E75E0C72E56E0A52E95
:1017400037E0832E0E94DD1B0F900F900F908CECE2
:1017500094E063EB74E042EE54E00E946C0B09C02D
:10176000892B39F46F5F7F4F21F48CEC94E00E9459
:101770006A0A0F91EF90CF90AF908F90089580E01C
:1017800090E06FEF7FEF0E94820B089581E090E080
:101790006FEF7FEF0E94820B08958CEC94E00E9423
:1017A000C03508958CEC94E00E94F03508958CECDF
:1017B00094E00E9402360895682F8CEC94E00E9419
:1017C000C33508958CEC94E00E942936089583EB8C
:1017D00094E060E142E020E00E94C61B0895809101
:1017E000DA029091DB029093FF048093FE048091D3
:1017F000DC029091DD0290930105809300058091B9
:10180000DE029091DF0290930305809302058091A0
:10181000E0029091E10290930505809304050895FC
:10182000CF93DF93C2EED4E0899199910E94EF0F9C
:1018300084E0C03FD807C1F7DF91CF910895EF92C0
:10184000FF920F931F9383E190E00E949C41182F19
:10185000092F6AE170E04EEF54E00E94D10D82EE54
:10186000E82E84E0F82E1093E2040093E30483E171
:1018700090E00E949C41182F092F6CE170E042E03B
:1018800055E00E94D10D1093E404F701038387E132
:1018900090E00E949C41182F092F2091E202309184
:1018A000E30268E142E053E00E94A60E1093E604D2
:1018B000F701058387E190E00E949C41182F092FD2
:1018C0002091E4023091E50268E14AE053E00E9491
:1018D000A60E1093E804F701078387E190E00E94C9
:1018E0009C41182F092F2091E6023091E70268E110
:1018F00042E153E00E94A60E1093EA04F70101872B
:1019000089E190E00E949C418C012091E802309195
:10191000E9026EE140E050E00E9401111093F104F1
:101920000093F0040115110519F480E090E002C065
:10193000C80106969093ED048093EC0489E190E051
:101940000E949C418C012091EA023091EB0260E2FE
:101950004AE050E00E9401111093F3040093F20456
:101960000115110519F480E090E002C0C801069647
:101970009093EF048093EE041F910F91FF90EF90EE
:10198000089586E095E064E245E226E20E94A333F2
:1019900008958EEC9CE00E940D180895EF92FF923E
:1019A0000F931F93DF93CF93CDB7DEB767970FB633
:1019B000F894DEBF0FBECDBF8E01085F1F4FC80178
:1019C0000E94953378018E01005F1F4F86E095E0FD
:1019D0000E942C34288B398B4A8B5B8B6C8B7D8BD4
:1019E0008E8B9F8BD701F80188E001900D9281507A
:1019F000E1F764E670E080E090E00E9487422D8588
:101A00003E8587E02D3D380708F38B858D838885DB
:101A10008B8389858A838C858E838A8589838F854C
:101A20008C83822F825B8F83CE0101960E94961653
:101A300067960FB6F894DEBF0FBECDBFCF91DF9192
:101A40001F910F91FF90EF900895EF92FF920F93E7
:101A50001F938C010E943118BC01C8014AE050E07C
:101A60000E94333D87EBE82E82E0F82EC801B701D3
:101A70000E94463D0E942918BC01C8014AE050E07E
:101A80000E94333DC801B7010E94463D0E942418C0
:101A9000BC01C8014AE050E00E94333D1F910F9104
:101AA000FF90EF9008950F931F93CF93DF93EC0176
:101AB0008B0169EB72E00E94463D0A30110524F467
:101AC000CE0160E30E94023CCE01B8014AE050E042
:101AD0000E94333DDF91CF911F910F9108950F9395
:101AE0001F938C010E944918BC01C8014AE050E0D4
:101AF0000E94333D0E944118BC01C8010E94530D51
:101B00000E943918BC01C8010E94530D1F910F910A
:101B1000089581E090E00895CF93DF93EC01698907
:101B20007A8981E195E00E94E534ED85FE85892B77
:101B3000A9F482E090E09183808393838283EF8590
:101B4000F889809113059091140591838083809189
:101B50001105909112059583848306C081E090E081
:101B60009183808393838283DF91CF910895FC01D9
:101B70008EE193E091838083CF010E94DC0E089573
:101B80000F931F938C018EE193E0F8019183808382
:101B9000C8010E94DC0EC8010E9496411F910F915E
:101BA0000895CF92DF92EF92FF920F931F937C01E3
:101BB0006B0162E008E813E120E030E00E940910C8
:101BC0008EE193E0F70191838083D28AC18A1F91CD
:101BD0000F91FF90EF90DF90CF900895FC018CE281
:101BE00093E091838083CF010E94DC0E08950F93D0
:101BF0001F938C018CE293E0F80191838083C801EC
:101C00000E94DC0EC8010E9496411F910F91089519
:101C1000EF92FF920F931F93CF93DF937C01DC0130
:101C200051968C910E9455108C010E945F19F7010A
:101C300063897489C8010E943E19C80164E441E0C7
:101C40000E94FE1862E370E080E090E00E9487420C
:101C5000C8010E945F1980931505D70153966D91B5
:101C60007C915497C8010E943E19C8016EEB40E078
:101C70000E94FE18C6E1D5E0C8010E94AD18899304
:101C8000B5E0CF31DB07C1F7CE01099768E00E94CC
:101C9000681890911E05D7011D96ED91FC911E9735
:101CA000891729F081E090E09183808348C082E029
:101CB00090E0918380839091170580E02091160534
:101CC000422F50E0482B592BF7018289882399F045
:101CD00083E0440F551F8A95E1F780911D058031FF
:101CE000B9F420911C058CE090E0821B9109407FA3
:101CF000480F591F0DC080911A05807611F4487F56
:101D000007C0803211F44C7F03C0803409F44E7F49
:101D1000D7011F960D911C915097BA01882777FD26
:101D20008095982F0E944C4520E030E040E85DE32C
:101D30000E940046F8016083718382839383DF9160
:101D4000CF911F910F91FF90EF900895BF92CF9286
:101D5000DF92EF92FF920F931F93CF93DF93EC01EB
:101D6000B62E7A016901AC014B5E5F4F61E008E875
:101D700013E120E030E00E9409108CE293E09983A7
:101D80008883B98AFC8AEB8ADE8ACD8AF701808152
:101D9000823239F0883229F0803121F481E08A8B57
:101DA00001C01A8ADF91CF911F910F91FF90EF90A0
:101DB000DF90CF90BF900895FC018AE393E0918378
:101DC00080830895FC018AE393E0918380830895E2
:101DD00070E0660F771F660F771FDC011F96ED918D
:101DE000FC915097E60FF71F20813181428153818A
:101DF000B901CA01089570E0660F771F660F771F5B
:101E0000DC011F96ED91FC915097E60FF71F808142
:101E10009181089570E0660F771FDC011D96ED91AA
:101E2000FC911E97E60FF71F80819181089580E055
:101E300090E00895FC018281089570E0660F771F9D
:101E4000DC011396ED91FC911497E60FF71F80814A
:101E500091810895DF92EF92FF920F931F93CF939A
:101E6000DF937C01EB01D42E042F10E0C801880F12
:101E7000991FEB81FC81E80FF91F60817181C70117
:101E80000E94463DC7016DEB72E00E94463DE8812D
:101E9000F9810680F781E02DCE016D2D19958130F5
:101EA000910509F440C08230910519F0892BB9F1F0
:101EB0003FC0E881F9810084F185E02DCE016D2DD0
:101EC0001995892B91F4C801880F991F880F991FC4
:101ED000EF85F889E80FF91F408151816281738194
:101EE000C70121E030E00E942D3EE881F9810084A5
:101EF000F185E02DCE016D2D19950197C9F4000FE4
:101F0000111F000F111FEF85F889E00FF11F60818D
:101F10007181C7014AE050E00E94333D09C0C7010A
:101F20006FEB72E003C0C70161EC72E00E94463DB6
:101F3000DF91CF911F910F91FF90EF90DF90089567
:101F40000F931F938C010E942A0FC8010E940A3C24
:101F50001F910F910895EF92FF921F93CF93DF93FC
:101F60007C01EB0110E006C0C701BE01412F0E94B9
:101F7000A00F1F5F8A811817B8F3DF91CF911F91CF
:101F8000FF90EF900895EF92FF920F931F93CF93DE
:101F9000DF93EC010E94E7417B018C0189859A85E2
:101FA000AB85BC85A8019701281B390B4A0B5B0B3D
:101FB0008D819E81AF81B885281739074A075B0755
:101FC00010F480E005C0E986FA860B871C8781E063
:101FD000DF91CF911F910F91FF90EF900895CF93D4
:101FE000DF93EC010E94C30F882339F0E881F98167
:101FF0000190F081E02DCE011995DF91CF910895E8
:10200000FC018AE393E091838083CF010E94964193
:102010000895BF92CF92DF92EF92FF920F931F939A
:10202000CF93DF93EC01B62E680179018AE393E048
:10203000998388836A835C834B83062F10E0C801F1
:10204000880F991F880F991F0E949941988B8F873D
:10205000C801880F991F0E9499419E878D87CD8264
:10206000DE82EF82F8860E94E741685E734080401E
:10207000904069877A878B879C8720E080E090E09A
:1020800008C0ED85FE85E80FF91F118210822F5FD1
:1020900002962B15B0F3DF91CF911F910F91FF9016
:1020A000EF90DF90CF90BF900895FF920F931F9312
:1020B000CF93DF93F82EC0912205D091230594E0B1
:1020C00020E030E009C0F901E45DFA4F80818F150E
:1020D00009F4922F2F5F3F4F2C173D07A4F3943044
:1020E00061F5C430D1051CF0E0E0F0E02FC08EE0D7
:1020F00090E00E949C41182F092F6F2D0E94AA1971
:10210000FE01EE0FFF1FEC5DFA4F108301838091FB
:10211000220590912305FC01E45DFA4FF082FC0159
:10212000EE0FFF1FEC5DFA4F0190F081E02D01965C
:10213000909323058093220509C0E92FF0E0EE0F6C
:10214000FF1FEC5DFA4F0190F081E02DCF01DF9190
:10215000CF911F910F91FF90089506970E94B110A3
:10216000089582E090E0089506970E94B8100895BF
:1021700081E090E0089506970E94BF1008950F93A4
:102180001F938C0188E493E0F80191838083429649
:1021900097838683C80106960E94DC0EC8010E94C0
:1021A00034111F910F91089506970E94D810089539
:1021B0000F931F938C0188E493E0F801918380834F
:1021C000429697838683C80106960E94DC0EC8015A
:1021D0000E943411C8010E9496411F910F910895E9
:1021E00006970E94F41008950F931F93FC01058930
:1021F00016890E94E111F801808311821F910F91CD
:102200000895CF92DF92EF92FF920F931F937C017C
:10221000E62F6901BA014E2F0E94B811A701495E4D
:102220005F4FC701069661E001E010E020E030E07A
:102230000E94091088E493E0F7019183808342961D
:1022400097838683D08EC78A1F910F91FF90EF905E
:10225000DF90CF900895FC0188E693E0918380831E
:10226000CF010E94E4110895FC0188E693E0918378
:102270008083CF010E94E41108950F931F938C0176
:1022800088E693E0F80191838083C8010E94E411FD
:10229000C8010E9496411F910F910895462FFC019D
:1022A000648175816F5F7F4F8FE197E00E94893372
:1022B00008950F931F938C010E94F911C80160E0EB
:1022C0000E944E111F910F9108950F931F938C013F
:1022D0000E940012C80161E00E944E111F910F91EF
:1022E0000895EF92FF920F931F938C018FE1E82ED8
:1022F00087E0F82EF80164817581C70145E50E94E9
:102300008933F801648175816E5F7F4FC7014AEAA6
:102310000E9489331F910F91FF90EF900895FC0167
:10232000648175816F5F7F4F8FE197E00E948233F8
:10233000811181E00895CF93DF93EC016C817D8161
:102340008FE197E00E948233853511F090E00CC058
:102350006C817D816E5F7F4F8FE197E00E948233B9
:1023600090E08A3A09F491E0892FDF91CF910895A6
:102370000F931F93CF93DF93EC018B01642F40E009
:102380000E94081288E693E0998388831D830C835A
:10239000CE010E949B11882349F0CE010E948F112B
:1023A000882339F0CE010E94651106C0CE010E943B
:1023B0007111CE010E945911DF91CF911F910F91A0
:1023C0000895FC0182810895FC0184E793E09183E4
:1023D00080830895FC0184E793E0918380830895CE
:1023E000FC0184E793E091838083CF010E949641B2
:1023F0000895FC011282838161E00E94A243089546
:10240000FC0181E08283838160E00E94A243089501
:10241000FC01862F24E733E03183208342836383EA
:1024200061E00E94EF420895382F413210F040E001
:1024300042C0809130058823E1F791E09093300508
:10244000209332058FEF80939D05109258054150DF
:10245000409359054F5F9093310580913105330FBB
:10246000832B8093310580913305813041F41092A4
:102470003305809131058093BB0085EC01C085EE6A
:102480008093BC00809130058130E1F38091580544
:10249000841710F44091580520E030E00AC0FB0199
:1024A000E20FF31FD901A85CBA4F8C9180832F5F94
:1024B0003F4F2417A0F3842F08950F931F93582F95
:1024C000122F413210F081E04AC0809130058823FC
:1024D000E1F782E080933005009332058FEF80931F
:1024E0009D051092580540935905A8E3B5E0FB01FE
:1024F00002C081918D938E2F861B8417D0F310928A
:10250000310580913105550F852B809331058091E0
:102510003305813041F41092330580913105809369
:10252000BB0085EC01C085EE8093BC00112321F037
:10253000809130058230E1F380919D058F3F11F449
:1025400080E00DC080919D05803211F482E007C0CB
:1025500080919D05803311F084E001C083E01F91DC
:102560000F910895482F613210F081E00895809115
:102570003005843011F082E0089560937B05AAE570
:10258000B5E0842F9C01F90102C081918D938E2FBB
:10259000841B8617D0F380E008951F920F920FB628
:1025A0000F920BB60F9211242F933F934F935F938B
:1025B0006F937F938F939F93AF93BF93EF93FF930B
:1025C0008091B90090E0887F90708036910509F481
:1025D000F2C081369105CCF58832910509F47BC0B3
:1025E00089329105B4F48031910509F46FC08131CD
:1025F00091053CF4009709F447C1089709F04FC1D1
:1026000065C08831910509F466C0809709F047C11B
:1026100082C08034910509F4A4C08134910544F44A
:102620008033910509F482C0C89709F038C189C088
:102630008035910509F489C08835910509F496C063
:102640008834910509F02BC1AEC08839910509F491
:1026500013C189399105ECF48837910509F4ABC0B1
:10266000893791054CF48836910509F4A4C0803768
:10267000910509F014C19FC08838910509F4FCC088
:102680008039910509F49DC08038910509F007C192
:1026900098C0803B910509F4C6C0813B91054CF47C
:1026A000803A910509F49FC0883A910509F0F7C076
:1026B000BAC0803C910509F4E3C0883C910509F457
:1026C000DFC0883B910509F0EAC0C2C080913105A6
:1026D0008093BB00CFC09091580580915905981701
:1026E00068F490915805E92FF0E0E85CFA4F80819A
:1026F0008093BB009F5F90935805BCC080913205CA
:10270000882309F44BC085ED8093BC008091BC0008
:1027100084FDFCCFC2C080E280939D0585ED80934F
:10272000BC008091BC0084FDFCCFB7C080E38093E7
:102730009D0585ED8093BC008091BC0084FDFCCF9D
:10274000ACC088E380939D059BC080915805909113
:10275000BB00E82FF0E0E85CFA4F90838F5F809336
:102760005805909158058091590582C0809158056F
:102770009091BB00E82FF0E0E85CFA4F90838F5F08
:102780008093580580913205882341F085ED809330
:10279000BC008091BC0084FDFCCF7FC081E08093B1
:1027A000330584EA6EC085ED8093BC008091BC0047
:1027B00084FDFCCF72C083E08093300510929C05AD
:1027C00059C080919C05803208F056C080919C05CC
:1027D0009091BB00E82FF0E0E458FA4F90838F5FB0
:1027E00080939C0547C080919C05803230F4E09135
:1027F0009C05F0E0E458FA4F108285ED8093BC0010
:102800008091BC0084FDFCCF1092300560919C0546
:10281000E0913605F09137058CE795E070E0199569
:1028200010929C052DC084E08093300510927A05AB
:1028300010927B05E0913405F09135051995809152
:102840007B05882329F481E080937B0510925A054B
:1028500090917A05E92FF0E0E65AFA4F8081809353
:10286000BB009F5F90937A0590917A0580917B05DC
:10287000981710F485EC01C085E88093BC000FC068
:1028800085EC8093BC0009C010929D0585ED809376
:10289000BC008091BC0084FDFCCF10923005FF91FC
:1028A000EF91BF91AF919F918F917F916F915F91C8
:1028B0004F913F912F910F900BBE0F900FBE0F9035
:1028C0001F9018951092300581E080933205109288
:1028D000330584E161E00E94A24385E161E00E944A
:1028E000A243E9EBF0E080818E7F808380818D7F41
:1028F000808388E48093B80085E48093BC000895C9
:1029000081E08093E3056093C0051092E105109289
:10291000E20508952091BF0530E08091BE05281B97
:102920003109C90108954091BE058091BF0548173E
:1029300018F02FEF3FEF0AC0E42FF0E0E256FA4F15
:102940008081282F30E04F5F4093BE05C901089574
:10295000E091BE058091BF05E81718F0EFEFFFEF9B
:1029600006C0F0E0E256FA4F8081E82FF0E0CF0198
:10297000089508951092E7051092E60588EE93E019
:10298000A0E0B0E08093E8059093E905A093EA0504
:10299000B093EB0580E893E09093E5058093E40520
:1029A0000895CF92DF92EF92FF920F931F93CF93F0
:1029B000DF937C016B018A018091E3058823A1F0FC
:1029C000C0E0D0E00DC0D701ED91FC91D601AC0F75
:1029D000BD1F0190F081E02DC7016C9119952196E2
:1029E000C017D10780F304C0CB01642F0E94B2123C
:1029F000C801DF91CF911F910F91FF90EF90DF9071
:102A0000CF900895DF93CF930F92CDB7DEB7FC013F
:102A100069838091E3058823C9F08091E2058032C3
:102A200038F081E090E09383828320E030E015C0AD
:102A30008091E105E82FF0E0EF53FA4F9981908300
:102A40008F5F8093E1058093E20505C0CE0101967A
:102A500061E00E94B21221E030E0C9010F90CF91F5
:102A6000DF9108950F93062F8091C00561EC75E00A
:102A70004091E20521E00E945D121092E105109262
:102A8000E2051092E3050F91089561E00E9432156E
:102A90000895413208F040E2862F6EE975E00E9409
:102AA00014121092BE058093BF05089521E00E9484
:102AB000491508951092BE051092BF051092E105C8
:102AC0001092E2050E94621408958F929F92AF9235
:102AD000BF92CF92DF92EF92FF920F931F93CF930B
:102AE000DF937B018C01EA012CE330E040E050E011
:102AF0000E9499466883C801B7012CE330E040E0AA
:102B000050E00E949946122F032FF42EE52E622FDB
:102B1000732F842F952F2CE330E040E050E00E948B
:102B200099466983612F702F8F2D9E2D2CE330E005
:102B300040E050E00E949946122F032FF42EE52E1C
:102B4000622F732F842F952F28E130E040E050E072
:102B50000E9499466A83612F702F8F2D9E2D28E148
:102B600030E040E050E00E94994679018A01C801B6
:102B7000B7016C5F7F4F8F4F9F4F27E030E040E001
:102B800050E00E9499466F5F6B8320E0AA24BB242B
:102B9000650101C02F5F822E9924F401EE54F84F95
:102BA000CF0183709070892B99F4CF0164E670E0B7
:102BB0000E948646892B39F4CF0160E971E00E94BA
:102BC0008646892B29F48EE691E0A0E0B0E004C0AF
:102BD0008DE691E0A0E0B0E0A80EB91ECA1EDB1E93
:102BE000C501A0E0B0E0E816F9060A071B0790F659
:102BF0002E83F401EE54F84F83E0882E912C8E2220
:102C00009F228114910499F4CF0164E670E00E9440
:102C10008646892B39F4CF0160E971E00E9486462F
:102C2000892B29F48EE691E0A0E0B0E004C08DE6A7
:102C300091E0A0E0B0E0A81AB90ACA0ADB0A98013C
:102C400087010A191B092C093D09CF0164E670E0D0
:102C50000E9486467C01CF0160E971E00E948646B1
:102C6000AC01ECE8F3E060E0613051F481149104D0
:102C700049F4E114F10441F44115510529F002C071
:102C8000808103C08CE101C08DE190E0A0E0B0E064
:102C9000081719072A073B0740F0081B190B2A0BD6
:102CA0003B0B6F5F31966C30F9F66F5F6D83802F51
:102CB0008F5F8C83DF91CF911F910F91FF90EF90E9
:102CC000DF90CF90BF90AF909F908F900895EF923C
:102CD000FF920F931F937B018C01809107069091C7
:102CE0000806A0910906B0910A06E816F9060A0737
:102CF0001B0771F0C801B7014CEF55E00E94651544
:102D0000E0920706F09208060093090610930A065F
:102D10001F910F91FF90EF9008950E9467162091E8
:102D2000020630E02E54384FC90108954F925F9249
:102D30006F927F928F929F92AF92BF92CF92DF92CB
:102D4000EF92FF920F931F93CF93DF934C01DC011F
:102D500016961C91612F70E080E090E020E833E34C
:102D600041EE51E00E9467465B016C0122EB37E0C7
:102D7000E12FF0E0EE54F84F1DC0C9018370907050
:102D8000892BB1F4C90164E670E00E948646892B64
:102D900039F4C90160E971E00E948646892B41F44B
:102DA00080E891E5A1E0B0E0A80EB91ECA1EDB1EC6
:102DB0002F5F3F4F2E173F0701F7D40115968C91D7
:102DC000482E5524C90164E670E00E9486467C01C5
:102DD000C90160E971E00E9486468C01C1E0D0E043
:102DE00093E0692E712C6222732227C0C230D10574
:102DF00091F46114710479F4E114F10419F40115EA
:102E0000110549F480E89BE3A6E2B0E0A80EB91EE4
:102E1000CA1EDB1E11C0FE01E557FC4F608170E049
:102E200080E090E020E831E541E050E00E94674614
:102E3000A60EB71EC81ED91E2196C415D505B4F21C
:102E4000D40112966C9170E080E090E020E13EE0C9
:102E500040E050E00E9467467B018C01F4016181F3
:102E600070E080E090E02CE330E040E050E00E9431
:102E70006746E60EF71E081F191FD4018C91E80E55
:102E8000F11C011D111D14966C9170E06150704091
:102E9000882777FD8095982F20E831E541E050E0C4
:102EA0000E946746E60EF71E081F191FEA0CFB1C5E
:102EB0000C1D1D1DB701C801DF91CF911F910F910E
:102EC000FF90EF90DF90CF90BF90AF909F908F904A
:102ED0007F906F905F904F9008956093F20570938C
:102EE000F3058093F4059093F5052091EC02309161
:102EF000ED024091EE025091EF02260F371F481F5E
:102F0000591F2093F6053093F7054093F805509329
:102F1000F90582E090E09093FB058093FA050E940A
:102F2000E74160930306709304068093050690932F
:102F300006060895EF92FF920F931F931CC02F5F18
:102F40003F4F4F4F5F4F2093F2053093F30540936F
:102F5000F4055093F50588EE93E0A0E0B0E0E80EAC
:102F6000F91E0A1F1B1FE0920306F092040600934D
:102F70000506109306060E94E741E0900306F090D4
:102F8000040600910506109106066E197F09800B54
:102F9000910B2091F2053091F3054091F405509189
:102FA000F505685E73408040904048F68091F605D4
:102FB0009091F705A091F805B091F9052817390708
:102FC0004A075B07E8F0E091F005F091F1053097D2
:102FD000B9F01995611571058105910519F00E94E7
:102FE0006D170EC020E030E08091FA059091FB054E
:102FF000892B11F021E030E03093FB052093FA0596
:103000006091F2057091F3058091F4059091F505BA
:103010001F910F91FF90EF9008959093F105809389
:10302000F0058091F2059091F305A091F405B0911F
:10303000F5058093F6059093F705A093F805B093F6
:10304000F9050E949A1708950E949A170E948D16FA
:1030500008950E949A170E9467168091010690E0D9
:1030600008950E949A170E9467168091000690E0CA
:1030700008950E949A170E9467168091FC0590E0BF
:1030800008950E949A170E9467168091FD0590E0AE
:1030900008950E949A170E9467168091FE0590E09D
:1030A000089585E361E00E94A24385E361E00E9408
:1030B000EF428CB580618CBD8CB580648CBD84E39F
:1030C00061E00E94EF4283E361E00E94EF420895D5
:1030D000DC0180E00BC0E82FF0E08D9190E0E82764
:1030E000F927E25EFE4FE49161508E2F662399F737
:1030F0000895DF92EF92FF920F931F93FC01E080FF
:1031000001811281F894F80181818E298183828165
:10311000DE2CD0948D21828383E090E00E941B42BC
:10312000F80181818D2181838AE090E00E941B4219
:10313000F8010081789485E390E00E941B4280E0D2
:1031400010E0FF240E211F21012B09F081E01F91C7
:103150000F91FF90EF90DF900895EF92FF920F9301
:103160001F93CF93DF937C0101E010E0C0E0D0E03B
:10317000C7010E9479188111102B000F2196C830C9
:10318000D105B1F7812FDF91CF911F910F91FF9062
:10319000EF9008951F93CF93DF93FC011081C181BD
:1031A000D281912F909560FF12C0F8948A81892373
:1031B0008A838981812B89838AE090E00E941B4267
:1031C0008A81812B8A83789487E390E011C0F894F8
:1031D0008A8189238A838981812B898381E490E094
:1031E0000E941B428A81812B8A83789485E090E03B
:1031F0000E941B42DF91CF911F910895CF92DF92E1
:10320000EF92FF920F931F93CF93DF938C01E42EE5
:10321000FF24F394C0E0D0E0C62EDD2460E08F2DC3
:1032200090E08C219D21892B09F061E0C8010E946A
:10323000CA18FF0C2196C830D10581F7EE20A9F4F9
:10324000F894D8011196ED91FC91129791818C918F
:103250008095982391831196ED91FC91129792811C
:103260008C918095982392837894DF91CF911F91D0
:103270000F91FF90EF90DF90CF900895EF92FF9223
:103280000F931F93CF93DF938C017B0165E540E0A3
:103290000E94FE18C0E0D0E0F701EC0FFD1FC8014E
:1032A000608140E00E94FE182196C830D105A1F748
:1032B000DF91CF911F910F91FF90EF900895DF92D2
:1032C000EF92FF920F931F93CF93DF93FC01008146
:1032D000C181D281F8948981D02ED0948D218983A7
:1032E00078941DE7E02EFF24115059F182E090E020
:1032F0000E941B42888190E08E219F21892BA1F39F
:10330000F8948A818D218A838981802B898378949E
:1033100080EE91E00E941B42F89489818D2189837F
:1033200086E490E00E941B42888110E090E0E82251
:10333000F922EF2809F411E078948AE991E00E94DB
:103340001B42812FDF91CF911F910F91FF90EF9042
:10335000DF900895FF920F931F938C01F62E862F16
:1033600060E00E94EF428F2D90E0FC01EE54FD4F93
:10337000E491D801EC9384599D4FFC016491E62FB0
:10338000F0E0EE0FFF1FEE5AFD4F859194911296DB
:103390009C938E9311971B961C921B971D961C92C3
:1033A0001D971C961C92F80187E090E012863197D9
:1033B000009711F00197FACF1F910F91FF90089598
:1033C000FC0112828FEF8183108213820895FC0129
:1033D0008381882331F0662319F48FEF8183089568
:1033E00011820895CF93DF93EC018B81882319F428
:1033F00080E090E013C0898180958623888384EEE5
:1034000095E06A810E94801484EE95E068810E94B4
:10341000021584EE95E00E94451590E020E030E032
:10342000892B11F421E030E0C901DF91CF9108959B
:10343000CF93DF93EC016A8384EE95E00E945A15E6
:1034400084EE95E06A8141E00E9456151B82882334
:1034500011F081E08B8384EE95E00E9493148883C1
:103460008B8190E0DF91CF91089508950895FC013C
:10347000138212828CE993E0918380830895FC018A
:10348000A081B18118962D913C9119976FEFF901A8
:1034900019950895FC01A081B18118962D913C9158
:1034A000199760E0F90119950895DC01ED91FC91FF
:1034B0000284F385E02D40E019950895FC016581B3
:1034C000862F846085836C60CF010E94551A089511
:1034D000DC0117969C911797491710F0492F41501E
:1034E00018968C911897803139F4943029F4E42F90
:1034F000F0E0E855FC4F04C0E42FF0E0E455FC4F49
:103500008081680F6068CD010E94551A0895DC0122
:10351000ED91FC910284F385E02D41E0199581E065
:1035200090E0089561E00E94551A80ED97E00E94B6
:103530001B420895CF93DF93EC01423018F08C8149
:1035400088608C834F836887222329F0413019F4E7
:103550008C8184608C8364E670E080E090E00E945F
:1035600087426C8164FD31C0E881F9810284F38572
:10357000E02DCE0163E042E0199584E991E10E94DB
:103580001B42E881F9810284F385E02DCE0163E0DE
:1035900042E0199584E991E10E941B42E881F9819A
:1035A0000284F385E02DCE0163E042E0199586E9BF
:1035B00090E00E941B42E881F9810284F385E02DAE
:1035C000CE0162E042E0199516C06062CE010E9411
:1035D000551A84E991E10E941B426C816062CE0120
:1035E0000E94551A86E990E00E941B426C8160623D
:1035F000CE010E94551A6C816062CE010E94551A5C
:1036000084E08D83CE010E945E1ACE010E94921A40
:1036100082E08E83CE0166E00E94551ACE010E94A0
:103620003F1ADF91CF910895DC0181E090E002C064
:10363000880F991F6A95E2F71C968C931C971A962F
:103640005C934E931997ED91FC9111970084F1854D
:10365000E02DCD0160E019950895DF92EF92FF9281
:103660000F931F938C01D62E8EE0E82EF12CE00EE6
:10367000F11EF80162896D29C7010E94F219F80153
:10368000628960956D21C7010E94F2191F910F9107
:10369000FF90EF90DF900895DC01FC0190E020E0C6
:1036A00070E060FF02C08589282B9F5F31969430BF
:1036B00019F075956795F4CF413019F454964C91F3
:1036C00054971D968C911D97842B282BCD01622F2A
:1036D0000E942D1B08950F931F93CF93DF93EC014E
:1036E000142F062F0F70423019F4602F40E00CC0E9
:1036F00070E044E0759567954A95E1F7412F0E9487
:103700004C1BCE01602F412F0E944C1BDF91CF91AB
:103710001F910F910895FC012485222399F0818542
:103720009285009719F4662329F406C0019721F4C5
:10373000662311F4258701C01586CF010E96658595
:103740000E94F21908950F931F93CF93DF938C017A
:10375000EC012E96CE01F80163850E94181A01979C
:1037600019F020E030E00CC0CE0161E00E94E719C2
:10377000F8011482CE0160E00E94F21921E030E0ED
:10378000C901DF91CF911F910F910895DF92EF92C0
:10379000FF920F931F938C01F62EE42ED22E0E94DF
:1037A000A31BC8016F2D4E2D2D2D0E949A1A1F911B
:1037B0000F91FF90EF90DF9008952F923F924F92DC
:1037C0005F926F927F928F929F92AF92BF92CF92B1
:1037D000DF92EF92FF920F931F93DF93CF93CDB7BA
:1037E000DEB73C01962E442E222E0E94371A84EB1F
:1037F00093E0F30191838083C3010E960E94E01948
:10380000F3019386148615861286118681E090E076
:103810009C0102C0220F331F4A94E2F7228BFC0165
:1038200002C0EE0FFF1F2A94E2F71F01F301238A63
:103830009C0102C0220F331F0A95E2F7248BFC0182
:1038400002C0EE0FFF1FEA94E2F77F01F301E58A61
:103850009C0102C0220F331FCA94E2F7268BFC01A1
:1038600002C0EE0FFF1FAA94E2F75F01F301A78ADF
:1038700002C0880F991F8A94E2F7808FC3016E8976
:103880004F89588D0E94141BCF91DF911F910F918A
:10389000FF90EF90DF90CF90BF90AF909F908F9070
:1038A0007F906F905F904F903F902F900895DF92A0
:1038B000EF92FF920F931F93CF93DF93EC01882732
:1038C00077FD8095982F0E944C457B018C0120E06C
:1038D00030E040E45FE30E94004620E030E048E44E
:1038E00052E40E94B1440E941945C617D70714F448
:1038F000DD241CC0DD24C801B70120E030E040EA2F
:103900005FE30E94004620E030E048E452E40E9479
:10391000B14420E030E040E85FE30E9449440E9467
:1039200019456C177D0714F0DD24D3948D2D90E09C
:10393000DF91CF911F910F91FF90EF90DF9008954D
:103940006C597F4F0E94571C0895645670400E9426
:10395000571C089560930B0610920D06089582E09F
:1039600080930C061092D8060895AF92BF92CF9222
:10397000DF92EF92FF920F931F93CF93DF936B0130
:10398000DB011A96CD91DC911B978A819B8168E2BD
:1039900073E20E94A01C892B09F480C08091D80694
:1039A000843009F08CC08C819D816AEC78E00E94A3
:1039B000A51C892B09F483C08E819F8160E372E08E
:1039C0000E94A01C892B09F47AC0F601118610868A
:1039D0008FEF9FEFAFEFBFEF84839583A683B7830D
:1039E00081E090E09183808354C08C819D8164E963
:1039F00071E10E94A51C892B09F450C02696EE2483
:103A0000FF24870123E0A22EB12C8881998160E3F5
:103A100072E00E94A01C892B09F440C08A819B811E
:103A200060E476E00E94A51C892B69F0EE0CFF1C77
:103A3000001F111F81E090E0A0E0B0E0E82AF92A21
:103A40000A2B1B2B0CC08A819B8160E372E00E94D1
:103A5000A51C892B19F1EE0CFF1C001F111F2496C9
:103A600091E4A916B10429F0A2E0B0E0AA0EBB1EB1
:103A7000CCCF80E290E0F60191878087D601149642
:103A8000ED92FD920D931C93179781E090E08D933A
:103A90009C9321E030E040E050E004C020E030E0C2
:103AA00040E050E0B901CA01DF91CF911F910F9121
:103AB000FF90EF90DF90CF90BF90AF9008958091EE
:103AC000D806843458F391CFAF92BF92CF92DF9251
:103AD000EF92FF920F931F93CF93DF936B0180912F
:103AE000D8068A3108F480C0DB011A96CD91DC91AA
:103AF0001B9788819981845F914080F4FB01118636
:103B000010868FEF9FEFAFEFBFEF84839583A6837F
:103B1000B78389E090E09183808361C08A819B8133
:103B200060E679E00E94A01C892B09F45DC026960E
:103B3000EE24FF24870162E0A62EB12C30C022972C
:103B400088819981229668E572E00E94A51C892BE4
:103B500079F18881998160EB74E00E94A01C892B27
:103B600069F0EE0CFF1C001F111F81E090E0A0E047
:103B7000B0E0E82AF92A0A2B1B2B0CC08881998116
:103B800068E572E00E94A01C892B71F1EE0CFF1C0D
:103B9000001F111FA2E0B0E0AA0EBB1E2496809168
:103BA000D80695012F5F3F4F90E0281739073CF268
:103BB000C501019795958795F601918780870C97A8
:103BC0001CF41186108610C0D6011496ED92FD9259
:103BD0000D931C93179782E090E08D939C9321E0C6
:103BE00030E040E050E004C020E030E040E050E051
:103BF000B901CA01DF91CF911F910F91FF90EF9012
:103C0000DF90CF90BF90AF900895AF92BF92CF92C8
:103C1000DF92EF92FF920F931F93CF93DF936B018D
:103C20008091D8068A3108F489C0DB011A96CD91BB
:103C3000DC911B97888199818052934080F4FB012D
:103C4000118610868FEF9FEFAFEFBFEF84839583D0
:103C5000A683B78389E090E0918380836AC08A81DC
:103C60009B816CEA7DE00E94A01C892B09F466C050
:103C70008C819D816CEA7DE00E94A01C892B09F457
:103C80005DC02896EE24FF248701A3E0AA2EB12C64
:103C900030C0229788819981229666EB73E00E945A
:103CA000A51C892B79F18881998160E679E00E94D1
:103CB000A01C892B69F0EE0CFF1C001F111F81E076
:103CC00090E0A0E0B0E0E82AF92A0A2B1B2B0CC0F8
:103CD000888199816CEB72E00E94A01C892B71F1A4
:103CE000EE0CFF1C001F111FA2E0B0E0AA0EBB1ECD
:103CF00024968091D80695012F5F3F4F90E02817BA
:103D000039073CF2C501019795958795F601918792
:103D100080870C971CF41186108610C0D60114966B
:103D2000ED92FD920D931C93179789E090E08D938F
:103D30009C9321E030E040E050E004C020E030E01F
:103D400040E050E0B901CA01DF91CF911F910F917E
:103D5000FF90EF90DF90CF90BF90AF9008956F925B
:103D60007F928F929F92AF92BF92CF92DF92EF920B
:103D7000FF920F931F93CF93DF934B018091D8064F
:103D8000823208F47AC0DB011A96CD91DC911B9740
:103D90008A819B816EE571E00E94A01C892B09F449
:103DA0006CC036E0A32EB12CAC0EBD1EEE24FF2459
:103DB000870122E0C22ED12C37C0E50122978881ED
:103DC00099816EE977E00E94A01C892B69F0EE0CC6
:103DD000FF1C001F111F81E090E0A0E0B0E0E82A86
:103DE000F92A0A2B1B2B0DC0888199816EEE72E097
:103DF0000E94A01C892B09F440C0EE0CFF1C001F80
:103E0000111FD5018D919C916EE571E00E94A51C5A
:103E1000E4E0F0E0AE0EBF1E892B11F463010FC089
:103E200022E030E0C20ED31E36010894611C711CE2
:103E30008091D80690E0681679060CF4BECFC601D2
:103E4000019795958795D40119969C938E93189711
:103E500040972CF419961C921E9218970EC0F401EC
:103E6000E482F582068317838AE090E09183808361
:103E700021E030E040E050E004C020E030E040E0ED
:103E800050E0B901CA01DF91CF911F910F91FF90CE
:103E9000EF90DF90CF90BF90AF909F908F907F90EA
:103EA0006F9008956F927F928F929F92AF92BF9280
:103EB000CF92DF92EF92FF920F931F93CF93DF93F6
:103EC000FB013A0159016801DA012D913C91848589
:103ED00095852817390724F071E0E72EF12C56C09C
:103EE000C901880F991F0284F385E02DE80FF91F9F
:103EF00080819181982E892E20FD06C00CE91FEF4C
:103F000051E0E52EF12C04C004E610E0EE24FF247D
:103F1000B8016C0D7D1D892D982D0E94571C892B91
:103F200019F021E030E020C0E601CC0FDD1FB80120
:103F30006C0F7D1F892D982D0E94571C892B19F01D
:103F400022E030E011C0CC0DDD1D0C0F1D1F892DAE
:103F5000982DB8010E94571C892B21F4EE24EA9475
:103F6000FE2C14C023E030E0F501808191810196A0
:103F700091838083821793074CF011821082D301C2
:103F80008D919C91119701968D939C93C701DF9120
:103F9000CF911F910F91FF90EF90DF90CF90BF9046
:103FA000AF909F908F907F906F9008952F923F9247
:103FB0004F925F926F927F928F929F92AF92BF9239
:103FC000CF92DF92EF92FF920F931F93DF93CF93E5
:103FD00000D000D0CDB7DEB71C015B018091D806C0
:103FE0008D3008F47EC081E090E09A8389831C8242
:103FF0001B82A3E08A2E912C8C0E9D1EC1012E01E6
:104000000894411C511CA201940109E713E00E948D
:10401000521F892B09F065C0C101B501A2019401AD
:104020000E94521F019709F05CC0C101B501A201B5
:1040300094010E94521F892B09F053C0CC24DD2427
:10404000760166247724C4018D829E832FC0C1012E
:10405000B501A2012D813E8109E713E00E94521FA4
:104060004C01C101B501A2012D813E810E94521F68
:1040700021E08216910479F4892B99F5CC0CDD1C92
:10408000EE1CFF1C81E090E0A0E0B0E0C82AD92A35
:10409000EA2AFB2A08C0892821F5019711F5CC0CE2
:1040A000DD1CEE1CFF1C0894611C711C8091D8065D
:1040B00090E029813A81281739074CF2D5011996E9
:1040C0007C926E921897F501C482D582E682F782BF
:1040D00083E090E09183808321E030E040E050E095
:1040E00004C020E030E040E050E0B901CA0126966B
:1040F0000FB6F894DEBF0FBECDBFCF91DF911F91F9
:104100000F91FF90EF90DF90CF90BF90AF909F9076
:104110008F907F906F905F904F903F902F90089579
:104120002F923F924F925F926F927F928F929F92C7
:10413000AF92BF92CF92DF92EF92FF920F931F93B5
:10414000DF93CF93CDB7DEB728970FB6F894DEBFD5
:104150000FBECDBF1C014B01DB011C968D919C91C4
:104160001D97181619060CF0C4C081E090E09A83E0
:1041700089831A960D911C911B97F8018281938176
:104180006AE67AE00E94A01C892B09F4B2C082E0A2
:1041900090E09A838983D80114968D919C9115970C
:1041A00069E773E00E94A51C892B09F4A2C083E093
:1041B00090E09A8389831C821B8203E0A02EB12C9D
:1041C000AC0EBD1EC101B4013E010894611C711CFE
:1041D000A30195010CEB11E00E94521F892B09F0FD
:1041E00088C0C101B401A30195010E94521F01972B
:1041F00009F07FC0CC24DD24760144245524C50178
:10420000AD829E83C3016F82988756C0C101B401FD
:104210004F8158852D813E810CEB11E00E94521F89
:104220003C01B3E04B16510461F4C101B4014F816C
:1042300058852D813E810E94521F6816790609F02B
:1042400058C0C101B4014F8158852D813E810CEBCE
:1042500011E00E94521F5C01E3E04E16510459F434
:10426000C101B4014F8158852D813E810E94521FAA
:10427000A816B906F1F56114710489F4F1E0AF16DE
:10428000B104B9F5CC0CDD1CEE1CFF1C81E090E004
:10429000A0E0B0E0C82AD92AEA2AFB2A0AC091E0A5
:1042A0006916710431F5AB2821F5CC0CDD1CEE1C30
:1042B000FF1C0894411C511C29813A81D4011C9691
:1042C0008D919C911D97281739070CF49FCF199653
:1042D0005C924E921897F401C482D582E682F782EE
:1042E00084E090E09183808321E030E040E050E082
:1042F00004C020E030E040E050E0B901CA01289657
:104300000FB6F894DEBF0FBECDBFCF91DF911F91E6
:104310000F91FF90EF90DF90CF90BF90AF909F9064
:104320008F907F906F905F904F903F902F90089567
:104330006F927F928F929F92AF92BF92CF92DF92B5
:10434000EF92FF920F931F93CF93DF937B01FB01BB
:10435000C285D3858A819B816EEA7DE00E94A01C84
:10436000892B09F474C08C819D8166ED76E00E94F2
:10437000A01C892B09F46BC0269600E010E0DD2418
:10438000CC24992488247724662483E0A82EB12C99
:104390008881998166EF71E00E94A01C892B09F445
:1043A00056C08A819B816CED74E00E94A51C892B0C
:1043B00069F098014D2D5C2D692D782D872D962D56
:1043C00001E00E945E02022F016013C08A819B817E
:1043D00060E971E00E94A51C892BC9F198014D2D5F
:1043E0005C2D692D782D872D962D01E00E945E02AF
:1043F000022F132FD42EC52E962E872E782E692E9F
:104400002496F1E6AF16B10429F082E090E0A80E00
:10441000B91EBECFC801F701048395834683578335
:104420009801872D962D00E20E94DF01C901F70156
:104430002283938387E090E09183808380E390E000
:104440009187808721E030E040E050E004C020E028
:1044500030E040E050E0B901CA01DF91CF911F91F7
:104460000F91FF90EF90DF90CF90BF90AF909F9013
:104470008F907F906F9008958F929F92AF92BF928E
:10448000CF92DF92EF92FF920F931F93CF93DF9320
:104490006B018091D806823209F0B2C0DB011A9616
:1044A000CD91DC911B978A819B8168E572E00E9427
:1044B000A01C892B09F4A4C08091D80621E030E02B
:1044C000281B3109220F331FC21BD30B888199810E
:1044D00068E572E00E94A01C892B09F491C0F601E6
:1044E000118610868FEF9FEFAFEFBFEF8483958328
:1044F000A683B78388E090E09183808369C0809130
:10450000D806813208F469C0D50114968D919C912A
:10451000159760EA7FE00E94A51C892B09F45DC015
:10452000E5012696EE24FF24870133E0832E912CAB
:104530008881998168E572E00E94A01C892B09F4AA
:104540004CC08A819B8160E476E00E94A51C892B87
:1045500069F0EE0CFF1C001F111F81E090E0A0E04D
:10456000B0E0E82AF92A0A2B1B2B0CC08A819B8118
:1045700066E272E00E94A51C892B79F1EE0CFF1C0B
:10458000001F111FA2E0B0E08A0E9B1E2496B3E22A
:104590008B16910469F6E6E4F0E0AE0EBF1ED5017D
:1045A0008D919C9168E572E00E94A01C892BA9F076
:1045B00080E190E0F60191878087D6011496ED9214
:1045C000FD920D931C93179788E090E08D939C9338
:1045D00021E030E040E050E004C020E030E040E086
:1045E00050E0B901CA01DF91CF911F910F91FF9067
:1045F000EF90DF90CF90BF90AF909F908F900895F5
:10460000F601A284B384D50112968D919C911397E3
:1046100060E47FE10E94A01C892B09F070CFDDCF00
:104620002F923F924F925F926F927F928F929F92C2
:10463000AF92BF92CF92DF92EF92FF920F931F93B0
:10464000DF93CF930F920F92CDB7DEB71B01FB0123
:1046500084859585863091052CF420E030E040E09B
:1046600050E081C0F5ECAF2EFDE9BF2EFCE1CF2E6E
:10467000F1E8DF2EE6E04E2E512C9C01220F331F75
:104680003A83298359C0F101A285B385F201349799
:10469000EA0FFB1FE080F180A40DB51D6D917C91A8
:1046A00080E090E00E944A453B014C0100E010E0B0
:1046B000C801B7010E944A457B018C012DEC3CECFE
:1046C0004CE45FE30E9400469B01AC01C401B301CE
:1046D0000E94AD4488231CF400E010E018C0C4011F
:1046E000B3012DEC3CEC4CE45FE30E9400469B01DF
:1046F000AC01C801B7010E94AD44082F112707FD86
:1047000010950027110F001F11270F5F1F4FC601C3
:10471000B50123E931E040E051E00E9467465801CD
:10472000CC24B7FCC094DC2CA626B726C826D926F4
:1047300022E030E0420E531E89819A8148165906C4
:1047400009F0A1CFF101A482B582C682D78280E2AE
:1047500090E0918780878FEF9FEF9183808321E0A6
:1047600030E040E050E0B901CA010F900F90CF91C6
:10477000DF911F910F91FF90EF90DF90CF90BF904E
:10478000AF909F908F907F906F905F904F903F90F1
:104790002F9008950F931F93CF93DF938C01EB011C
:1047A00080E196E09B878A878091D8068C871D865A
:1047B00080910C06853009F057C0C8010E94B51CD5
:1047C000611571058105910509F051C0C801BE014F
:1047D0000E94641D611571058105910509F047C0AE
:1047E000C801BE010E94051E611571058105910574
:1047F000F1F5C801BE010E94AF1E6115710581056A
:104800009105A9F5C801BE010E94D61F6115710569
:104810008105910561F5C801BE010E9490206115D6
:1048200071058105910519F5C801BE010E94982105
:104830006115710581059105D1F4C801BE010E9481
:104840003C22611571058105910589F4C801BE01FD
:104850000E941023611571058105910541F482E0E4
:1048600080930C061092D80620E030E002C021E0D0
:1048700030E0C901DF91CF911F910F9108951F92F0
:104880000F920FB60F920BB60F9211242F933F93F6
:104890004F935F936F937F938F939F93AF93BF9348
:1048A000EF93FF9380910B060E94D543482F809190
:1048B0000E0690910F06019690930F0680930E06B8
:1048C0008091D806843618F085E080930C0680919C
:1048D0000C068330D1F0843020F4823009F059C0C6
:1048E00006C0843071F1853009F053C04CC04423B8
:1048F00009F04FC080910E0690910F068436910505
:1049000008F443C01092D8061EC0413009F041C0DF
:104910008091D806E82FF0E020910E0630910F0626
:10492000EE0FFF1FE55FF94F368325838F5F80937E
:10493000D80610920F0610920E0684E080930C06A3
:1049400028C04423B9F48091D806E82FF0E02091E4
:104950000E0630910F06EE0FFF1FE55FF94F36830D
:1049600025838F5F8093D80610920F0610920E0653
:1049700083E0E4CF80910E0690910F068536910575
:1049800040F085E0DBCF442321F410920F06109213
:104990000E0680910D06882329F0442311F42F9AE6
:1049A00001C02F98FF91EF91BF91AF919F918F918F
:1049B0007F916F915F914F913F912F910F900BBE1F
:1049C0000F900FBE0F901F901895F89492E090935F
:1049D000B0009093B10084E68093B300E2EBF0E086
:1049E0001082E08190937000789482E080930C06AE
:1049F0001092D80680910B0660E00E94EF42089565
:104A0000682F8BED96E048E050E00E94FA28089568
:104A100090E0982F88278E5F9B4F0E94482708952B
:104A20001F93182F982F80E08D5F9B4F0E9448277F
:104A3000833111F080E008C08BED96E0612F42E0F9
:104A400050E00E94FA2881E01F91089590E0982F8D
:104A500088278E5F9B4F0E94072708951F93182F6A
:104A60008BED96E0612F40E250E00E94FA280CC0E6
:104A7000812F0E94082583FF07C0812F68E10E94D3
:104A8000262520E030E00BC0812F0E94082584FFFE
:104A9000EFCF812F60E10E94262521E030E0C9019F
:104AA0001F9108951F93182F8BED96E0612F40E121
:104AB00050E00E94FA28812F6FEF0E9426251F9157
:104AC0000895FF920F931F93F62E672F082F10E083
:104AD0000C5F1F4F102F0027C80140960E94072728
:104AE000C80141966F2D0E9407271F910F91FF90DB
:104AF0000895FF920F931F93F62E672F082F10E053
:104B00000C5F1F4F102F0027C80104960E94072733
:104B1000C80105966F2D0E9407271F910F91FF90E6
:104B20000895FF920F931F93CF93DF93082FF62ED4
:104B3000EA01122F862F8150853010F080E024C0CA
:104B4000802F0E9452251F2980E0902F9C5F612FAB
:104B50000E940727209719F0802FBE010BC060919B
:104B6000D9067091DA066F5F7F4F7093DA06609313
:104B7000D906802F0E9479258BED96E0602F41E0C9
:104B800050E00E94FA2881E0DF91CF911F910F91B0
:104B9000FF9008951F93CF93DF93182FFB01EA0135
:104BA0008081882349F48181882331F4828188239C
:104BB00019F48381882391F0209781F0912F80E070
:104BC000845F9B4FBF0144E050E00E942127812F6A
:104BD000BE010E94612521E030E002C020E030E00B
:104BE000C901DF91CF911F9108951F93CF93DF9358
:104BF000182FFB01EA0180818F3F51F481818F3FA3
:104C000091F482818F3F79F483818F3F61F423C0D7
:104C1000882349F48181882331F48281882319F41F
:104C200083818823C1F02097B1F0912F80E0845FC9
:104C30009B4FBF0144E050E00E942127812FBE011D
:104C40000E9461258BED96E0612F44E050E00E94C8
:104C5000FA2881E001C080E0DF91CF911F91089593
:104C6000AF92BF92DF92EF92FF920F931F93CF9379
:104C7000DF93D82EEB015A0189018BED96E06D2D63
:104C80000E9431288017910710F0780106C08BED43
:104C900096E06D2D0E9431287C018BED96E06D2D04
:104CA000AE01950187010E946A27C701DF91CF916C
:104CB0001F910F91FF90EF90DF90BF90AF900895FC
:104CC000AF92BF92DF92EF92FF920F931F93CF9319
:104CD000DF93D82E5B018A0188E04130580710F03D
:104CE00000E018E0DD2DC0E0CD5FDB4F8BED96E0FE
:104CF0006D2D0E9431287C01CE010E94482787310A
:104D000029F08C3119F000E010E003C0E016F10644
:104D100068F38BED96E06D2DA50198010E94DB27CD
:104D20008BED96E06D2D40E250E00E94FA280BC01A
:104D3000CE010E944827882331F48D2D0E945225F0
:104D400000E010E009C08D2D0E94082584FFF0CFFF
:104D50008D2D60E10E942625C801DF91CF911F9122
:104D60000F91FF90EF90DF90BF90AF9008950F9359
:104D7000282FAB018BED96E0622F21E030E001E0BF
:104D80000E94AF2881E090E00F910895CF92DF92CA
:104D9000FF920F931F93CF93DF93F82E6B018A013D
:104DA0008BED96E06F2D0E94FE27EC01009769F4D1
:104DB0009F2D80E08D5F9B4F0E9448278431D9F062
:104DC0008823C9F08C31B9F01FC0081719070CF4FB
:104DD000E8011C161D067CF48BED96E06F2DA601F4
:104DE0009E0100E00E94AF288BED96E06F2D40E41D
:104DF00050E00E94FA28CE01DF91CF911F910F91D0
:104E0000FF90DF90CF900895CFEFDFEFF4CF282F02
:104E10002C9880EF8EBD0DB407FEFDCF8EB59EBDE4
:104E20000DB407FEFDCF8EB52EBD0DB407FEFDCF30
:104E30008EB56EBD0DB407FEFDCF8EB52C9A81E008
:104E40000895DC0120E030E090EF1DC02C989EBD5D
:104E50000DB407FEFDCF8EB5BEBD0DB407FEFDCF70
:104E60008EB5AEBD0DB407FEFDCF8EB5FB01E20FD2
:104E7000F31F80818EBD0DB407FEFDCF11968EB558
:104E80002C9A2F5F3F4F2417350700F3CA0108956E
:104E9000282F2C988FE08EBD0DB407FEFDCF8EB568
:104EA0009EBD0DB407FEFDCF8EB52EBD0DB407FE21
:104EB000FDCF8EB51EBC0DB407FEFDCF8EB52C9A6E
:104EC000089590E00496982F8827860F971F0E94D8
:104ED000482708957F928F929F92AF92BF92CF9270
:104EE000DF92EF92FF920F931F93CF93DF936C01AA
:104EF000762E7A0149015801862F64E270E00E9403
:104F00006127182F872D65E270E00E946127C82F66
:104F1000D0E0912F80E0C82BD92BCE0DDF1DAE0144
:104F20005770872D90E0880F991FC80ED91EF60183
:104F300020813181240F351FCA018A0D9B1D8150AC
:104F4000984098F000E018E0041B150BC901B4016B
:104F5000A8010E942127A501401B510BF601808169
:104F60009181080D191DB80103C0C901B401A50143
:104F70000E9421277E01EA0CFB1C072D10E00C5F2C
:104F80001F4F102F0027C80184966F2D0E940727FE
:104F9000C80185966E2D0E940727DF91CF911F9142
:104FA0000F91FF90EF90DF90CF90BF90AF909F90C8
:104FB0008F907F9008950F931F93FA01890140E02D
:104FC00050E09F010E946A271F910F9108950F934F
:104FD0001F93182F66E270E00E946127082F812F2F
:104FE00067E270E00E946127502F40E0282F30E0F8
:104FF000242B352BC9011F910F910895FF920F9318
:105000001F93CF93DF93F62EC0E0D0E08F2D0E9448
:10501000E7278C01009721F08F2D0E94E727EC01F4
:10502000C017D10799F7CE01DF91CF911F910F9152
:10503000FF9008950F931F93182F60E270E00E9475
:105040006127082F812F61E270E00E946127502FB5
:1050500040E0282F30E0242B352BC9011F910F9100
:105060000895FF920F931F93CF93DF93F62EC0E026
:10507000D0E08F2D0E941A288C01009721F08F2DEF
:105080000E941A28EC01C017D10799F7CE01DF91D1
:10509000CF911F910F91FF900895DC0120E030E047
:1050A0009FE01DC02C989EBD0DB407FEFDCF8EB5B0
:1050B000BEBD0DB407FEFDCF8EB5AEBD0DB407FE6F
:1050C000FDCF8EB51EBC0DB407FEFDCF11968EB57B
:1050D000FB01E20FF31F80832C9A2F5F3F4F2417B1
:1050E000350700F3CA010895CF92DF92EF92FF9245
:1050F0000F931F93CF93DF93690178015770C62FE9
:10510000D0E02496CC0FDD1FC80FD91F288139812C
:10511000240F351FC801840F951F8150984088F0D7
:1051200000E018E0041B150BC901B601A8010E949C
:105130004D28E01AF10A888199810C0D1D1DB801D6
:1051400002C0C901B601A7010E944D28DF91CF918D
:105150001F910F91FF90EF90DF90CF9008958F9265
:105160009F92AF92BF92CF92DF92EF92FF920F93F6
:105170001F93CF93DF937C01A62E6A014901B02EC5
:10518000862F68E270E00E946127182F8A2D69E25D
:1051900070E00E946127C82FD0E0912F80E0C82BDB
:1051A000D92BC7016A2DAE01960184010E94742893
:1051B000BB2099F47E01E80CF91C0A2D10E00C5F6D
:1051C0001F4F102F0027C80188966F2D0E940727B8
:1051D000C80189966E2D0E940727DF91CF911F91FC
:1051E0000F91FF90EF90DF90CF90BF90AF909F9086
:1051F0008F9008951F93162F962F80E08F5F9B4FFF
:10520000642F0E940727812F61E070E00E946127D0
:105210008823C9F71F9108950F931F93182F092F03
:105220006CE271E080E090E00E9487420E94511899
:10523000249A80E090E060E80E9407278BE190E0EC
:1052400065E50E9407278AE190E065E50E9407274F
:10525000212F302FC901FC0180E090E491838083ED
:105260008050904E9187808780509841329620E6FA
:105270008030920799F71F910F9108950F938BEE4D
:1052800096E060E040E020E000E00E94413B0F91AA
:1052900008959C01FB0182819381A481B581F9016C
:1052A00082839383A483B583178216820895CF9354
:1052B000DF93FB0101C0319680818823E1F7EB0188
:1052C00020E030E0A0E0B0E021C06E3261F42F3F7A
:1052D000310509F07CF5FA01EA0FFB1F22831196D4
:1052E00020E030E012C0C901E3E0880F991FEA9581
:1052F000E1F7220F331F820F931F262F332727FD3D
:10530000309520533040280F391F2196688166233D
:1053100019F0A430B105CCF22F3F310509F054F457
:10532000A430B1053CF4A40FB51F12962C9321E0D4
:1053300030E002C020E030E0C901DF91CF91089554
:105340000F9381EF96E060E040E020E000E00E94F3
:10535000413B0F9108952F923F924F925F926F922F
:105360007F928F929F92AF92BF92CF92DF92EF92F5
:10537000FF920F931F93DF93CF93CDB7DEB769975B
:105380000FB6F894DEBF0FBECDBF4C018B011A01E2
:105390000E94E7412B013C01F8E0EF2EF12CE80CD4
:1053A000F91C5801CC24DD2414C00E94E741641983
:1053B000750986099709A616B706C806D90618F40E
:1053C0002FEF3FEF0BC162E370E080E090E00E94BE
:1053D0008742C7010E942F321816190634F7F401CC
:1053E0002281338144815581818D928DA38DB48D2D
:1053F0008A879B87AC87BD87281739074A075B07D1
:1054000009F0EAC0858D968DC59709F0E5C000C109
:105410008E01025F1F4FC701B8014CE050E00E94AF
:10542000E131F801528143815B834A83F401268193
:1054300037818E859F852817390711F457FD06C0DF
:10544000C7010E94A9312CEF3FEFC8C04F705270C6
:10545000452B31F0C7010E94A9312BEF3FEFBEC0B1
:10546000F801768067806114710441F0AA24BB249E
:1054700048012E010894411C511C28C0C7010E94FC
:10548000A9312AEF3FEFAAC0C701B20141E050E0C5
:105490000E94E1318981882321F408C0C7010E945C
:1054A00004328981815089838F5FC1F78981882384
:1054B00059F700E010E0C7010E9404320F5F1F4F50
:1054C00004301105C1F70894A11CB11CF401D4806B
:1054D000C580AC14BD04C0F244245524C701BE01EC
:1054E0006F5F7F4F41E050E00E94E1319981892F49
:1054F000807C61F4992321F40DC0C7010E9404321D
:105500008981815089838F5FC1F704C0C7010E94E0
:10551000043219828981882309F7C701BE016C5FB3
:105520007F4F42E050E00E94E131C701BE016A5F57
:105530007F4F42E050E00E94E13100E010E0C701FF
:105540000E9404320F5F1F4F04301105C1F7C701DD
:10555000BE016E5F7F4F42E050E00E94E131DC808F
:10556000CD80F1E0CF16D10419F5BE80AF8081E087
:10557000A816B104E9F49A818B81049731F0C70130
:105580000E94A93127EF3FEF29C0E2E0F0E02E0EA4
:105590003F1EC701B10144E050E00E94E13121E02B
:1055A00030E01CC0C7010E9404320F5F1F4F02C0D1
:1055B00000E010E09A808B800815190598F3089494
:1055C000411C511C4614570408F488CFC7010E949F
:1055D000A93126EF3FEF02C02EEF3FEFC9016996D8
:1055E0000FB6F894DEBF0FBECDBFCF91DF911F91F4
:1055F0000F91FF90EF90DF90CF90BF90AF909F9072
:105600008F907F906F905F904F903F902F90089574
:105610008AE294E099878887C7010E948D310C97B0
:105620000CF0F6CE2DEF3FEFD9CF6F927F928F9295
:105630009F92AF92BF92CF92DF92EF92FF920F9321
:105640001F93DF93CF9300D0CDB7DEB78C01F62E3A
:10565000E72E0E94E741F80177836683B8E0CB2EFE
:10566000D12CC00ED11E0A5F1F4FC601B80142E007
:1056700050E00E94833281E090E09B838A83A2E025
:105680008A2E912C8C0E9D1EC601B40142E050E082
:105690000E94833280E091E09B838A83C601B4013B
:1056A00042E050E00E9483321B821A82C601B4019C
:1056B00042E050E00E948332C601B40142E050E073
:1056C0000E948332C601B40142E050E00E9483325E
:1056D0002F2D3E2DC9018C017C013E010894611CD7
:1056E000711C20C00894E11CF11CF7018081882303
:1056F00011F08E32B9F75701A01AB10A1A141B041F
:1057000074F48E2D801B8983C601B30141E050E003
:105710000E948332C601B801A5010E94833287012D
:105720000F5F1F4FF7018081882311F07801DDCFD3
:105730001982C601BE016F5F7F4F41E050E00E94B9
:10574000833200E011E01B830A83C601B40142E00A
:1057500050E00E9483321B830A83C601B40142E0F9
:1057600050E00E94833281E090E00F900F900F9004
:10577000CF91DF911F910F91FF90EF90DF90CF902D
:10578000BF90AF909F908F907F906F9008958F9271
:105790009F92AF92BF92CF92DF92EF92FF920F93C0
:1057A0001F93DF93CF9300D000D0CDB7DEB76C014D
:1057B0007B014A010E945729892B19F001E010E072
:1057C00067C0F60122813381448155818091F306BF
:1057D0009091F406A091F506B091F60628173907C6
:1057E0004A075B0719F40EEF1FEF52C018E0A12E15
:1057F000B12CAC0CBD1C0E94E7419B01AC012F7089
:10580000307020503C4FC501B9010E9447338130B0
:1058100019F000E010E03CC08AE294E09A838983AA
:10582000F60182819381A481B5818B839C83AD83B2
:10583000BE83C501BE016F5F7F4F45E350E00E940C
:10584000A3328C01009709F1C601B7010E94152B04
:105850008C010097D1F0C5010E949E328C01009707
:10586000A1F0EE24FF24C60168E873E1A4010E94C0
:10587000AB298C010894E11CF11CF3E0EF16F10454
:1058800021F08FEF0F3F180771F3C5010E943233EB
:10589000C80126960FB6F894DEBF0FBECDBFCF91DC
:1058A000DF911F910F91FF90EF90DF90CF90BF900D
:1058B000AF909F908F900895DB01FC012AE234E0C5
:1058C0003183208312962D913D914D915C911597D6
:1058D000228333834483558308950F9387E097E0B1
:1058E00060E040E020E000E00E94413B8FEF96E066
:1058F0000E94AB3B0F9108956F927F928F929F927F
:10590000AF92BF92CF92DF92EF92FF920F931F93CD
:105910003C015B016A0149018BED96E00E940C2974
:1059200089E090E0B50146E050E00E94212782E046
:1059300090E0C80ED91E8FE090E0B60144E050E040
:105940000E9421270E5F1F4F81E090E0B80144E0E4
:1059500050E00E942127E2E0F0E0EE0EFF1E85E01D
:1059600090E0B70144E050E00E942127F4018281D9
:105970009381A481B581F30182839383A483B5834A
:105980001F910F91FF90EF90DF90CF90BF90AF905D
:105990009F908F907F906F9008956F927F928F92DB
:1059A0009F92AF92BF92CF92DF92EF92FF920F93AE
:1059B0001F93DF93CF93CDB7DEB76E970FB6F894F2
:1059C000DEBF0FBECDBF4C013B017A01690158011A
:1059D000CE0101966FEF4FEF2FEF00E00E94413BA9
:1059E0002AE234E038872F83F70182819381A481F2
:1059F000B58189879A87AB87BC873E872D87F6015B
:105A000082819381A481B5818F87988BA98BBA8B72
:105A10003C8B2B8BF50182819381A481B5818D8B89
:105A20009E8BAF8BB88F3A8F298F8B819C81AD81F4
:105A3000BE818B8F9C8FAD8FBE8FC401B301AE0131
:105A4000495F5F4F9E01235F3F4F8E010D5E1F4FE9
:105A5000E9E1EE2EF12CEC0EFD1E0E947C2C6E96E0
:105A60000FB6F894DEBF0FBECDBFCF91DF911F916F
:105A70000F91FF90EF90DF90CF90BF90AF909F90ED
:105A80008F907F906F9008950F931F93DF93CF9324
:105A9000CDB7DEB768970FB6F894DEBF0FBECDBFA7
:105AA000FA01D90122813381448155812B833C83C2
:105AB0004D835E83EAE2F4E0F887EF8329873A8733
:105AC0004B875C87FE87ED8712962D913D914D9116
:105AD0005C9115972F87388B498B5A8BFC8BEB8BFE
