:100000000C9409010C9436010C9436010C943601C1
:100010000C9436010C9436010C9436010C94360184
:100020000C9436010C9436010C9436010C94360174
:100030000C9436010C94DA090C9436010C943601B8
:100040000C9436010C9436010C9436010C94360154
:100050000C9436010C9436010C9436010C941B124E
:100060000C9436010C94520C0C947E0D0C943601B9
:100070000C9436010C9436010C9436010C94360124
:100080000C9436010C9436010C9436010C94360114
:100090000C948E0C0C94B20D0C9436010C94D3027B
:1000A0000C9436010C9436010C9436010C943601F4
:1000B0000C9436010C9436010C9436010C943601E4
:1000C0000C9436010C9436010C9436010C94CA0C35
:1000D0000C94E60D0C9436010C94060D0C941A0E3B
:1000E0000C94360100002100240027002A002D0076
:1000F0003000330001010000040107010A01000083
:100100002200250028002B002E00310034000201BF
:100110000000050108010B0100002000230026005B
:1001200029002C002F00320000010000030106010D
:10013000090105050505070508080808020202026D
:100140000A0A080804040404010101010101010173
:100150000303030303030303040707070C0C0C0C3E
:100160000C0C0C0C02020202060606060606060627
:100170000B0B0B0B0B0B0B0B0102102020080810B4
:100180002040102040800201020108040201010207
:1001900004081020408080402010080402018004E0
:1001A000020180402010080402010804020101023B
:1001B0000408102040800102040810204080000044
:1001C000090A02080B0C0D070603040100000000D9
:1001D000000000000000000000000000000000001F
:1001E0000000000000000000000011100F000000DF
:1001F00000000000000000000000000000000000FF
:10020000000000003801C004C40A290C300CD40ED0
:10021000220C11241FBECFEFD1E2DEBFCDBF00E024
:100220000CBF12E0A0E0B2E0E6E5F0E300E00BBFB7
:1002300002C007900D92A63CB107D9F71BBE17E08C
:10024000A6ECB2E001C01D92A535B107E1F712E0BE
:10025000C0E1D2E004C02297FE010E941A18C43007
:10026000D107C9F70E9408120C941E180C940000C4
:1002700086EC92E064E245E226E20E94800A08955C
:10028000EF92FF920F931F938C010E944907BC01CC
:10029000C8014AE050E00E940B1180E0E82E82E0A5
:1002A000F82EC801B7010E941E110E944107BC012F
:1002B000C8014AE050E00E940B11C801B7010E943A
:1002C0001E110E943C07BC01C8014AE050E00E9498
:1002D0000B111F910F91FF90EF9008950F931F93B3
:1002E000CF93DF93EC018B0162E072E00E941E115C
:1002F0000A30110524F4CE0160E30E943410CE01CF
:10030000B8014AE050E00E940B11DF91CF911F919C
:100310000F9108950F931F938C010E946107BC01F8
:10032000C8014AE050E00E940B110E945907BC012D
:10033000C8010E946E010E945107BC01C8010E94C1
:100340006E011F910F910895DF92EF92FF920F932C
:100350001F93CF93DF937C01EB01D42E042F10E089
:10036000C801880F991FEB81FC81E80FF91F60819C
:100370007181C7010E941E11C70166E072E00E94F0
:100380001E11E881F9810680F781E02DCE016D2DE7
:1003900019958130910509F440C08230910519F01A
:1003A000892BB9F13FC0E881F9810084F185E02D06
:1003B000CE016D2D1995892B91F4C801880F991FD5
:1003C000880F991FEF85F889E80FF91F4081518147
:1003D00062817381C70121E030E00E940512E8814B
:1003E000F9810084F185E02DCE016D2D19950197DD
:1003F000C9F4000F111F000F111FEF85F889E00FDE
:10040000F11F60817181C7014AE050E00E940B1129
:1004100009C0C70168E072E003C0C7016AE072E08A
:100420000E941E11DF91CF911F910F91FF90EF90CD
:10043000DF900895382F413210F040E042C08091A3
:10044000D1028823E1F791E09093D1022093D30267
:100450008FEF80933E031092F90241504093FA02CD
:100460004F5F9093D2028091D202330F832B8093FF
:10047000D2028091D402813041F41092D402809152
:10048000D2028093BB0085EC01C085EE8093BC0056
:100490008091D1028130E1F38091F902841710F448
:1004A0004091F90220E030E00AC0FB01E20FF31FA7
:1004B000D901A752BD4F8C9180832F5F3F4F2417E6
:1004C000A0F3842F08950F931F93582F122F4132BA
:1004D00010F081E04AC08091D1028823E1F782E0E8
:1004E0008093D1020093D3028FEF80933E0310924A
:1004F000F9024093FA02A9EDB2E0FB0102C081913A
:100500008D938E2F861B8417D0F31092D202809188
:10051000D202550F852B8093D2028091D402813074
:1005200041F41092D4028091D2028093BB0085ECFA
:1005300001C085EE8093BC00112321F08091D1028F
:100540008230E1F380913E038F3F11F480E00DC0D3
:1005500080913E03803211F482E007C080913E0317
:10056000803311F084E001C083E01F910F91089562
:10057000482F613210F081E008958091D1028430DB
:1005800011F082E0089560931C03ABEFB2E0842F7A
:100590009C01F90102C081918D938E2F841B8617D7
:1005A000D0F380E008951F920F920FB60F920BB612
:1005B0000F9211242F933F934F935F936F937F93E9
:1005C0008F939F93AF93BF93EF93FF938091B90065
:1005D00090E0887F90708036910509F4F2C08136F2
:1005E0009105CCF58832910509F47BC089329105DB
:1005F000B4F48031910509F46FC0813191053CF468
:10060000009709F447C1089709F04FC165C08831C8
:10061000910509F466C0809709F047C182C0803413
:10062000910509F4A4C08134910544F48033910507
:1006300009F482C0C89709F038C189C08035910596
:1006400009F489C08835910509F496C0883491056C
:1006500009F02BC1AEC08839910509F413C189395D
:100660009105ECF48837910509F4ABC08937910501
:100670004CF48836910509F4A4C08037910509F03F
:1006800014C19FC08838910509F4FCC080399105D8
:1006900009F49DC08038910509F007C198C0803BDE
:1006A000910509F4C6C0813B91054CF4803A91054F
:1006B00009F49FC0883A910509F0F7C0BAC0803CA0
:1006C000910509F4E3C0883C910509F4DFC0883B3B
:1006D000910509F0EAC0C2C08091D2028093BB00AC
:1006E000CFC09091F9028091FA02981768F4909126
:1006F000F902E92FF0E0E752FD4F80818093BB00C3
:100700009F5F9093F902BCC08091D302882309F4C3
:100710004BC085ED8093BC008091BC0084FDFCCF74
:10072000C2C080E280933E0385ED8093BC0080913F
:10073000BC0084FDFCCFB7C080E380933E0385ED11
:100740008093BC008091BC0084FDFCCFACC088E3EA
:1007500080933E039BC08091F9029091BB00E82FEB
:10076000F0E0E752FD4F90838F5F8093F902909104
:10077000F9028091FA0282C08091F9029091BB0047
:10078000E82FF0E0E752FD4F90838F5F8093F902EE
:100790008091D302882341F085ED8093BC00809145
:1007A000BC0084FDFCCF7FC081E08093D40284EA4A
:1007B0006EC085ED8093BC008091BC0084FDFCCFB1
:1007C00072C083E08093D10210923D0359C08091A2
:1007D0003D03803208F056C080913D039091BB00EC
:1007E000E82FF0E0E35EFC4F90838F5F80933D0342
:1007F00047C080913D03803230F4E0913D03F0E04A
:10080000E35EFC4F108285ED8093BC008091BC00BC
:1008100084FDFCCF1092D10260913D03E091D7029C
:10082000F091D8028DE193E070E0199510923D03AC
:100830002DC084E08093D10210921B0310921C0300
:10084000E091D502F091D602199580911C0388237E
:1008500029F481E080931C031092FB0290911B030A
:10086000E92FF0E0E550FD4F80818093BB009F5F52
:1008700090931B0390911B0380911C03981710F415
:1008800085EC01C085E88093BC000FC085EC8093A7
:10089000BC0009C010923E0385ED8093BC0080919E
:1008A000BC0084FDFCCF1092D102FF91EF91BF916B
:1008B000AF919F918F917F916F915F914F913F91F8
:1008C0002F910F900BBE0F900FBE0F901F90189599
:1008D0001092D10281E08093D3021092D40284E17D
:1008E00061E00E94F81385E161E00E94F813E9EBF2
:1008F000F0E080818E7F808380818D7F808388E49B
:100900008093B80085E48093BC00089581E08093D3
:10091000840360936103109282031092830308950D
:100920002091600330E080915F03281B3109C901E9
:10093000089540915F0380916003481718F02FEFEE
:100940003FEF0AC0E42FF0E0E15CFC4F8081282FEC
:1009500030E04F5F40935F03C9010895E0915F036A
:1009600080916003E81718F0EFEFFFEF06C0F0E0AA
:10097000E15CFC4F8081E82FF0E0CF0108950895FD
:10098000109288031092870388EE93E0A0E0B0E015
:100990008093890390938A03A0938B03B0938C0375
:1009A0008DE592E090938603809385030895CF921E
:1009B000DF92EF92FF920F931F93CF93DF937C010F
:1009C0006B018A01809184038823A1F0C0E0D0E00C
:1009D0000DC0D701ED91FC91D601AC0FBD1F019068
:1009E000F081E02DC7016C9119952196C017D107B0
:1009F00080F304C0CB01642F0E94B802C801DF91CC
:100A0000CF911F910F91FF90EF90DF90CF900895BD
:100A1000DF93CF930F92CDB7DEB7FC01698380914E
:100A200084038823C9F080918303803238F081E009
:100A300090E09383828320E030E015C080918203B0
:100A4000E82FF0E0EE59FC4F998190838F5F8093FF
:100A500082038093830305C0CE01019661E00E946A
:100A6000B80221E030E0C9010F90CF91DF910895E5
:100A70000F93062F8091610362E673E04091830338
:100A800021E00E946302109282031092830310926D
:100A900084030F91089561E00E9438050895413262
:100AA00008F040E2862F6FE373E00E941A02109272
:100AB0005F0380936003089521E00E944F0508952D
:100AC00010925F03109260031092820310928303CE
:100AD0000E94680408958F929F92AF92BF92CF9226
:100AE000DF92EF92FF920F931F93CF93DF937B01DF
:100AF0008C01EA012CE330E040E050E00E94E21774
:100B00006883C801B7012CE330E040E050E00E9468
:100B1000E217122F032FF42EE52E622F732F842F4E
:100B2000952F2CE330E040E050E00E94E21769830B
:100B3000612F702F8F2D9E2D2CE330E040E050E090
:100B40000E94E217122F032FF42EE52E622F732F2F
:100B5000842F952F28E130E040E050E00E94E2171A
:100B60006A83612F702F8F2D9E2D28E130E040E0A9
:100B700050E00E94E21779018A01C801B7016C5F59
:100B80007F4F8F4F9F4F27E030E040E050E00E94C2
:100B9000E2176F5F6B8320E0AA24BB24650101C0CC
:100BA0002F5F822E9924F401EE54F84FCF01837009
:100BB0009070892B99F4CF0164E670E00E94CF1702
:100BC000892B39F4CF0160E971E00E94CF17892B9E
:100BD00029F48EE691E0A0E0B0E004C08DE691E05B
:100BE000A0E0B0E0A80EB91ECA1EDB1EC501A0E041
:100BF000B0E0E816F9060A071B0790F62E83F40109
:100C0000EE54F84F83E0882E912C8E229F2281147F
:100C1000910499F4CF0164E670E00E94CF17892B0C
:100C200039F4CF0160E971E00E94CF17892B29F4D4
:100C30008EE691E0A0E0B0E004C08DE691E0A0E097
:100C4000B0E0A81AB90ACA0ADB0A980187010A1992
:100C50001B092C093D09CF0164E670E00E94CF1703
:100C60007C01CF0160E971E00E94CF17AC01E9E699
:100C7000F2E060E0613051F48114910449F4E11430
:100C8000F10441F44115510529F002C0808103C0EF
:100C90008CE101C08DE190E0A0E0B0E008171907F9
:100CA0002A073B0740F0081B190B2A0B3B0B6F5F11
:100CB00031966C30F9F66F5F6D83802F8F5F8C8378
:100CC000DF91CF911F910F91FF90EF90DF90CF9028
:100CD000BF90AF909F908F900895EF92FF920F93E7
:100CE0001F937B018C018091A8039091A903A0918F
:100CF000AA03B091AB03E816F9060A071B0771F0C7
:100D0000C801B7014DE953E00E946B05E092A803CA
:100D1000F092A9030093AA031093AB031F910F91C4
:100D2000FF90EF9008950E946D062091A30330E09C
:100D30002E54384FC9010895609393037093940320
:100D40008093950390939603209147023091480237
:100D50004091490250914A02260F371F481F591FE0
:100D600020939703309398034093990350939A03E9
:100D700082E090E090939C0380939B030E94631217
:100D80006093A4037093A5038093A6039093A70395
:100D90000895EF92FF920F931F931CC02F5F3F4F58
:100DA0004F4F5F4F209393033093940340939503E9
:100DB0005093960388EE93E0A0E0B0E0E80EF91EB1
:100DC0000A1F1B1FE092A403F092A5030093A60341
:100DD0001093A7030E946312E090A403F090A50370
:100DE0000091A6031091A7036E197F09800B910B48
:100DF0002091930330919403409195035091960371
:100E0000685E73408040904048F6809197039091CF
:100E10009803A0919903B0919A03281739074A07BC
:100E20005B07E8F0E0919103F09192033097B9F0FD
:100E30001995611571058105910519F00E949C06AF
:100E40000EC020E030E080919B0390919C03892BA1
:100E500011F021E030E030939C0320939B036091DC
:100E600093037091940380919503909196031F9141
:100E70000F91FF90EF9008950E94C9060E9493067B
:100E800008950E94C9060E946D068091A20390E019
:100E900008950E94C9060E946D068091A10390E00A
:100EA00008950E94C9060E946D0680919D0390E0FE
:100EB00008950E94C9060E946D0680919E0390E0ED
:100EC00008950E94C9060E946D0680919F0390E0DC
:100ED0000895FC0112828FEF81831082138208959E
:100EE000FC018381882331F0662319F48FEF81831D
:100EF000089511820895CF93DF93EC018B818823AD
:100F000019F480E090E013C089818095862388835E
:100F100085E893E06A810E94860485E893E0688111
:100F20000E94080585E893E00E944B0590E020E0D0
:100F300030E0892B11F421E030E0C901DF91CF913D
:100F40000895CF93DF93EC016A8385E893E00E94D4
:100F5000600585E893E06A8141E00E945C051B82A0
:100F6000882311F081E08B8385E893E00E94990447
:100F700088838B8190E0DF91CF9108950895089543
:100F8000FC011382128289E792E0918380830895A5
:100F9000FC01A081B18118962D913C9119976FEFBA
:100FA000F90119950895DC01ED91FC910284F38516
:100FB000E02D40E019950895FC016581862F84603D
:100FC00085836C60CF010E94D3070895DC011796DA
:100FD0009C911797491710F0492F415018968C9102
:100FE0001897803139F4943029F4E42FF0E0EB576E
:100FF000FD4F04C0E42FF0E0E757FD4F8081680FFC
:101000006068CD010E94D3070895DC01ED91FC9149
:101010000284F385E02D41E0199581E090E0089588
:1010200061E00E94D30780ED97E00E94711208955D
:10103000CF93DF93EC01423018F08C8188608C8371
:101040004F836887222329F0413019F48C81846012
:101050008C8364E670E080E090E00E94DD126C8199
:1010600064FD31C0E881F9810284F385E02DCE0171
:1010700063E042E0199584E991E10E947112E881F0
:10108000F9810284F385E02DCE0163E042E01995F9
:1010900084E991E10E947112E881F9810284F3856B
:1010A000E02DCE0163E042E0199586E990E00E94D0
:1010B0007112E881F9810284F385E02DCE0162E0AE
:1010C00042E0199516C06062CE010E94D30784E900
:1010D00091E10E9471126C816062CE010E94D3077F
:1010E00086E990E00E9471126C816062CE010E94DC
:1010F000D3076C816062CE010E94D30784E08D83A8
:10110000CE010E94DC07CE010E94100882E08E838F
:10111000CE0166E00E94D307CE010E94C807DF918E
:10112000CF910895DC0181E090E002C0880F991F03
:101130006A95E2F71C968C931C971A965C934E93D3
:101140001997ED91FC9111970084F185E02DCD0167
:1011500060E019950895DF92EF92FF920F931F932D
:101160008C01D62E8EE0E82EF12CE00EF11EF80157
:1011700062896D29C7010E947B07F8016289609529
:101180006D21C7010E947B071F910F91FF90EF9087
:10119000DF900895DC01FC0120E090E070E060FF4A
:1011A00002C08589282B9F5F3196943019F0759580
:1011B0006795F4CF413019F454964C9154971D968D
:1011C0008C911D97842B282BCD01622F0E94AB0898
:1011D00008950F931F93CF93DF93EC01142F062FE5
:1011E0000F70423019F4602F40E00CC070E044E012
:1011F000759567954A95E1F7412F0E94CA08CE017F
:10120000602F412F0E94CA08DF91CF911F910F914B
:101210000895FC012485222399F081859285009709
:1012200019F4662329F406C0019721F4662311F40A
:10123000258701C01586CF010E9665850E947B0724
:1012400008950F931F93CF93DF938C01EC012E969B
:10125000CE01F80163850E94A107019719F020E0F3
:1012600030E00CC0CE0161E00E947007F8011482EA
:10127000CE0160E00E947B0721E030E0C901DF91F0
:10128000CF911F910F910895DF92EF92FF920F93EC
:101290001F938C01F62EE42ED22E0E942109C80144
:1012A0006F2D4E2D2D2D0E9418081F910F91FF902C
:1012B000EF90DF9008952F923F924F925F926F923E
:1012C0007F928F929F92AF92BF92CF92DF92EF92D6
:1012D000FF920F931F93DF93CF93CDB7DEB73C01FF
:1012E000962E442E222E0E94C00781E992E0F3013F
:1012F00091838083C3010E960E946907F301938650
:10130000148615861286118681E090E09C0102C049
:10131000220F331F4A94E2F7228BFC0102C0EE0F2A
:10132000FF1F2A94E2F71F01F301238A9C0102C0E8
:10133000220F331F0A95E2F7248BFC0102C0EE0F47
:10134000FF1FEA94E2F77F01F301E58A9C0102C0E6
:10135000220F331FCA94E2F7268BFC0102C0EE0F66
:10136000FF1FAA94E2F75F01F301A78A02C0880F6A
:10137000991F8A94E2F7808FC3016E894F89588D37
:101380000E949208CF91DF911F910F91FF90EF90F3
:10139000DF90CF90BF90AF909F908F907F906F9095
:1013A0005F904F903F902F9008956093AC03109200
:1013B000AE0308951F920F920FB60F920BB60F92C5
:1013C00011242F933F934F935F936F937F938F934A
:1013D0009F93AF93BF93EF93FF938091AC030E94D1
:1013E0002B14482F8091AF039091B00301969093F6
:1013F000B0038093AF0380917904843618F085E0C0
:101400008093AD038091AD038330D1F0843020F41C
:10141000823009F059C006C0843071F1853009F07E
:1014200053C04CC0442309F04FC08091AF0390914A
:10143000B0038436910508F443C0109279041EC0AD
:10144000413009F041C080917904E82FF0E020910B
:10145000AF033091B003EE0FFF1FE455FC4F36830E
:1014600025838F5F809379041092B0031092AF03AD
:1014700084E08093AD0328C04423B9F480917904BB
:10148000E82FF0E02091AF033091B003EE0FFF1F83
:10149000E455FC4F368325838F5F80937904109247
:1014A000B0031092AF0383E0E4CF8091AF0390913B
:1014B000B0038536910540F085E0DBCF442321F46D
:1014C0001092B0031092AF038091AE03882329F0ED
:1014D000442311F42F9A01C02F98FF91EF91BF91EF
:1014E000AF919F918F917F916F915F914F913F91BC
:1014F0002F910F900BBE0F900FBE0F901F9018955D
:101500000F931F938C01862FF80160834183228300
:1015100061E00E944513F801828161E00E94451359
:101520001F910F910895FC0181EA92E091838083DD
:101530000895FC0181EA92E09183808308958FEF02
:1015400008950F931F938C0181EA92E0F801918333
:1015500080834283138224831582738B628B0E9463
:101560006312F80166837783808791871F910F91BB
:101570000895FC0181EA92E091838083CF010E946B
:1015800018120895089508958AE794E06CE270E0D7
:101590000E94D509089582E00895FC018DEA92E049
:1015A00091838083CF010E94930A08950F931F9324
:1015B0008C018DEA92E0F80191838083C8010E943A
:1015C000930AC8010E9418121F910F910895FC01FF
:1015D000828993896FE072E00E941E110895FC01D8
:1015E0008289938968E041E00E94E6070895FC0142
:1015F0008289938960E041E00E94E6070895FC013A
:101600008289938968E040E00E94E6070895FC0122
:101610008289938960E040E00E94E60708951F9365
:10162000CF93DF93EC01142F613009F442C0613095
:1016300038F0623009F467C0633009F0ACC098C07C
:101640000E94070BEC89FD89608171818A899B89E1
:1016500040E00E94A401CE010E94E70ACE010E9450
:10166000FF0AEC89FD89608171818A899B8941E04B
:101670000E94A401CE010E94E70ACE010E94F70A4F
:10168000EC89FD89628173818A899B8940E00E948F
:10169000A401CE010E94E70ACE010E94EF0AEC8964
:1016A000FD89628173818A899B8941E00E94A4013E
:1016B0006FC00E94070BEC89FD89648175818A895E
:1016C0009B8940E00E94A401CE010E94E70ACE015E
:1016D0000E94FF0AEC89FD89668177818A899B894E
:1016E00040E00E94A401CE010E94E70ACE010E94C0
:1016F000F70AEC89FD89608571858A899B8940E0BC
:101700000E94A4012EC00E94070BEC89FD8962850E
:1017100073858A899B8940E00E94A401113029F4D5
:101720008A899B896AE20E943410CE010E94E70AEE
:10173000CE010E94FF0AEC89FD89648575858A893E
:101740009B8940E00E94A401123029F48A899B8978
:101750006AE20E943410CE010E94E70ACE010E9484
:10176000F70ACE010E94E70ACE010E94EF0A10C0DC
:101770000E94070B8A899B890E944001CE010E942A
:10178000E70ACE010E94F70A8A899B890E948A0192
:10179000CE010E94E70ADF91CF911F910895EF9249
:1017A000FF920F931F938C017A0144E022E00E9484
:1017B000A10A8DEA92E0F80191838083F58AE48A98
:1017C0001F910F91FF90EF9008958F92AF92CF925B
:1017D000EF920F938130910531F56F5F7F4F61F587
:1017E00000D083E0EDB7FEB78183138212828BE7CE
:1017F00094E067E242E021E000E0E4E0EE2E75E0F4
:10180000C72E56E0A52E37E0832E0E945B090F906D
:101810000F900F9084E994E06BE774E04AEA54E09B
:101820000E94CF0B09C0892B39F46F5F7F4F21F4E1
:1018300084E994E00E94CD0A0F91EF90CF90AF9091
:101840008F90089580E090E06FEF7FEF0E94E50BAE
:10185000089581E090E06FEF7FEF0E94E50B08951F
:1018600080914B0290914C029093B9048093B804FC
:1018700080914D0290914E029093BB048093BA04E4
:1018800080914F02909150029093BD048093BC04CC
:1018900080915102909152029093BF048093BE04B4
:1018A000089508951F920F920FB60F920BB60F92E4
:1018B00011242F933F934F938F939F93EF93FF9315
:1018C0008091C00082FD19C04091C6008091DE0465
:1018D000282F30E02F5F3F4F2F7330708091DF044F
:1018E00090E02817390759F0E091DE04F0E0E05469
:1018F000FB4F42A32093DE0402C08091C600FF91FB
:10190000EF919F918F914F913F912F910F900BBE2F
:101910000F900FBE0F901F90189508951F920F9271
:101920000FB60F920BB60F9211242F933F934F9344
:101930008F939F93EF93FF938091C80082FD19C00E
:101940004091CE0080918005282F30E02F5F3F4FDF
:101950002F7330708091810590E02817390759F076
:10196000E0918005F0E0EE59FA4F42A32093800504
:1019700002C08091CE00FF91EF919F918F914F9186
:101980003F912F910F900BBE0F900FBE0F901F90A5
:10199000189508951F920F920FB60F920BB60F92E3
:1019A00011242F933F934F938F939F93EF93FF9324
:1019B0008091D00082FD19C04091D600809122060E
:1019C000282F30E02F5F3F4F2F7330708091230618
:1019D00090E02817390759F0E0912206F0E0EC5F1B
:1019E000F94F42A32093220602C08091D600FF91B6
:1019F000EF919F918F914F913F912F910F900BBE3F
:101A00000F900FBE0F901F90189508951F920F9280
:101A10000FB60F920BB60F9211242F933F934F9353
:101A20008F939F93EF93FF938091300182FD19C0B4
:101A3000409136018091C406282F30E02F5F3F4F40
:101A40002F7330708091C50690E02817390759F040
:101A5000E091C406F0E0EA55F94F42A32093C40692
:101A600002C080913601FF91EF919F918F914F912C
:101A70003F912F910F900BBE0F900FBE0F901F90B4
:101A800018958091DE042091DF0490E0805C9F4FE8
:101A9000821B91098F739070892B11F00E94510C59
:101AA000809180052091810590E0805C9F4F821B92
:101AB00091098F739070892B11F00E948D0C809189
:101AC00022062091230690E0805C9F4F821B9109A3
:101AD0008F739070892B11F00E94C90C8091C406FD
:101AE0002091C50690E0805C9F4F821B91098F7307
:101AF0009070892B11F00E94050D08951F920F928E
:101B00000FB60F920BB60F9211242F938F939F93C2
:101B1000EF93FF939091E0048091E104981731F4E2
:101B20008091C1008F7D8093C10010C0E091E104DD
:101B3000F0E0EE5DFA4F20818091E10490E00196A3
:101B40008F7390708093E1042093C600FF91EF9112
:101B50009F918F912F910F900BBE0F900FBE0F9002
:101B60001F9018951F920F920FB60F920BB60F92FF
:101B700011242F938F939F93EF93FF93909182055E
:101B800080918305981731F48091C9008F7D8093EF
:101B9000C90010C0E0918305F0E0EC53FA4F2081BA
:101BA0008091830590E001968F73907080938305F8
:101BB0002093CE00FF91EF919F918F912F910F90E5
:101BC0000BBE0F900FBE0F901F9018951F920F9293
:101BD0000FB60F920BB60F9211242F938F939F93F2
:101BE000EF93FF939091240680912506981731F486
:101BF0008091D1008F7D8093D10010C0E0912506A7
:101C0000F0E0EA59F94F20818091250690E0019695
:101C10008F739070809325062093D600FF91EF91EB
:101C20009F918F912F910F900BBE0F900FBE0F9031
:101C30001F9018951F920F920FB60F920BB60F922E
:101C400011242F938F939F93EF93FF939091C60648
:101C50008091C706981731F4809131018F7D809370
:101C6000310110C0E091C706F0E0E85FF84F208135
:101C70008091C70690E001968F7390708093C7069D
:101C800020933601FF91EF919F918F912F910F90AB
:101C90000BBE0F900FBE0F901F901895FC01268D64
:101CA000878D30E0205C3F4F281B31092F73307047
:101CB000C9010895FC01968D878D981719F42FEFAF
:101CC0003FEF06C0878DE80FF11D82A1282F30E07D
:101CD000C9010895DC015E969C915E975F968C9198
:101CE0005F97981719F42FEF3FEF10C05F968C9114
:101CF0005F97FD01E80FF11D92A15F968C915F97B0
:101D00008F5F8F735F968C93292F30E0C901089500
:101D1000DC015D968C915D97882339F05096ED91AA
:101D2000FC915197808186FFF9CF5D961C920895B2
:101D3000DC0190968C919097282F30E02F5F3F4FD9
:101D40002F73307091968C91919790E028173907F6
:101D5000C9F390968C919097FD01E80FF11DEE5913
:101D6000FF4F608390962C9390975296ED91FC9143
:101D70005397208181E090E05B960C905B9702C0C6
:101D8000880F991F0A94E2F7282B208381E05D9643
:101D90008C935D975096ED91FC9151978081806472
:101DA000808381E090E008951F931092C304109205
:101DB000C20428EE33E040E050E02093C4043093A6
:101DC000C5044093C6045093C70469EB72E0709356
:101DD000C1046093C0041092E1048091E1048093F7
:101DE000E0041092DF048091DF048093DE0485EC30
:101DF00090E09093CD048093CC0484EC90E0909399
:101E0000CF048093CE0480EC90E09093D104809333
:101E1000D00481EC90E09093D3048093D20482ECC0
:101E200090E09093D5048093D40486EC90E0909356
:101E3000D7048093D60414E01093D804B3E0B09391
:101E4000D904A7E0A093DA04F5E0F093DB04E1E025
:101E5000E093DC04109265051092640520936605FA
:101E60003093670540936805509369057093630547
:101E700060936205109283058091830580938205AB
:101E80001092810580918105809380058DEC90E012
:101E900090936F0580936E058CEC90E090937105A4
:101EA0008093700588EC90E09093730580937205A1
:101EB00089EC90E090937505809374058AEC90E02E
:101EC00090937705809376058EEC90E0909379055A
:101ED0008093780510937A05B0937B05A0937C05D9
:101EE000F0937D05E0937E0510920706109206069A
:101EF000209308063093090640930A0650930B0678
:101F000070930506609304061092250680912506BD
:101F10008093240610922306809123068093220644
:101F200085ED90E0909311068093100684ED90E08B
:101F3000909313068093120680ED90E0909315061F
:101F40008093140681ED90E0909317068093160617
:101F500082ED90E0909319068093180686ED90E04C
:101F600090931B0680931A0610931C06B0931D06CF
:101F7000A0931E06F0931F06E09320061092A90678
:101F80001092A8062093AA063093AB064093AC06A5
:101F90005093AD067093A7066093A6061092C706ED
:101FA0008091C7068093C6061092C5068091C5062B
:101FB0008093C40685E391E09093B3068093B206C4
:101FC00084E391E09093B5068093B40680E391E0BA
:101FD0009093B7068093B60681E391E09093B9069B
:101FE0008093B80682E391E09093BB068093BA0693
:101FF00086E391E09093BD068093BC061093BE06E5
:10200000B093BF06A093C006F093C106E093C2064A
:102010001F910895CF92DF92EF92FF920F931F933B
:10202000CF93DF937C016B018A01C0E0D0E00FC049
:10203000D6016D916D01D701ED91FC910190F08178
:10204000E02DC7011995C80FD91F01501040011587
:10205000110571F7CE01DF91CF911F910F91FF9084
:10206000EF90DF90CF900895DC01ED91FC9101900D
:10207000F081E02D19950895CF93DF93EC01611560
:10208000710519F420E030E00FC0DB010D90002055
:10209000E9F71197A61BB70BE881F9810280F3815C
:1020A000E02DAD0119959C01C901DF91CF910895F3
:1020B0004F925F927F928F929F92AF92BF92CF92F8
:1020C000DF92EF92FF920F931F93DF93CF93CDB7E1
:1020D000DEB7A1970FB6F894DEBF0FBECDBF2C01BF
:1020E000742ECB01223008F42AE019A231E2C32E6B
:1020F000D12CCC0EDD1E822E9924AA24BB24672D60
:10210000752FA50194010E94E21779018A01C80187
:10211000B701A50194010E94B017472D461B0894F2
:10212000C108D1084A3014F4405D01C0495CF60191
:102130004083E114F1040105110521F07E2C5F2D8F
:10214000C801DDCFC201B6010E943C10A1960FB6B6
:10215000F894DEBF0FBECDBFCF91DF911F910F91DD
:10216000FF90EF90DF90CF90BF90AF909F908F90B7
:102170007F905F904F900895DC012115310541F467
:10218000ED91FC910190F081E02D642F1995089557
:102190000E9458100895CF92DF92EF92FF920F9312
:1021A0001F93CF93DF93EC016A017B012115310569
:1021B00041F4E881F9810190F081E02D642F1995B7
:1021C0001FC02A303105D1F477FF17C0E881F981AB
:1021D0000190F081E02D6DE219958C01442755277F
:1021E000BA014C195D096E097F09CE012AE00E94EF
:1021F00058109801280F391F04C02AE00E94581077
:102200009C01C901DF91CF911F910F91FF90EF9039
:10221000DF90CF900895EF92FF920F931F937B0171
:102220009A010027F7FC0095102FB801A7010E9422
:10223000CB101F910F91FF90EF9008950E943C10DA
:1022400008957F928F929F92AF92BF92CF92DF922A
:10225000EF92FF920F931F93CF93DF934C017A017C
:102260008B01722ECB01BA01A80197010E94AC1715
:10227000882321F0C40169E372E021C0C0E0D0E00E
:1022800057016801E894D7F8C601B5012FEF3FEF79
:102290004FE75FE70E94AC17882351F4C601B501F0
:1022A0002FEF3FEF4FE75FE70E94F615181614F087
:1022B000C1E0D0E0219739F0C4016DE372E00E94E3
:1022C0003C10EC0193C0C801B7012FEF3FEF4FE77F
:1022D0005FE40E944517181654F0C801B7012FEFAC
:1022E0003FEF4FE75FEC0E94F615882324F4C4010A
:1022F00061E472E0E4CFC801B70120E030E040E0E3
:1023000050E00E94F61587FD03C0C0E0D0E00EC08B
:10231000D401ED91FC910190F081E02DC4016DE2BA
:102320001995EC0117FB109517F9109520E030E096
:1023300040E05FE3DD240BC0CA01B90120E030E0DA
:1023400040E251E40E94FA159B01AC01D394D714EA
:1023500098F3C801B7010E9492155B016C010E94BD
:1023600067167B018C01C401B801A7012AE030E0A7
:102370000E94BC10C80FD91F772039F0C40165E452
:1023800072E00E943C10C80FD91FC801B7010E941B
:1023900093169B01AC01C601B5010E94911524C0A2
:1023A00020E030E040E251E40E9449177B018C01BB
:1023B0000E9462165B016C01CC24B7FCC094DC2C3B
:1023C000C401B601A5012AE030E00E94CB10C80F7D
:1023D000D91FC601B5010E9495169B01AC01C80129
:1023E000B7010E9491157A947720D1F6CE01DF9142
:1023F000CF911F910F91FF90EF90DF90CF90BF9002
:10240000AF909F908F907F9008950E942111089522
:10241000CF93DF930E947B120E94C20AC1E4DDE0E9
:102420000E94C30A2097E1F30E94410DF9CF08955D
:102430000E94F81408951F920F920FB60F92112464
:102440002F933F938F939F93AF93BF9380914C07AC
:1024500090914D07A0914E07B0914F0730915007D2
:102460000196A11DB11D232F2D5F2D3720F02D5773
:102470000196A11DB11D2093500780934C079093A6
:102480004D07A0934E07B0934F0780914807909156
:102490004907A0914A07B0914B070196A11DB11DB4
:1024A0008093480790934907A0934A07B0934B073E
:1024B000BF91AF919F918F913F912F910F900FBE40
:1024C0000F901F9018958FB7F89420914C0730917A
:1024D0004D0740914E0750914F078FBFB901CA0178
:1024E0000895019739F0880F991F880F991F029757
:1024F0000197F1F70895789484B5826084BD84B51E
:10250000816084BD85B5826085BD85B5816085BDEE
:10251000EEE6F0E0808181608083E1E8F0E0108207
:10252000808182608083808181608083E0E8F0E048
:10253000808181608083E1EBF0E080818460808332
:10254000E0EBF0E0808181608083E1E9F0E0808170
:1025500082608083808181608083E0E9F0E0808117
:1025600081608083E1EAF0E0808182608083808105
:1025700081608083E0EAF0E0808181608083E1E235
:10258000F1E0808182608083808181608083E0E2ED
:10259000F1E0808181608083EAE7F0E080818460FF
:1025A000808380818260808380818160808380815C
:1025B000806880831092C1000895EF92FF920F937C
:1025C0001F93CF93DF937B018C013FB7F8948091E9
:1025D000480790914907A0914A07B0914B0726B54B
:1025E000A89B05C02F3F19F00196A11DB11D3FBF4B
:1025F000BA2FA92F982F8827820F911DA11DB11DD9
:1026000052E0880F991FAA1FBB1F5A95D1F7EC0102
:1026100030C00E9490153FB7F89480914807909180
:102620004907A0914A07B0914B0726B5A89B05C062
:102630002F3F19F00196A11DB11D3FBFBA2FA92F41
:10264000982F8827820F911DA11DB11D32E0880FA0
:10265000991FAA1FBB1F3A95D1F78C1B9D0B885E53
:102660009340B8F20894E108F10801091109C85132
:10267000DC4FE114F1040105110559F6DF91CF910A
:102680001F910F91FF90EF900895CF93DF93482F04
:1026900050E0CA0188589E4FFC0134914E5C5E4F59
:1026A000FA018491882369F190E0880F991FFC0159
:1026B000EC51FF4FA591B491FC01E250FF4FC59141
:1026C000D491662351F42FB7F8948C91932F909561
:1026D00089238C93888189230BC0623061F42FB7E2
:1026E000F8948C91932F909589238C938881832BD8
:1026F00088832FBF06C09FB7F8948C91832B8C934F
:102700009FBFDF91CF910895893009F449C08A3085
:10271000A0F4843051F1853040F4823079F1833077
:1027200000F5813009F063C026C0873079F1883028
:1027300098F5863009F05BC025C08D3009F442C0A1
:102740008E3028F48B30B1F18C30C0F52DC0803143
:1027500009F442C0813109F445C08F3009F047C007
:1027600037C0809180008F7703C0809180008F7D7B
:1027700080938000089584B58F7702C084B58F7DE3
:1027800084BD08958091B0008F7703C08091B00020
:102790008F7D8093B0000895809190008F7707C05F
:1027A000809190008F7D03C080919000877F8093FF
:1027B000900008958091A0008F7707C08091A000BD
:1027C0008F7D03C08091A000877F8093A000089533
:1027D000809120018F7703C0809120018F7D8093AD
:1027E0002001089580912001877F80932001089522
:1027F000FF920F931F93F62E482F50E0CA01825488
:102800009E4FFC012491CA0188589E4FFC011491EF
:102810004E5C5E4FFA0104910023C9F0222319F0A7
:10282000822F0E948413E02FF0E0EE0FFF1FE25092
:10283000FF4FA591B4919FB7F894FF2021F48C919C
:102840001095812302C08C91812B8C939FBF1F9187
:102850000F91FF9008950F931F93482F50E0CA01E6
:1028600082549E4FFC012491CA0188589E4FFC015E
:1028700004914E5C5E4FFA011491112319F420E08B
:1028800030E015C0222319F0822F0E948413812F7B
:1028900090E0880F991F885E9E4FFC01A591B4912E
:1028A0008C9120E030E0802311F021E030E0C9017C
:1028B0001F910F9108950F931F93CF93DF93BC0146
:1028C0008230910510F462E070E0E0915307F091DE
:1028D000540740E050E0A0E0B0E024C08081918146
:1028E00086179707D0F08617970771F48281938136
:1028F000109729F013969C938E9312972CC0909367
:1029000054078093530727C04115510519F08417C8
:10291000950718F48D01AC01EF01DF0182819381ED
:102920009C01F9013097D1F641155105F9F0CA0122
:10293000861B970B8430910580F48A819B81011559
:10294000110521F0F8019383828304C0909354070A
:1029500080935307FE01329645C0FE01E80FF91F30
:10296000619371930297998388833CC0809151074A
:1029700090915207892B41F4809155029091560213
:1029800090935207809351074091570250915802FB
:102990004115510541F44DB75EB7809153029091B6
:1029A0005402481B590B20915107309152072417AC
:1029B0003507B0F4CA01821B930B8617970780F086
:1029C000AB014E5F5F4F8417950750F0420F531FC6
:1029D0005093520740935107F9016193719302C0DC
:1029E000E0E0F0E0CF01DF91CF911F910F910895CA
:1029F000CF93DF939C01009709F48FC0EC012297DD
:102A00001B821A82609153077091540761157105FA
:102A100081F488819981820F931F20915107309111
:102A200052072817390739F5D0935207C093510739
:102A300074C0DB0140E050E0AC17BD0708F1BB8378
:102A4000AA83FE0121913191E20FF31FAE17BF0758
:102A500079F48D919C911197280F391F2E5F3F4F6C
:102A60003983288312968D919C9113979B838A8337
:102A70004115510571F4D0935407C09353074DC0CD
:102A800012968D919C911397AD01009711F0DC0186
:102A9000D3CFDA011396DC93CE931297FA012191EA
:102AA0003191E20FF31FCE17DF0769F48881998116
:102AB000280F391F2E5F3F4FFA01318320838A810F
:102AC0009B8193838283E0E0F0E0DB0112968D919D
:102AD0009C911397009719F0BC01FD01F6CFAB0153
:102AE0004E5F5F4FDB018D919C91840F951F20916C
:102AF0005107309152072817390779F4309729F494
:102B0000109254071092530702C01382128242504F
:102B100050405093520740935107DF91CF91089551
:102B200008955058BB27AA270ED075C166D130F042
:102B30006BD120F031F49F3F11F41EF45BC10EF411
:102B4000E095E7FB51C1E92F77D180F3BA1762070F
:102B500073078407950718F071F49EF58FC10EF482
:102B6000E0950B2EBA2FA02D0B01B90190010C019D
:102B7000CA01A0011124FF27591B99F0593F50F4B5
:102B8000503E68F11A16F040A22F232F342F44270D
:102B9000585FF3CF469537952795A795F040539505
:102BA000C9F77EF41F16BA0B620B730B840BBAF0D5
:102BB0009150A1F0FF0FBB1F661F771F881FC2F740
:102BC0000EC0BA0F621F731F841F48F48795779554
:102BD0006795B795F7959E3F08F0B3CF9395880F0B
:102BE00008F09927EE0F979587950895D9D008F4A6
:102BF00081E008950CD00FC107D140F0FED030F035
:102C000021F45F3F19F0F0C0511139C1F3C014D164
:102C100098F39923C9F35523B1F3951B550BBB27A3
:102C2000AA2762177307840738F09F5F5F4F220F50
:102C3000331F441FAA1FA9F333D00E2E3AF0E0E849
:102C400030D091505040E695001CCAF729D0FE2F95
:102C500027D0660F771F881FBB1F26173707480727
:102C6000AB07B0E809F0BB0B802DBF01FF279358DD
:102C70005F4F2AF09E3F510568F0B6C000C15F3F2C
:102C8000ECF3983EDCF3869577956795B795F795C5
:102C90009F5FC9F7880F911D9695879597F90895BD
:102CA000E1E0660F771F881FBB1F62177307840759
:102CB000BA0720F0621B730B840BBA0BEE1F88F768
:102CC000E095089504D06894B111D9C00895BCD09E
:102CD00088F09F5790F0B92F9927B751A0F0D1F005
:102CE000660F771F881F991F1AF0BA95C9F712C08F
:102CF000B13081F0C3D0B1E00895C0C0672F782F04
:102D00008827B85F39F0B93FCCF3869577956795FA
:102D1000B395D9F73EF490958095709561957F4F66
:102D20008F4F9F4F0895E89409C097FB3EF490950C
:102D30008095709561957F4F8F4F9F4F9923A9F094
:102D4000F92F96E9BB279395F69587957795679523
:102D5000B795F111F8CFFAF4BB0F11F460FF1BC067
:102D60006F5F7F4F8F4F9F4F16C0882311F096E9FA
:102D700011C0772321F09EE8872F762F05C06623A8
:102D800071F096E8862F70E060E02AF09A95660F61
:102D9000771F881FDAF7880F9695879597F908951A
:102DA000990F0008550FAA0BE0E8FEEF161617065C
:102DB000E807F907C0F012161306E407F50798F0C4
:102DC000621B730B840B950B39F40A2661F0232BDD
:102DD000242B252B21F408950A2609F4A140A69559
:102DE0008FEF811D811D089597F99F6780E870E03E
:102DF00060E008959FEF80EC089500240A94161671
:102E0000170618060906089500240A9412161306D8
:102E1000140605060895092E0394000C11F4882366
:102E200052F0BB0F40F4BF2B11F460FF04C06F5F82
:102E30007F4F8F4F9F4F089557FD9058440F551F58
:102E400059F05F3F71F04795880F97FB991F61F02C
:102E50009F3F79F087950895121613061406551FA3
:102E6000F2CF4695F1DF08C0161617061806991F0F
:102E7000F1CF86957105610508940895E894BB2704
:102E800066277727CB0197F908958ADF08F48FEF3B
:102E900008950BD0C0CFB1DF28F0B6DF18F095232E
:102EA00009F0A2CFA7CF1124EACFC6DFA0F3959FE8
:102EB000D1F3950F50E0551F629FF001729FBB2721
:102EC000F00DB11D639FAA27F00DB11DAA1F649FCD
:102ED0006627B00DA11D661F829F2227B00DA11D80
:102EE000621F739FB00DA11D621F839FA00D611D06
:102EF000221F749F3327A00D611D231F849F600D27
:102F0000211D822F762F6A2F11249F5750408AF05F
:102F1000E1F088234AF0EE0FFF1FBB1F661F771FEB
:102F2000881F91505040A9F79E3F510570F05CCF2B
:102F3000A6CF5F3FECF3983EDCF3869577956795D7
:102F4000B795F795E7959F5FC1F7FE2B880F911D09
:102F50009695879597F9089523DF880B990B089527
:102F6000629FD001739FF001829FE00DF11D649F6D
:102F7000E00DF11D929FF00D839FF00D749FF00DF9
:102F8000659FF00D9927729FB00DE11DF91F639F9A
:102F9000B00DE11DF91FBD01CF011124089597FB6C
:102FA000092E07260AD077FD04D02ED006D00020A7
:102FB0001AF4709561957F4F0895F6F79095819575
:102FC0009F4F0895A1E21A2EAA1BBB1BFD010DC045
:102FD000AA1FBB1FEE1FFF1FA217B307E407F507C9
:102FE00020F0A21BB30BE40BF50B661F771F881FA5
:102FF000991F1A9469F760957095809590959B013B
:10300000AC01BD01CF010895AA1BBB1B51E107C054
:10301000AA1FBB1FA617B70710F0A61BB70B881F68
:10302000991F5A95A9F780959095BC01CD010895F7
:10303000EE0FFF1F0590F491E02D199412E0C0E10E
:10304000D2E004C0FE010E941A182296C231D107B4
:06305000C9F7F894FFCF60
:103056002E003A0020003A003F0021002C200020DC
:103066002020202020202000545A3100565A312595
:1030760000545A3200565A32250054310054320058
:103086005433005231005232006E616E00696E6632
:10309600006F7666002E002C01000018021C02212B
:1030A600022502800055070000000000000805D731
:1030B6000490049904AE04BF041F1C1F1E1F1E1F8C
:1030C6001F1E1F1E1F0000000005080A101808BE5C
:1030D60007BF0717120040105000401454000000AC
:1030E6000005080A10440992080909E908000000C9
:1030F6000017129F0A990AB90A000000000F0BCBAD
:103106000ACD0AD60A00000000980E0A104E0E6A72
:063116000E5A0E880E00A7
:00000001FF
