:100000000C9492010C94BF010C94BF010C94BF019D
:100010000C94BF010C94BF010C94BF010C94BF0160
:100020000C94BF010C94BF010C94BF010C94BF0150
:100030000C94BF010C94BC210C94BF010C94BF0123
:100040000C94BF010C94BF010C94BF010C94BF0130
:100050000C94BF010C94BF010C94BF010C94782E3A
:100060000C94BF010C94D7250C941F270C94BF014E
:100070000C94BF010C94BF010C94BF010C94BF0100
:100080000C94BF010C94BF010C94BF010C94BF01F0
:100090000C9417260C945E270C94BF010C946110ED
:1000A0000C94BF010C94BF010C94BF010C94BF01D0
:1000B0000C94BF010C94BF010C94BF010C94BF01C0
:1000C0000C94BF010C94BF010C94BF010C945726F3
:1000D0000C949D270C94BF010C9497260C94DC275C
:1000E0000C94BF01005EBCE2613FDD83C29C7E20B8
:1000F000A3FD1F419DC3217FFCA2401E5F01E3BD04
:100100003E6082DC237D9FC1421CFEA0E1BF5D03F7
:1001100080DE3C62BEE0025CDF81633D7C22C09EEB
:100120001D43A1FF4618FAA427799BC584DA3866D7
:10013000E5BB5907DB856739BAE406581947A5FBC3
:100140007826C49A653BD987045AB8E6A7F91B45B7
:10015000C6987A24F8A6441A99C7257B3A6486D8AB
:100160005B05E7B98CD2306EEDB3510F4E10F2AC97
:100170002F7193CD114FADF3702ECC92D38D6F3183
:10018000B2EC0E50AFF1134DCE90722C6D33D18F77
:100190000C52B0EE326C8ED0530DEFB1F0AE4C126B
:1001A00091CF2D73CA947628ABF517490856B4EA57
:1001B0006937D58B5709EBB536688AD495CB297743
:1001C000F4AA4816E9B7550B88D6346A2B7597C937
:1001D0004A14F6A8742AC896154BA9F7B6E80A542B
:1001E000D7896B3500002100240027002A002D004C
:1001F0003000330001010000040107010A01000082
:100200002200250028002B002E00310034000201BE
:100210000000050108010B0100002000230026005A
:1002200029002C002F00320000010000030106010C
:10023000090105050505070508080808020202026C
:100240000A0A080804040404010101010101010172
:100250000303030303030303040707070C0C0C0C3D
:100260000C0C0C0C02020202060606060606060626
:100270000B0B0B0B0B0B0B0B0102102020080810B3
:100280002040102040800201020108040201010206
:1002900004081020408080402010080402018004DF
:1002A000020180402010080402010804020101023A
:1002B0000408102040800102040810204080000043
:1002C000090A02080B0C0D070603040100000000D8
:1002D000000000000000000000000000000000001E
:1002E0000000000000000000000011100F000000DE
:1002F00000000000000000000000000000000000FE
:10030000000000007605B9052F075A098309550A30
:100310004E127D2288229322A222AD22B8224C299D
:100320008E2A530911241FBECFEFD1E2DEBFCDBF0D
:1003300000E00CBF13E0A0E0B2E0EAE1F8E600E084
:100340000BBF02C007900D92AC36B107D9F71BBEA8
:1003500018E0ACE6B3E001C01D92AD3CB107E1F797
:1003600013E0C2E2D3E004C02297FE010E94C5332D
:10037000C430D107C9F70E94402D0C9400340C946E
:100380000000EF92FF920F93DF93CF93CDB7DEB7CC
:1003900060970FB6F894DEBF0FBECDBFA82F002325
:1003A00009F461C07E010894E11CF11C88E0F701AA
:1003B00011928A95E9F729833A834B835C836D8395
:1003C0007E83AF83988780E2801BE82FFF27E7FDBD
:1003D000F0954D815E816F817885181684F01D86B9
:1003E0001E861F86188A882799278E1B9F0B04C09C
:1003F00076956795579547958A95D2F728C0202F0F
:10040000332727FD3095DB01CA01022E04C0B695C3
:10041000A795979587950A94D2F78D879E87AF8782
:10042000B88B04C0440F551F661F771FEA95D2F79B
:1004300089819A81AB81BC8104C0B695A7959795B7
:1004400087952A95D2F7482B592B6A2B7B2B498706
:100450005A876B877C8729853A854B855C856D85B6
:100460007E85AF8598898A2F60960FB6F894DEBF97
:100470000FBECDBFCF91DF910F91FF90EF90089508
:10048000EF92FF920F93DF93CF93CDB7DEB76097D4
:100490000FB6F894DEBF0FBECDBFA82F002309F41E
:1004A00061C07E010894E11CF11C88E0F701119203
:1004B0008A95E9F729833A834B835C836D837E8336
:1004C000AF83988780E2801BE82FFF27E7FDF09538
:1004D00049815A816B817C81181684F019861A86AD
:1004E0001B861C86882799278E1B9F0B04C0440FF0
:1004F000551F661F771F8A95D2F728C0202F3327F4
:1005000027FD3095DB01CA01022E04C0880F991F18
:10051000AA1FBB1F0A94D2F789879A87AB87BC872B
:1005200004C07695679557954795EA95D2F78D81E2
:100530009E81AF81B88504C0880F991FAA1FBB1F79
:100540002A95D2F7482B592B6A2B7B2B4D875E8738
:100550006F87788B29853A854B855C856D857E858F
:10056000AF8598898A2F60960FB6F894DEBF0FBECC
:10057000CDBFCF91DF910F91FF90EF900895FB01D8
:10058000DC0101900D920020E1F70895FB01DC01F0
:100590004150504048F001900D920020C9F701C031
:1005A0001D9241505040E0F70895AEE0B0E0EBED11
:1005B000F2E00C94D7330E891F8986E08C831A836E
:1005C00009838FEF9FE79E838D839E01265E3F4FB9
:1005D000CE010196688D798DA9010E94F9022F81C3
:1005E0003885020F131FF80110822E96E4E00C9458
:1005F000F333ABE0B0E0EFEFF2E00C94C9333C0131
:100600002B015A01FC0117821682838181FD03C0F0
:100610006FEF7FEFC6C19AE0892E1E010894211C5E
:10062000311CF3012381F20123FD859123FF819188
:100630002F01882309F4B2C1853239F423FD859155
:1006400023FF81912F01853229F490E0B3010E94AC
:10065000EC04E7CF982FFF24EE249924FFE1FF1547
:10066000D0F09B3269F09C3228F4903259F09332EA
:1006700091F40EC09D3249F0903369F441E024C0FA
:1006800052E0F52A84E0F82A28C098E0F92A25C02B
:10069000E0E1FE2A22C0F7FC29C0892F80538A306E
:1006A00070F4F6FE05C0989C902C1124980E15C08D
:1006B000E89CE02C1124E80EF0E2FF2A0EC09E32E6
:1006C00029F4F6FC6BC140E4F42A07C09C3619F407
:1006D00050E8F52A02C0983649F4F20123FD9591BD
:1006E00023FF91912F01992309F0B8CF892F8554C9
:1006F000833018F08052833038F444E050E0A40E88
:10070000B51E5FE359830FC0933631F0933779F00C
:10071000933509F056C020C0F5018081898342E0FD
:1007200050E0A40EB51E610101E010E012C0F50119
:10073000C080D180F6FC03C06FEF7FEF02C0692D4F
:1007400070E042E050E0A40EB51EC6010E94E10434
:100750008C015FE7F52214C0F501C080D180F6FC62
:1007600003C06FEF7FEF02C0692D70E042E050E000
:10077000A40EB51EC6010E94D6048C0150E8F52ACD
:10078000F3FE07C01AC080E290E0B3010E94EC04BF
:10079000EA948E2D90E008171907A8F30EC0F60111
:1007A000F7FC8591F7FE81916F0190E0B3010E9403
:1007B000EC04E110EA94015010400115110579F79D
:1007C000EAC0943611F0993669F5F7FE08C0F501D4
:1007D000208131814281538184E090E00AC0F5019B
:1007E000808191819C01442737FD4095542F82E000
:1007F00090E0A80EB91E9FE6F92257FF09C0509558
:100800004095309521953F4F4F4F5F4FE0E8FE2ACE
:10081000CA01B901A1012AE030E00E941805D82ED2
:10082000D21840C0953729F41F2D1F7E2AE030E0F2
:100830001DC01F2D197F9F3661F0903720F4983529
:1008400009F0ACC00FC0903739F0983709F0A6C056
:1008500004C028E030E00AC0106114FD146020E1FB
:1008600030E004C014FD166020E132E017FF08C03C
:10087000F501608171818281938144E050E008C07C
:10088000F50180819181BC0180E090E042E050E080
:10089000A40EB51EA1010E941805D82ED2188FE70C
:1008A000F82EF122F6FE0BC05EEFF522D91438F4D3
:1008B000F4FE07C0F2FC05C08FEEF82202C01D2D29
:1008C00001C0192DF4FE0DC0FE01ED0DF11D80815A
:1008D000803319F499EEF92208C01F5FF2FE05C0BB
:1008E00003C08F2D867809F01F5F0F2DF3FC14C015
:1008F000F0FE0FC01E1510F09D2C0BC09D2C9E0C01
:10090000911A1E2D06C080E290E0B3010E94EC0413
:100910001F5F1E15C0F304C01E1510F4E11A01C0BC
:10092000EE2404FF0FC080E390E0B3010E94EC04CA
:1009300002FF1DC001FD03C088E790E00EC088E5FE
:1009400090E00BC0802F867891F001FF02C08BE20F
:1009500001C080E2F7FC8DE290E0B3010E94EC045C
:1009600006C080E390E0B3010E94EC049A94D9148D
:10097000C0F3DA94F101ED0DF11D808190E0B30137
:100980000E94EC04DD20A9F706C080E290E0B301EC
:100990000E94EC04EA94EE20C1F743CEF301668195
:1009A0007781CB012B96E2E10C94E533FC010590B5
:1009B000615070400110D8F7809590958E0F9F1F61
:1009C0000895FC016150704001900110D8F78095A6
:1009D00090958E0F9F1F08950F931F93CF93DF93D2
:1009E0008C01EB018B8181FF1BC082FF0DC02E812A
:1009F0003F818C819D812817390764F4E881F98152
:100A00000193F983E88306C0E885F985802F19955D
:100A1000892B31F48E819F8101969F838E8302C042
:100A20000FEF1FEFC801DF91CF911F910F91089534
:100A3000FA01AA27283051F1203181F1E8946F930F
:100A40006E7F6E5F7F4F8F4F9F4FAF4FB1E03ED0B5
:100A5000B4E03CD0670F781F891F9A1FA11D680F53
:100A6000791F8A1F911DA11D6A0F711D811D911D86
:100A7000A11D20D009F468943F912AE0269F1124FB
:100A80003019305D3193DEF6CF010895462F47705F
:100A9000405D4193B3E00FD0C9F7F6CF462F4F70BA
:100AA000405D4A3318F0495D31FD4052419302D018
:100AB000A9F7EACFB4E0A6959795879577956795BE
:100AC000BA95C9F700976105710508959B01AC01BE
:100AD0000A2E06945795479537952795BA95C9F7E5
:100AE000620F731F841F951FA01D08950F938CE63E
:100AF00093E060E040E020E000E00E94822A0F9155
:100B00000895CF93DF930E94A409C0EFD3E06991C9
:100B1000799184E398E00E943F0D83E0CE3FD807AF
:100B2000B1F784E398E060E072E00E942D2D0E940E
:100B300036070E9476090E94E70664E670E080E0CE
:100B400090E00E94602FDF91CF91089584E398E0B8
:100B500040E051EE60E070E00E941B280E94B30963
:100B60000E947B090E94F7070E945D0A0E94C4054B
:100B700008950F9386E793E060E040E020E000E016
:100B80000E94822A0F9108950E94C02E60937203E2
:100B900070937303809374039093750308952F9259
:100BA0003F924F925F926F927F928F929F92AF92FD
:100BB000BF92CF92DF92EF92FF920F931F93CF934A
:100BC000DF931B015C01EA016624772411E04424D1
:100BD0005524E3C0D501ED91FC91E82CA081B181B1
:100BE00016962D913C911797CF01682DF901199513
:100BF000029709F0BEC0F50180819181682D0E94A5
:100C0000B10CBC018EEA93E043E050E00E94C602C2
:100C100084E398E06EEA73E00E942D2D112331F4F5
:100C2000CE016DE072E00E94BF02219600D000D09C
:100C3000EDB7FEB73196ADB7BEB71296DC93CE9343
:100C400011972FE032E0338322838EEA93E095837D
:100C500084830E94D502C80FD91FF501A081B181FC
:100C60002DB73EB72A5F3F4F0FB6F8943EBF0FBE79
:100C70002DBFED91FC9111970084F185E02DCD0100
:100C80006E2D1995009739F1019709F06EC0D501C5
:100C90008D919C916E2D0E948F0C00D000D0EDB7ED
:100CA000FEB73196ADB7BEB71296DC93CE931197CF
:100CB00023E132E033832283958384830E94D5022B
:100CC000C80FD91F8DB79EB706960FB6F8949EBF72
:100CD0000FBE8DBF4AC0D5018D919C916E2D0E9493
:100CE0007C0C20E030E048EC52E40E94D9320E94B3
:100CF000F2317B018C01EDB7FEB738970FB6F8944F
:100D0000FEBF0FBEEDBFCDB6DEB60894C11CD11C30
:100D1000D283C183E6E1F2E0D6011396FC93EE9311
:100D20001297C80124E630E040E050E00E9494337E
:100D3000D60115963C932E931497B701C80124E66B
:100D400030E040E050E00E949433F6017783668300
:100D50000E94D502C80FD91F2DB73EB7285F3F4F5D
:100D60000FB6F8943EBF0FBE2DBF0894611C711CD6
:100D700010E00894811C911CD5018D919C910E94DA
:100D8000AE0C90E0881699060CF424CF0894411C10
:100D9000511CE2E0F0E0AE0EBF1E421453041CF4FE
:100DA00088249924E9CFC301DF91CF911F910F913E
:100DB000FF90EF90DF90CF90BF90AF909F908F907B
:100DC0007F906F905F904F903F902F900895EF929B
:100DD000FF920F931F93E0907203F09073030091C2
:100DE0007403109175030E94C02EE61AF70A080BCF
:100DF000190B81E1E81687E2F80680E0080780E039
:100E0000180740F18091720390917303A0917403CD
:100E1000B0917503805F984DAF4FBF4F80937203C1
:100E200090937303A0937403B09375038FE380933F
:100E30007C0380EF93E067E070E04DE753E00E94B1
:100E4000CF051816190634F484E398E06CE773E0D4
:100E50000E942D2D1F910F91FF90EF90089582EB2E
:100E600093E06CE270E00E94271A089582EB93E011
:100E700063EB73E00E944721892B09F4B7C04091CE
:100E8000B7035091B8036091B9037091BA0384E33A
:100E900098E020E130E00E94CA2B8091B703909146
:100EA000B803A091B903B091BA038D3D22E2920735
:100EB0002FEFA20720E0B20709F48FC08E3D22E297
:100EC00092072FEFA20720E0B207C0F48F3E20E187
:100ED00092072FEFA20720E0B20709F43DC0873E3A
:100EE00028E192072FEFA20720E0B20779F18D5F8A
:100EF0009240AF4FB04009F075C072C085382AE704
:100F000092072FEFA20720E0B20721F186382AE7E7
:100F100092072FEFA20720E0B20738F48F5C9043CE
:100F2000AF4FB04009F05EC00FC0873528EA920786
:100F30002FEFA20720E0B20789F18F51904EAF4FFB
:100F4000B04009F04FC00AC080E001C081E00E94BB
:100F5000700948C082E0FBCF83E0F9CF0E946109AD
:100F6000813069F4E091FE03F091FF03A081B1812B
:100F700012962D913C911397CF01F90119950E947A
:100F80006109823079F5E0910004F0910104A081BB
:100F9000B18112962D913C9113971BC00E9461095B
:100FA000813059F4E091FE03F091FF03A081B181FB
:100FB0002D913C91CF01F90119950E946109823070
:100FC00089F4E0910004F0910104A081B1812D9198
:100FD0003C91CF01F901199505C00E94660902C034
:100FE0000E946B0982EB93E00E942C1A089582EB19
:100FF00093E00E946222089582E00895FC0183E854
:1010000092E091838083CF010E94F32408950F938F
:101010001F938C0183E892E0F80191838083C801DB
:101020000E94F324C8010E946F2E1F910F91089512
:10103000FC01828993896EE172E00E94432C08953D
:10104000FC018289938968E041E00E94E5170895D8
:10105000FC018289938960E041E00E94E5170895D0
:10106000FC018289938968E040E00E94E5170895B9
:10107000FC018289938960E040E00E94E5170895B1
:101080001F93CF93DF93EC01142F613009F442C01A
:10109000613038F0623009F467C0633009F0ACC0E9
:1010A00098C00E943808EC89FD89608171818A8925
:1010B0009B8940E00E94BE0CCE010E941808CE0120
:1010C0000E943008EC89FD89608171818A899B8941
:1010D00041E00E94BE0CCE010E941808CE010E9481
:1010E0002808EC89FD89628173818A899B8940E0A7
:1010F0000E94BE0CCE010E941808CE010E9420085A
:10110000EC89FD89628173818A899B8941E00E9413
:10111000BE0C6FC00E943808EC89FD89648175811E
:101120008A899B8940E00E94BE0CCE010E9418086B
:10113000CE010E943008EC89FD89668177818A8919
:101140009B8940E00E94BE0CCE010E941808CE018F
:101150000E942808EC89FD89608571858A899B89B0
:1011600040E00E94BE0C2EC00E943808EC89FD8928
:10117000628573858A899B8940E00E94BE0C11308C
:1011800029F48A899B896AE20E94132BCE010E946E
:101190001808CE010E943008EC89FD8964857585A8
:1011A0008A899B8940E00E94BE0C123029F48A890A
:1011B0009B896AE20E94132BCE010E941808CE017F
:1011C0000E942808CE010E941808CE010E94200823
:1011D00010C00E9438088A899B890E94B90ACE01F2
:1011E0000E941808CE010E9428088A899B890E94C3
:1011F000030BCE010E941808DF91CF911F91089533
:10120000EF92FF920F931F938C017A0144E022E04A
:101210000E94522583E892E0F80191838083F58A49
:10122000E48A1F910F91FF90EF9008958F92AF92F3
:10123000CF92EF920F938130910531F56F5F7F4F21
:1012400061F500D083E0EDB7FEB78183138212828F
:1012500081EC93E067E242E021E000E0E4E0EE2E82
:1012600075E0C72E56E0A52E37E0832E0E945A194E
:101270000F900F900F908AED93E061EC73E040EFD8
:1012800053E00E94000909C0892B39F46F5F7F4F3A
:1012900021F48AED93E00E94FE070F91EF90CF902A
:1012A000AF908F90089580E090E06FEF7FEF0E9405
:1012B0001609089581E090E06FEF7FEF0E94160914
:1012C00008958AED93E00E94012508958AED93E048
:1012D0000E94312508958AED93E00E9443250895E8
:1012E000682F8AED93E00E94042508958AED93E02B
:1012F0000E946A25089581EC93E060E142E020E0DD
:101300000E9443190895809165029091660290931E
:101310000D0480930C048091670290916802909371
:101320000F0480930E048091690290916A02909359
:1013300011048093100480916B0290916C02909341
:101340001304809312040895CF93DF93C0EFD3E08A
:10135000899199910E94830D83E0CE3FD807C1F710
:10136000DF91CF910895EF92FF920F931F9383E146
:1013700090E00E94752E182F092F6AE170E04CE072
:1013800054E00E94650B80EFE82E83E0F82E109366
:10139000F0030093F10383E190E00E94752E182F73
:1013A000092F6CE170E040E154E00E94650B10935E
:1013B000F203F701038387E190E00E94752E182F56
:1013C000092F20916D0230916E0268E14BE852E0E6
:1013D0000E943A0C1093F403F701058387E190E033
:1013E0000E94752E182F092F20916F0230917002E4
:1013F00068E143E952E00E943A0C1093F603F701CA
:10140000078387E190E00E94752E182F092F209105
:1014100071023091720268E14BE952E00E943A0C8D
:101420001093F803F701018789E190E00E94752E7F
:101430008C0120917302309174026EE140E050E023
:101440000E94950E1093FF030093FE0301151105F2
:1014500019F480E090E002C0C80106969093FB0367
:101460008093FA0389E190E00E94752E8C0120910F
:1014700075023091760260E24AE050E00E94950EDB
:1014800010930104009300040115110519F480E084
:1014900090E002C0C80106969093FD038093FC0380
:1014A0001F910F91FF90EF90089584E194E064E222
:1014B00045E226E20E94E422089582E69AE00E9434
:1014C000A1150895EF92FF920F931F93DF93CF938F
:1014D000CDB7DEB767970FB6F894DEBF0FBECDBFAE
:1014E0008E01085F1F4FC8010E94D62278018E012D
:1014F000005F1F4F84E194E00E946D23288B398B9D
:101500004A8B5B8B6C8B7D8B8E8B9F8BD701F8010D
:1015100088E001900D928150E1F764E670E080E090
:1015200090E00E94602F2D853E8587E02D3D380795
:1015300008F38B858D8388858B8389858A838C8549
:101540008E838A8589838F858C83822F825B8F83AC
:10155000CE0101960E942A1467960FB6F894DEBF5A
:101560000FBECDBFCF91DF911F910F91FF90EF90F4
:101570000895EF92FF920F931F938C010E94C5155F
:10158000BC01C8014AE050E00E94302C88E4E82EFB
:1015900082E0F82EC801B7010E94432C0E94BD15BD
:1015A000BC01C8014AE050E00E94302CC801B701DC
:1015B0000E94432C0E94B815BC01C8014AE050E0CB
:1015C0000E94302C1F910F91FF90EF9008950F9380
:1015D0001F93CF93DF93EC018B016AE472E00E94CA
:1015E000432C0A30110524F4CE0160E30E94132B32
:1015F000CE01B8014AE050E00E94302CDF91CF913B
:101600001F910F9108950F931F938C010E94DD1578
:10161000BC01C8014AE050E00E94302C0E94D51560
:10162000BC01C8010E94E70A0E94CD15BC01C80197
:101630000E94E70A1F910F91089581E090E00895BC
:10164000CF93DF93EC0169897A898FE194E00E945E
:101650002624ED85FE85892BA9F482E090E0918314
:10166000808393838283EF85F88980912104909110
:1016700022049183808380911F049091200495839C
:10168000848306C081E090E091838083938382838A
:10169000DF91CF910895FC0187EA92E091838083E6
:1016A000CF010E94700C08950F931F938C0187EA5D
:1016B00092E0F80191838083C8010E94700CC801F8
:1016C0000E946F2E1F910F910895CF92DF92EF929B
:1016D000FF920F931F937C016B0162E008E813E116
:1016E00020E030E00E949D0D87EA92E0F7019183AF
:1016F0008083D28AC18A1F910F91FF90EF90DF9073
:10170000CF900895FC0185EB92E091838083CF0117
:101710000E94700C08950F931F938C0185EB92E04B
:10172000F80191838083C8010E94700CC8010E9457
:101730006F2E1F910F910895EF92FF920F931F93B9
:10174000CF93DF937C01DC0151968C910E94E90DCF
:101750008C010E94DC16F70163897489C8010E941C
:10176000BB16C80164E441E00E947B1662E370E0AE
:1017700080E090E00E94602FC8010E94DC168093F8
:101780002304D70153966D917C915497C8010E9410
:10179000BB16C8016EEB40E00E947B16C4E2D4E0A9
:1017A000C8010E942A168993B4E0CD32DB07C1F745
:1017B000CE01099768E00E94E51590912C04D701AD
:1017C0001D96ED91FC911E97891729F081E090E01C
:1017D0009183808348C082E090E0918380839091E0
:1017E000250480E020912404422F50E0482B592BFF
:1017F000F7018289882399F083E0440F551F8A9569
:10180000E1F780912B048031B9F420912A048CE017
:1018100090E0821B9109407F480F591F0DC08091B5
:101820002804807611F4487F07C0803211F44C7F81
:1018300003C0803409F44E7FD7011F960D911C918F
:101840005097BA01882777FD8095982F0E942532FE
:1018500020E030E040E85DE30E94D932F801608387
:10186000718382839383DF91CF911F910F91FF90BA
:10187000EF900895BF92CF92DF92EF92FF920F9375
:101880001F93CF93DF93EC01B62E7A016901AC016F
:101890004B5E5F4F61E008E813E120E030E00E941A
:1018A0009D0D85EB92E099838883B98AFC8AEB8A47
:1018B000DE8ACD8AF7018081823239F0883229F0C0
:1018C000803121F481E08A8B01C01A8ADF91CF91A7
:1018D0001F910F91FF90EF90DF90CF90BF900895F0
:1018E000FC0183EC92E0918380830895FC0183ECFA
:1018F00092E091838083089570E0660F771F660FF2
:10190000771FDC011F96ED91FC915097E60FF71FB2
:101910002081318142815381B901CA01089570E06B
:10192000660F771F660F771FDC011F96ED91FC9104
:101930005097E60FF71F80819181089570E0660F40
:10194000771FDC011D96ED91FC911E97E60FF71FA6
:1019500080819181089580E090E00895FC0182816A
:10196000089570E0660F771FDC011396ED91FC91EE
:101970001497E60FF71F808191810895DF92EF920F
:10198000FF920F931F93CF93DF937C01EB01D42E33
:10199000042F10E0C801880F991FEB81FC81E80F2C
:1019A000F91F60817181C7010E94432CC7016EE459
:1019B00072E00E94432CE881F9810680F781E02DD6
:1019C000CE016D2D19958130910509F440C082300A
:1019D000910519F0892BB9F13FC0E881F9810084A4
:1019E000F185E02DCE016D2D1995892B91F4C8015B
:1019F000880F991F880F991FEF85F889E80FF91F45
:101A00004081518162817381C70121E030E00E94F1
:101A10002A2DE881F9810084F185E02DCE016D2D1C
:101A200019950197C9F4000F111F000F111FEF85C1
:101A3000F889E00FF11F60817181C7014AE050E031
:101A40000E94302C09C0C70160E572E003C0C701E5
:101A500062E572E00E94432CDF91CF911F910F91BC
:101A6000FF90EF90DF9008950F931F938C010E94D9
:101A7000BE0CC8010E941B2B1F910F910895EF927D
:101A8000FF921F93CF93DF937C01EB0110E006C020
:101A9000C701BE01412F0E94340D1F5F8A811817B4
:101AA000B8F3DF91CF911F91FF90EF900895EF92DF
:101AB000FF920F931F93CF93DF93EC010E94C02EF0
:101AC0007B018C0189859A85AB85BC85A80197012E
:101AD000281B390B4A0B5B0B8D819E81AF81B8852A
:101AE000281739074A075B0710F480E005C0E9862C
:101AF000FA860B871C8781E0DF91CF911F910F91B0
:101B0000FF90EF900895CF93DF93EC010E94570D63
:101B1000882339F0E881F9810190F081E02DCE0130
:101B20001995DF91CF910895FC0183EC92E09183A8
:101B30008083CF010E946F2E0895BF92CF92DF92D3
:101B4000EF92FF920F931F93CF93DF93EC01B62E8A
:101B50006801790183EC92E0998388836A835C83CE
:101B60004B83062F10E0C801880F991F880F991F1B
:101B70000E94722E988B8F87C801880F991F0E9430
:101B8000722E9E878D87CD82DE82EF82F8860E943C
:101B9000C02E685E73408040904069877A878B874B
:101BA0009C8720E080E090E008C0ED85FE85E80F8E
:101BB000F91F118210822F5F02962B15B0F3DF916F
:101BC000CF911F910F91FF90EF90DF90CF90BF903A
:101BD0000895FF920F931F93CF93DF93F82EC09138
:101BE0003004D091310494E020E030E009C0F901E4
:101BF000E65CFB4F80818F1509F4922F2F5F3F4FDA
:101C00002C173D07A4F3943061F5C430D1051CF0C6
:101C1000E0E0F0E02FC08EE090E00E94752E182FDB
:101C2000092F6F2D0E942717FE01EE0FFF1FEE5C9C
:101C3000FB4F108301838091300490913104FC01AB
:101C4000E65CFB4FF082FC01EE0FFF1FEE5CFB4FEA
:101C50000190F081E02D019690933104809330043F
:101C600009C0E92FF0E0EE0FFF1FEE5CFB4F019083
:101C7000F081E02DCF01DF91CF911F910F91FF9067
:101C8000089506970E94450E089582E090E0089519
:101C900006970E944C0E089581E090E00895069703
:101CA0000E94530E08950F931F938C0181ED92E0D3
:101CB000F80191838083429697838683C8010696B4
:101CC0000E94700CC8010E94C80E1F910F910895C8
:101CD00006970E946C0E08950F931F938C0181ED5F
:101CE00092E0F80191838083429697838683C801AE
:101CF00006960E94700CC8010E94C80EC8010E947E
:101D00006F2E1F910F91089506970E94880E0895D7
:101D10000F931F93FC01058916890E94750FF80126
:101D2000808311821F910F910895CF92DF92EF92DD
:101D3000FF920F931F937C01E62F6901BA014E2F8A
:101D40000E944C0FA701495E5F4FC701069661E0F4
:101D500001E010E020E030E00E949D0D81ED92E076
:101D6000F70191838083429697838683D08EC78ABA
:101D70001F910F91FF90EF90DF90CF900895FC019D
:101D800081EF92E091838083CF010E94780F0895C4
:101D9000FC0181EF92E091838083CF010E94780F54
:101DA00008950F931F938C0181EF92E0F8019183C6
:101DB0008083C8010E94780FC8010E946F2E1F9176
:101DC0000F910895462FFC01648175816F5F7F4FED
:101DD00083E196E00E94CA2208950F931F938C011D
:101DE0000E948D0FC80160E00E94E20E1F910F91CA
:101DF00008950F931F938C010E94940FC80161E016
:101E00000E94E20E1F910F910895EF92FF920F939F
:101E10001F938C0183E1E82E86E0F82EF80164819F
:101E20007581C70145E50E94CA22F8016481758168
:101E30006E5F7F4FC7014AEA0E94CA221F910F912D
:101E4000FF90EF900895FC01648175816F5F7F4F73
:101E500083E196E00E94C322811181E00895CF932F
:101E6000DF93EC016C817D8183E196E00E94C322C7
:101E7000853511F090E00CC06C817D816E5F7F4FE5
:101E800083E196E00E94C32290E08A3A09F491E04F
:101E9000892FDF91CF9108950F931F93CF93DF93F5
:101EA000EC018B01642F40E00E949C0F81EF92E0D7
:101EB000998388831D830C83CE010E942F0F882372
:101EC00049F0CE010E94230F882339F0CE010E94F1
:101ED000F90E06C0CE010E94050FCE010E94ED0E44
:101EE000DF91CF911F910F910895FC018281089598
:101EF000FC018DEF92E0918380830895FC018DEFCA
:101F000092E0918380830895FC018DEF92E09183AC
:101F10008083CF010E946F2E0895FC01128283817D
:101F200061E00E947B300895FC0181E0828383811F
:101F300060E00E947B300895FC01862F2DEF32E097
:101F4000318320834283638361E00E94C82F089518
:101F5000382F413210F040E042C080913E04882387
:101F6000E1F791E090933E04209340048FEF80933B
:101F7000AB04109266044150409367044F5F909306
:101F80003F0480913F04330F832B80933F04809163
:101F90004104813041F41092410480913F048093C8
:101FA000BB0085EC01C085EE8093BC0080913E04AF
:101FB0008130E1F380916604841710F44091660447
:101FC00020E030E00AC0FB01E20FF31FD901AA5B59
:101FD000BB4F8C9180832F5F3F4F2417A0F3842F3A
:101FE00008950F931F93582F122F413210F081E064
:101FF0004AC080913E048823E1F782E080933E044A
:10200000009340048FEF8093AB04109266044093DA
:102010006704A6E4B4E0FB0102C081918D938E2F8A
:10202000861B8417D0F310923F0480913F04550F14
:10203000852B80933F0480914104813041F41092BC
:10204000410480913F048093BB0085EC01C085EE84
:102050008093BC00112321F080913E048230E1F393
:102060008091AB048F3F11F480E00DC08091AB04F0
:10207000803211F482E007C08091AB04803311F00C
:1020800084E001C083E01F910F910895482F6132D1
:1020900010F081E0089580913E04843011F082E0D8
:1020A000089560938904A8E6B4E0842F9C01F901A7
:1020B00002C081918D938E2F841B8617D0F380E010
:1020C00008951F920F920FB60F920BB60F92112424
:1020D0002F933F934F935F936F937F938F939F9330
:1020E000AF93BF93EF93FF938091B90090E0887F07
:1020F00090708036910509F4F2C081369105CCF5D7
:102100008832910509F47BC089329105B4F480319D
:10211000910509F46FC0813191053CF4009709F4F1
:1021200047C1089709F04FC165C08831910509F48E
:1021300066C0809709F047C182C08034910509F4D8
:10214000A4C08134910544F48033910509F482C020
:10215000C89709F038C189C08035910509F489C054
:102160008835910509F496C08834910509F02BC192
:10217000AEC08839910509F413C189399105ECF491
:102180008837910509F4ABC0893791054CF488363E
:10219000910509F4A4C08037910509F014C19FC0CE
:1021A0008838910509F4FCC08039910509F49DC077
:1021B0008038910509F007C198C0803B910509F46A
:1021C000C6C0813B91054CF4803A910509F49FC04B
:1021D000883A910509F0F7C0BAC0803C910509F42E
:1021E000E3C0883C910509F4DFC0883B910509F004
:1021F000EAC0C2C080913F048093BB00CFC09091E1
:10220000660480916704981768F490916604E92F3A
:10221000F0E0EA5BFB4F80818093BB009F5F90936F
:102220006604BCC080914004882309F44BC085ED4E
:102230008093BC008091BC0084FDFCCFC2C080E2D2
:102240008093AB0485ED8093BC008091BC0084FD3D
:10225000FCCFB7C080E38093AB0485ED8093BC00D6
:102260008091BC0084FDFCCFACC088E38093AB04BC
:102270009BC0809166049091BB00E82FF0E0EA5B80
:10228000FB4F90838F5F80936604909166048091EA
:10229000670482C0809166049091BB00E82FF0E053
:1022A000EA5BFB4F90838F5F8093660480914004CC
:1022B000882341F085ED8093BC008091BC0084FDB3
:1022C000FCCF7FC081E08093410484EA6EC085ED3D
:1022D0008093BC008091BC0084FDFCCF72C083E081
:1022E00080933E041092AA0459C08091AA048032BF
:1022F00008F056C08091AA049091BB00E82FF0E04E
:10230000E657FB4F90838F5F8093AA0447C080916C
:10231000AA04803230F4E091AA04F0E0E657FB4FC3
:10232000108285ED8093BC008091BC0084FDFCCFC1
:1023300010923E046091AA04E0914404F091450497
:102340008AE894E070E019951092AA042DC084E008
:1023500080933E041092880410928904E091420414
:10236000F0914304199580918904882329F481E030
:10237000809389041092680490918804E92FF0E01A
:10238000E859FB4F80818093BB009F5F9093880446
:102390009091880480918904981710F485EC01C00D
:1023A00085E88093BC000FC085EC8093BC0009C019
:1023B0001092AB0485ED8093BC008091BC0084FD3D
:1023C000FCCF10923E04FF91EF91BF91AF919F918E
:1023D0008F917F916F915F914F913F912F910F90CE
:1023E0000BBE0F900FBE0F901F90189510923E04D9
:1023F00081E0809340041092410484E161E00E94F6
:102400007B3085E161E00E947B30E9EBF0E0808188
:102410008E7F808380818D7F808388E48093B80065
:1024200085E48093BC00089581E08093F10460937B
:10243000CE041092EF041092F00408952091CD0480
:1024400030E08091CC04281B3109C90108954091E6
:10245000CC048091CD04481718F02FEF3FEF0AC04D
:10246000E42FF0E0E455FB4F8081282F30E04F5FF0
:102470004093CC04C9010895E091CC048091CD042F
:10248000E81718F0EFEFFFEF06C0F0E0E455FB4F60
:102490008081E82FF0E0CF01089508951092F504AF
:1024A0001092F40488EE93E0A0E0B0E08093F6048C
:1024B0009093F704A093F804B093F90489E093E0B3
:1024C0009093F3048093F2040895CF92DF92EF92F9
:1024D000FF920F931F93CF93DF937C016B018A01CF
:1024E0008091F1048823A1F0C0E0D0E00DC0D701B5
:1024F000ED91FC91D601AC0FBD1F0190F081E02D54
:10250000C7016C9119952196C017D10780F304C0BB
:10251000CB01642F0E944610C801DF91CF911F911B
:102520000F91FF90EF90DF90CF900895DF93CF93BE
:102530000F92CDB7DEB7FC0169838091F104882347
:10254000C9F08091F004803238F081E090E093830C
:10255000828320E030E015C08091EF04E82FF0E0A6
:10256000E153FB4F998190838F5F8093EF048093B9
:10257000F00405C0CE01019661E00E94461021E002
:1025800030E0C9010F90CF91DF9108950F93062F8E
:102590008091CE046FEC74E04091F00421E00E9441
:1025A000F10F1092EF041092F0041092F1040F91C9
:1025B000089561E00E94C6120895413208F040E299
:1025C000862F6CEA74E00E94A80F1092CC048093CE
:1025D000CD04089521E00E94DD1208951092CC04EC
:1025E0001092CD041092EF041092F0040E94F611A4
:1025F00008958F929F92AF92BF92CF92DF92EF9207
:10260000FF920F931F93CF93DF937B018C01EA011D
:102610002CE330E040E050E00E9472336883C80150
:10262000B7012CE330E040E050E00E947233122FFB
:10263000032FF42EE52E622F732F842F952F2CE37A
:1026400030E040E050E00E9472336983612F702FC8
:102650008F2D9E2D2CE330E040E050E00E9472333D
:10266000122F032FF42EE52E622F732F842F952F18
:1026700028E130E040E050E00E9472336A83612F2D
:10268000702F8F2D9E2D28E130E040E050E00E9419
:10269000723379018A01C801B7016C5F7F4F8F4F98
:1026A0009F4F27E030E040E050E00E9472336F5FC0
:1026B0006B8320E0AA24BB24650101C02F5F822E1A
:1026C0009924F401EE54F84FCF0183709070892B58
:1026D00099F4CF0164E670E00E945F33892B39F4EE
:1026E000CF0160E971E00E945F33892B29F48EE607
:1026F00091E0A0E0B0E004C08DE691E0A0E0B0E0A1
:10270000A80EB91ECA1EDB1EC501A0E0B0E0E81687
:10271000F9060A071B0790F62E83F401EE54F84FD2
:1027200083E0882E912C8E229F228114910499F4AB
:10273000CF0164E670E00E945F33892B39F4CF014A
:1027400060E971E00E945F33892B29F48EE691E005
:10275000A0E0B0E004C08DE691E0A0E0B0E0A81AEF
:10276000B90ACA0ADB0A980187010A191B092C0950
:102770003D09CF0164E670E00E945F337C01CF0128
:1027800060E971E00E945F33AC01E5E1F3E060E0F5
:10279000613051F48114910449F4E114F10441F4DD
:1027A0004115510529F002C0808103C08CE101C0B0
:1027B0008DE190E0A0E0B0E0081719072A073B0779
:1027C00040F0081B190B2A0B3B0B6F5F31966C30E6
:1027D000F9F66F5F6D83802F8F5F8C83DF91CF91D0
:1027E0001F910F91FF90EF90DF90CF90BF90AF902F
:1027F0009F908F900895EF92FF920F931F937B010C
:102800008C018091150590911605A0911705B09146
:102810001805E816F9060A071B0771F0C801B70189
:102820004AE055E00E94F912E0921505F092160573
:1028300000931705109318051F910F91FF90EF90CB
:1028400008950E94FB132091100530E02E54384F5C
:10285000C90108954F925F926F927F928F929F92DB
:10286000AF92BF92CF92DF92EF92FF920F931F939E
:10287000CF93DF934C01DC0116961C91612F70E021
:1028800080E090E020E833E341EE51E00E944033E5
:102890005B016C0122EB37E0E12FF0E0EE54F84FE2
:1028A0001DC0C90183709070892BB1F4C90164E621
:1028B00070E00E945F33892B39F4C90160E971E04F
:1028C0000E945F33892B41F480E891E5A1E0B0E0FC
:1028D000A80EB91ECA1EDB1E2F5F3F4F2E173F07E3
:1028E00001F7D40115968C91482E5524C90164E650
:1028F00070E00E945F337C01C90160E971E00E94D1
:102900005F338C01C1E0D0E093E0692E712C62222C
:10291000732227C0C230D10591F46114710479F497
:10292000E114F10419F40115110549F480E89BE361
:10293000A6E2B0E0A80EB91ECA1EDB1E11C0FE0141
:10294000EC5EFC4F608170E080E090E020E831E5D3
:1029500041E050E00E944033A60EB71EC81ED91EAB
:102960002196C415D505B4F2D40112966C9170E08D
:1029700080E090E020E13EE040E050E00E94403303
:102980007B018C01F401618170E080E090E02CE338
:1029900030E040E050E00E944033E60EF71E081F92
:1029A000191FD4018C91E80EF11C011D111D149604
:1029B0006C9170E061507040882777FD8095982F6A
:1029C00020E831E541E050E00E944033E60EF71E7A
:1029D000081F191FEA0CFB1C0C1D1D1DB701C801A7
:1029E000DF91CF911F910F91FF90EF90DF90CF90EB
:1029F000BF90AF909F908F907F906F905F904F901F
:102A000008956093000570930105809302059093EB
:102A1000030520917702309178024091790250911C
:102A20007A02260F371F481F591F20930405309341
:102A30000505409306055093070582E090E09093CA
:102A40000905809308050E94C02E609311057093BC
:102A5000120580931305909314050895EF92FF9249
:102A60000F931F931CC02F5F3F4F4F4F5F4F20931B
:102A7000000530930105409302055093030588EE4D
:102A800093E0A0E0B0E0E80EF91E0A1F1B1FE092E1
:102A90001105F092120500931305109314050E947E
:102AA000C02EE0901105F0901205009113051091D1
:102AB00014056E197F09800B910B20910005309150
:102AC00001054091020550910305685E7340804006
:102AD000904048F68091040590910505A091060567
:102AE000B0910705281739074A075B07E8F0E0911E
:102AF000FE04F091FF043097B9F019956115710546
:102B00008105910519F00E9401150EC020E030E00A
:102B10008091080590910905892B11F021E030E0A2
:102B20003093090520930805609100057091010517
:102B300080910205909103051F910F91FF90EF90F6
:102B400008959093FF048093FE0480910005909176
:102B50000105A0910205B0910305809304059093AF
:102B60000505A0930605B09307050E942E1508954C
:102B70000E942E150E94211408950E942E150E9475
:102B8000FB1380910F0590E008950E942E150E947E
:102B9000FB1380910E0590E008950E942E150E946F
:102BA000FB1380910A0590E008950E942E150E9463
:102BB000FB1380910B0590E008950E942E150E9452
:102BC000FB1380910C0590E00895DC0180E00BC0C0
:102BD000E82FF0E08D9190E0E827F927EC51FF4FC6
:102BE000E49161508E2F662399F70895DF92EF925A
:102BF000FF920F931F93FC01E08001811281F894F2
:102C0000F80181818E2981838281DE2CD0948D21EF
:102C1000828383E090E00E94F42EF80181818D216F
:102C200081838AE090E00E94F42EF801008178947C
:102C300085E390E00E94F42E80E010E0FF240E2156
:102C40001F21012B09F081E01F910F91FF90EF9060
:102C5000DF900895EF92FF920F931F93CF93DF932E
:102C60007C0101E010E0C0E0D0E0C7010E94F61551
:102C70008111102B000F2196C830D105B1F7812F9B
:102C8000DF91CF911F910F91FF90EF9008951F93C7
:102C9000CF93DF93FC011081C181D281912F909558
:102CA00060FF12C0F8948A8189238A838981812BED
:102CB00089838AE090E00E94F42E8A81812B8A83A6
:102CC000789487E390E011C0F8948A8189238A83FD
:102CD0008981812B898381E490E00E94F42E8A818E
:102CE000812B8A83789485E090E00E94F42EDF9116
:102CF000CF911F910895CF92DF92EF92FF920F93A1
:102D00001F93CF93DF938C01E42EFF24F394C0E054
:102D1000D0E0C62EDD2460E08F2D90E08C219D2137
:102D2000892B09F061E0C8010E944716FF0C21962B
:102D3000C830D10581F7EE20A9F4F894D801119696
:102D4000ED91FC91129791818C91809598239183BC
:102D50001196ED91FC91129792818C918095982318
:102D600092837894DF91CF911F910F91FF90EF9014
:102D7000DF90CF900895EF92FF920F931F93CF9320
:102D8000DF938C017B0165E540E00E947B16C0E08B
:102D9000D0E0F701EC0FFD1FC801608140E00E9408
:102DA0007B162196C830D105A1F7DF91CF911F91F5
:102DB0000F91FF90EF900895DF92EF92FF920F93A3
:102DC0001F93CF93DF93FC010081C181D281F894DE
:102DD0008981D02ED0948D21898378941DE7E02EAF
:102DE000FF24115059F182E090E00E94F42E888176
:102DF00090E08E219F21892BA1F3F8948A818D2167
:102E00008A838981802B8983789480EE91E00E9467
:102E1000F42EF89489818D21898386E490E00E94C4
:102E2000F42E888110E090E0E822F922EF2809F4DE
:102E300011E078948AE991E00E94F42E812FDF91CD
:102E4000CF911F910F91FF90EF90DF900895FF9227
:102E50000F931F938C01F62E862F60E00E94C82FDF
:102E60008F2D90E0FC01E858FD4FE491D801EC93E0
:102E70008E5C9D4FFC016491E62FF0E0EE0FFF1F8A
:102E8000E85EFD4F8591949112969C938E931197D5
:102E90001B961C921B971D961C921D971C961C92AC
:102EA000F80187E090E012863197009711F00197C2
:102EB000FACF1F910F91FF900895FC0112828FEFBE
:102EC0008183108213820895FC018381882331F06D
:102ED000662319F48FEF8183089511820895CF93AB
:102EE000DF93EC018B81882319F480E090E013C01C
:102EF000898180958623888382EF94E06A810E948D
:102F0000141282EF94E068810E94961282EF94E09E
:102F10000E94D91290E020E030E0892B11F421E0EA
:102F200030E0C901DF91CF910895CF93DF93EC0199
:102F30006A8382EF94E00E94EE1282EF94E06A814D
:102F400041E00E94EA121B82882311F081E08B830A
:102F500082EF94E00E94271288838B8190E0DF91BA
:102F6000CF91089508950895FC011382128285E29D
:102F700093E0918380830895FC01A081B18118962C
:102F80002D913C9119976FEFF90119950895FC0166
:102F9000A081B18118962D913C91199760E0F901BB
:102FA00019950895DC01ED91FC910284F385E02DE3
:102FB00040E019950895FC016581862F8460858322
:102FC0006C60CF010E94D2170895DC0117969C9186
:102FD0001797491710F0492F415018968C91189760
:102FE000803139F4943029F4E42FF0E0EF5CFC4FA9
:102FF00004C0E42FF0E0EB5CFC4F8081680F606858
:10300000CD010E94D2170895DC01ED91FC9102845C
:10301000F385E02D41E0199581E090E0089561E0AD
:103020000E94D21780ED97E00E94F42E0895CF936E
:10303000DF93EC01423018F08C8188608C834F83E1
:103040006887222329F0413019F48C8184608C83B5
:1030500064E670E080E090E00E94602F6C8164FD87
:1030600031C0E881F9810284F385E02DCE0163E06F
:1030700042E0199584E991E10E94F42EE881F981FA
:103080000284F385E02DCE0163E042E0199584E9E6
:1030900091E10E94F42EE881F9810284F385E02D0C
:1030A000CE0163E042E0199586E990E00E94F42E9B
:1030B000E881F9810284F385E02DCE0162E042E0EF
:1030C000199516C06062CE010E94D21784E991E181
:1030D0000E94F42E6C816062CE010E94D21786E9B4
:1030E00090E00E94F42E6C816062CE010E94D217A3
:1030F0006C816062CE010E94D21784E08D83CE0184
:103100000E94DB17CE010E940F1882E08E83CE0151
:1031100066E00E94D217CE010E94BC17DF91CF91CA
:103120000895DC0181E090E002C0880F991F6A9544
:10313000E2F71C968C931C971A965C934E93199702
:10314000ED91FC9111970084F185E02DCD0160E0B7
:1031500019950895DF92EF92FF920F931F938C01C0
:10316000D62E8EE0E82EF12CE00EF11EF8016289D9
:103170006D29C7010E946F17F801628960956D2162
:10318000C7010E946F171F910F91FF90EF90DF9082
:103190000895DC01FC0190E020E070E060FF02C0D7
:1031A0008589282B9F5F3196943019F07595679526
:1031B000F4CF413019F454964C9154971D968C914C
:1031C0001D97842B282BCD01622F0E94AA180895E9
:1031D0000F931F93CF93DF93EC01142F062F0F70E3
:1031E000423019F4602F40E00CC070E044E0759567
:1031F00067954A95E1F7412F0E94C918CE01602FCB
:10320000412F0E94C918DF91CF911F910F9108950E
:10321000FC012485222399F081859285009719F479
:10322000662329F406C0019721F4662311F425874B
:1032300001C01586CF010E9665850E946F1708950F
:103240000F931F93CF93DF938C01EC012E96CE0149
:10325000F80163850E949517019719F020E030E08E
:103260000CC0CE0161E00E946417F8011482CE0107
:1032700060E00E946F1721E030E0C901DF91CF913B
:103280001F910F910895DF92EF92FF920F931F937A
:103290008C01F62EE42ED22E0E942019C8016F2D2B
:1032A0004E2D2D2D0E9417181F910F91FF90EF901A
:1032B000DF9008952F923F924F925F926F927F928C
:1032C0008F929F92AF92BF92CF92DF92EF92FF9236
:1032D0000F931F93DF93CF93CDB7DEB73C01962EAC
:1032E000442E222E0E94B4178DE393E0F3019183C4
:1032F0008083C3010E960E945D17F30193861486A6
:1033000015861286118681E090E09C0102C0220F92
:10331000331F4A94E2F7228BFC0102C0EE0FFF1F1D
:103320002A94E2F71F01F301238A9C0102C0220FB5
:10333000331F0A95E2F7248BFC0102C0EE0FFF1F3A
:10334000EA94E2F77F01F301E58A9C0102C0220FB3
:10335000331FCA94E2F7268BFC0102C0EE0FFF1F59
:10336000AA94E2F75F01F301A78A02C0880F991FB0
:103370008A94E2F7808FC3016E894F89588D0E942D
:103380009118CF91DF911F910F91FF90EF90DF90F7
:10339000CF90BF90AF909F908F907F906F905F90F5
:1033A0004F903F902F900895DF92EF92FF920F93EE
:1033B0001F93CF93DF93EC01882777FD8095982F9B
:1033C0000E9425327B018C0120E030E040E45FE385
:1033D0000E94D93220E030E048E452E40E948A3171
:1033E0000E94F231C617D70714F4DD241CC0DD2477
:1033F000C801B70120E030E040EA5FE30E94D93223
:1034000020E030E048E452E40E948A3120E030E0DD
:1034100040E85FE30E9422310E94F2316C177D0781
:1034200014F0DD24D3948D2D90E0DF91CF911F9186
:103430000F91FF90EF90DF9008956C597F4F0E949D
:10344000D4190895645670400E94D4190895609369
:10345000190510921B05089582E080931A051092B9
:10346000E6050895AF92BF92CF92DF92EF92FF925E
:103470000F931F93CF93DF936B01DB011A96CD91CE
:10348000DC911B978A819B8168E273E20E941D1A7E
:10349000892B09F480C08091E605843009F08CC046
:1034A0008C819D816AEC78E00E94221A892B09F4B4
:1034B00083C08E819F8160E372E00E941D1A892B78
:1034C00009F47AC0F601118610868FEF9FEFAFEFF7
:1034D000BFEF84839583A683B78381E090E09183D7
:1034E000808354C08C819D8164E971E10E94221A1D
:1034F000892B09F450C02696EE24FF24870123E08F
:10350000A22EB12C8881998160E372E00E941D1A7D
:10351000892B09F440C08A819B8160E476E00E9497
:10352000221A892B69F0EE0CFF1C001F111F81E08D
:1035300090E0A0E0B0E0E82AF92A0A2B1B2B0CC08F
:103540008A819B8160E372E00E94221A892B19F123
:10355000EE0CFF1C001F111F249691E4A916B10464
:1035600029F0A2E0B0E0AA0EBB1ECCCF80E290E032
:10357000F60191878087D6011496ED92FD920D9306
:103580001C93179781E090E08D939C9321E030E0AD
:1035900040E050E004C020E030E040E050E0B901FD
:1035A000CA01DF91CF911F910F91FF90EF90DF90B3
:1035B000CF90BF90AF9008958091E605843458F382
:1035C00091CFAF92BF92CF92DF92EF92FF920F9383
:1035D0001F93CF93DF936B018091E6058A3108F446
:1035E00080C0DB011A96CD91DC911B97888199816F
:1035F000845F914080F4FB01118610868FEF9FEF6E
:10360000AFEFBFEF84839583A683B78389E090E013
:103610009183808361C08A819B8160E679E00E940A
:103620001D1A892B09F45DC02696EE24FF2487011C
:1036300062E0A62EB12C30C0229788819981229613
:1036400068E572E00E94221A892B79F188819981BC
:1036500060EB74E00E941D1A892B69F0EE0CFF1CD0
:10366000001F111F81E090E0A0E0B0E0E82AF92AF5
:103670000A2B1B2B0CC08881998168E572E00E949F
:103680001D1A892B71F1EE0CFF1C001F111FA2E007
:10369000B0E0AA0EBB1E24968091E60595012F5F2F
:1036A0003F4F90E0281739073CF2C50101979595E7
:1036B0008795F601918780870C971CF411861086F8
:1036C00010C0D6011496ED92FD920D931C9317979E
:1036D00082E090E08D939C9321E030E040E050E068
:1036E00004C020E030E040E050E0B901CA01DF91C1
:1036F000CF911F910F91FF90EF90DF90CF90BF90EF
:10370000AF900895AF92BF92CF92DF92EF92FF9267
:103710000F931F93CF93DF936B018091E6058A315E
:1037200008F489C0DB011A96CD91DC911B97888142
:1037300099818052934080F4FB01118610868FEFAF
:103740009FEFAFEFBFEF84839583A683B78389E0B4
:1037500090E0918380836AC08A819B816CEA7DE0DE
:103760000E941D1A892B09F466C08C819D816CEA28
:103770007DE00E941D1A892B09F45DC02896EE2475
:10378000FF248701A3E0AA2EB12C30C022978881A4
:103790009981229666EB73E00E94221A892B79F1B7
:1037A0008881998160E679E00E941D1A892B69F071
:1037B000EE0CFF1C001F111F81E090E0A0E0B0E0C4
:1037C000E82AF92A0A2B1B2B0CC0888199816CEB03
:1037D00072E00E941D1A892B71F1EE0CFF1C001F74
:1037E000111FA2E0B0E0AA0EBB1E24968091E60550
:1037F00095012F5F3F4F90E0281739073CF2C50134
:10380000019795958795F601918780870C971CF411
:103810001186108610C0D6011496ED92FD920D937C
:103820001C93179789E090E08D939C9321E030E002
:1038300040E050E004C020E030E040E050E0B9015A
:10384000CA01DF91CF911F910F91FF90EF90DF9010
:10385000CF90BF90AF9008956F927F928F929F927A
:10386000AF92BF92CF92DF92EF92FF920F931F938E
:10387000CF93DF934B018091E605823208F47AC042
:10388000DB011A96CD91DC911B978A819B816EE5B5
:1038900071E00E941D1A892B09F46CC036E0A32E3A
:1038A000B12CAC0EBD1EEE24FF24870122E0C22EF7
:1038B000D12C37C0E5012297888199816EE977E0A4
:1038C0000E941D1A892B69F0EE0CFF1C001F111FAE
:1038D00081E090E0A0E0B0E0E82AF92A0A2B1B2B57
:1038E0000DC0888199816EEE72E00E941D1A892BAD
:1038F00009F440C0EE0CFF1C001F111FD5018D9173
:103900009C916EE571E00E94221AE4E0F0E0AE0EB8
:10391000BF1E892B11F463010FC022E030E0C20EFC
:10392000D31E36010894611C711C8091E60590E05D
:10393000681679060CF4BECFC60101979595879558
:10394000D40119969C938E93189740972CF419964E
:103950001C921E9218970EC0F401E482F582068331
:1039600017838AE090E09183808321E030E040E09B
:1039700050E004C020E030E040E050E0B901CA016E
:10398000DF91CF911F910F91FF90EF90DF90CF903B
:10399000BF90AF909F908F907F906F9008956F929F
:1039A0007F928F929F92AF92BF92CF92DF92EF92CF
:1039B000FF920F931F93CF93DF93FB013A015901BD
:1039C0006801DA012D913C91848595852817390786
:1039D00024F071E0E72EF12C56C0C901880F991F21
:1039E0000284F385E02DE80FF91F80819181982EE4
:1039F000892E20FD06C00CE91FEF51E0E52EF12CC9
:103A000004C004E610E0EE24FF24B8016C0D7D1D17
:103A1000892D982D0E94D419892B19F021E030E0CE
:103A200020C0E601CC0FDD1FB8016C0F7D1F892D72
:103A3000982D0E94D419892B19F022E030E011C092
:103A4000CC0DDD1D0C0F1D1F892D982DB8010E9476
:103A5000D419892B21F4EE24EA94FE2C14C023E01F
:103A600030E0F501808191810196918380838217F6
:103A700093074CF011821082D3018D919C91119784
:103A800001968D939C93C701DF91CF911F910F9168
:103A9000FF90EF90DF90CF90BF90AF909F908F906E
:103AA0007F906F9008952F923F924F925F926F9206
:103AB0007F928F929F92AF92BF92CF92DF92EF92BE
:103AC000FF920F931F93DF93CF9300D000D0CDB719
:103AD000DEB71C015B018091E6058D3008F47EC0E5
:103AE00081E090E09A8389831C821B82A3E08A2E66
:103AF000912C8C0E9D1EC1012E010894411C511C5D
:103B0000A201940109E713E00E94CF1C892B09F060
:103B100065C0C101B501A20194010E94CF1C0197AB
:103B200009F05CC0C101B501A20194010E94CF1C43
:103B3000892B09F053C0CC24DD2476016624772438
:103B4000C4018D829E832FC0C101B501A2012D81C8
:103B50003E8109E713E00E94CF1C4C01C101B50171
:103B6000A2012D813E810E94CF1C21E0821691048A
:103B700079F4892B99F5CC0CDD1CEE1CFF1C81E03F
:103B800090E0A0E0B0E0C82AD92AEA2AFB2A08C0BF
:103B9000892821F5019711F5CC0CDD1CEE1CFF1CCA
:103BA0000894611C711C8091E60590E029813A819E
:103BB000281739074CF2D50119967C926E92189706
:103BC000F501C482D582E682F78283E090E091839A
:103BD000808321E030E040E050E004C020E030E0AD
:103BE00040E050E0B901CA0126960FB6F894DEBF56
:103BF0000FBECDBFCF91DF911F910F91FF90EF903E
:103C0000DF90CF90BF90AF909F908F907F906F90FC
:103C10005F904F903F902F9008952F923F924F9238
:103C20005F926F927F928F929F92AF92BF92CF924C
:103C3000DF92EF92FF920F931F93DF93CF93CDB755
:103C4000DEB728970FB6F894DEBF0FBECDBF1C01BC
:103C50004B01DB011C968D919C911D97181619063E
:103C60000CF0C4C081E090E09A8389831A960D918C
:103C70001C911B97F801828193816AE67AE00E9489
:103C80001D1A892B09F4B2C082E090E09A838983DF
:103C9000D80114968D919C91159769E773E00E9465
:103CA000221A892B09F4A2C083E090E09A838983C9
:103CB0001C821B8203E0A02EB12CAC0EBD1EC101E4
:103CC000B4013E010894611C711CA30195010CEB29
:103CD00011E00E94CF1C892B09F088C0C101B401FA
:103CE000A30195010E94CF1C019709F07FC0CC244D
:103CF000DD24760144245524C501AD829E83C30191
:103D00006F82988756C0C101B4014F8158852D81BB
:103D10003E810CEB11E00E94CF1C3C01B3E04B163E
:103D2000510461F4C101B4014F8158852D813E8158
:103D30000E94CF1C6816790609F058C0C101B40171
:103D40004F8158852D813E810CEB11E00E94CF1CE4
:103D50005C01E3E04E16510459F4C101B4014F81F6
:103D600058852D813E810E94CF1CA816B906F1F519
:103D70006114710489F4F1E0AF16B104B9F5CC0C0B
:103D8000DD1CEE1CFF1C81E090E0A0E0B0E0C82A42
:103D9000D92AEA2AFB2A0AC091E06916710431F592
:103DA000AB2821F5CC0CDD1CEE1CFF1C0894411C3B
:103DB000511C29813A81D4011C968D919C911D97AB
:103DC000281739070CF49FCF19965C924E921897DA
:103DD000F401C482D582E682F78284E090E0918388
:103DE000808321E030E040E050E004C020E030E09B
:103DF00040E050E0B901CA0128960FB6F894DEBF42
:103E00000FBECDBFCF91DF911F910F91FF90EF902B
:103E1000DF90CF90BF90AF909F908F907F906F90EA
:103E20005F904F903F902F9008956F927F928F9266
:103E30009F92AF92BF92CF92DF92EF92FF920F9339
:103E40001F93CF93DF937B01FB01C285D3858A81CA
:103E50009B816EEA7DE00E941D1A892B09F474C0D3
:103E60008C819D8166ED76E00E941D1A892B09F4F4
:103E70006BC0269600E010E0DD24CC249924882431
:103E80007724662483E0A82EB12C8881998166EF7F
:103E900071E00E941D1A892B09F456C08A819B810A
:103EA0006CED74E00E94221A892B69F098014D2D67
:103EB0005C2D692D782D872D962D01E00E94400202
:103EC000022F016013C08A819B8160E971E00E942A
:103ED000221A892BC9F198014D2D5C2D692D782D61
:103EE000872D962D01E00E944002022F132FD42E21
:103EF000C52E962E872E782E692E2496F1E6AF16C3
:103F0000B10429F082E090E0A80EB91EBECFC8012E
:103F1000F70104839583468357839801872D962D57
:103F200000E20E94C101C901F7012283938387E067
:103F300090E09183808380E390E09187808721E007
:103F400030E040E050E004C020E030E040E050E0ED
:103F5000B901CA01DF91CF911F910F91FF90EF90AE
:103F6000DF90CF90BF90AF909F908F907F906F9099
:103F700008958F929F92AF92BF92CF92DF92EF926D
:103F8000FF920F931F93CF93DF936B018091E60510
:103F9000823209F0B2C0DB011A96CD91DC911B97F9
:103FA0008A819B8168E572E00E941D1A892B09F4C1
:103FB000A4C08091E60521E030E0281B3109220FE2
:103FC000331FC21BD30B8881998168E572E00E9480
:103FD0001D1A892B09F491C0F601118610868FEF06
:103FE0009FEFAFEFBFEF84839583A683B78388E00D
:103FF00090E09183808369C08091E605813208F466
:1040000069C0D50114968D919C91159760EA7FE067
:104010000E94221A892B09F45DC0E5012696EE2440
:10402000FF24870133E0832E912C8881998168E5F4
:1040300072E00E941D1A892B09F44CC08A819B8171
:1040400060E476E00E94221A892B69F0EE0CFF1CD6
:10405000001F111F81E090E0A0E0B0E0E82AF92AFB
:104060000A2B1B2B0CC08A819B8166E272E00E94A6
:10407000221A892B79F1EE0CFF1C001F111FA2E000
:10408000B0E08A0E9B1E2496B3E28B16910469F66B
:10409000E6E4F0E0AE0EBF1ED5018D919C9168E57F
:1040A00072E00E941D1A892BA9F080E190E0F601D0
:1040B00091878087D6011496ED92FD920D931C9303
:1040C000179788E090E08D939C9321E030E040E0EA
:1040D00050E004C020E030E040E050E0B901CA0107
:1040E000DF91CF911F910F91FF90EF90DF90CF90D4
:1040F000BF90AF909F908F900895F601A284B384F3
:10410000D50112968D919C91139760E47FE10E94F6
:104110001D1A892B09F070CFDDCF2F923F924F925D
:104120005F926F927F928F929F92AF92BF92CF9247
:10413000DF92EF92FF920F931F93DF93CF930F9233
:104140000F92CDB7DEB71B01FB01848595858630C4
:1041500091052CF420E030E040E050E081C0F5EC27
:10416000AF2EFDE9BF2EFCE1CF2EF1E8DF2EE6E019
:104170004E2E512C9C01220F331F3A83298359C0A4
:10418000F101A285B385F2013497EA0FFB1FE080AD
:10419000F180A40DB51D6D917C9180E090E00E94AE
:1041A00023323B014C0100E010E0C801B7010E943E
:1041B00023327B018C012DEC3CEC4CE45FE30E944C
:1041C000D9329B01AC01C401B3010E94863188231E
:1041D0001CF400E010E018C0C401B3012DEC3CEC6D
:1041E0004CE45FE30E94D9329B01AC01C801B701E6
:1041F0000E948631082F112707FD10950027110F07
:10420000001F11270F5F1F4FC601B50123E931E0E1
:1042100040E051E00E9440335801CC24B7FCC094E8
:10422000DC2CA626B726C826D92622E030E0420E8E
:10423000531E89819A814816590609F0A1CFF101D0
:10424000A482B582C682D78280E290E0918780877F
:104250008FEF9FEF9183808321E030E040E050E0DA
:10426000B901CA010F900F90CF91DF911F910F916B
:10427000FF90EF90DF90CF90BF90AF909F908F9086
:104280007F906F905F904F903F902F9008950F9385
:104290001F93CF93DF938C01EB018EE195E09B8719
:1042A0008A878091E6058C871D8680911A05853066
:1042B00009F057C0C8010E94321A611571058105C5
:1042C000910509F051C0C801BE010E94E11A6115B3
:1042D00071058105910509F047C0C801BE010E9422
:1042E000821B6115710581059105F1F5C801BE01BB
:1042F0000E942C1C6115710581059105A9F5C80165
:10430000BE010E94531D611571058105910561F57E
:10431000C801BE010E940D1E611571058105910540
:1043200019F5C801BE010E94151F611571058105AF
:104330009105D1F4C801BE010E94B91F6115710534
:104340008105910589F4C801BE010E948D20611587
:1043500071058105910541F482E080931A05109260
:10436000E60520E030E002C021E030E0C901DF9145
:10437000CF911F910F9108951F920F920FB60F9238
:104380000BB60F9211242F933F934F935F936F932C
:104390007F938F939F93AF93BF93EF93FF938091FE
:1043A00019050E94AE30482F80911C0590911D0583
:1043B000019690931D0580931C058091E605843637
:1043C00018F085E080931A0580911A058330D1F0AA
:1043D000843020F4823009F059C006C0843071F175
:1043E000853009F053C04CC0442309F04FC0809180
:1043F0001C0590911D058436910508F443C0109268
:10440000E6051EC0413009F041C08091E605E82F65
:10441000F0E020911C0530911D05EE0FFF1FE75EB7
:10442000FA4F368325838F5F8093E60510921D0532
:1044300010921C0584E080931A0528C04423B9F427
:104440008091E605E82FF0E020911C0530911D05D4
:10445000EE0FFF1FE75EFA4F368325838F5F809351
:10446000E60510921D0510921C0583E0E4CF8091B3
:104470001C0590911D058536910540F085E0DBCF48
:10448000442321F410921D0510921C0580911B05F8
:10449000882329F0442311F42F9A01C02F98FF910B
:1044A000EF91BF91AF919F918F917F916F915F91AC
:1044B0004F913F912F910F900BBE0F900FBE0F9019
:1044C0001F901895F89492E09093B0009093B100EB
:1044D00084E68093B300E2EBF0E01082E0819093F9
:1044E0007000789482E080931A051092E60580911E
:1044F000190560E00E94C82F08950F9387EE95E09C
:1045000060E040E020E000E00E94822A0F910895E0
:104510000F938DEE95E060E040E020E000E00E9427
:10452000822A0F9108950F938BEF95E060E040E0B1
:1045300020E000E00E94822A83EF95E00E94DF2ABB
:104540000F9108950F9381E096E060E040E020E055
:1045500000E00E94822A0F9108950F9387E096E071
:1045600060E040E020E000E00E94822A0F91089580
:104570000F938DE096E060E040E020E000E00E94D4
:10458000822A0F910895F999FECF72BD61BDF89A04
:1045900080B50895F999FECF1FBA72BD61BD40BDC7
:1045A0000FB6F894FA9AF99A0FBE0895FC018AEDB5
:1045B00097E09683858381E08483838310821182D0
:1045C000128285E0878308950F931F938C01862FB5
:1045D000F80160834183228361E00E94C82FF801C3
:1045E000828161E00E94C82F1F910F910895FF9270
:1045F0000F931F938C01F62EFC01818161E00E94D4
:10460000C82FF8018181628140E02F2D0E94DE30A9
:104610001F910F91FF900895FF920F931F93CF93D7
:10462000DF938C01FC01818160E00E94C82FFF2490
:10463000C0E0D0E0F80181810E94AE3090E00C2E05
:1046400002C0880F991F0A94E2F7F82AF8018281C4
:1046500061E00E947B3081E090E00E94F42EF8013E
:10466000828160E00E947B302196C830D10511F72D
:104670008F2DDF91CF911F910F91FF900895EF92B1
:10468000FF920F931F93CF93DF93EC018A8160E039
:104690000E947B30888161E00E947B30CE016FEB0D
:1046A0000E94F7228E0148E0E42EF12CEC0EFD1E54
:1046B000CE010E940C23F80183830F5F1F4F0E155C
:1046C0001F05B1F7888160E00E947B30DF91CF91B8
:1046D0001F910F91FF90EF900895BF92CF92DF92BC
:1046E000EF92FF920F931F93DF93CF93CDB7DEB777
:1046F00028970FB6F894DEBF0FBECDBF7C010E9495
:104700003F23F701A381AF77D480FFE7DF22F701D2
:104710008581282F30E0482F4F7087FF13C020720B
:10472000307015E0359527951A95E1F7C901880F86
:10473000991F820F931F880F991F880F991FC42EEE
:10474000C80E14C0C90180739070E4E095958795F8
:10475000EA95E1F79C0173E0220F331F7A95E1F7A8
:10476000880F991F280F391FC42EC20EF70106812A
:104770005FE0B52EB0220F7702950F7010E0C801F0
:1047800043E0880F991F4A95E1F7000F111F080FAA
:104790006781162F1F706F7762956F7070E0CB0185
:1047A00023E0880F991F2A95E1F7660F771F680F9E
:1047B000818590854A2F42954F7050E09A0173E0B1
:1047C000220F331F7A95E1F7440F551F420FAF7048
:1047D0004A0FAD2DA295AF70B0E09D01F3E0220F1E
:1047E000331FFA95E1F7AA0FBB1FA20FFFE0DF22EC
:1047F000AD0D0B0D610F282F22952F7030E0F901C0
:1048000073E0EE0FFF1F7A95E1F7220F331FE20FDF
:10481000F31F8F708E0F282F30E02053384F3F83C7
:104820002E83722F2C2D3A2F502F8F8128960FB662
:10483000F894DEBF0FBECDBFCF91DF911F910F91D6
:10484000FF90EF90DF90CF90BF9008952F923F920E
:104850005F926F927F928F929F92AF92BF92CF9210
:10486000DF92EF92FF920F931F93DF93CF9300D0CD
:104870000F920F92CDB7DEB73C01962E19821A82A5
:104880001B821C821D82862F61E00E94C82F892D09
:1048900060E00E947B3062E170E080E090E00E9486
:1048A000602F892D61E00E947B3088E290E00E94B9
:1048B000F42E892D60E00E94C82F00E117E205C0A8
:1048C00001151105A1F101501040892D0E94AE3053
:1048D000892BB1F300E117E205C00115110539F18B
:1048E00001501040892D0E94AE300197B1F306C0EF
:1048F00001151105E1F0015010400AC027E0822E99
:104900005524AA24BB2491E0292E312C00E117E282
:10491000892D0E94AE30892B59F30E94CE2E6B0157
:104920007C0100E117E208C00115110519F42EEF12
:104930003FEF41C001501040892D0E94AE300197D9
:1049400099F30E94CE2E6C197D098E099F09693258
:1049500071058105910580F0E1E0F0E0EC0FFD1FAD
:10496000E50DF11D9101082C02C0220F331F0A949E
:10497000E2F78081822B8083882021F4539487E0A2
:10498000882E01C08A940894A11CB11C88E2A81644
:10499000B10409F0BBCF8981F301808311829B812F
:1049A00092831382980F8D81891719F420E030E0EB
:1049B00002C02FEF3FEFC9010F900F900F900F90A3
:1049C0000F90CF91DF911F910F91FF90EF90DF90AB
:1049D000CF90BF90AF909F908F907F906F905F909F
:1049E0003F902F900895FC018DE493E091838083A4
:1049F0000895FC018DE493E09183808308958FEF07
:104A00000895FC0185810895CF93DF93EC016B83BA
:104A10008A81681710F081508B838A899B890E9454
:104A2000BC170E94C02E6A877B878C879D876E8308
:104A30007F8388879987DF91CF910895CF93DF9304
:104A4000EC01E881F9810280F381E02D6D811995F7
:104A5000682F8F3F19F0CE010E940425DF91CF917E
:104A60000895FC018481882369F08581882311F0F1
:104A7000815085838581882311F484818583CF01CA
:104A80000E941E250895FC019481992351F085818F
:104A90008F5F8583981710F481E08583CF010E9492
:104AA0001E2508950F931F938C018DE493E0F80168
:104AB000918380834283138224831582738B628B5C
:104AC0000E94C02EF80166837783808791871F91AB
:104AD0000F9108950F931F93CF93DF93EC010E94E2
:104AE000C02E8B019C018E819F81A885B985B9015B
:104AF000A801481B590B6A0B7B0BDB01CA018051D3
:104B00009742A040B04060F00E831F83288739870A
:104B10008B8190E06A81019670E00E945F338B8305
:104B20008E859F85A889B989B901A801481B590BB1
:104B30006A0B7B0BDB01CA0180519742A040B04059
:104B400028F00E871F87288B398B1D828A859B85CD
:104B5000AC85BD85B901A801481B590B6A0B7B0BBD
:104B6000DB01CA0180539547A040B04040F00A875E
:104B70001B872C873D878A899B890E94C717E881FC
:104B8000F9810190F081E02DCE016B814D81199565
:104B9000DF91CF911F910F910895FC018DE493E077
:104BA00091838083CF010E946F2E089508951F92F4
:104BB0000F920FB60F920BB60F9211242F933F93C3
:104BC0004F938F939F93EF93FF938091C00082FD4B
:104BD0001DC04091C60020915406309155062F5FAC
:104BE0003F4F2F73307080915606909157062817CB
:104BF000390771F0E0915406F0915506EC5EF94FDB
:104C00004083309355062093540602C08091C6001D
:104C1000FF91EF919F918F914F913F912F910F9025
:104C20000BBE0F900FBE0F901F90189508951F9206
:104C30000F920FB60F920BB60F9211242F933F9342
:104C40004F938F939F93EF93FF938091C80082FDC2
:104C50001DC04091CE002091DC063091DD062F5F13
:104C60003F4F2F7330708091DE069091DF0628173A
:104C7000390771F0E091DC06F091DD06E456F94F5A
:104C800040833093DD062093DC0602C08091CE0085
:104C9000FF91EF919F918F914F913F912F910F90A5
:104CA0000BBE0F900FBE0F901F90189508951F9286
:104CB0000F920FB60F920BB60F9211242F933F93C2
:104CC0004F938F939F93EF93FF938091D00082FD3A
:104CD0001DC04091D60020916407309165072F5F79
:104CE0003F4F2F73307080916607909167072817A8
:104CF000390771F0E0916407F0916507EC5DF84FBA
:104D00004083309365072093640702C08091D600EA
:104D1000FF91EF919F918F914F913F912F910F9024
:104D20000BBE0F900FBE0F901F90189508951F9205
:104D30000F920FB60F920BB60F9211242F933F9341
:104D40004F938F939F93EF93FF938091300182FD58
:104D50001DC0409136012091EC073091ED072F5F87
:104D60003F4F2F7330708091EE079091EF07281717
:104D7000390771F0E091EC07F091ED07E455F84F39
:104D800040833093ED072093EC0702C080913601F9
:104D9000FF91EF919F918F914F913F912F910F90A4
:104DA0000BBE0F900FBE0F901F901895E09140081A
:104DB000F0914108E05CFF4F819191912081318118
:104DC000821B930B8F739070892B11F00E94D62554
:104DD000E0916208F0916308E05CFF4F819191914E
:104DE00020813181821B930B8F739070892B11F07E
:104DF0000E941626E0918408F0918508E05CFF4F40
:104E00008191919120813181821B930B8F739070DE
:104E1000892B11F00E945626E091A608F091A70870
:104E2000E05CFF4F8191919120813181821B930B36
:104E30008F739070892B11F00E94962608951F920F
:104E40000F920FB60F920BB60F9211242F933F9330
:104E50008F939F93EF93FF9320919806309199063B
:104E600080919A0690919B062817390731F480911A
:104E7000C1008F7D8093C10014C0E0919A06F0912B
:104E80009B06E85AF94F208180919A0690919B06E3
:104E900001968F73907090939B0680939A0620934F
:104EA000C600FF91EF919F918F913F912F910F90AD
:104EB0000BBE0F900FBE0F901F9018951F920F9270
:104EC0000FB60F920BB60F9211242F933F938F932F
:104ED0009F93EF93FF9320912007309121078091BA
:104EE0002207909123072817390731F48091C900D0
:104EF0008F7D8093C90014C0E0912207F0912307B1
:104F0000E052F94F2081809122079091230701966A
:104F10008F73907090932307809322072093CE0085
:104F2000FF91EF919F918F913F912F910F900BBE29
:104F30000F900FBE0F901F9018951F920F920FB6F3
:104F40000F920BB60F9211242F933F938F939F9341
:104F5000EF93FF932091A8073091A9078091AA07AA
:104F60009091AB072817390731F48091D1008F7DDC
:104F70008093D10014C0E091AA07F091AB07E859E3
:104F8000F84F20818091AA079091AB0701968F730B
:104F900090709093AB078093AA072093D600FF915F
:104FA000EF919F918F913F912F910F900BBE0F909A
:104FB0000FBE0F901F9018951F920F920FB60F9271
:104FC0000BB60F9211242F933F938F939F93EF93E0
:104FD000FF932091300830913108809132089091F0
:104FE00033082817390731F4809131018F7D809380
:104FF000310114C0E0913208F0913308E051F84FCC
:105000002081809132089091330801968F739070BF
:10501000909333088093320820933601FF91EF91EB
:105020009F918F913F912F910F900BBE0F900FBECC
:105030000F901F901895AF92BF92DF92EF92FF9260
:105040000F931F93CF93DF93EC017A018B01DD2443
:10505000403081EE580780E0680780E0780711F063
:10506000DD24D39491E0A92EB12CEC89FD89DD20BB
:1050700069F0C50108A002C0880F991F0A94E2F7E1
:10508000808360E079E08DE390E005C0108260E805
:1050900074E88EE190E0A80197010E9472332150DC
:1050A000304040405040569547953795279580E1D0
:1050B0002030380720F0DD2011F0DD24D6CFE8893C
:1050C000F9893083EA89FB89208319A2EE89FF8957
:1050D000408121E030E0C9010C8C02C0880F991F8B
:1050E0000A94E2F7482B4083EE89FF894081C90189
:1050F0000D8C02C0880F991F0A94E2F7482B408359
:10510000EE89FF894081C9010E8C02C0880F991F6A
:105110000A94E2F7482B4083EE89FF8980810F8C47
:1051200002C0220F331F0A94E2F720952823208320
:10513000DF91CF911F910F91FF90EF90DF90BF9083
:10514000AF900895DC011C96ED91FC911D97E05CF9
:10515000FF4F2191319180819181281B390B2F7351
:105160003070C9010895DC011C96ED91FC911D97EA
:10517000E05CFF4F20813181E054F040DF01AE5B05
:10518000BF4F8D919C9111972817390719F42FEF74
:105190003FEF07C08D919C91E80FF91F8081282F68
:1051A00030E0C9010895DC011C96ED91FC911D973A
:1051B000E05CFF4F20813181E054F040DF01AE5BC5
:1051C000BF4F8D919C9111972817390719F42FEF34
:1051D0003FEF10C08D919C911197E80FF91F20812E
:1051E0008D919C91119701968F73907011969C935D
:1051F0008E9330E0C9010895DC0191968C919197CE
:10520000882339F05496ED91FC915597808186FF63
:10521000F9CF91961C920895CF93DF93EC01EE8520
:10522000FF85E05CFF4F20813181E054F0402F5F2B
:105230003F4F2F733070DF01AE5BBF4F8D919C915C
:10524000119728173907D1F3E05CFF4F80819181D6
:10525000E054F040E80FF91F6083EE85FF85E05CC5
:10526000FF4F31832083EE89FF89208181E090E028
:105270000F8C02C0880F991F0A94E2F7282B208315
:1052800081E089A3EC89FD8980818064808381E04D
:1052900090E0DF91CF9108951F93109237081092FC
:1052A000360828EE33E040E050E020933808309391
:1052B000390840933A0850933B0869E573E07093CE
:1052C00035086093340884E196E090934108809318
:1052D000400888E596E0909343088093420885EC67
:1052E00090E0909345088093440884EC90E090937C
:1052F00047088093460880EC90E09093490880939B
:10530000480881EC90E090934B0880934A0882EC27
:1053100090E090934D0880934C0886EC90E0909339
:105320004F0880934E0814E010935008B3E0B093F8
:105330005108A7E0A0935208F5E0F0935308E1E08C
:10534000E0935408109259081092580820935A0874
:1053500030935B0840935C0850935D087093570846
:10536000609356088CE996E09093630880936208F6
:1053700080EE96E090936508809364088DEC90E051
:1053800090936708809366088CEC90E0909369088E
:105390008093680888EC90E090936B0880936A088B
:1053A00089EC90E090936D0880936C088AEC90E013
:1053B00090936F0880936E088EEC90E09093710844
:1053C0008093700810937208B0937308A0937408C8
:1053D000F0937508E093760810927B0810927A0893
:1053E00020937C0830937D0840937E0850937F087B
:1053F000709379086093780884E297E09093850829
:105400008093840888E697E09093870880938608C5
:1054100085ED90E0909389088093880884ED90E072
:1054200090938B0880938A0880ED90E090938D088C
:1054300080938C0881ED90E090938F0880938E0884
:1054400082ED90E0909391088093900886ED90E033
:10545000909393088093920810939408B0939508C2
:10546000A0939608F0939708E093980810929D08EF
:1054700010929C0820939E0830939F084093A008A8
:105480005093A10870939B0860939A088CEA97E068
:105490009093A7088093A60880EF97E09093A908BF
:1054A0008093A80885E391E09093AB088093AA08C5
:1054B00084E391E09093AD088093AC0880E391E0A1
:1054C0009093AF088093AE0881E391E09093B10888
:1054D0008093B00882E391E09093B3088093B20880
:1054E00086E391E09093B5088093B4081093B608D2
:1054F000B093B708A093B808F093B908E093BA083E
:105500001F9108950F93FC0189E693E091838083B6
:1055100062834383248305830F91089589E693E092
:105520009093BD088093BC081092BE081092BF08EB
:105530001092C0081092C10808958F929F92AF9266
:10554000BF92CF92DF92EF92FF920F931F93CF9370
:10555000DF934C016B017C01AA24BB24C0E0D0E0A6
:10556000C601F70162814AE050E00E94DE2B8C0107
:10557000C6016EE20E94132B080F191FA00EB11E68
:1055800021960894E11CF11CC330D10549F7C601EE
:10559000F40165814AE050E00E94DE2B9501280F5E
:1055A000391FC901DF91CF911F910F91FF90EF90AB
:1055B000DF90CF90BF90AF909F908F900895FC01A7
:1055C00089E693E09183808312821382148215828C
:1055D0000895CF92DF92EF92FF920F931F93CF9394
:1055E000DF937C016B018A01C0E0D0E00FC0D601DF
:1055F0006D916D01D701ED91FC910190F081E02D4D
:10560000C7011995C80FD91F015010400115110588
:1056100071F7CE01DF91CF911F910F91FF90EF9025
:10562000DF90CF900895DC01ED91FC910190F08125
:10563000E02D19950895EF92FF920F931F938C011F
:10564000DC01ED91FC910190F081E02D6DE0199568
:105650007C01D801ED91FC910190F081E02DC80111
:105660006AE019959C012E0D3F1DC9011F910F91F4
:10567000FF90EF900895CF93DF93EC0161157105D2
:1056800019F420E030E00FC0DB010D900020E9F7B5
:105690001197A61BB70BE881F9810280F381E02DF9
:1056A000AD0119959C01C901DF91CF9108954F92E9
:1056B0005F927F928F929F92AF92BF92CF92DF9232
:1056C000EF92FF920F931F93DF93CF93CDB7DEB787
:1056D000A1970FB6F894DEBF0FBECDBF2C01742E7C
:1056E000CB01223008F42AE019A231E2C32ED12CDA
:1056F000CC0EDD1E822E9924AA24BB24672D752F83
:10570000A50194010E94723379018A01C801B70191
:10571000A50194010E944033472D461B0894C108FF
:10572000D1084A3014F4405D01C0495CF601408361
:10573000E114F1040105110521F07E2C5F2DC80153
:10574000DDCFC201B6010E943B2BA1960FB6F894A3
:10575000DEBF0FBECDBFCF91DF911F910F91FF90A4
:10576000EF90DF90CF90BF90AF909F908F907F9001
:105770005F904F900895DC012115310541F4ED91C2
:10578000FC910190F081E02D642F199508950E94FD
:10579000572B0895EF92FF920F931F937C010E9465
:1057A000BB2B8C01C7010E941B2B9C01200F311FBA
:1057B000C9011F910F91FF90EF900895EF92FF9212
:1057C0000F931F939A01E62EFF2400E010E0B8012A
:1057D000A7010E94BB2B1F910F91FF90EF9008959E
:1057E000CF92DF92EF92FF920F931F93CF93DF93AD
:1057F000EC016A017B012115310541F4E881F98151
:105800000190F081E02D642F19951FC02A303105D9
:10581000D1F477FF17C0E881F9810190F081E02D84
:105820006DE219958C0144275527BA014C195D0981
:105830006E097F09CE012AE00E94572B9801280F9C
:10584000391F04C02AE00E94572B9C01C901DF9137
:10585000CF911F910F91FF90EF90DF90CF9008951F
:10586000EF92FF920F931F937B019A010027F7FCA1
:105870000095102FB801A7010E94F02B1F910F91E6
:10588000FF90EF9008950E943B2B08957F928F9296
:105890009F92AF92BF92CF92DF92EF92FF920F93BF
:1058A0001F93CF93DF934C017A018B01722ECB01B2
:1058B000BA01A80197010E943C33882321F0C4015A
:1058C00067E572E021C0C0E0D0E057016801E894CC
:1058D000D7F8C601B5012FEF3FEF4FE75FE70E9412
:1058E0003C33882351F4C601B5012FEF3FEF4FE75A
:1058F0005FE70E948631181614F0C1E0D0E02197CE
:1059000039F0C4016BE572E00E943B2BEC0193C0BF
:10591000C801B7012FEF3FEF4FE75FE40E94D53298
:10592000181654F0C801B7012FEF3FEF4FE75FECB7
:105930000E948631882324F4C4016FE572E0E4CF2D
:10594000C801B70120E030E040E050E00E9486311D
:1059500087FD03C0C0E0D0E00EC0D401ED91FC9102
:105960000190F081E02DC4016DE21995EC0117FB67
:10597000109517F9109520E030E040E05FE3DD245A
:105980000BC0CA01B90120E030E040E251E40E94BE
:105990008A319B01AC01D394D71498F3C801B701A5
:1059A0000E9422315B016C010E94F7317B018C0166
:1059B000C401B801A7012AE030E00E94BB2BC80F48
:1059C000D91F772039F0C40163E672E00E943B2BB7
:1059D000C80FD91FC801B7010E9423329B01AC0137
:1059E000C601B5010E94213124C020E030E040E230
:1059F00051E40E94D9327B018C010E94F2315B019B
:105A00006C01CC24B7FCC094DC2CC401B601A50108
:105A10002AE030E00E94F02BC80FD91FC601B50163
:105A20000E9425329B01AC01C801B7010E942131BF
:105A30007A947720D1F6CE01DF91CF911F910F910B
:105A4000FF90EF90DF90CF90BF90AF909F908F909E
:105A50007F9008950E94462C0895EF92FF920F9335
:105A60001F937C010E943B2B8C01C7010E941B2BC2
:105A7000080F191FC8011F910F91FF90EF90089513
:105A8000CF93DF930E94FE2E0E94A605C6EDD6E2BC
:105A90000E9481052097E1F30E94D626F9CF0F934B
:105AA0001F93CF93DF93BC018230910510F462E025
:105AB00070E0E091CB08F091CC08A0E0B0E040E0CD
:105AC00050E024C08081918186179707D0F0861717
:105AD000970771F482819381109729F013969C9314
