:100000000C9492010C94BF010C94BF010C94BF019D
:100010000C94BF010C94BF010C94BF010C94BF0160
:100020000C94BF010C94BF010C94BF010C94BF0150
:100030000C94BF010C94BF220C94BF010C94BF011F
:100040000C94BF010C94BF010C94BF010C94BF0130
:100050000C94BF010C94BF010C94BF010C94F83BAD
:100060000C94BF010C944A330C9492340C94BF014D
:100070000C94BF010C94BF010C94BF010C94BF0100
:100080000C94BF010C94BF010C94BF010C94BF01F0
:100090000C948A330C94D1340C94BF010C944D1100
:1000A0000C94BF010C94BF010C94BF010C94BF01D0
:1000B0000C94BF010C94BF010C94BF010C94BF01C0
:1000C0000C94BF010C94BF010C94BF010C94CA3373
:1000D0000C9410350C94BF010C940A340C944F35D9
:1000E0000C94BF01005EBCE2613FDD83C29C7E20B8
:1000F000A3FD1F419DC3217FFCA2401E5F01E3BD04
:100100003E6082DC237D9FC1421CFEA0E1BF5D03F7
:1001100080DE3C62BEE0025CDF81633D7C22C09EEB
:100120001D43A1FF4618FAA427799BC584DA3866D7
:10013000E5BB5907DB856739BAE406581947A5FBC3
:100140007826C49A653BD987045AB8E6A7F91B45B7
:10015000C6987A24F8A6441A99C7257B3A6486D8AB
:100160005B05E7B98CD2306EEDB3510F4E10F2AC97
:100170002F7193CD114FADF3702ECC92D38D6F3183
:10018000B2EC0E50AFF1134DCE90722C6D33D18F77
:100190000C52B0EE326C8ED0530DEFB1F0AE4C126B
:1001A00091CF2D73CA947628ABF517490856B4EA57
:1001B0006937D58B5709EBB536688AD495CB297743
:1001C000F4AA4816E9B7550B88D6346A2B7597C937
:1001D0004A14F6A8742AC896154BA9F7B6E80A542B
:1001E000D7896B3500002100240027002A002D004C
:1001F0003000330001010000040107010A01000082
:100200002200250028002B002E00310034000201BE
:100210000000050108010B0100002000230026005A
:1002200029002C002F00320000010000030106010C
:10023000090105050505070508080808020202026C
:100240000A0A080804040404010101010101010172
:100250000303030303030303040707070C0C0C0C3D
:100260000C0C0C0C02020202060606060606060626
:100270000B0B0B0B0B0B0B0B0102102020080810B3
:100280002040102040800201020108040201010206
:1002900004081020408080402010080402018004DF
:1002A000020180402010080402010804020101023A
:1002B0000408102040800102040810204080000043
:1002C000090A02080B0C0D070603040100000000D8
:1002D000000000000000000000000000000000001E
:1002E0000000000000000000000011100F000000DE
:1002F00000000000000000000000000000000000FE
:10030000000000007605B9051B08460A6F0A410B7C
:100310003A13A8270A28D72A432C192E6F2EBF3646
:1003200001383F0A11241FBECFEFD1E2DEBFCDBF9F
:1003300000E00CBF13E0A0E0B2E0EAE1F3E800E087
:100340000BBF02C007900D92AA3FB107D9F71BBEA1
:1003500019E0AAEFB3E001C01D92AB39B107E1F794
:1003600013E0C2E2D3E004C02297FE010E9445419F
:10037000C430D107C9F70E94C03A0C9480410C9454
:100380000000EF92FF920F93DF93CF93CDB7DEB7CC
:1003900060970FB6F894DEBF0FBECDBFA82F002325
:1003A00009F461C07E010894E11CF11C88E0F701AA
:1003B00011928A95E9F729833A834B835C836D8395
:1003C0007E83AF83988780E2801BE82FFF27E7FDBD
:1003D000F0954D815E816F817885181684F01D86B9
:1003E0001E861F86188A882799278E1B9F0B04C09C
:1003F00076956795579547958A95D2F728C0202F0F
:10040000332727FD3095DB01CA01022E04C0B695C3
:10041000A795979587950A94D2F78D879E87AF8782
:10042000B88B04C0440F551F661F771FEA95D2F79B
:1004300089819A81AB81BC8104C0B695A7959795B7
:1004400087952A95D2F7482B592B6A2B7B2B498706
:100450005A876B877C8729853A854B855C856D85B6
:100460007E85AF8598898A2F60960FB6F894DEBF97
:100470000FBECDBFCF91DF910F91FF90EF90089508
:10048000EF92FF920F93DF93CF93CDB7DEB76097D4
:100490000FB6F894DEBF0FBECDBFA82F002309F41E
:1004A00061C07E010894E11CF11C88E0F701119203
:1004B0008A95E9F729833A834B835C836D837E8336
:1004C000AF83988780E2801BE82FFF27E7FDF09538
:1004D00049815A816B817C81181684F019861A86AD
:1004E0001B861C86882799278E1B9F0B04C0440FF0
:1004F000551F661F771F8A95D2F728C0202F3327F4
:1005000027FD3095DB01CA01022E04C0880F991F18
:10051000AA1FBB1F0A94D2F789879A87AB87BC872B
:1005200004C07695679557954795EA95D2F78D81E2
:100530009E81AF81B88504C0880F991FAA1FBB1F79
:100540002A95D2F7482B592B6A2B7B2B4D875E8738
:100550006F87788B29853A854B855C856D857E858F
:10056000AF8598898A2F60960FB6F894DEBF0FBECC
:10057000CDBFCF91DF910F91FF90EF900895FB01D8
:10058000DC0101900D920020E1F70895FB01DC01F0
:100590004150504048F001900D920020C9F701C031
:1005A0001D9241505040E0F70895AEE0B0E0EBED11
:1005B000F2E00C9457410E891F8986E08C831A83E0
:1005C00009838FEF9FE79E838D839E01265E3F4FB9
:1005D000CE010196688D798DA9010E94F9022F81C3
:1005E0003885020F131FF80110822E96E4E00C9458
:1005F0007341ABE0B0E0EFEFF2E00C9449413C0115
:100600002B015A01FC0117821682838181FD03C0F0
:100610006FEF7FEFC6C19AE0892E1E010894211C5E
:10062000311CF3012381F20123FD859123FF819188
:100630002F01882309F4B2C1853239F423FD859155
:1006400023FF81912F01853229F490E0B3010E94AC
:10065000EC04E7CF982FFF24EE249924FFE1FF1547
:10066000D0F09B3269F09C3228F4903259F09332EA
:1006700091F40EC09D3249F0903369F441E024C0FA
:1006800052E0F52A84E0F82A28C098E0F92A25C02B
:10069000E0E1FE2A22C0F7FC29C0892F80538A306E
:1006A00070F4F6FE05C0989C902C1124980E15C08D
:1006B000E89CE02C1124E80EF0E2FF2A0EC09E32E6
:1006C00029F4F6FC6BC140E4F42A07C09C3619F407
:1006D00050E8F52A02C0983649F4F20123FD9591BD
:1006E00023FF91912F01992309F0B8CF892F8554C9
:1006F000833018F08052833038F444E050E0A40E88
:10070000B51E5FE359830FC0933631F0933779F00C
:10071000933509F056C020C0F5018081898342E0FD
:1007200050E0A40EB51E610101E010E012C0F50119
:10073000C080D180F6FC03C06FEF7FEF02C0692D4F
:1007400070E042E050E0A40EB51EC6010E94E10434
:100750008C015FE7F52214C0F501C080D180F6FC62
:1007600003C06FEF7FEF02C0692D70E042E050E000
:10077000A40EB51EC6010E94D6048C0150E8F52ACD
:10078000F3FE07C01AC080E290E0B3010E94EC04BF
:10079000EA948E2D90E008171907A8F30EC0F60111
:1007A000F7FC8591F7FE81916F0190E0B3010E9403
:1007B000EC04E110EA94015010400115110579F79D
:1007C000EAC0943611F0993669F5F7FE08C0F501D4
:1007D000208131814281538184E090E00AC0F5019B
:1007E000808191819C01442737FD4095542F82E000
:1007F00090E0A80EB91E9FE6F92257FF09C0509558
:100800004095309521953F4F4F4F5F4FE0E8FE2ACE
:10081000CA01B901A1012AE030E00E941805D82ED2
:10082000D21840C0953729F41F2D1F7E2AE030E0F2
:100830001DC01F2D197F9F3661F0903720F4983529
:1008400009F0ACC00FC0903739F0983709F0A6C056
:1008500004C028E030E00AC0106114FD146020E1FB
:1008600030E004C014FD166020E132E017FF08C03C
:10087000F501608171818281938144E050E008C07C
:10088000F50180819181BC0180E090E042E050E080
:10089000A40EB51EA1010E941805D82ED2188FE70C
:1008A000F82EF122F6FE0BC05EEFF522D91438F4D3
:1008B000F4FE07C0F2FC05C08FEEF82202C01D2D29
:1008C00001C0192DF4FE0DC0FE01ED0DF11D80815A
:1008D000803319F499EEF92208C01F5FF2FE05C0BB
:1008E00003C08F2D867809F01F5F0F2DF3FC14C015
:1008F000F0FE0FC01E1510F09D2C0BC09D2C9E0C01
:10090000911A1E2D06C080E290E0B3010E94EC0413
:100910001F5F1E15C0F304C01E1510F4E11A01C0BC
:10092000EE2404FF0FC080E390E0B3010E94EC04CA
:1009300002FF1DC001FD03C088E790E00EC088E5FE
:1009400090E00BC0802F867891F001FF02C08BE20F
:1009500001C080E2F7FC8DE290E0B3010E94EC045C
:1009600006C080E390E0B3010E94EC049A94D9148D
:10097000C0F3DA94F101ED0DF11D808190E0B30137
:100980000E94EC04DD20A9F706C080E290E0B301EC
:100990000E94EC04EA94EE20C1F743CEF301668195
:1009A0007781CB012B96E2E10C946541FC01059027
:1009B000615070400110D8F7809590958E0F9F1F61
:1009C0000895FC016150704001900110D8F78095A6
:1009D00090958E0F9F1F08950F931F93CF93DF93D2
:1009E0008C01EB018B8181FF1BC082FF0DC02E812A
:1009F0003F818C819D812817390764F4E881F98152
:100A00000193F983E88306C0E885F985802F19955D
:100A1000892B31F48E819F8101969F838E8302C042
:100A20000FEF1FEFC801DF91CF911F910F91089534
:100A3000FA01AA27283051F1203181F1E8946F930F
:100A40006E7F6E5F7F4F8F4F9F4FAF4FB1E03ED0B5
:100A5000B4E03CD0670F781F891F9A1FA11D680F53
:100A6000791F8A1F911DA11D6A0F711D811D911D86
:100A7000A11D20D009F468943F912AE0269F1124FB
:100A80003019305D3193DEF6CF010895462F47705F
:100A9000405D4193B3E00FD0C9F7F6CF462F4F70BA
:100AA000405D4A3318F0495D31FD4052419302D018
:100AB000A9F7EACFB4E0A6959795879577956795BE
:100AC000BA95C9F700976105710508959B01AC01BE
:100AD0000A2E06945795479537952795BA95C9F7E5
:100AE000620F731F841F951FA01D08950F938AEF37
:100AF00093E060E040E020E000E00E94F5370F91D5
:100B00000895CF93DF930E94900AC4EAD4E06991DC
:100B1000799182E099E00E942B0E84E0C23BD807D5
:100B2000B1F782E099E060E072E00E94AD3A0E9485
:100B300022080E94620A0E94000764E670E080E0DA
:100B400090E00E94E03CDF91CF91089582E099E02F
:100B500040E051EE60E070E00E948E350E949F0AF6
:100B60000E94670A0E94E3080E94490B0E94CE0778
:100B700008950F9382E194E060E040E020E000E01F
:100B80000E94F53788E194E060EC48EA2EE008EC3A
:100B90000E94F5378EE194E060EC48EA2EE001E037
:100BA0000E94F53784E294E068E048E028E008E03D
:100BB0000E94F5378AE294E060EC48EA2EE00DE905
:100BC0000E94F53784E094E00E94FA2B0F9108957B
:100BD0002F923F924F925F926F927F928F929F924D
:100BE000AF92BF92CF92DF92EF92FF920F931F933B
:100BF000CF93DF931B015C01EA016624772411E0A7
:100C000044245524E3C0D501ED91FC91E82CA0814A
:100C1000B18116962D913C911797CF01682DF9015E
:100C20001995029709F0BEC0F50180819181682D68
:100C30000E949D0DBC0182E694E043E050E00E94DA
:100C4000C60282E099E062E674E00E94AD3A1123A8
:100C500031F4CE016DE072E00E94BF02219600D017
:100C600000D0EDB7FEB73196ADB7BEB71296DC93A4
:100C7000CE9311972FE032E03383228382E694E013
:100C8000958384830E94D502C80FD91FF501A081E6
:100C9000B1812DB73EB72A5F3F4F0FB6F8943EBFE4
:100CA0000FBE2DBFED91FC9111970084F185E02DD1
:100CB000CD016E2D1995009739F1019709F06EC09D
:100CC000D5018D919C916E2D0E947B0D00D000D09E
:100CD000EDB7FEB73196ADB7BEB71296DC93CE93A3
:100CE000119723E132E033832283958384830E942A
:100CF000D502C80FD91F8DB79EB706960FB6F894C8
:100D00009EBF0FBE8DBF4AC0D5018D919C916E2DA7
:100D10000E94680D20E030E048EC52E40E94594007
:100D20000E94723F7B018C01EDB7FEB738970FB67A
:100D3000F894FEBF0FBEEDBFCDB6DEB60894C11C61
:100D4000D11CD283C183E6E1F2E0D6011396FC9375
:100D5000EE931297C80124E630E040E050E00E9494
:100D60001441D60115963C932E931497B701C801F0
:100D700024E630E040E050E00E941441F601778321
:100D800066830E94D502C80FD91F2DB73EB7285FD2
:100D90003F4F0FB6F8943EBF0FBE2DBF0894611CA5
:100DA000711C10E00894811C911CD5018D919C91BF
:100DB0000E949A0D90E0881699060CF424CF0894AE
:100DC000411C511CE2E0F0E0AE0EBF1E4214530481
:100DD0001CF488249924E9CFC301DF91CF911F919E
:100DE0000F91FF90EF90DF90CF90BF90AF909F90CA
:100DF0008F907F906F905F904F903F902F900895CD
:100E0000EF92FF920F931F93DF93CF9300D000D008
:100E1000CDB7DEB709C084E094E00E94EB2C682FC8
:100E200082E099E00E94933884E094E00E94072DCC
:100E3000892B89F784E094E00E945B2C882391F44D
:100E400080911104882371F082E099E00E949B3820
:100E500082E099E06EE172E00E94AD3A84E094E0B5
:100E60000E947F2CE0900004F090010400910204A5
:100E7000109103040E94403CE61AF70A080B190B74
:100E800081E1E81687E2F80680E0080780E01807AD
:100E900008F471C08091000490910104A0910204B3
:100EA000B0910304805F984DAF4FBF4F8093000413
:100EB00090930104A0930204B09303048FE3809302
:100EC000300484EA94E067E070E041E354E00E947B
:100ED000E805181619060CF04EC082E099E060E3B0
:100EE00074E00E94AD3A88EF93E09A838983809101
:100EF0002C0490912D04A0912E04B0912F048B838B
:100F00009C83AD83BE8384E094E0BE016F5F7F4F1E
:100F100040E550E00E94332D892BE9F082E099E012
:100F20006DE272E00E94AD3A84E094E06BE372E01F
:100F30000E94C33984E094E060E374E00E94C33906
:100F400084E094E069E472E00E94AD3A84E094E0C9
:100F50000E949B3810C082E099E063E572E00E9435
:100F6000AD3A82E099E06EE172E00E94AD3A84E031
:100F700094E00E947F2C84E094E00E945B2C80939C
:100F8000110426960FB6F894DEBF0FBECDBFCF91E9
:100F9000DF911F910F91FF90EF900895DF93CF9312
:100FA000CDB7DEB72C970FB6F894DEBF0FBECDBF1E
:100FB0000E94403C609300047093010480930204FB
:100FC0009093030468EE73E080E090E00E94E03CC0
:100FD00028EF33E03A83298380911A0490911B040F
:100FE000A0911C04B0911D048B839C83AD83BE83B0
:100FF00038872F838091260490912704A09128049C
:10100000B091290489879A87AB87BC8781EC96E0E9
:101010006CEA72E0AE014F5F5F4F9E01295F3F4F68
:101020000E94AE2B2C960FB6F894DEBF0FBECDBF3C
:10103000CF91DF91089586E694E06CE270E00E9423
:101040002A1B089586E694E067E674E00E944A222F
:10105000892B09F4B7C040916B0450916C046091E6
:101060006D0470916E0482E099E020E130E00E940E
:101070004A3980916B0490916C04A0916D04B091F9
:101080006E048D3D22E292072FEFA20720E0B20707
:1010900009F48FC08E3D22E292072FEFA20720E0D5
:1010A000B207C0F48F3E20E192072FEFA20720E0A5
:1010B000B20709F43DC0873E28E192072FEFA2074F
:1010C00020E0B20779F18D5F9240AF4FB04009F058
:1010D00075C072C085382AE792072FEFA20720E07B
:1010E000B20721F186382AE792072FEFA20720E006
:1010F000B20738F48F5C9043AF4FB04009F05EC048
:101100000FC0873528EA92072FEFA20720E0B20729
:1011100089F18F51904EAF4FB04009F04FC00AC0D7
:1011200080E001C081E00E945C0A48C082E0FBCF01
:1011300083E0F9CF0E944D0A813069F4E091B20456
:10114000F091B304A081B18112962D913C91139737
:10115000CF01F90119950E944D0A823079F5E0918D
:10116000B404F091B504A081B18112962D913C9107
:1011700013971BC00E944D0A813059F4E091B204CC
:10118000F091B304A081B1812D913C91CF01F9017F
:1011900019950E944D0A823089F4E091B404F091CF
:1011A000B504A081B1812D913C91CF01F901199530
:1011B00005C00E94520A02C00E94570A86E694E0C7
:1011C0000E942F1B089586E694E00E9465230895EF
:1011D00082E00895FC0182ED92E091838083CF014B
:1011E0000E94663208950F931F938C0182ED92E066
:1011F000F80191838083C8010E946632C8010E9471
:10120000EF3B1F910F910895FC018289938965E658
:1012100072E00E94C3390895FC018289938968E0D5
:1012200041E00E94E8180895FC018289938960E0FA
:1012300041E00E94E8180895FC018289938968E0E2
:1012400040E00E94E8180895FC018289938960E0DB
:1012500040E00E94E81808951F93CF93DF93EC01BC
:10126000142F613009F442C0613038F0623009F463
:1012700067C0633009F0ACC098C00E942409EC89B3
:10128000FD89608171818A899B8940E00E94AA0D55
:10129000CE010E940409CE010E941C09EC89FD893F
:1012A000608171818A899B8941E00E94AA0DCE01EB
:1012B0000E940409CE010E941409EC89FD89628113
:1012C00073818A899B8940E00E94AA0DCE010E9409
:1012D0000409CE010E940C09EC89FD8962817381A9
:1012E0008A899B8941E00E94AA0D6FC00E9424094F
:1012F000EC89FD89648175818A899B8940E00E941F
:10130000AA0DCE010E940409CE010E941C09EC899D
:10131000FD89668177818A899B8940E00E94AA0DB8
:10132000CE010E940409CE010E941409EC89FD89B6
:10133000608571858A899B8940E00E94AA0D2EC034
:101340000E942409EC89FD89628573858A899B89BD
:1013500040E00E94AA0D113029F48A899B896AE233
:101360000E949338CE010E940409CE010E941C09FC
:10137000EC89FD89648575858A899B8940E00E9496
:10138000AA0D123029F48A899B896AE20E94933857
:10139000CE010E940409CE010E941409CE010E94D0
:1013A0000409CE010E940C0910C00E9424098A89F8
:1013B0009B890E94A50BCE010E940409CE010E94C8
:1013C00014098A899B890E94EF0BCE010E940409AF
:1013D000DF91CF911F910895EF92FF920F931F938A
:1013E0008C017A0144E022E00E94C53282ED92E055
:1013F000F80191838083F58AE48A1F910F91FF9011
:10140000EF9008958F92AF92CF92EF920F93813029
:10141000910531F56F5F7F4F61F500D083E0EDB747
:10142000FEB781831382128285E794E067E242E08F
:1014300021E000E0E4E0EE2E75E0C72E56E0A52E98
:1014400037E0832E0E945D1A0F900F900F908EE868
:1014500094E065E774E044EA54E00E94EC0909C0B6
:10146000892B39F46F5F7F4F21F48EE894E00E945E
:10147000EA080F91EF90CF90AF908F90089580E0A1
:1014800090E06FEF7FEF0E94020A089581E090E004
:101490006FEF7FEF0E94020A08958EE894E00E94A9
:1014A000743208958EE894E00E94A43208958EE884
:1014B00094E00E94B6320895682F8EE894E00E946E
:1014C000773208958EE894E00E94DD32089585E732
:1014D00094E060E142E020E00E94461A0895809185
:1014E000B2029091B3029093C1048093C0048091A2
:1014F000B4029091B5029093C3048093C20480918A
:10150000B6029091B7029093C5048093C404809171
:10151000B8029091B9029093C7048093C6040895CD
:10152000CF93DF93C4EAD4E0899199910E946F0E22
:1015300084E0C23BD807C1F7DF91CF910895EF92C5
:10154000FF920F931F9383E190E00E94F53B182FC9
:10155000092F6AE170E040EC54E00E94510C84EAEB
:10156000E82E84E0F82E1093A4040093A50483E1F0
:1015700090E00E94F53B182F092F6CE170E044ECDD
:1015800054E00E94510C1093A604F701038387E1F5
:1015900090E00E94F53B182F092F2091BA0230915C
:1015A000BB0268E14AED52E00E94260D1093A804A8
:1015B000F701058387E190E00E94F53B182F092F82
:1015C0002091BC023091BD0268E142EE52E00E94DF
:1015D000260D1093AA04F701078387E190E00E948B
:1015E000F53B182F092F2091BE023091BF0268E110
:1015F0004AEE52E00E94260D1093AC04F7010187D9
:1016000089E190E00E94F53B8C012091C00230916D
:10161000C1026EE140E050E00E94810F1093B304DC
:101620000093B2040115110519F480E090E002C0A6
:10163000C80106969093AF048093AE0489E190E0D0
:101640000E94F53B8C012091C2023091C30260E2FE
:101650004AE050E00E94810F1093B5040093B40457
:101660000115110519F480E090E002C0C80106964A
:101670009093B1048093B0041F910F91FF90EF906D
:10168000089588EC94E064E245E226E20E94573037
:1016900008958EE49BE00E948D160895EF92FF92CC
:1016A0000F931F93DF93CF93CDB7DEB767970FB636
:1016B000F894DEBF0FBECDBF8E01085F1F4FC8017B
:1016C0000E94493078018E01005F1F4F88EC94E042
:1016D0000E94E030288B398B4A8B5B8B6C8B7D8B27
:1016E0008E8B9F8BD701F80188E001900D9281507D
:1016F000E1F764E670E080E090E00E94E03C2D8538
:101700003E8587E02D3D380708F38B858D838885DE
:101710008B8389858A838C858E838A8589838F854F
:101720008C83822F825B8F83CE0101960E941615D7
:1017300067960FB6F894DEBF0FBECDBFCF91DF9195
:101740001F910F91FF90EF900895EF92FF920F93EA
:101750001F938C010E94B116BC01C8014AE050E001
:101760000E94B0398FE8E82E82E0F82EC801B70158
:101770000E94C3390E94A916BC01C8014AE050E08A
:101780000E94B039C801B7010E94C3390E94A41653
:10179000BC01C8014AE050E00E94B0391F910F918E
:1017A000FF90EF9008950F931F93CF93DF93EC0179
:1017B0008B0161E972E00E94C3390A30110524F4FB
:1017C000CE0160E30E949338CE01B8014AE050E0B8
:1017D0000E94B039DF91CF911F910F9108950F931F
:1017E0001F938C010E94C916BC01C8014AE050E059
:1017F0000E94B0390E94C116BC01C8010E94D30BDF
:101800000E94B916BC01C8010E94D30B1F910F9111
:10181000089581E090E00895CF93DF93EC0169890A
:101820007A8983ED94E00E949931ED85FE85892BBC
:10183000A9F482E090E09183808393838283EF8593
:10184000F8898091D5049091D6049183808380910A
:10185000D3049091D4049583848306C081E090E002
:101860009183808393838283DF91CF910895FC01DC
:1018700086EF92E091838083CF010E945C0D0895F2
:101880000F931F938C0186EF92E0F8019183808380
:10189000C8010E945C0DC8010E94EF3B1F910F918F
:1018A0000895CF92DF92EF92FF920F931F937C01E6
:1018B0006B0162E008E813E120E030E00E94890E4D
:1018C00086EF92E0F70191838083D28AC18A1F91CB
:1018D0000F91FF90EF90DF90CF900895FC0184E08E
:1018E00093E091838083CF010E945C0D08950F9354
:1018F0001F938C0184E093E0F80191838083C801F9
:101900000E945C0DC8010E94EF3B1F910F9108954A
:10191000EF92FF920F931F93CF93DF937C01DC0133
:1019200051968C910E94D50E8C010E94DF17F70111
:1019300063897489C8010E94BE17C80164E441E04C
:101940000E947E1762E370E080E090E00E94E03C3D
:10195000C8010E94DF178093D704D70153966D9179
:101960007C915497C8010E94BE17C8016EEB40E0FD
:101970000E947E17C8EDD4E0C8010E942D178993FC
:10198000B4E0C13EDB07C1F7CE01099768E00E94D1
:10199000E8169091E004D7011D96ED91FC911E97F9
:1019A000891729F081E090E09183808348C082E02C
:1019B00090E0918380839091D90480E02091D804B5
:1019C000422F50E0482B592BF7018289882399F048
:1019D00083E0440F551F8A95E1F78091DF04803141
:1019E000B9F42091DE048CE090E0821B9109407FE5
:1019F000480F591F0DC08091DC04807611F4487F98
:101A000007C0803211F44C7F03C0803409F44E7F4C
:101A1000D7011F960D911C915097BA01882777FD29
:101A20008095982F0E94A53F20E030E040E85DE3DC
:101A30000E945940F8016083718382839383DF9110
:101A4000CF911F910F91FF90EF900895BF92CF9289
:101A5000DF92EF92FF920F931F93CF93DF93EC01EE
:101A6000B62E7A016901AC014B5E5F4F61E008E878
:101A700013E120E030E00E94890E84E093E0998336
:101A80008883B98AFC8AEB8ADE8ACD8AF701808155
:101A9000823239F0883229F0803121F481E08A8B5A
:101AA00001C01A8ADF91CF911F910F91FF90EF90A3
:101AB000DF90CF90BF900895FC0182E193E0918385
:101AC00080830895FC0182E193E0918380830895EF
:101AD00070E0660F771F660F771FDC011F96ED9190
:101AE000FC915097E60FF71F20813181428153818D
:101AF000B901CA01089570E0660F771F660F771F5E
:101B0000DC011F96ED91FC915097E60FF71F808145
:101B10009181089570E0660F771FDC011D96ED91AD
:101B2000FC911E97E60FF71F80819181089580E058
:101B300090E00895FC018281089570E0660F771FA0
:101B4000DC011396ED91FC911497E60FF71F80814D
:101B500091810895DF92EF92FF920F931F93CF939D
:101B6000DF937C01EB01D42E042F10E0C801880F15
:101B7000991FEB81FC81E80FF91F60817181C7011A
:101B80000E94C339C70165E972E00E94C339E88148
:101B9000F9810680F781E02DCE016D2D19958130F8
:101BA000910509F440C08230910519F0892BB9F1F3
:101BB0003FC0E881F9810084F185E02DCE016D2DD3
:101BC0001995892B91F4C801880F991F880F991FC7
:101BD000EF85F889E80FF91F408151816281738197
:101BE000C70121E030E00E94AA3AE881F98100842F
:101BF000F185E02DCE016D2D19950197C9F4000FE7
:101C0000111F000F111FEF85F889E00FF11F608190
:101C10007181C7014AE050E00E94B03909C0C70194
:101C200067E972E003C0C70169E972E00E94C33945
:101C3000DF91CF911F910F91FF90EF90DF9008956A
:101C40000F931F938C010E94AA0DC8010E949B381C
:101C50001F910F910895EF92FF921F93CF93DF93FF
:101C60007C01EB0110E006C0C701BE01412F0E94BC
:101C7000200E1F5F8A811817B8F3DF91CF911F9153
:101C8000FF90EF900895EF92FF920F931F93CF93E1
:101C9000DF93EC010E94403C7B018C0189859A8591
:101CA000AB85BC85A8019701281B390B4A0B5B0B40
:101CB0008D819E81AF81B885281739074A075B0758
:101CC00010F480E005C0E986FA860B871C8781E066
:101CD000DF91CF911F910F91FF90EF900895CF93D7
:101CE000DF93EC010E94430E882339F0E881F981EB
:101CF0000190F081E02DCE011995DF91CF910895EB
:101D0000FC0182E193E091838083CF010E94EF3B4D
:101D10000895BF92CF92DF92EF92FF920F931F939D
:101D2000CF93DF93EC01B62E6801790182E193E055
:101D3000998388836A835C834B83062F10E0C801F4
:101D4000880F991F880F991F0E94F23B988B8F87ED
:101D5000C801880F991F0E94F23B9E878D87CD8214
:101D6000DE82EF82F8860E94403C685E73408040CD
:101D7000904069877A878B879C8720E080E090E09D
:101D800008C0ED85FE85E80FF91F118210822F5FD4
:101D900002962B15B0F3DF91CF911F910F91FF9019
:101DA000EF90DF90CF90BF900895FF920F931F9315
:101DB000CF93DF93F82EC091E404D091E50494E032
:101DC00020E030E009C0F901E251FB4F80818F151E
:101DD00009F4922F2F5F3F4F2C173D07A4F3943047
:101DE00061F5C430D1051CF0E0E0F0E02FC08EE0DA
:101DF00090E00E94F53B182F092F6F2D0E942A18A2
:101E0000FE01EE0FFF1FEA51FB4F1083018380910B
:101E1000E4049091E504FC01E251FB4FF082FC01E7
:101E2000EE0FFF1FEA51FB4F0190F081E02D01966C
:101E30009093E5048093E40409C0E92FF0E0EE0FED
:101E4000FF1FEA51FB4F0190F081E02DCF01DF91A0
:101E5000CF911F910F91FF90089506970E94310F27
:101E6000089582E090E0089506970E94380F089543
:101E700081E090E0089506970E943F0F08950F9328
:101E80001F938C0180E293E0F80191838083429656
:101E900097838683C80106960E945C0DC8010E9444
:101EA000B40F1F910F91089506970E94580F08953F
:101EB0000F931F938C0180E293E0F801918380835C
:101EC000429697838683C80106960E945C0DC801DE
:101ED0000E94B40FC8010E94EF3B1F910F9108951B
:101EE00006970E94740F08950F931F93FC010589B4
:101EF00016890E946110F801808311821F910F9151
:101F00000895CF92DF92EF92FF920F931F937C017F
:101F1000E62F6901BA014E2F0E943810A701495ED1
:101F20005F4FC701069661E001E010E020E030E07D
:101F30000E94890E80E293E0F701918380834296AC
:101F400097838683D08EC78A1F910F91FF90EF9061
:101F5000DF90CF900895FC0180E493E0918380832B
:101F6000CF010E9464100895FC0180E493E0918306
:101F70008083CF010E94641008950F931F938C01FA
:101F800080E493E0F80191838083C8010E9464108B
:101F9000C8010E94EF3B1F910F910895462FFC014D
:101FA000648175816F5F7F4F81EE96E00E943D30C6
:101FB00008950F931F938C010E947910C80160E06F
:101FC0000E94CE0F1F910F9108950F931F938C01C4
:101FD0000E948010C80161E00E94CE0F1F910F91F6
:101FE0000895EF92FF920F931F938C0181EEE82EDC
:101FF00086E0F82EF80164817581C70145E50E94ED
:102000003D30F801648175816E5F7F4FC7014AEAF8
:102010000E943D301F910F91FF90EF900895FC01B9
:10202000648175816F5F7F4F81EE96E00E9436304C
:10203000811181E00895CF93DF93EC016C817D8164
:1020400081EE96E00E943630853511F090E00CC0AC
:102050006C817D816E5F7F4F81EE96E00E9436300D
:1020600090E08A3A09F491E0892FDF91CF910895A9
:102070000F931F93CF93DF93EC018B01642F40E00C
:102080000E94881080E493E0998388831D830C83E9
:10209000CE010E941B10882349F0CE010E940F1030
:1020A000882339F0CE010E94E50F06C0CE010E94C0
:1020B000F10FCE010E94D90FDF91CF911F910F91A7
:1020C0000895FC0182810895FC018CE493E09183E2
:1020D00080830895FC018CE493E0918380830895CC
:1020E000FC018CE493E091838083CF010E94EF3B5D
:1020F0000895FC011282838161E00E94FB3D0895F6
:10210000FC0181E08283838160E00E94FB3D0895B1
:10211000FC01862F2CE433E03183208342836383E8
:1021200061E00E94483D0895382F413210F040E0B0
:1021300042C08091F2048823E1F791E09093F20489
:102140002093F4048FEF80935F0510921A0541509D
:1021500040931B054F5F9093F3048091F304330F7A
:10216000832B8093F3048091F504813041F4109225
:10217000F5048091F3048093BB0085EC01C085EEEB
:102180008093BC008091F2048130E1F380911A05C4
:10219000841710F440911A0520E030E00AC0FB01DA
:1021A000E20FF31FD901A650BB4F8C9180832F5FA4
:1021B0003F4F2417A0F3842F08950F931F93582F98
:1021C000122F413210F081E04AC08091F20488233E
:1021D000E1F782E08093F2040093F4048FEF8093A0
:1021E0005F0510921A0540931B05AAEFB4E0FB01AE
:1021F00002C081918D938E2F861B8417D0F310928D
:10220000F3048091F304550F852B8093F3048091A0
:10221000F504813041F41092F5048091F304809329
:10222000BB0085EC01C085EE8093BC00112321F03A
:102230008091F2048230E1F380915F058F3F11F4C9
:1022400080E00DC080915F05803211F482E007C00C
:1022500080915F05803311F084E001C083E01F911D
:102260000F910895482F613210F081E00895809118
:10227000F204843011F082E0089560933D05ACE1F2
:10228000B5E0842F9C01F90102C081918D938E2FBE
:10229000841B8617D0F380E008951F920F920FB62B
:1022A0000F920BB60F9211242F933F934F935F938E
:1022B0006F937F938F939F93AF93BF93EF93FF930E
:1022C0008091B90090E0887F90708036910509F484
:1022D000F2C081369105CCF58832910509F47BC0B6
:1022E00089329105B4F48031910509F46FC08131D0
:1022F00091053CF4009709F447C1089709F04FC1D4
:1023000065C08831910509F466C0809709F047C11E
:1023100082C08034910509F4A4C08134910544F44D
:102320008033910509F482C0C89709F038C189C08B
:102330008035910509F489C08835910509F496C066
:102340008834910509F02BC1AEC08839910509F494
:1023500013C189399105ECF48837910509F4ABC0B4
:10236000893791054CF48836910509F4A4C080376B
:10237000910509F014C19FC08838910509F4FCC08B
:102380008039910509F49DC08038910509F007C195
:1023900098C0803B910509F4C6C0813B91054CF47F
:1023A000803A910509F49FC0883A910509F0F7C079
:1023B000BAC0803C910509F4E3C0883C910509F45A
:1023C000DFC0883B910509F0EAC0C2C08091F304E8
:1023D0008093BB00CFC090911A0580911B05981780
:1023E00068F490911A05E92FF0E0E650FB4F8081E8
:1023F0008093BB009F5F90931A05BCC08091F4044A
:10240000882309F44BC085ED8093BC008091BC000B
:1024100084FDFCCFC2C080E280935F0585ED809390
:10242000BC008091BC0084FDFCCFB7C080E38093EA
:102430005F0585ED8093BC008091BC0084FDFCCFDE
:10244000ACC088E380935F059BC080911A05909192
:10245000BB00E82FF0E0E650FB4F90838F5F809346
:102460001A0590911A0580911B0582C080911A056A
:102470009091BB00E82FF0E0E650FB4F90838F5F18
:1024800080931A058091F404882341F085ED8093B0
:10249000BC008091BC0084FDFCCF7FC081E08093B4
:1024A000F50484EA6EC085ED8093BC008091BC0089
:1024B00084FDFCCF72C083E08093F20410925E052D
:1024C00059C080915E05803208F056C080915E054B
:1024D0009091BB00E82FF0E0E25CFA4F90838F5FB1
:1024E00080935E0547C080915E05803230F4E091B4
:1024F0005E05F0E0E25CFA4F108285ED8093BC004F
:102500008091BC0084FDFCCF1092F20460915E05C6
:10251000E091F804F091F9048EE395E070E01995EC
:1025200010925E052DC084E08093F20410923C0569
:1025300010923D05E091F604F091F7041995809111
:102540003D05882329F481E080933D0510921C0508
:1025500090913C05E92FF0E0E45EFA4F8081809392
:10256000BB009F5F90933C0590913C0580913D0599
:10257000981710F485EC01C085E88093BC000FC06B
:1025800085EC8093BC0009C010925F0585ED8093B7
:10259000BC008091BC0084FDFCCF1092F204FF913E
:1025A000EF91BF91AF919F918F917F916F915F91CB
:1025B0004F913F912F910F900BBE0F900FBE0F9038
:1025C0001F9018951092F20481E08093F404109209
:1025D000F50484E161E00E94FB3D85E161E00E9439
:1025E000FB3DE9EBF0E080818E7F808380818D7FF1
:1025F000808388E48093B80085E48093BC000895CC
:1026000081E08093A505609382051092A305109246
:10261000A40508952091810530E080918005281B54
:102620003109C901089540918005809181054817BD
:1026300018F02FEF3FEF0AC0E42FF0E0E05AFA4F16
:102640008081282F30E04F5F40938005C9010895B5
:10265000E091800580918105E81718F0EFEFFFEF1A
:1026600006C0F0E0E05AFA4F8081E82FF0E0CF0199
:10267000089508951092A9051092A80588EE93E098
:10268000A0E0B0E08093AA059093AB05A093AC05C1
:10269000B093AD0588E593E09093A7058093A605D8
:1026A0000895CF92DF92EF92FF920F931F93CF93F3
:1026B000DF937C016B018A018091A5058823A1F03D
:1026C000C0E0D0E00DC0D701ED91FC91D601AC0F78
:1026D000BD1F0190F081E02DC7016C9119952196E5
:1026E000C017D10780F304C0CB01642F0E943211C0
:1026F000C801DF91CF911F910F91FF90EF90DF9074
:10270000CF900895DF93CF930F92CDB7DEB7FC0142
:1027100069838091A5058823C9F08091A405803242
:1027200038F081E090E09383828320E030E015C0B0
:102730008091A305E82FF0E0ED57FA4F998190833F
:102740008F5F8093A3058093A40505C0CE010196F9
:1027500061E00E94321121E030E0C9010F90CF9179
:10276000DF9108950F93062F8091820563E875E04D
:102770004091A40521E00E94DD101092A305109263
:10278000A4051092A5050F91089561E00E94B2136F
:102790000895413208F040E2862F60E675E00E941D
:1027A00094101092800580938105089521E00E9485
:1027B000C913089510928005109281051092A30507
:1027C0001092A4050E94E21208958F929F92AF92F8
:1027D000BF92CF92DF92EF92FF920F931F93CF930E
:1027E000DF937B018C01EA012CE330E040E050E014
:1027F0000E94F2406883C801B7012CE330E040E05A
:1028000050E00E94F240122F032FF42EE52E622F8B
:10281000732F842F952F2CE330E040E050E00E948E
:10282000F2406983612F702F8F2D9E2D2CE330E0B5
:1028300040E050E00E94F240122F032FF42EE52ECC
:10284000622F732F842F952F28E130E040E050E075
:102850000E94F2406A83612F702F8F2D9E2D28E1F8
:1028600030E040E050E00E94F24079018A01C80166
:10287000B7016C5F7F4F8F4F9F4F27E030E040E004
:1028800050E00E94F2406F5F6B8320E0AA24BB24DB
:10289000650101C02F5F822E9924F401EE54F84F98
:1028A000CF0183709070892B99F4CF0164E670E0BA
:1028B0000E94DF40892B39F4CF0160E971E00E946A
:1028C000DF40892B29F48EE691E0A0E0B0E004C05F
:1028D0008DE691E0A0E0B0E0A80EB91ECA1EDB1E96
:1028E000C501A0E0B0E0E816F9060A071B0790F65C
:1028F0002E83F401EE54F84F83E0882E912C8E2223
:102900009F228114910499F4CF0164E670E00E9443
:10291000DF40892B39F4CF0160E971E00E94DF408C
:10292000892B29F48EE691E0A0E0B0E004C08DE6AA
:1029300091E0A0E0B0E0A81AB90ACA0ADB0A98013F
:1029400087010A191B092C093D09CF0164E670E0D3
:102950000E94DF407C01CF0160E971E00E94DF400E
:10296000AC01E4E6F3E060E0613051F481149104DD
:1029700049F4E114F10441F44115510529F002C074
:10298000808103C08CE101C08DE190E0A0E0B0E067
:10299000081719072A073B0740F0081B190B2A0BD9
:1029A0003B0B6F5F31966C30F9F66F5F6D83802F54
:1029B0008F5F8C83DF91CF911F910F91FF90EF90EC
:1029C000DF90CF90BF90AF909F908F900895EF923F
:1029D000FF920F931F937B018C018091C905909109
:1029E000CA05A091CB05B091CC05E816F9060A07F7
:1029F0001B0771F0C801B7014EEB55E00E94E513CB
:102A0000E092C905F092CA050093CB051093CC055E
:102A10001F910F91FF90EF9008950E94E71420916D
:102A2000C40530E02E54384FC90108954F925F928B
:102A30006F927F928F929F92AF92BF92CF92DF92CE
:102A4000EF92FF920F931F93CF93DF934C01DC0122
:102A500016961C91612F70E080E090E020E833E34F
:102A600041EE51E00E94C0405B016C0122EB37E077
:102A7000E12FF0E0EE54F84F1DC0C9018370907053
:102A8000892BB1F4C90164E670E00E94DF40892B14
:102A900039F4C90160E971E00E94DF40892B41F4FB
:102AA00080E891E5A1E0B0E0A80EB91ECA1EDB1EC9
:102AB0002F5F3F4F2E173F0701F7D40115968C91DA
:102AC000482E5524C90164E670E00E94DF407C0175
:102AD000C90160E971E00E94DF408C01C1E0D0E0F3
:102AE00093E0692E712C6222732227C0C230D10577
:102AF00091F46114710479F4E114F10419F40115ED
:102B0000110549F480E89BE3A6E2B0E0A80EB91EE7
:102B1000CA1EDB1E11C0FE01ED59FC4F608170E042
:102B200080E090E020E831E541E050E00E94C040C4
:102B3000A60EB71EC81ED91E2196C415D505B4F21F
:102B4000D40112966C9170E080E090E020E13EE0CC
:102B500040E050E00E94C0407B018C01F4016181A3
:102B600070E080E090E02CE330E040E050E00E9434
:102B7000C040E60EF71E081F191FD4018C91E80E05
:102B8000F11C011D111D14966C9170E06150704094
:102B9000882777FD8095982F20E831E541E050E0C7
:102BA0000E94C040E60EF71E081F191FEA0CFB1C0E
:102BB0000C1D1D1DB701C801DF91CF911F910F9111
:102BC000FF90EF90DF90CF90BF90AF909F908F904D
:102BD0007F906F905F904F9008956093B4057093CD
:102BE000B5058093B6059093B7052091C402309146
:102BF000C5024091C6025091C702260F371F481FD9
:102C0000591F2093B8053093B9054093BA055093E6
:102C1000BB0582E090E09093BD058093BC050E94C7
:102C2000403C6093C5057093C6058093C70590939B
:102C3000C8050895EF92FF920F931F931CC02F5F5A
:102C40003F4F4F4F5F4F2093B4053093B5054093EE
:102C5000B6055093B70588EE93E0A0E0B0E0E80E2B
:102C6000F91E0A1F1B1FE092C505F092C6050093CE
:102C7000C7051093C8050E94403CE090C505F09040
:102C8000C6050091C7051091C8056E197F09800B14
:102C9000910B2091B4053091B5054091B605509146
:102CA000B705685E73408040904048F68091B80553
:102CB0009091B905A091BA05B091BB0528173907C5
:102CC0004A075B07E8F0E091B205F091B305309751
:102CD000B9F01995611571058105910519F00E94EA
:102CE000ED150EC020E030E08091BC059091BD054F
:102CF000892B11F021E030E03093BD052093BC0515
:102D00006091B4057091B5058091B6059091B705B5
:102D10001F910F91FF90EF9008959093B3058093CA
:102D2000B2058091B4059091B505A091B605B0911A
:102D3000B7058093B8059093B905A093BA05B093F1
:102D4000BB050E941A1608950E941A160E940D15BE
:102D500008950E941A160E94E7148091C30590E01E
:102D600008950E941A160E94E7148091C20590E00F
:102D700008950E941A160E94E7148091BE0590E003
:102D800008950E941A160E94E7148091BF0590E0F2
:102D900008950E941A160E94E7148091C00590E0E1
:102DA000089585E361E00E94FB3D85E361E00E94B8
:102DB000483D8CB580618CBD8CB580648CBD84E34E
:102DC00061E00E94483D83E361E00E94483D089530
:102DD000DC0180E00BC0E82FF0E08D9190E0E82767
:102DE000F927EC51FF4FE49161508E2F662399F73C
:102DF0000895DF92EF92FF920F931F93FC01E08002
:102E000001811281F894F80181818E298183828168
:102E1000DE2CD0948D21828383E090E00E94743C6C
:102E2000F80181818D2181838AE090E00E94743CC9
:102E3000F8010081789485E390E00E94743C80E082
:102E400010E0FF240E211F21012B09F081E01F91CA
:102E50000F91FF90EF90DF900895EF92FF920F9304
:102E60001F93CF93DF937C0101E010E0C0E0D0E03E
:102E7000C7010E94F9168111102B000F2196C8304E
:102E8000D105B1F7812FDF91CF911F910F91FF9065
:102E9000EF9008951F93CF93DF93FC011081C181C0
:102EA000D281912F909560FF12C0F8948A81892376
:102EB0008A838981812B89838AE090E00E94743C17
:102EC0008A81812B8A83789487E390E011C0F894FB
:102ED0008A8189238A838981812B898381E490E097
:102EE0000E94743C8A81812B8A83789485E090E0EB
:102EF0000E94743CDF91CF911F910895CF92DF9291
:102F0000EF92FF920F931F93CF93DF938C01E42EE8
:102F1000FF24F394C0E0D0E0C62EDD2460E08F2DC6
:102F200090E08C219D21892B09F061E0C8010E946D
:102F30004A17FF0C2196C830D10581F7EE20A9F47D
:102F4000F894D8011196ED91FC91129791818C9192
:102F50008095982391831196ED91FC91129792811F
:102F60008C918095982392837894DF91CF911F91D3
:102F70000F91FF90EF90DF90CF900895EF92FF9226
:102F80000F931F93CF93DF938C017B0165E540E0A6
:102F90000E947E17C0E0D0E0F701EC0FFD1FC801D2
:102FA000608140E00E947E172196C830D105A1F7CC
:102FB000DF91CF911F910F91FF90EF900895DF92D5
:102FC000EF92FF920F931F93CF93DF93FC01008149
:102FD000C181D281F8948981D02ED0948D218983AA
:102FE00078941DE7E02EFF24115059F182E090E023
:102FF0000E94743C888190E08E219F21892BA1F34F
:10300000F8948A818D218A838981802B89837894A1
:1030100080EE91E00E94743CF89489818D2189832F
:1030200086E490E00E94743C888110E090E0E82201
:10303000F922EF2809F411E078948AE991E00E94DE
:10304000743C812FDF91CF911F910F91FF90EF90F2
:10305000DF900895FF920F931F938C01F62E862F19
:1030600060E00E94483D8F2D90E0FC01E858FD4F44
:10307000E491D801EC938E5C9D4FFC016491E62FA6
:10308000F0E0EE0FFF1FE85EFD4F859194911296E0
:103090009C938E9311971B961C921B971D961C92C6
:1030A0001D971C961C92F80187E090E012863197DC
:1030B000009711F00197FACF1F910F91FF9008959B
:1030C000FC0112828FEF8183108213820895FC012C
:1030D0008381882331F0662319F48FEF818308956B
:1030E00011820895CF93DF93EC018B81882319F42B
:1030F00080E090E013C0898180958623888386EAEA
:1031000095E06A810E94001386EA95E068810E943A
:10311000821386EA95E00E94C51390E020E030E03B
:10312000892B11F421E030E0C901DF91CF9108959E
:10313000CF93DF93EC016A8386EA95E00E94DA136D
:1031400086EA95E06A8141E00E94D6131B828823BB
:1031500011F081E08B8386EA95E00E941313888347
:103160008B8190E0DF91CF91089508950895FC013F
:103170001382128284E793E0918380830895FC0197
:10318000A081B18118962D913C9119976FEFF901AB
:1031900019950895FC01A081B18118962D913C915B
:1031A000199760E0F90119950895DC01ED91FC9102
:1031B0000284F385E02D40E019950895FC016581B6
:1031C000862F846085836C60CF010E94D518089596
:1031D000DC0117969C911797491710F0492F415021
:1031E00018968C911897803139F4943029F4E42F93
:1031F000F0E0E058FC4F04C0E42FF0E0EC57FC4F47
:103200008081680F6068CD010E94D5180895DC01A7
:10321000ED91FC910284F385E02D41E0199581E068
:1032200090E0089561E00E94D51880ED97E00E943B
:10323000743C0895CF93DF93EC01423018F08C81F9
:1032400088608C834F836887222329F0413019F4EA
:103250008C8184608C8364E670E080E090E00E9462
:10326000E03C6C8164FD31C0E881F9810284F38522
:10327000E02DCE0163E042E0199584E991E10E94DE
:10328000743CE881F9810284F385E02DCE0163E08E
:1032900042E0199584E991E10E94743CE881F9814A
:1032A0000284F385E02DCE0163E042E0199586E9C2
:1032B00090E00E94743CE881F9810284F385E02D5E
:1032C000CE0162E042E0199516C06062CE010E9414
:1032D000D51884E991E10E94743C6C816062CE0152
:1032E0000E94D51886E990E00E94743C6C8160626F
:1032F000CE010E94D5186C816062CE010E94D51863
:1033000084E08D83CE010E94DE18CE010E94121946
:1033100082E08E83CE0166E00E94D518CE010E9425
:10332000BF18DF91CF910895DC0181E090E002C0E9
:10333000880F991F6A95E2F71C968C931C971A9632
:103340005C934E931997ED91FC9111970084F18550
:10335000E02DCD0160E019950895DF92EF92FF9284
:103360000F931F938C01D62E8EE0E82EF12CE00EE9
:10337000F11EF80162896D29C7010E947218F801D7
:10338000628960956D21C7010E9472181F910F918B
:10339000FF90EF90DF900895DC01FC0190E020E0C9
:1033A00070E060FF02C08589282B9F5F31969430C2
:1033B00019F075956795F4CF413019F454964C91F6
:1033C00054971D968C911D97842B282BCD01622F2D
:1033D0000E94AD1908950F931F93CF93DF93EC01D3
:1033E000142F062F0F70423019F4602F40E00CC0EC
:1033F00070E044E0759567954A95E1F7412F0E948A
:10340000CC19CE01602F412F0E94CC19DF91CF91B2
:103410001F910F910895FC012485222399F0818545
:103420009285009719F4662329F406C0019721F4C8
:10343000662311F4258701C01586CF010E96658598
:103440000E94721808950F931F93CF93DF938C01FE
:10345000EC012E96CE01F80163850E949818019721
:1034600019F020E030E00CC0CE0161E00E94671846
:10347000F8011482CE0160E00E94721821E030E071
:10348000C901DF91CF911F910F910895DF92EF92C3
:10349000FF920F931F938C01F62EE42ED22E0E94E2
:1034A000231AC8016F2D4E2D2D2D0E941A191F9120
:1034B0000F91FF90EF90DF9008952F923F924F92DF
:1034C0005F926F927F928F929F92AF92BF92CF92B4
:1034D000DF92EF92FF920F931F93DF93CF93CDB7BD
:1034E000DEB73C01962E442E222E0E94B7188CE89F
:1034F00093E0F30191838083C3010E960E946018CC
:10350000F3019386148615861286118681E090E079
:103510009C0102C0220F331F4A94E2F7228BFC0168
:1035200002C0EE0FFF1F2A94E2F71F01F301238A66
:103530009C0102C0220F331F0A95E2F7248BFC0185
:1035400002C0EE0FFF1FEA94E2F77F01F301E58A64
:103550009C0102C0220F331FCA94E2F7268BFC01A4
:1035600002C0EE0FFF1FAA94E2F75F01F301A78AE2
:1035700002C0880F991F8A94E2F7808FC3016E8979
:103580004F89588D0E949419CF91DF911F910F910F
:10359000FF90EF90DF90CF90BF90AF909F908F9073
:1035A0007F906F905F904F903F902F900895DF92A3
:1035B000EF92FF920F931F93CF93DF93EC01882735
:1035C00077FD8095982F0E94A53F7B018C0120E01C
:1035D00030E040E45FE30E94594020E030E048E4FE
:1035E00052E40E940A3F0E94723FC617D70714F4A4
:1035F000DD241CC0DD24C801B70120E030E040EA32
:103600005FE30E94594020E030E048E452E40E9429
:103610000A3F20E030E040E85FE30E94A23E0E94C3
:10362000723F6C177D0714F0DD24D3948D2D90E04C
:10363000DF91CF911F910F91FF90EF90DF90089550
:103640006C597F4F0E94D71A0895645670400E94AB
:10365000D71A08956093CD051092CF05089582E0A2
:103660008093CE0510929A060895AF92BF92CF92A2
:10367000DF92EF92FF920F931F93CF93DF936B0133
:10368000DB011A96CD91DC911B978A819B8168E2C0
:1036900073E20E94201B892B09F480C080919A0656
:1036A000843009F08CC08C819D816AEC78E00E94A6
:1036B000251B892B09F483C08E819F8160E372E012
:1036C0000E94201B892B09F47AC0F601118610860E
:1036D0008FEF9FEFAFEFBFEF84839583A683B78310
:1036E00081E090E09183808354C08C819D8164E966
:1036F00071E10E94251B892B09F450C02696EE2407
:10370000FF24870123E0A22EB12C8881998160E3F8
:1037100072E00E94201B892B09F440C08A819B81A2
:1037200060E476E00E94251B892B69F0EE0CFF1CFB
:10373000001F111F81E090E0A0E0B0E0E82AF92A24
:103740000A2B1B2B0CC08A819B8160E372E00E94D4
:10375000251B892B19F1EE0CFF1C001F111F24964D
:1037600091E4A916B10429F0A2E0B0E0AA0EBB1EB4
:10377000CCCF80E290E0F60191878087D601149645
:10378000ED92FD920D931C93179781E090E08D933D
:103790009C9321E030E040E050E004C020E030E0C5
:1037A00040E050E0B901CA01DF91CF911F910F9124
:1037B000FF90EF90DF90CF90BF90AF9008958091F1
:1037C0009A06843458F391CFAF92BF92CF92DF9292
:1037D000EF92FF920F931F93CF93DF936B01809132
:1037E0009A068A3108F480C0DB011A96CD91DC91EB
:1037F0001B9788819981845F914080F4FB01118639
:1038000010868FEF9FEFAFEFBFEF84839583A68382
:10381000B78389E090E09183808361C08A819B8136
:1038200060E679E00E94201B892B09F45DC0269692
:10383000EE24FF24870162E0A62EB12C30C022972F
:1038400088819981229668E572E00E94251B892B68
:1038500079F18881998160EB74E00E94201B892BAB
:1038600069F0EE0CFF1C001F111F81E090E0A0E04A
:10387000B0E0E82AF92A0A2B1B2B0CC08881998119
:1038800068E572E00E94201B892B71F1EE0CFF1C91
:10389000001F111FA2E0B0E0AA0EBB1E249680916B
:1038A0009A0695012F5F3F4F90E0281739073CF2A9
:1038B000C501019795958795F601918780870C97AB
:1038C0001CF41186108610C0D6011496ED92FD925C
:1038D0000D931C93179782E090E08D939C9321E0C9
:1038E00030E040E050E004C020E030E040E050E054
:1038F000B901CA01DF91CF911F910F91FF90EF9015
:10390000DF90CF90BF90AF900895AF92BF92CF92CB
:10391000DF92EF92FF920F931F93CF93DF936B0190
:1039200080919A068A3108F489C0DB011A96CD91FC
:10393000DC911B97888199818052934080F4FB0130
:10394000118610868FEF9FEFAFEFBFEF84839583D3
:10395000A683B78389E090E0918380836AC08A81DF
:103960009B816CEA7DE00E94201B892B09F466C0D4
:103970008C819D816CEA7DE00E94201B892B09F4DB
:103980005DC02896EE24FF248701A3E0AA2EB12C67
:1039900030C0229788819981229666EB73E00E945D
:1039A000251B892B79F18881998160E679E00E9455
:1039B000201B892B69F0EE0CFF1C001F111F81E0FA
:1039C00090E0A0E0B0E0E82AF92A0A2B1B2B0CC0FB
:1039D000888199816CEB72E00E94201B892B71F128
:1039E000EE0CFF1C001F111FA2E0B0E0AA0EBB1ED0
:1039F000249680919A0695012F5F3F4F90E02817FB
:103A000039073CF2C501019795958795F601918795
:103A100080870C971CF41186108610C0D60114966E
:103A2000ED92FD920D931C93179789E090E08D9392
:103A30009C9321E030E040E050E004C020E030E022
:103A400040E050E0B901CA01DF91CF911F910F9181
:103A5000FF90EF90DF90CF90BF90AF9008956F925E
:103A60007F928F929F92AF92BF92CF92DF92EF920E
:103A7000FF920F931F93CF93DF934B0180919A0690
:103A8000823208F47AC0DB011A96CD91DC911B9743
:103A90008A819B816EE571E00E94201B892B09F4CD
:103AA0006CC036E0A32EB12CAC0EBD1EEE24FF245C
:103AB000870122E0C22ED12C37C0E50122978881F0
:103AC00099816EE977E00E94201B892B69F0EE0C4A
:103AD000FF1C001F111F81E090E0A0E0B0E0E82A89
:103AE000F92A0A2B1B2B0DC0888199816EEE72E09A
:103AF0000E94201B892B09F440C0EE0CFF1C001F04
:103B0000111FD5018D919C916EE571E00E94251BDE
:103B1000E4E0F0E0AE0EBF1E892B11F463010FC08C
:103B200022E030E0C20ED31E36010894611C711CE5
:103B300080919A0690E0681679060CF4BECFC60113
:103B4000019795958795D40119969C938E93189714
:103B500040972CF419961C921E9218970EC0F401EF
:103B6000E482F582068317838AE090E09183808364
:103B700021E030E040E050E004C020E030E040E0F0
:103B800050E0B901CA01DF91CF911F910F91FF90D1
:103B9000EF90DF90CF90BF90AF909F908F907F90ED
:103BA0006F9008956F927F928F929F92AF92BF9283
:103BB000CF92DF92EF92FF920F931F93CF93DF93F9
:103BC000FB013A0159016801DA012D913C9184858C
:103BD00095852817390724F071E0E72EF12C56C09F
:103BE000C901880F991F0284F385E02DE80FF91FA2
:103BF00080819181982E892E20FD06C00CE91FEF4F
:103C000051E0E52EF12C04C004E610E0EE24FF2480
:103C1000B8016C0D7D1D892D982D0E94D71A892B16
:103C200019F021E030E020C0E601CC0FDD1FB80123
:103C30006C0F7D1F892D982D0E94D71A892B19F0A2
:103C400022E030E011C0CC0DDD1D0C0F1D1F892DB1
:103C5000982DB8010E94D71A892B21F4EE24EA94FA
:103C6000FE2C14C023E030E0F501808191810196A3
:103C700091838083821793074CF011821082D301C5
:103C80008D919C91119701968D939C93C701DF9123
:103C9000CF911F910F91FF90EF90DF90CF90BF9049
:103CA000AF909F908F907F906F9008952F923F924A
:103CB0004F925F926F927F928F929F92AF92BF923C
:103CC000CF92DF92EF92FF920F931F93DF93CF93E8
:103CD00000D000D0CDB7DEB71C015B0180919A0601
:103CE0008D3008F47EC081E090E09A8389831C8245
:103CF0001B82A3E08A2E912C8C0E9D1EC1012E01E9
:103D00000894411C511CA201940109E713E00E9490
:103D1000D21D892B09F065C0C101B501A201940132
:103D20000E94D21D019709F05CC0C101B501A2013A
:103D300094010E94D21D892B09F053C0CC24DD24AC
:103D4000760166247724C4018D829E832FC0C10131
:103D5000B501A2012D813E8109E713E00E94D21D29
:103D60004C01C101B501A2012D813E810E94D21DED
:103D700021E08216910479F4892B99F5CC0CDD1C95
:103D8000EE1CFF1C81E090E0A0E0B0E0C82AD92A38
:103D9000EA2AFB2A08C0892821F5019711F5CC0CE5
:103DA000DD1CEE1CFF1C0894611C711C80919A069E
:103DB00090E029813A81281739074CF2D5011996EC
:103DC0007C926E921897F501C482D582E682F782C2
:103DD00083E090E09183808321E030E040E050E098
:103DE00004C020E030E040E050E0B901CA0126966E
:103DF0000FB6F894DEBF0FBECDBFCF91DF911F91FC
:103E00000F91FF90EF90DF90CF90BF90AF909F9079
:103E10008F907F906F905F904F903F902F9008957C
:103E20002F923F924F925F926F927F928F929F92CA
:103E3000AF92BF92CF92DF92EF92FF920F931F93B8
:103E4000DF93CF93CDB7DEB728970FB6F894DEBFD8
:103E50000FBECDBF1C014B01DB011C968D919C91C7
:103E60001D97181619060CF0C4C081E090E09A83E3
:103E700089831A960D911C911B97F8018281938179
:103E80006AE67AE00E94201B892B09F4B2C082E026
:103E900090E09A838983D80114968D919C9115970F
:103EA00069E773E00E94251B892B09F4A2C083E017
:103EB00090E09A8389831C821B8203E0A02EB12CA0
:103EC000AC0EBD1EC101B4013E010894611C711C01
:103ED000A30195010CEB11E00E94D21D892B09F082
:103EE00088C0C101B401A30195010E94D21D0197B0
:103EF00009F07FC0CC24DD24760144245524C5017B
:103F0000AD829E83C3016F82988756C0C101B40100
:103F10004F8158852D813E810CEB11E00E94D21D0E
:103F20003C01B3E04B16510461F4C101B4014F816F
:103F300058852D813E810E94D21D6816790609F0B0
:103F400058C0C101B4014F8158852D813E810CEBD1
:103F500011E00E94D21D5C01E3E04E16510459F4B9
:103F6000C101B4014F8158852D813E810E94D21D2F
:103F7000A816B906F1F56114710489F4F1E0AF16E1
:103F8000B104B9F5CC0CDD1CEE1CFF1C81E090E007
:103F9000A0E0B0E0C82AD92AEA2AFB2A0AC091E0A8
:103FA0006916710431F5AB2821F5CC0CDD1CEE1C33
:103FB000FF1C0894411C511C29813A81D4011C9694
:103FC0008D919C911D97281739070CF49FCF199656
:103FD0005C924E921897F401C482D582E682F782F1
:103FE00084E090E09183808321E030E040E050E085
:103FF00004C020E030E040E050E0B901CA0128965A
:104000000FB6F894DEBF0FBECDBFCF91DF911F91E9
:104010000F91FF90EF90DF90CF90BF90AF909F9067
:104020008F907F906F905F904F903F902F9008956A
:104030006F927F928F929F92AF92BF92CF92DF92B8
:10404000EF92FF920F931F93CF93DF937B01FB01BE
:10405000C285D3858A819B816EEA7DE00E94201B08
:10406000892B09F474C08C819D8166ED76E00E94F5
:10407000201B892B09F46BC0269600E010E0DD249C
:10408000CC24992488247724662483E0A82EB12C9C
:104090008881998166EF71E00E94201B892B09F4C9
:1040A00056C08A819B816CED74E00E94251B892B90
:1040B00069F098014D2D5C2D692D782D872D962D59
:1040C00001E00E944002022F016013C08A819B819F
:1040D00060E971E00E94251B892BC9F198014D2DE3
:1040E0005C2D692D782D872D962D01E00E944002D0
:1040F000022F132FD42EC52E962E872E782E692EA2
:104100002496F1E6AF16B10429F082E090E0A80E03
:10411000B91EBECFC801F701048395834683578338
:104120009801872D962D00E20E94C101C901F70177
:104130002283938387E090E09183808380E390E003
:104140009187808721E030E040E050E004C020E02B
:1041500030E040E050E0B901CA01DF91CF911F91FA
:104160000F91FF90EF90DF90CF90BF90AF909F9016
:104170008F907F906F9008958F929F92AF92BF9291
:10418000CF92DF92EF92FF920F931F93CF93DF9323
:104190006B0180919A06823209F0B2C0DB011A9657
:1041A000CD91DC911B978A819B8168E572E00E942A
:1041B000201B892B09F4A4C080919A0621E030E0ED
:1041C000281B3109220F331FC21BD30B8881998111
:1041D00068E572E00E94201B892B09F491C0F6016A
:1041E000118610868FEF9FEFAFEFBFEF848395832B
:1041F000A683B78388E090E09183808369C0809133
:104200009A06813208F469C0D50114968D919C916B
:10421000159760EA7FE00E94251B892B09F45DC099
:10422000E5012696EE24FF24870133E0832E912CAE
:104230008881998168E572E00E94201B892B09F42E
:104240004CC08A819B8160E476E00E94251B892B0B
:1042500069F0EE0CFF1C001F111F81E090E0A0E050
:10426000B0E0E82AF92A0A2B1B2B0CC08A819B811B
:1042700066E272E00E94251B892B79F1EE0CFF1C8F
:10428000001F111FA2E0B0E08A0E9B1E2496B3E22D
:104290008B16910469F6E6E4F0E0AE0EBF1ED50180
:1042A0008D919C9168E572E00E94201B892BA9F0FA
:1042B00080E190E0F60191878087D6011496ED9217
:1042C000FD920D931C93179788E090E08D939C933B
:1042D00021E030E040E050E004C020E030E040E089
:1042E00050E0B901CA01DF91CF911F910F91FF906A
:1042F000EF90DF90CF90BF90AF909F908F900895F8
:10430000F601A284B384D50112968D919C911397E6
:1043100060E47FE10E94201B892B09F070CFDDCF84
:104320002F923F924F925F926F927F928F929F92C5
:10433000AF92BF92CF92DF92EF92FF920F931F93B3
:10434000DF93CF930F920F92CDB7DEB71B01FB0126
:1043500084859585863091052CF420E030E040E09E
:1043600050E081C0F5ECAF2EFDE9BF2EFCE1CF2E71
:10437000F1E8DF2EE6E04E2E512C9C01220F331F78
:104380003A83298359C0F101A285B385F20134979C
:10439000EA0FFB1FE080F180A40DB51D6D917C91AB
:1043A00080E090E00E94A33F3B014C0100E010E060
:1043B000C801B7010E94A33F7B018C012DEC3CECAE
:1043C0004CE45FE30E9459409B01AC01C401B3017E
:1043D0000E94063F88231CF400E010E018C0C401CE
:1043E000B3012DEC3CEC4CE45FE30E9459409B018F
:1043F000AC01C801B7010E94063F082F112707FD35
:1044000010950027110F001F11270F5F1F4FC601C6
:10441000B50123E931E040E051E00E94C04058017D
:10442000CC24B7FCC094DC2CA626B726C826D926F7
:1044300022E030E0420E531E89819A8148165906C7
:1044400009F0A1CFF101A482B582C682D78280E2B1
:1044500090E0918780878FEF9FEF9183808321E0A9
:1044600030E040E050E0B901CA010F900F90CF91C9
:10447000DF911F910F91FF90EF90DF90CF90BF9051
:10448000AF909F908F907F906F905F904F903F90F4
:104490002F9008950F931F93CF93DF938C01EB011F
:1044A00082ED95E09B878A8780919A068C871D868E
:1044B0008091CE05853009F057C0C8010E94351B98
:1044C000611571058105910509F051C0C801BE0152
:1044D0000E94E41B611571058105910509F047C033
:1044E000C801BE010E94851C6115710581059105F9
:1044F000F1F5C801BE010E942F1D611571058105EE
:104500009105A9F5C801BE010E94561E61157105ED
:104510008105910561F5C801BE010E94101F61155A
:1045200071058105910519F5C801BE010E94182089
:104530006115710581059105D1F4C801BE010E9484
:10454000BC20611571058105910589F4C801BE0182
:104550000E949021611571058105910541F482E069
:104560008093CE0510929A0620E030E002C021E050
:1045700030E0C901DF91CF911F910F9108951F92F3
:104580000F920FB60F920BB60F9211242F933F93F9
:104590004F935F936F937F938F939F93AF93BF934B
:1045A000EF93FF938091CD050E942E3E482F80917E
:1045B000D0059091D10501969093D1058093D005B7
:1045C00080919A06843618F085E08093CE0580911C
:1045D000CE058330D1F0843020F4823009F059C008
:1045E00006C0843071F1853009F053C04CC04423BB
:1045F00009F04FC08091D0059091D1058436910586
:1046000008F443C010929A061EC0413009F041C020
:1046100080919A06E82FF0E02091D0053091D105E5
:10462000EE0FFF1FE353FA4F368325838F5F80938E
:104630009A061092D1051092D00584E08093CE05A1
:1046400028C04423B9F480919A06E82FF0E0209125
:10465000D0053091D105EE0FFF1FE353FA4F36839B
:1046600025838F5F80939A061092D1051092D00512
:1046700083E0E4CF8091D0059091D10585369105F6
:1046800040F085E0DBCF442321F41092D105109255
:10469000D0058091CF05882329F0442311F42F9A67
:1046A00001C02F98FF91EF91BF91AF919F918F9192
:1046B0007F916F915F914F913F912F910F900BBE22
:1046C0000F900FBE0F901F901895F89492E0909362
:1046D000B0009093B10084E68093B300E2EBF0E089
:1046E0001082E08190937000789482E08093CE05F0
:1046F00010929A068091CD0560E00E94483D089591
:10470000682F8DE996E048E050E00E946427089504
:1047100090E0982F88278E5F9B4F0E94B2250895C6
:1047200090E0982F88278E5F9B4F0E9471250895F7
:104730001F93182F8DE996E0612F40E250E00E9410
:1047400064270CC0812F0E94882383FF07C0812F1C
:1047500068E10E94902320E030E00BC0812F0E948E
:10476000882384FFEFCF812F60E10E94902321E016
:1047700030E0C9011F9108951F93182F8DE996E02D
:10478000612F40E150E00E946427812F6FEF0E946B
:1047900090231F910895FF920F931F93F62E672F7A
:1047A000082F10E00C5F1F4F102F0027C801409604
:1047B0000E947125C80141966F2D0E9471251F919D
:1047C0000F91FF900895FF920F931F93F62E672F7E
:1047D000082F10E00C5F1F4F102F0027C801049610
:1047E0000E947125C80105966F2D0E9471251F91A9
:1047F0000F91FF900895FF920F931F93CF93DF9334
:10480000082FF62EEA01122F862F8150853010F0E6
:1048100080E024C0802F0E94BC231F2980E0902FBD
:104820009C5F612F0E947125209719F0802FBE0197
:104830000BC060919B0670919C066F5F7F4F7093D9
:104840009C0660939B06802F0E94E3238DE996E0EF
:10485000602F41E050E00E94642781E0DF91CF911A
:104860001F910F91FF9008951F93CF93DF93182FFF
:10487000FB01EA018081882349F48181882331F496
:104880008281882319F48381882391F0209781F015
:10489000912F80E0845F9B4FBF0144E050E00E9475
:1048A0008B25812FBE010E94CB2321E030E002C086
:1048B00020E030E0C901DF91CF911F9108951F934F
:1048C000CF93DF93182FFB01EA0180818F3F51F4D2
:1048D00081818F3F91F482818F3F79F483818F3F73
:1048E00061F423C0882349F48181882331F48281D3
:1048F000882319F483818823C1F02097B1F0912F88
:1049000080E0845F9B4FBF0144E050E00E948B2514
:10491000812FBE010E94CB238DE996E0612F44E0F8
:1049200050E00E94642781E001C080E0DF91CF91D8
:104930001F910895AF92BF92DF92EF92FF920F9373
:104940001F93CF93DF93D82EEB015A0189018DE994
:1049500096E06D2D0E949B268017910710F078013C
:1049600006C08DE996E06D2D0E949B267C018DE9A5
:1049700096E06D2DAE01950187010E94D425C701F7
:10498000DF91CF911F910F91FF90EF90DF90BF903B
:10499000AF900895AF92BF92DF92EF92FF920F9384
:1049A0001F93CF93DF93D82E5B018A0188E04130BB
:1049B000580710F000E018E0DD2DC0E0CD5FDB4FC0
:1049C0008DE996E06D2D0E949B267C01CE010E9410
:1049D000B225873129F08C3119F000E010E003C0D6
:1049E000E016F10668F38DE996E06D2DA5019801BA
:1049F0000E9445268DE996E06D2D40E250E00E9430
:104A000064270BC0CE010E94B225882331F48D2D7E
:104A10000E94BC2300E010E009C08D2D0E94882375
:104A200084FFF0CF8D2D60E10E949023C801DF91BB
:104A3000CF911F910F91FF90EF90DF90BF90AF90BB
:104A400008950F93282FAB018DE996E0622F21E0A6
:104A500030E001E00E94192781E090E00F91089575
:104A6000CF92DF92FF920F931F93CF93DF93F82E95
:104A70006B018A018DE996E06F2D0E946826EC019A
:104A8000009769F49F2D80E08D5F9B4F0E94B225B7
:104A90008431D9F08823C9F08C31B9F01FC00817D0
:104AA00019070CF4E8011C161D067CF48DE996E04C
:104AB0006F2DA6019E0100E00E9419278DE996E066
:104AC0006F2D40E450E00E946427CE01DF91CF912A
:104AD0001F910F91FF90DF90CF900895CFEFDFEF00
:104AE000F4CF282F2C9880EF8EBD0DB407FEFDCF9C
:104AF0008EB59EBD0DB407FEFDCF8EB52EBD0DB497
:104B000007FEFDCF8EB56EBD0DB407FEFDCF8EB591
:104B10002C9A81E00895DC0120E030E090EF1DC088
:104B20002C989EBD0DB407FEFDCF8EB5BEBD0DB455
:104B300007FEFDCF8EB5AEBD0DB407FEFDCF8EB521
:104B4000FB01E20FF31F80818EBD0DB407FEFDCF88
:104B500011968EB52C9A2F5F3F4F2417350700F31F
:104B6000CA010895282F2C988FE08EBD0DB407FE42
:104B7000FDCF8EB59EBD0DB407FEFDCF8EB52EBD0B
:104B80000DB407FEFDCF8EB51EBC0DB407FEFDCFE4
:104B90008EB52C9A089590E00496982F8827860F5A
:104BA000971F0E94B22508957F928F929F92AF9295
:104BB000BF92CF92DF92EF92FF920F931F93CF930A
:104BC000DF936C01762E7A0149015801862F64E249
:104BD00070E00E94CB25182F872D65E270E00E94BF
:104BE000CB25C82FD0E0912F80E0C82BD92BCE0D3C
:104BF000DF1DAE015770872D90E0880F991FC80EFA
:104C0000D91EF60120813181240F351FCA018A0D7A
:104C10009B1D8150984098F000E018E0041B150B94
:104C2000C901B401A8010E948B25A501401B510BAD
:104C3000F60180819181080D191DB80103C0C901D9
:104C4000B401A5010E948B257E01EA0CFB1C072DF7
:104C500010E00C5F1F4F102F0027C80184966F2DA6
:104C60000E947125C80185966E2D0E947125DF91E5
:104C7000CF911F910F91FF90EF90DF90CF90BF9059
:104C8000AF909F908F907F9008950F931F93FA019C
:104C9000890140E050E09F010E94D4251F910F91AF
:104CA00008950F931F93182F66E270E00E94CB25A2
:104CB000082F812F67E270E00E94CB25502F40E043
:104CC000282F30E0242B352BC9011F910F91089517
:104CD000FF920F931F93CF93DF93F62EC0E0D0E0A7
:104CE0008F2D0E9451268C01009721F08F2D0E945C
:104CF0005126EC01C017D10799F7CE01DF91CF9172
:104D00001F910F91FF9008950F931F93182F60E24A
:104D100070E00E94CB25082F812F61E270E00E9495
:104D2000CB25502F40E0282F30E0242B352BC90114
:104D30001F910F910895FF920F931F93CF93DF93CD
:104D4000F62EC0E0D0E08F2D0E9484268C010097C3
:104D500021F08F2D0E948426EC01C017D10799F70E
:104D6000CE01DF91CF911F910F91FF900895DC014B
:104D700020E030E09FE01DC02C989EBD0DB407FEE2
:104D8000FDCF8EB5BEBD0DB407FEFDCF8EB5AEBD59
:104D90000DB407FEFDCF8EB51EBC0DB407FEFDCFD2
:104DA00011968EB5FB01E20FF31F80832C9A2F5FC3
:104DB0003F4F2417350700F3CA010895CF92DF92C1
:104DC000EF92FF920F931F93CF93DF9369017801C6
:104DD0005770C62FD0E02496CC0FDD1FC80FD91F07
:104DE00028813981240F351FC801840F951F8150F8
:104DF000984088F000E018E0041B150BC901B601CB
:104E0000A8010E94B726E01AF10A888199810C0D49
:104E10001D1DB80102C0C901B601A7010E94B72635
:104E2000DF91CF911F910F91FF90EF90DF90CF9086
:104E300008958F929F92AF92BF92CF92DF92EF929E
:104E4000FF920F931F93CF93DF937C01A62E6A01ED
:104E50004901B02E862F68E270E00E94CB25182F02
:104E60008A2D69E270E00E94CB25C82FD0E0912FF7
:104E700080E0C82BD92BC7016A2DAE0196018401B1
:104E80000E94DE26BB2099F47E01E80CF91C0A2D55
:104E900010E00C5F1F4F102F0027C80188966F2D60
:104EA0000E947125C80189966E2D0E947125DF919F
:104EB000CF911F910F91FF90EF90DF90CF90BF9017
:104EC000AF909F908F9008951F93162F962F80E09C
:104ED0008F5F9B4F642F0E947125812F61E070E0EE
:104EE0000E94CB258823C9F71F9108950F931F9324
:104EF000182F092F6CE271E080E090E00E94E03C06
:104F00000E94D116249A80E090E060E80E9471250A
:104F10008BE190E065E50E9471258AE190E065E50E
:104F20000E947125212F302FC901FC0180E090E4FF
:104F3000918380838050904E9187808780509841E4
:104F4000329620E68030920799F71F910F910895CD
:104F50000F938DEA96E060E040E020E000E00E94E0
:104F6000F5370F9108959C01FB0182819381A48103
:104F7000B581F90182839383A483B5831782168256
:104F80000895CF93DF93FB0101C031968081882380
:104F9000E1F7EB0120E030E0A0E0B0E021C06E32AC
:104FA00061F42F3F310509F07CF5FA01EA0FFB1F90
:104FB0002283119620E030E012C0C901E3E0880F9F
:104FC000991FEA95E1F7220F331F820F931F262FB7
:104FD000332727FD309520533040280F391F219665
:104FE0006881662319F0A430B105CCF22F3F31055A
:104FF00009F054F4A430B1053CF4A40FB51F129687
:105000002C9321E030E002C020E030E0C901DF91C4
:10501000CF9108950F9383EB96E060E040E020E0AD
:1050200000E00E94F5370F9108952F923F924F9222
:105030005F926F927F928F929F92AF92BF92CF9228
:10504000DF92EF92FF920F931F93DF93CF93CDB731
:10505000DEB769970FB6F894DEBF0FBECDBF4C0127
:105060008B011A010E94403C2B013C01F8E0EF2E1D
:10507000F12CE80CF91C5801CC24DD2414C00E944A
:10508000403C6419750986099709A616B706C80633
:10509000D90618F42FEF3FEF0BC162E370E080E018
:1050A00090E00E94E03CC7010E94E32E181619060A
:1050B00034F7F4012281338144815581818D928DB1
:1050C000A38DB48D8A879B87AC87BD872817390746
:1050D0004A075B0709F0EAC0858D968DC59709F0F0
:1050E000E5C000C18E01025F1F4FC701B8014CE04F
:1050F00050E00E94952EF801528143815B834A83E0
:10510000F401268137818E859F852817390711F490
:1051100057FD06C0C7010E945D2E2CEF3FEFC8C0AF
:105120004F705270452B31F0C7010E945D2E2BEF5E
:105130003FEFBEC0F801768067806114710441F0D2
:10514000AA24BB2448012E010894411C511C28C0EC
:10515000C7010E945D2E2AEF3FEFAAC0C701B2012E
:1051600041E050E00E94952E8981882321F408C0F7
:10517000C7010E94B82E8981815089838F5FC1F752
:105180008981882359F700E010E0C7010E94B82EFA
:105190000F5F1F4F04301105C1F70894A11CB11C0B
:1051A000F401D480C580AC14BD04C0F2442455245D
:1051B000C701BE016F5F7F4F41E050E00E94952E16
:1051C0009981892F807C61F4992321F40DC0C70156
:1051D0000E94B82E8981815089838F5FC1F704C0F6
:1051E000C7010E94B82E19828981882309F7C70157
:1051F000BE016C5F7F4F42E050E00E94952EC701D8
:10520000BE016A5F7F4F42E050E00E94952E00E0B1
:1052100010E0C7010E94B82E0F5F1F4F0430110528
:10522000C1F7C701BE016E5F7F4F42E050E00E94B0
:10523000952EDC80CD80F1E0CF16D10419F5BE802B
:10524000AF8081E0A816B104E9F49A818B810497BC
:1052500031F0C7010E945D2E27EF3FEF29C0E2E049
:10526000F0E02E0E3F1EC701B10144E050E00E9465
:10527000952E21E030E01CC0C7010E94B82E0F5FC0
:105280001F4F02C000E010E09A808B8008151905BE
:1052900098F30894411C511C4614570408F488CF15
:1052A000C7010E945D2E26EF3FEF02C02EEF3FEFB9
:1052B000C90169960FB6F894DEBF0FBECDBFCF917E
:1052C000DF911F910F91FF90EF90DF90CF90BF90F3
:1052D000AF909F908F907F906F905F904F903F9096
:1052E0002F90089588EF93E099878887C7010E94DF
:1052F000412E0C970CF0F6CE2DEF3FEFD9CF6F92E9
:105300007F928F929F92AF92BF92CF92DF92EF9255
:10531000FF920F931F93DF93CF9300D0CDB7DEB7EB
:105320008C01F62EE72E0E94403CF80177836683BD
:10533000B8E0CB2ED12CC00ED11E0A5F1F4FC60184
:10534000B80142E050E00E94372F81E090E09B835B
:105350008A83A2E08A2E912C8C0E9D1EC601B40178
:1053600042E050E00E94372F80E091E09B838A83E7
:10537000C601B40142E050E00E94372F1B821A821E
:10538000C601B40142E050E00E94372FC601B401CB
:1053900042E050E00E94372FC601B40142E050E0E5
:1053A0000E94372F2F2D3E2DC9018C017C013E011B
:1053B0000894611C711C20C00894E11CF11CF701C9
:1053C0008081882311F08E32B9F75701A01AB10AF3
:1053D0001A141B0474F48E2D801B8983C601B3013B
:1053E00041E050E00E94372FC601B801A5010E949C
:1053F000372F87010F5F1F4FF7018081882311F03E
:105400007801DDCF1982C601BE016F5F7F4F41E099
:1054100050E00E94372F00E011E01B830A83C60191
:10542000B40142E050E00E94372F1B830A83C6017B
:10543000B40142E050E00E94372F81E090E00F90ED
:105440000F900F90CF91DF911F910F91FF90EF90F0
:10545000DF90CF90BF90AF909F908F907F906F9094
:1054600008958F929F92AF92BF92CF92DF92EF9268
:10547000FF920F931F93DF93CF9300D000D0CDB74F
:10548000DEB76C017B014A010E94C127892B19F00C
:1054900001E010E067C0F60122813381448155812B
:1054A0008091B5069091B606A091B706B091B80666
:1054B000281739074A075B0719F40EEF1FEF52C090
:1054C00018E0A12EB12CAC0CBD1C0E94403C9B01ED
:1054D000AC012F70307020503C4FC501B9010E94C3
:1054E000FB2F813019F000E010E03CC088EF93E022
:1054F0009A838983F60182819381A481B5818B830C
:105500009C83AD83BE83C501BE016F5F7F4F45E3C2
:1055100050E00E94572F8C01009709F1C601B70196
:105520000E947F298C010097D1F0C5010E94522F63
:105530008C010097A1F0EE24FF24C60168E873E116
:10554000A4010E9415288C010894E11CF11CF3E0D1
:10555000EF16F10421F08FEF0F3F180771F3C5012B
:105560000E94E62FC80126960FB6F894DEBF0FBE44
:10557000CDBFCF91DF911F910F91FF90EF90DF9002
:10558000CF90BF90AF909F908F900895DB01FC016A
:1055900028EF33E03183208312962D913D914D9178
:1055A0005C911597228333834483558308950F9329
:1055B00089EC96E060E040E020E000E00E94F537F2
:1055C00081EC96E00E945F380F9108956F927F9270
:1055D0008F929F92AF92BF92CF92DF92EF92FF9203
:1055E0000F931F933C015B016A0149018DE996E02D
:1055F0000E94762789E090E0B50146E050E00E94E5
:105600008B2582E090E0C80ED91E8FE090E0B601B5
:1056100044E050E00E948B250E5F1F4F81E090E038
:10562000B80144E050E00E948B25E2E0F0E0EE0E8D
:10563000FF1E85E090E0B70144E050E00E948B251A
:10564000F40182819381A481B581F30182839383E4
:10565000A483B5831F910F91FF90EF90DF90CF90BF
:10566000BF90AF909F908F907F906F9008956F92B2
:105670007F928F929F92AF92BF92CF92DF92EF92E2
:10568000FF920F931F93DF93CF93CDB7DEB76E9743
:105690000FB6F894DEBF0FBECDBF4C013B017A01BF
:1056A00069015801CE0101966FEF4FEF2FEF00E037
:1056B0000E94F53728EF33E038872F83F701828186
:1056C0009381A481B58189879A87AB87BC873E8700
:1056D0002D87F60182819381A481B5818F87988B74
:1056E000A98BBA8B3C8B2B8BF50182819381A48192
:1056F000B5818D8B9E8BAF8BB88F3A8F298F8B8125
:105700009C81AD81BE818B8F9C8FAD8FBE8FC4017C
:10571000B301AE01495F5F4F9E01235F3F4F8E0192
:105720000D5E1F4FE9E1EE2EF12CEC0EFD1E0E94E6
:10573000E62A6E960FB6F894DEBF0FBECDBFCF91AE
:10574000DF911F910F91FF90EF90DF90CF90BF906E
:10575000AF909F908F907F906F9008950F931F93BD
:10576000DF93CF93CDB7DEB768970FB6F894DEBF5F
:105770000FBECDBFFA01D901228133814481558109
:105780002B833C834D835E83E8EFF3E0F887EF8360
:1057900029873A874B875C87FE87ED8712962D9184
:1057A0003D914D915C9115972F87388B498B5A8B82
:1057B000FC8BEB8B21E02E832B813C814D815E8124
:1057C0002D8B3E8B4F8B588FAE01495F5F4F9E01F3
:1057D000235F3F4F8E010D5E1F4F0E94372B68964F
:1057E0000FB6F894DEBF0FBECDBFCF91DF911F91F2
:1057F0000F910895FC011382128288EE93E0A0E0DD
:10580000B0E084839583A683B7838CE993E091838A
:10581000808384E084870895DF93CF930F92CDB780
:10582000DEB7FC016983A081B18112962D913C9174
:105830001397BE016F5F7F4F41E050E0F90119956A
:105840000F90CF91DF910895CF93DF93EC0107C0C4
:10585000E881F9810680F781E02DCE011995E88174
:10586000F9810480F581E02DCE011995892B81F70E
:10587000DF91CF91089520E0FC018485843009F008
:1058800021E0822F08950F938FEC96E060E040E0D6
:1058900020E000E00E94F5370F910895FC01848517
:1058A000843011F480E00895982F80E08D5F9B4F45
:1058B0000E94B2250895CF93DF93EC018C8584304C
:1058C00011F480E019C0CE010E944E2C843191F079
:1058D000882381F0883171F08C3151F4E881F981AD
:1058E0000480F581E02DCE01199520E0892B19F077
:1058F00021E001C020E0822FDF91CF910895EF9247
:10590000FF920F931F93CF93DF93EC018C8584302C
:1059100089F10E9480230E94403C7B018C01CE01D2
:105920000E944E2C882301F10E94403C6E197F0991
:10593000800B910B685E734080409040A8F461E05A
:1059400070E080E090E00E94E03CE9CF8C850E940E
:10595000BC23EC85F0E0EE0FFF1FE754F94F1182F6
:10596000108284E08C8706C0CE010E944E2C8823D2
:1059700081F3ECCFDF91CF911F910F91FF90EF90CA
:1059800008950F931F93DF93CF930F92CDB7DEB798
:105990008C01DC01ED91FC910480F581E02D1995DD
:1059A000892B19F42FEF3FEF0AC0F8018485BE015F
:1059B0006F5F7F4F0E9421258981282F30E0C90128
:1059C0000F90CF91DF911F910F910895FC01848575
:1059D0000E9430250895DF93CF930F92CDB7DEB7A5
:1059E000FC018485BE016F5F7F4F41E050E00E9463
:1059F0003025181619061CF02FEF3FEF03C08981E0
:105A0000282F30E0C9010F90CF91DF910895FC015C
:105A10006485643019F420E030E005C08DE996E03B
:105A20000E9468269C01C90108950F931F93CF938C
:105A3000DF938C01EA01FC018485843019F481E054
:105A400090E007C00E94CA24892B39F481E090E0DD
:105A5000F80193838283C0E0D0E0CE01DF91CF9143
:105A60001F910F910895AF92BF92CF92DF92EF9264
:105A7000FF920F931F93CF93DF937C016B015A0129
:105A8000FC018485843009F056C0C0E0D0E003E01A
:105A900014E0C8010E94B225882321F0883111F05A
:105AA0008C3119F4F701C48706C0219600501F4FAE
:105AB000C430D10571F7F70124852430E1F18091DC
:105AC000C8029091C90201969093C9028093C802BE
:105AD000892B31F480E094E09093C9028093C8024E
