:100000000C9485010C94B2010C94B2010C94B201D1
:100010000C94B2010C94B2010C94B2010C94B20194
:100020000C94B2010C94B2010C94B2010C94B20184
:100030000C94B2010C94B2010C94B2010C94B20174
:100040000C94B2010C94B2010C94B2010C94B20164
:100050000C94B2010C94B2010C94B2010C94370BC5
:100060000C94B2010C94B5060C94E1070C94B20107
:100070000C94B2010C94B2010C94B2010C94B20134
:100080000C94B2010C94B2010C94B2010C94B20124
:100090000C94F1060C9415080C94B2010C94B20166
:1000A0000C94B2010C94B2010C94B2010C94B20104
:1000B0000C94B2010C94B2010C94B2010C94B201F4
:1000C0000C94B2010C94B2010C94B2010C942D0763
:1000D0000C9449080C94B2010C9469070C947D08A7
:1000E0000C94B201005EBCE2613FDD83C29C7E20C5
:1000F000A3FD1F419DC3217FFCA2401E5F01E3BD04
:100100003E6082DC237D9FC1421CFEA0E1BF5D03F7
:1001100080DE3C62BEE0025CDF81633D7C22C09EEB
:100120001D43A1FF4618FAA427799BC584DA3866D7
:10013000E5BB5907DB856739BAE406581947A5FBC3
:100140007826C49A653BD987045AB8E6A7F91B45B7
:10015000C6987A24F8A6441A99C7257B3A6486D8AB
:100160005B05E7B98CD2306EEDB3510F4E10F2AC97
:100170002F7193CD114FADF3702ECC92D38D6F3183
:10018000B2EC0E50AFF1134DCE90722C6D33D18F77
:100190000C52B0EE326C8ED0530DEFB1F0AE4C126B
:1001A00091CF2D73CA947628ABF517490856B4EA57
:1001B0006937D58B5709EBB536688AD495CB297743
:1001C000F4AA4816E9B7550B88D6346A2B7597C937
:1001D0004A14F6A8742AC896154BA9F7B6E80A542B
:1001E000D7896B3500002100240027002A002D004C
:1001F0003000330001010000040107010A01000082
:100200002200250028002B002E00310034000201BE
:100210000000050108010B0100002000230026005A
:1002200029002C002F00320000010000030106010C
:10023000090105050505070508080808020202026C
:100240000A0A080804040404010101010101010172
:100250000303030303030303040707070C0C0C0C3D
:100260000C0C0C0C02020202060606060606060626
:100270000B0B0B0B0B0B0B0B0102102020080810B3
:100280002040102040800201020108040201010206
:1002900004081020408080402010080402018004DF
:1002A000020180402010080402010804020101023A
:1002B0000408102040800102040810204080000043
:1002C000090A02080B0C0D070603040100000000D8
:1002D000000000000000000000000000000000001E
:1002E0000000000000000000000011100F000000DE
:1002F00000000000000000000000000000000000FE
:10030000000000009306BE098C0611241FBECFEF2B
:10031000D1E2DEBFCDBF00E00CBF12E0A0E0B2E052
:10032000E2EFFFE100E00BBF02C007900D92A434A2
:10033000B107D9F71BBE15E0A4E4B2E001C01D92DD
:10034000A432B107E1F713E0C8E0D3E004C022977C
:10035000FE010E94E80FC430D107C9F70E941E0BAE
:100360000C94EC0F0C940000DC0180E00BC0E82F33
:10037000F0E08D9190E0E827F927EC51FF4FE491F0
:1003800061508E2F662399F70895DF92EF92FF92C6
:100390000F931F93FC01E08001811281F894F80112
:1003A00081818E2981838281DE2CD0948D2182836C
:1003B00083E090E00E94B30BF80181818D2181835D
:1003C0008AE090E00E94B30BF8010081789485E305
:1003D00090E00E94B30B80E010E0FF240E211F216B
:1003E000012B09F081E01F910F91FF90EF90DF90BA
:1003F0000895EF92FF920F931F93CF93DF937C01A9
:1004000001E010E0C0E0D0E0C7010E94C501811109
:10041000102B000F2196C830D105B1F7812FDF9145
:10042000CF911F910F91FF90EF9008951F93CF935D
:10043000DF93FC011081C181D281912F909560FFE3
:1004400012C0F8948A8189238A838981812B8983C8
:100450008AE090E00E94B30B8A81812B8A83789492
:1004600087E390E011C0F8948A8189238A83898187
:10047000812B898381E490E00E94B30B8A81812BD8
:100480008A83789485E090E00E94B30BDF91CF914E
:100490001F910895CF92DF92EF92FF920F931F93D7
:1004A000CF93DF938C01E42EFF24F394C0E0D0E0DF
:1004B000C62EDD2460E08F2D90E08C219D21892BBC
:1004C00009F061E0C8010E941602FF0C2196C830B5
:1004D000D10581F7EE20A9F4F894D8011196ED9199
:1004E000FC91129791818C9180959823918311961C
:1004F000ED91FC91129792818C9180959823928333
:100500007894DF91CF911F910F91FF90EF90DF9042
:10051000CF900895EF92FF920F931F93CF93DF93A5
:100520008C017B0165E540E00E944A02C0E0D0E01A
:10053000F701EC0FFD1FC801608140E00E944A02F4
:100540002196C830D105A1F7DF91CF911F910F916E
:10055000FF90EF900895DF92EF92FF920F931F9319
:10056000CF93DF93FC010081C181D281F89489810E
:10057000D02ED0948D21898378941DE7E02EFF241E
:10058000115059F182E090E00E94B30B888190E015
:100590008E219F21892BA1F3F8948A818D218A8352
:1005A0008981802B8983789480EE91E00E94B30B3F
:1005B000F89489818D21898386E490E00E94B30BB1
:1005C000888110E090E0E822F922EF2809F411E098
:1005D00078948AE991E00E94B30B812FDF91CF914B
:1005E0001F910F91FF90EF90DF900895FF920F936E
:1005F0001F938C01F62E862F60E00E94870C8F2DB2
:1006000090E0FC01E858FD4FE491D801EC938E5C3A
:100610009D4FFC016491E62FF0E0EE0FFF1FE85EB6
:10062000FD4F8591949112969C938E9311971B96F2
:100630001C921B971D961C921D971C961C92F801EC
:1006400087E090E012863197009711F00197FACF7A
:100650001F910F91FF9008952F923F925F926F929A
:100660007F928F929F92AF92BF92CF92DF92EF9242
:10067000FF920F931F93DF93CF9300D00F920F92AF
:10068000CDB7DEB73C01962E19821A821B821C82DE
:100690001D82862F61E00E94870C892D60E00E94F8
:1006A0003A0D62E170E080E090E00E941F0C892D1D
:1006B00061E00E943A0D88E290E00E94B30B892D20
:1006C00060E00E94870C00E117E205C001151105EA
:1006D000A1F101501040892D0E946D0D892BB1F3BD
:1006E00000E117E205C00115110539F10150104074
:1006F000892D0E946D0D0197B1F306C001151105FA
:10070000E1F0015010400AC027E0822E5524AA24AF
:10071000BB2491E0292E312C00E117E2892D0E94A3
:100720006D0D892B59F30E948D0B6B017C0100E14B
:1007300017E208C00115110519F42EEF3FEF41C073
:1007400001501040892D0E946D0D019799F30E9470
:100750008D0B6C197D098E099F0969327105810520
:10076000910580F0E1E0F0E0EC0FFD1FE50DF11DDB
:100770009101082C02C0220F331F0A94E2F78081F6
:10078000822B8083882021F4539487E0882E01C037
:100790008A940894A11CB11C88E2A816B10409F03F
:1007A000BBCF8981F301808311829B819283138265
:1007B000980F8D81891719F420E030E002C02FEFE7
:1007C0003FEFC9010F900F900F900F900F90CF91B6
:1007D000DF911F910F91FF90EF90DF90CF90BF902E
:1007E000AF909F908F907F906F905F903F902F90F1
:1007F000089581E090E00895CF93DF93EC0169893B
:100800007A8984E492E00E942C03ED85FE85892B91
:10081000A9F482E090E09183808393838283EF85C3
:10082000F88980914602909147029183808380915C
:100830004402909145029583848306C081E090E054
:100840009183808393838283DF91CF910895FC010C
:1008500083E192E091838083CF010E945205089545
:100860000F931F938C0183E192E0F80191838083C1
:10087000C8010E945205C8010E942E0B1F910F91C2
:100880000895CF92DF92EF92FF920F931F937C0116
:100890006B0162E008E813E120E030E00E94B60559
:1008A00083E192E0F70191838083D28AC18A1F910C
:1008B0000F91FF90EF90DF90CF900895FC018FE1B2
:1008C00092E091838083CF010E94520508950F9397
:1008D0001F938C018FE192E0F80191838083C8011E
:1008E0000E945205C8010E942E0B1F910F9108957E
:1008F000EF92FF920F931F93CF93DF937C01DC0164
:1009000051968C910E9402068C010E94AB02F70165
:1009100063897489C8010E948A02C80164E441E0C5
:100920000E944A0268EE73E080E090E00E941F0C93
:10093000C8010E94AB0280934802D70153966D9183
:100940007C915497C8010E948A02C8016EEB40E076
:100950000E944A02C9E4D2E0C8010E94F9018993C9
:10096000B2E0C235DB07C1F7CE01099768E00E940B
:10097000B40190915102D7011D96ED91FC911E9703
:10098000891719F01182108248C082E090E09183AB
:10099000808390914A0280E020914902422F50E0EA
:1009A000482B592BF7018289882399F083E0440F63
:1009B000551F8A95E1F7809150028031B9F420915A
:1009C0004F028CE090E0821B9109407F480F591F35
:1009D0000DC080914D02807611F4487F07C08032AF
:1009E00011F44C7F03C0803409F44E7FD7011F9669
:1009F0000D911C915097BA01882777FD8095982F0B
:100A00000E94D50E20E030E040E85DE30E94610FD7
:100A1000F8016083718382839383DF91CF911F916B
:100A20000F91FF90EF900895AF92BF92DF92EF92F7
:100A3000FF920F931F93DF93CF930F920F92CDB737
:100A4000DEB75C01D62E7A013A83298361E0AE01DC
:100A50004F5F5F4F08E813E120E030E00E94B605E9
:100A60008FE192E0F50191838083D18AF48AE38A51
:100A7000F7018081823241F0883231F0803131F4E7
:100A800081E0F501828B02C0F501128A0F900F9070
:100A9000CF91DF911F910F91FF90EF90DF90BF906A
:100AA000AF900895FC018BE292E0918380830895DA
:100AB000FC018BE292E091838083089580E090E0D6
:100AC0000895EF92FF920F931F93CF93DF93EC0162
:100AD0000E947F0B7B018C0189859A85AB85BC8543
:100AE000A8019701281B390B4A0B5B0B8D819E8156
:100AF000AF81B885281739074A075B0710F480E0F3
:100B000005C0E986FA860B871C8781E0DF91CF91CB
:100B10001F910F91FF90EF9008950F931F93CF9324
:100B2000DF93EC018B010E946105882339F0E88195
:100B3000F9810190F081E02DCE011995000F111F70
:100B4000000F111FEF85F889E00FF11F808191815F
:100B5000DF91CF911F910F910895FC018BE292E0FC
:100B600091838083CF010E942E0B0895BF92CF9274
:100B7000DF92EF92FF920F931F93CF93DF93EC01DD
:100B8000B62E680179018BE292E0998388836A83AB
:100B90005C834B83062F10E0C801880F991F880FD4
:100BA000991F0E94310B988B8F87C801880F991F5E
:100BB0000E94310B9E878D87CD82DE82EF82F88680
:100BC0000E947F0B685E73408040904069877A87FF
:100BD0008B879C8720E080E090E008C0ED85FE8553
:100BE000E80FF91F118210822F5F02962B15B0F3C8
:100BF000DF91CF911F910F91FF90EF90DF90CF90F9
:100C0000BF900895FF920F931F93CF93DF93F82E19
:100C1000C0915502D091560294E020E030E009C026
:100C2000F901E15AFD4F80818F1509F4922F2F5F52
:100C30003F4F2C173D07A4F3943061F5C430D10524
:100C40001CF0E0E0F0E02FC08EE090E00E94340B5A
:100C5000182F092F6F2D0E94F602FE01EE0FFF1FC5
:100C6000E95AFD4F108301838091550290915602FD
:100C7000FC01E15AFD4FF082FC01EE0FFF1FE95A23
:100C8000FD4F0190F081E02D0196909356028093E4
:100C9000550209C0E92FF0E0EE0FFF1FE95AFD4FA2
:100CA0000190F081E02DCF01DF91CF911F910F9145
:100CB000FF9008958130910509F56F5F7F4F59F5D9
:100CC000809107029091080290938C0280938B028E
:100CD00090938E0280938D0283E692E061E070E053
:100CE0004BE852E00E94410486E792E062E040E077
:100CF00050E020E032E00E9414050895892B59F459
:100D00006F5F7F4F41F486E792E00E945E0483E6C6
:100D100092E00E942704089580E090E06FEF7FEF5B
:100D20000E945A06089581E090E06FEF7FEF0E94E5
:100D30005A0608950F931F9303E612E0C80160E07E
:100D400070E00E948D05C80161E070E00E948D0591
:100D50001F910F9108958FE892E040E051EE60E01E
:100D600070E00E94B108089508951F920F920FB687
:100D70000F920BB60F9211242F933F934F938F93A3
:100D80009F93EF93FF938091C00082FD19C0409123
:100D9000C6008091AD02282F30E02F5F3F4F2F73A8
:100DA00030708091AE0290E02817390759F0E09139
:100DB000AD02F0E0E157FD4F42A32093AD0202C027
:100DC0008091C600FF91EF919F918F914F913F913C
:100DD0002F910F900BBE0F900FBE0F901F90189584
:100DE00008951F920F920FB60F920BB60F92112417
:100DF0002F933F934F938F939F93EF93FF93809104
:100E0000C80082FD19C04091CE0080914F03282F69
:100E100030E02F5F3F4F2F7330708091500390E090
:100E20002817390759F0E0914F03F0E0EF5CFC4FD1
:100E300042A320934F0302C08091CE00FF91EF9117
:100E40009F918F914F913F912F910F900BBE0F90DB
:100E50000FBE0F901F90189508951F920F920FB616
:100E60000F920BB60F9211242F933F934F938F93B2
:100E70009F93EF93FF938091D00082FD19C0409122
:100E8000D6008091F103282F30E02F5F3F4F2F7362
:100E900030708091F20390E02817390759F0E09103
:100EA000F103F0E0ED52FC4F42A32093F10302C0A6
:100EB0008091D600FF91EF919F918F914F913F913B
:100EC0002F910F900BBE0F900FBE0F901F90189593
:100ED00008951F920F920FB60F920BB60F92112426
:100EE0002F933F934F938F939F93EF93FF93809113
:100EF000300182FD19C04091360180919304282F62
:100F000030E02F5F3F4F2F7330708091940490E05A
:100F10002817390759F0E0919304F0E0EB58FB4FA4
:100F200042A32093930402C080913601FF91EF9178
:100F30009F918F914F913F912F910F900BBE0F90EA
:100F40000FBE0F901F9018958091AD022091AE02B8
:100F500090E0805C9F4F821B91098F739070892B6A
:100F600011F00E94B40680914F032091500390E04D
:100F7000805C9F4F821B91098F739070892B11F0B9
:100F80000E94F0068091F1032091F20390E0805CD2
:100F90009F4F821B91098F739070892B11F00E94D3
:100FA0002C07809193042091940490E0805C9F4FE3
:100FB000821B91098F739070892B11F00E94680732
:100FC00008951F920F920FB60F920BB60F92112435
:100FD0002F938F939F93EF93FF939091AF02809104
:100FE000B002981731F48091C1008F7D8093C100C9
:100FF00010C0E091B002F0E0EF50FD4F20818091F1
:10100000B00290E001968F7390708093B0022093AD
:10101000C600FF91EF919F918F912F910F900BBE82
:101020000F900FBE0F901F9018951F920F920FB642
:101030000F920BB60F9211242F938F939F93EF93E0
:10104000FF939091510380915203981731F480914E
:10105000C9008F7D8093C90010C0E0915203F0E079
:10106000ED56FC4F20818091520390E001968F73E2
:101070009070809352032093CE00FF91EF919F9147
:101080008F912F910F900BBE0F900FBE0F901F905E
:1010900018951F920F920FB60F920BB60F92112454
:1010A0002F938F939F93EF93FF939091F3038091EE
:1010B000F403981731F48091D1008F7D8093D10093
:1010C00010C0E091F403F0E0EB5CFB4F20818091D5
:1010D000F40390E001968F7390708093F403209353
:1010E000D600FF91EF919F918F912F910F900BBEA2
:1010F0000F900FBE0F901F9018951F920F920FB672
:101100000F920BB60F9211242F938F939F93EF930F
:10111000FF939091950480919604981731F48091F3
:1011200031018F7D8093310110C0E0919604F0E091
:10113000E952FB4F20818091960490E001968F73D5
:1011400090708093960420933601FF91EF919F91C8
:101150008F912F910F900BBE0F900FBE0F901F908D
:101160001895AF92BF92DF92EF92FF920F931F9369
:10117000CF93DF93EC017A018B01DD24403081EEC7
:10118000580780E0680780E0780711F0DD24D394E9
:1011900091E0A92EB12CE889F989DD2069F0C5011B
:1011A0000C8C02C0880F991F0A94E2F7808360E0DC
:1011B00079E08DE390E005C0108260E874E88EE18C
:1011C00090E0A80197010E94C40F21503040404098
:1011D0005040569547953795279580E12030380740
:1011E00020F0DD2011F0DD24D6CFEC85FD853083A5
:1011F000EE85FF8520831D8EEA89FB89408121E0F1
:1012000030E0C901088C02C0880F991F0A94E2F7E8
:10121000482B4083EA89FB894081C901098C02C0BF
:10122000880F991F0A94E2F7482B4083EA89FB89CB
:101230004081C9010A8C02C0880F991F0A94E2F705
:10124000482B4083EA89FB8980810B8C02C0220FE6
:10125000331F0A94E2F7209528232083DF91CF9152
:101260001F910F91FF90EF90DF90BF90AF90089586
:10127000FC01268D878D30E0205C3F4F281B310913
:101280002F733070C9010895FC01968D878D9817D2
:1012900019F42FEF3FEF06C0878DE80FF11D82A1F3
:1012A000282F30E0C9010895DC015E969C915E977D
:1012B0005F968C915F97981719F42FEF3FEF10C04E
:1012C0005F968C915F97FD01E80FF11D92A15F96EB
:1012D0008C915F978F5F8F735F968C93292F30E08F
:1012E000C9010895DC015D968C915D97882339F0E2
:1012F0005096ED91FC915197808186FFF9CF5D96D4
:101300001C920895DC0190968C919097282F30E0E4
:101310002F5F3F4F2F73307091968C91919790E093
:1013200028173907C9F390968C919097FD01E80F23
:10133000F11DEE59FF4F608390962C939097529633
:10134000ED91FC915397208181E090E05B960C90A9
:101350005B9702C0880F991F0A94E2F7282B20831D
:1013600081E05D968C935D975096ED91FC9151973D
:1013700080818064808381E090E008951F931092C3
:1013800092021092910228EE33E040E050E0209368
:10139000930230939402409395025093960267E330
:1013A00072E07093900260938F021092B00280916D
:1013B000B0028093AF021092AE028091AE02809391
:1013C000AD0285EC90E090939C0280939B0284ECAC
:1013D00090E090939E0280939D0280EC90E0909329
:1013E000A00280939F0281EC90E09093A2028093F0
:1013F000A10282EC90E09093A4028093A30286EC79
:1014000090E09093A6028093A50214E01093A702A7
:10141000B3E0B093A802A7E0A093A902F5E0F0938F
:10142000AA02E1E0E093AB0210923403109233037E
:10143000209335033093360340933703509338039A
:1014400070933203609331031092520380915203E0
:1014500080935103109250038091500380934F0367
:101460008DEC90E090933E0380933D038CEC90E0F4
:101470009093400380933F0388EC90E09093420365
:101480008093410389EC90E090934403809343035D
:101490008AEC90E090934603809345038EEC90E0B5
:1014A000909348038093470310934903B0934A03F2
:1014B000A0934B03F0934C03E0934D031092D6039B
:1014C0001092D5032093D7033093D8034093D903C8
:1014D0005093DA037093D4036093D3031092F40310
:1014E0008091F4038093F3031092F2038091F2034E
:1014F0008093F10385ED90E09093E0038093DF0308
:1015000084ED90E09093E2038093E10380ED90E01E
:101510009093E4038093E30381ED90E09093E603DE
:101520008093E50382ED90E09093E8038093E703D6
:1015300086ED90E09093EA038093E9031093EB0328
:10154000B093EC03A093ED03F093EE03E093EF036D
:1015500010927804109277042093790430937A04DF
:1015600040937B0450937C047093760460937504DD
:10157000109296048091960480939504109294049E
:10158000809194048093930485E391E09093820486
:101590008093810484E391E0909384048093830496
:1015A00080E391E0909386048093850481E391E049
:1015B000909388048093870482E391E090938A0457
:1015C0008093890486E391E090938C0480938B044C
:1015D00010938D04B0938E04A0938F04F093900425
:1015E000E09391041F910895CF92DF92EF92FF92C2
:1015F0000F931F93CF93DF937C016B018A01C0E0AF
:10160000D0E00FC0D6016D916D01D701ED91FC9135
:101610000190F081E02DC7011995C80FD91F015025
:1016200010400115110571F7CE01DF91CF911F9187
:101630000F91FF90EF90DF90CF900895CF93DF93BD
:101640000E94BD0B0E94AB06C4EAD7E00E949A0636
:101650002097E1F30E94A407F9CF08950E943A0E63
:1016600008950E949D0D08950E949D0D08951F925A
:101670000F920FB60F9211242F933F938F939F9346
:10168000AF93BF9380911B0590911C05A0911D0500
:10169000B0911E0530911F050196A11DB11D232F8C
:1016A0002D5F2D3720F02D570196A11DB11D2093E0
:1016B0001F0580931B0590931C05A0931D05B093F7
:1016C0001E058091170590911805A0911905B091FC
:1016D0001A050196A11DB11D809317059093180559
:1016E000A0931905B0931A05BF91AF919F918F9167
:1016F0003F912F910F900FBE0F901F9018958FB7AD
:10170000F89420911B0530911C0540911D055091C6
:101710001E058FBFB901CA0108959FB7F8942091A3
:101720001705309118054091190550911A0586B595
:10173000A89B06C08F3F21F02F5F3F4F4F4F5F4F59
:101740009FBF542F432F322F2227280F311D411DB9
:10175000511D82E0220F331F441F551F8A95D1F778
:10176000B901CA010895019739F0880F991F880FB0
:10177000991F02970197F1F70895789484B58260D4
:1017800084BD84B5816084BD85B5826085BD85B525
:10179000816085BDEEE6F0E0808181608083E1E8D4
:1017A000F0E010828081826080838081816080830C
:1017B000E0E8F0E0808181608083E1EBF0E080810F
:1017C00084608083E0EBF0E0808181608083E1E9E8
:1017D000F0E0808182608083808181608083E0E9A5
:1017E000F0E0808181608083E1EAF0E080818260C6
:1017F0008083808181608083E0EAF0E08081816085
:101800008083E1E2F1E08081826080838081816079
:101810008083E0E2F1E0808181608083EAE7F0E0AC
:101820008081846080838081826080838081816008
:1018300080838081806880831092C1000895EF9238
:10184000FF920F931F93CF93DF937B018C013FB7E0
:10185000F8948091170590911805A0911905B09101
:101860001A0526B5A89B05C02F3F19F00196A11DAA
:10187000B11D3FBFBA2FA92F982F8827820F911D26
:10188000A11DB11D52E0880F991FAA1FBB1F5A95B9
:10189000D1F7EC0130C00E94D20E3FB7F89480918E
:1018A000170590911805A0911905B0911A0526B554
:1018B000A89B05C02F3F19F00196A11DB11D3FBF88
:1018C000BA2FA92F982F8827820F911DA11DB11D16
:1018D00032E0880F991FAA1FBB1F3A95D1F78C1BC6
:1018E0009D0B885E9340B8F20894E108F108010965
:1018F0001109C851DC4FE114F1040105110559F635
:10190000DF91CF911F910F91FF90EF900895CF93AA
:10191000DF93482F50E0CA0188589D4FFC01349155
:101920004E5C5D4FFA018491882369F190E0880F45
:10193000991FFC01EC51FE4FA591B491FC01E250BE
:10194000FE4FC591D491662351F42FB7F8948C9132
:10195000932F909589238C93888189230BC06230C3
:1019600061F42FB7F8948C91932F909589238C93E1
:101970008881832B88832FBF06C09FB7F8948C91F2
:10198000832B8C939FBFDF91CF910895893009F409
:1019900049C08A30A0F4843051F1853040F482305F
:1019A00079F1833000F5813009F063C026C08730BB
:1019B00079F1883098F5863009F05BC025C08D300C
:1019C00009F442C08E3028F48B30B1F18C30C0F570
:1019D0002DC0803109F442C0813109F445C08F30F7
:1019E00009F047C037C0809180008F7703C0809195
:1019F00080008F7D80938000089584B58F7702C02A
:101A000084B58F7D84BD08958091B0008F7703C029
:101A10008091B0008F7D8093B000089580919000F8
:101A20008F7707C0809190008F7D03C080919000D8
:101A3000877F8093900008958091A0008F7707C0E2
:101A40008091A0008F7D03C08091A000877F80934C
:101A5000A0000895809120018F7703C0809120011C
:101A60008F7D80932001089580912001877F80934E
:101A700020010895FF920F931F93F62E482F50E0F8
:101A8000CA0182549D4FFC012491CA0188589D4F80
:101A9000FC0114914E5C5D4FFA0104910023C9F0E2
:101AA000222319F0822F0E94C60CE02FF0E0EE0FE7
:101AB000FF1FE250FE4FA591B4919FB7F894FF200D
:101AC00021F48C911095812302C08C91812B8C93F1
:101AD0009FBF1F910F91FF9008950F931F93482F61
:101AE00050E0CA0182549D4FFC012491CA018858DC
:101AF0009D4FFC0104914E5C5D4FFA01149111233E
:101B000019F420E030E015C0222319F0822F0E9442
:101B1000C60C812F90E0880F991F885E9D4FFC01B5
:101B2000A591B4918C9120E030E0802311F021E068
:101B300030E0C9011F910F9108950F931F93CF9328
:101B4000DF93BC018230910510F462E070E0E09117
:101B50002205F091230540E050E0A0E0B0E024C071
:101B60008081918186179707D0F08617970771F4C7
:101B700082819381109729F013969C938E931297EC
:101B80002CC0909323058093220527C04115510551
:101B900019F08417950718F48D01AC01EF01DF01EE
:101BA000828193819C01F9013097D1F6411551054D
:101BB000F9F0CA01861B970B8430910580F48A8165
:101BC0009B810115110521F0F8019383828304C0E4
:101BD0009093230580932205FE01329645C0FE01B5
:101BE000E80FF91F619371930297998388833CC032
:101BF0008091200590912105892B41F480910B0261
:101C000090910C02909321058093200540910D0244
:101C100050910E024115510541F44DB75EB78091C8
:101C2000090290910A02481B590B2091200530911E
:101C3000210524173507B0F4CA01821B930B8617C0
:101C4000970780F0AB014E5F5F4F8417950750F008
:101C5000420F531F5093210540932005F9016193D2
:101C6000719302C0E0E0F0E0CF01DF91CF911F91CE
:101C70000F910895CF93DF939C01009709F48FC0D3
:101C8000EC0122971B821A82609122057091230534
:101C90006115710581F488819981820F931F2091CC
:101CA0002005309121052817390739F5D0932105F2
:101CB000C093200574C0DB0140E050E0AC17BD07C5
:101CC00008F1BB83AA83FE0121913191E20FF31F3A
:101CD000AE17BF0779F48D919C911197280F391F8A
:101CE0002E5F3F4F3983288312968D919C911397D5
:101CF0009B838A834115510571F4D0932305C093CA
:101D000022054DC012968D919C911397AD010097BD
:101D100011F0DC01D3CFDA011396DC93CE93129746
:101D2000FA0121913191E20FF31FCE17DF0769F419
:101D300088819981280F391F2E5F3F4FFA01318327
:101D400020838A819B8193838283E0E0F0E0DB0142
:101D500012968D919C911397009719F0BC01FD018B
:101D6000F6CFAB014E5F5F4FDB018D919C91840FED
:101D7000951F20912005309121052817390779F406
:101D8000309729F4109223051092220502C0138285
:101D90001282425050405093210540932005DF911C
:101DA000CF9108950895E89409C097FB3EF490956B
:101DB0008095709561957F4F8F4F9F4F9923A9F024
:101DC000F92F96E9BB279395F695879577956795B3
:101DD000B795F111F8CFFAF4BB0F11F460FF1BC0F7
:101DE0006F5F7F4F8F4F9F4F16C0882311F096E98A
:101DF00011C0772321F09EE8872F762F05C0662338
:101E000071F096E8862F70E060E02AF09A95660FF0
:101E1000771F881FDAF7880F9695879597F90895A9
:101E200097F99F6780E870E060E008959FEF80EC8D
:101E3000089500240A941616170618060906089530
:101E400000240A9412161306140605060895092E96
:101E50000394000C11F4882352F0BB0F40F4BF2B05
:101E600011F460FF04C06F5F7F4F8F4F9F4F089545
:101E700057FD9058440F551F59F05F3F71F047953B
:101E8000880F97FB991F61F09F3F79F08795089520
:101E9000121613061406551FF2CF4695F1DF08C03F
:101EA000161617061806991FF1CF8695710561055C
:101EB00008940895E894BB2766277727CB0197F904
:101EC00008950BD0C4CFB5DF28F0BADF18F0952302
:101ED00009F0A6CFABCF1124EECFCADFA0F3959FB8
:101EE000D1F3950F50E0551F629FF001729FBB2701
:101EF000F00DB11D639FAA27F00DB11DAA1F649FAD
:101F00006627B00DA11D661F829F2227B00DA11D5F
:101F1000621F739FB00DA11D621F839FA00D611DE5
:101F2000221F749F3327A00D611D231F849F600D06
:101F3000211D822F762F6A2F11249F5750408AF03F
:101F4000E1F088234AF0EE0FFF1FBB1F661F771FCB
:101F5000881F91505040A9F79E3F510570F060CF07
:101F6000AACF5F3FECF3983EDCF3869577956795B3
:101F7000B795F795E7959F5FC1F7FE2B880F911DE9
:101F80009695879597F90895A1E21A2EAA1BBB1B77
:101F9000FD010DC0AA1FBB1FEE1FFF1FA217B30735
:101FA000E407F50720F0A21BB30BE40BF50B661F4B
:101FB000771F881F991F1A9469F76095709580950F
:101FC00090959B01AC01BD01CF010895EE0FFF1F5D
:101FD0000590F491E02D199413E0C8E0D3E004C01B
:101FE000FE010E94E80F2296CA30D107C9F7F89483
:021FF000FFCF21
:101FF200616100565A31000302800024050000008E
:10200200000000FC0327043004F9030000000078FC
:10201200045E0467045E05000000002D0B5805AD48
:10202200055E05000000008209F40A3809540944DB
:042032000972090026
:00000001FF
