:100000000C9405010C9432010C9432010C943201D1
:100010000C9432010C9432010C9432010C94320194
:100020000C9432010C9432010C9432010C94320184
:100030000C9432010C9432010C9432010C94320174
:100040000C9432010C9432010C9432010C94320164
:100050000C9432010C9432010C9432010C94DD07A3
:100060000C9432010C945E030C948A040C943201BB
:100070000C9432010C9432010C9432010C94320134
:100080000C9432010C9432010C9432010C94320124
:100090000C949A030C94BE040C9432010C9432011B
:1000A0000C9432010C9432010C9432010C94320104
:1000B0000C9432010C9432010C9432010C943201F4
:1000C0000C9432010C9432010C9432010C94D6033E
:1000D0000C94F2040C9432010C9412040C94260536
:1000E0000C94320100002100240027002A002D007A
:1000F0003000330001010000040107010A01000083
:100100002200250028002B002E00310034000201BF
:100110000000050108010B0100002000230026005B
:1001200029002C002F00320000010000030106010D
:10013000090105050505070508080808020202026D
:100140000A0A080804040404010101010101010173
:100150000303030303030303040707070C0C0C0C3E
:100160000C0C0C0C02020202060606060606060627
:100170000B0B0B0B0B0B0B0B0102102020080810B4
:100180002040102040800201020108040201010207
:1001900004081020408080402010080402018004E0
:1001A000020180402010080402010804020101023B
:1001B0000408102040800102040810204080000044
:1001C000090A02080B0C0D070603040100000000D9
:1001D000000000000000000000000000000000001F
:1001E0000000000000000000000011100F000000DF
:1001F00000000000000000000000000000000000FF
:10020000000000003C036706350311241FBECFEF3A
:10021000D1E2DEBFCDBF00E00CBF12E0A0E0B2E053
:10022000ECE5F7E100E00BBF02C007900D92A033B0
:10023000B107D9F71BBE14E0A0E3B2E001C01D92E4
:10024000A03EB107E1F712E0C8E0D2E004C0229777
:10025000FE010E949D0BC430D107C9F70E94C70759
:100260000C94A10B0C9400002F923F925F926F921E
:100270007F928F929F92AF92BF92CF92DF92EF9236
:10028000FF920F931F93DF93CF9300D00F920F92A3
:10029000CDB7DEB73C01962E19821A821B821C82D2
:1002A0001D82862F61E00E942D09892D60E00E9449
:1002B000E00962E170E080E090E00E94C508892DCD
:1002C00061E00E94E00988E290E00E945908892DCF
:1002D00060E00E942D0900E117E205C0011511053B
:1002E000A1F101501040892D0E94130A892BB1F30E
:1002F00000E117E205C00115110539F10150104068
:10030000892D0E94130A0197B1F306C0011511054A
:10031000E1F0015010400AC027E0822E5524AA24A3
:10032000BB2491E0292E312C00E117E2892D0E9497
:10033000130A892B59F30E9433086B017C0100E1F9
:1003400017E208C00115110519F42EEF3FEF41C067
:1003500001501040892D0E94130A019799F30E94C1
:1003600033086C197D098E099F0969327105810571
:10037000910580F0E1E0F0E0EC0FFD1FE50DF11DCF
:100380009101082C02C0220F331F0A94E2F78081EA
:10039000822B8083882021F4539487E0882E01C02B
:1003A0008A940894A11CB11C88E2A816B10409F033
:1003B000BBCF8981F301808311829B819283138259
:1003C000980F8D81891719F420E030E002C02FEFDB
:1003D0003FEFC9010F900F900F900F900F90CF91AA
:1003E000DF911F910F91FF90EF90DF90CF90BF9022
:1003F000AF909F908F907F906F905F903F902F90E5
:100400000895CF93DF93EC0169897A8980E392E0C4
:100410000E943401ED85FE85892BA9F482E090E0ED
:100420009183808393838283EF85F8898091320260
:1004300090913302918380838091300290913102B8
:100440009583848306C081E090E0918380839383C9
:100450008283DF91CF910895FC0180E192E0918346
:100460008083CF010E94630208950F931F938C0134
:1004700080E192E0F80191838083C8010E946302C9
:10048000C8010E94D7071F910F910895CF92DF9264
:10049000EF92FF920F931F937C016B0162E008E8DB
:1004A00013E120E030E00E94C40280E192E0F70115
:1004B00091838083D28AC18A1F910F91FF90EF9020
:1004C000DF90CF900895FC018AE192E091838083D0
:1004D0000895FC018AE192E0918380830895EF9270
:1004E000FF920F931F93CF93DF93EC010E94250897
:1004F0007B018C0189859A85AB85BC85A801970114
:10050000281B390B4A0B5B0B8D819E81AF81B8850F
:10051000281739074A075B0710F480E005C0E98611
:10052000FA860B871C8781E0DF91CF911F910F9195
:10053000FF90EF9008950F931F93CF93DF93EC01FB
:100540008B010E946F02882339F0E881F9810190C4
:10055000F081E02DCE011995000F111F000F111F22
:10056000EF85F889E00FF11F80819181DF91CF91B4
:100570001F910F910895FC018AE192E0918380839D
:10058000CF010E94D7070895BF92CF92DF92EF92DA
:10059000FF920F931F93CF93DF93EC01B62E680168
:1005A00079018AE192E0998388836A835C834B8333
:1005B000062F10E0C801880F991F880F991F0E940D
:1005C000DA07988B8F87C801880F991F0E94DA0776
:1005D0009E878D87CD82DE82EF82F8860E94250875
:1005E000685E73408040904069877A878B879C87DC
:1005F00020E080E090E008C0ED85FE85E80FF91F5F
:10060000118210822F5F02962B15B0F3DF91CF91EC
:100610001F910F91FF90EF90DF90CF90BF900895C2
:1006200081309105C1F46F5F7F4FF1F48091040236
:1006300090910502909348028093470290934A025A
:100640008093490284E392E061E070E047E452E085
:100650000E9446020895892B39F46F5F7F4F21F481
:1006600084E392E00E942C02089580E090E06FEF16
:100670007FEF0E941003089581E090E06FEF7FEF1D
:100680000E94100308950F931F9304E312E0C80122
:1006900060E070E00E949B02C80161E070E00E948F
:1006A0009B021F910F9108958BE492E040E051EE80
:1006B00060E070E00E945A05089508951F920F921D
:1006C0000FB60F920BB60F9211242F933F934F93B7
:1006D0008F939F93EF93FF938091C00082FD19C089
:1006E0004091C60080916902282F30E02F5F3F4F74
:1006F0002F73307080916A0290E02817390759F003
:10070000E0916902F0E0E55BFD4F42A320936902AE
:1007100002C08091C600FF91EF919F918F914F9100
:100720003F912F910F900BBE0F900FBE0F901F9017
:10073000189508951F920F920FB60F920BB60F9255
:1007400011242F933F934F938F939F93EF93FF9396
:100750008091C80082FD19C04091CE0080910B03AA
:10076000282F30E02F5F3F4F2F73307080910C03A4
:1007700090E02817390759F0E0910B03F0E0E351BE
:10078000FD4F42A320930B0302C08091CE00FF9146
:10079000EF919F918F914F913F912F910F900BBEB1
:1007A0000F900FBE0F901F90189508951F920F92F3
:1007B0000FB60F920BB60F9211242F933F934F93C6
:1007C0008F939F93EF93FF938091D00082FD19C088
:1007D0004091D6008091AD03282F30E02F5F3F4F2E
:1007E0002F7330708091AE0390E02817390759F0CD
:1007F000E091AD03F0E0E157FC4F42A32093AD033D
:1008000002C08091D600FF91EF919F918F914F91FF
:100810003F912F910F900BBE0F900FBE0F901F9026
:10082000189508951F920F920FB60F920BB60F9264
:1008300011242F933F934F938F939F93EF93FF93A5
:100840008091300182FD19C04091360180914F04A2
:10085000282F30E02F5F3F4F2F733070809150046E
:1008600090E02817390759F0E0914F04F0E0EF5C71
:10087000FB4F42A320934F0402C080913601FF91A9
:10088000EF919F918F914F913F912F910F900BBEC0
:100890000F900FBE0F901F901895809169022091C4
:1008A0006A0290E0805C9F4F821B91098F73907069
:1008B000892B11F00E945D0380910B0320910C03A2
:1008C00090E0805C9F4F821B91098F739070892B01
:1008D00011F00E9499038091AD032091AE0390E046
:1008E000805C9F4F821B91098F739070892B11F050
:1008F0000E94D50380914F042091500490E0805CC9
:100900009F4F821B91098F739070892B11F00E9469
:10091000110408951F920F920FB60F920BB60F920B
:1009200011242F938F939F93EF93FF9390916B02DA
:1009300080916C02981731F48091C1008F7D809373
:10094000C10010C0E0916C02F0E0E355FD4F208142
:1009500080916C0290E001968F73907080936C028E
:100960002093C600FF91EF919F918F912F910F904F
:100970000BBE0F900FBE0F901F9018951F920F92F5
:100980000FB60F920BB60F9211242F938F939F9354
:10099000EF93FF9390910D0380910E03981731F41C
:1009A0008091C9008F7D8093C90010C0E0910E0333
:1009B000F0E0E15BFC4F208180910E0390E0019616
:1009C0008F73907080930E032093CE00FF91EF9170
:1009D0009F918F912F910F900BBE0F900FBE0F9094
:1009E0001F9018951F920F920FB60F920BB60F9291
:1009F00011242F938F939F93EF93FF939091AF03C5
:100A00008091B003981731F48091D1008F7D80934D
:100A1000D10010C0E091B003F0E0EF50FC4F208116
:100A20008091B00390E001968F7390708093B00333
:100A30002093D600FF91EF919F918F912F910F906E
:100A40000BBE0F900FBE0F901F9018951F920F9224
:100A50000FB60F920BB60F9211242F938F939F9383
:100A6000EF93FF939091510480915204981731F4C1
:100A7000809131018F7D8093310110C0E09152044B
:100A8000F0E0ED56FB4F20818091520490E00196FA
:100A90008F7390708093520420933601FF91EF91F1
:100AA0009F918F912F910F900BBE0F900FBE0F90C3
:100AB0001F901895AF92BF92DF92EF92FF920F9323
:100AC0001F93CF93DF93EC017A018B01DD2440303B
:100AD00081EE580780E0680780E0780711F0DD2498
:100AE000D39491E0A92EB12CE889F989DD2069F031
:100AF000C5010C8C02C0880F991F0A94E2F780830D
:100B000060E079E08DE390E005C0108260E874E871
:100B10008EE190E0A80197010E94790B21503040AE
:100B200040405040569547953795279580E12030B5
:100B3000380720F0DD2011F0DD24D6CFEC85FD85CF
:100B40003083EE85FF8520831D8EEA89FB894081F5
:100B500021E030E0C901088C02C0880F991F0A9477
:100B6000E2F7482B4083EA89FB894081C901098C5F
:100B700002C0880F991F0A94E2F7482B4083EA8944
:100B8000FB894081C9010A8C02C0880F991F0A9411
:100B9000E2F7482B4083EA89FB8980810B8C02C0F5
:100BA000220F331F0A94E2F7209528232083DF9138
:100BB000CF911F910F91FF90EF90DF90BF90AF907A
:100BC0000895FC01268D878D30E0205C3F4F281B67
:100BD00031092F733070C9010895FC01968D878DFE
:100BE000981719F42FEF3FEF06C0878DE80FF11D1E
:100BF00082A1282F30E0C9010895DC015E969C9106
:100C00005E975F968C915F97981719F42FEF3FEFDF
:100C100010C05F968C915F97FD01E80FF11D92A1C6
:100C20005F968C915F978F5F8F735F968C93292F60
:100C300030E0C9010895DC015D968C915D978823B1
:100C400039F05096ED91FC915197808186FFF9CF54
:100C50005D961C920895DC0190968C919097282FB8
:100C600030E02F5F3F4F2F73307091968C919197AA
:100C700090E028173907C9F390968C919097FD0161
:100C8000E80FF11DEE59FF4F608390962C939097DB
:100C90005296ED91FC915397208181E090E05B9614
:100CA0000C905B9702C0880F991F0A94E2F7282BDB
:100CB000208381E05D968C935D975096ED91FC9139
:100CC000519780818064808381E090E008951F9334
:100CD00010924E0210924D0228EE33E040E050E0B8
:100CE00020934F023093500240935102509352028E
:100CF00064E272E070934C0260934B0210926C02BB
:100D000080916C0280936B0210926A0280916A0259
:100D10008093690285EC90E090935802809357028B
:100D200084EC90E090935A028093590280EC90E01A
:100D300090935C0280935B0281EC90E090935E0262
:100D400080935D0282EC90E09093600280935F025A
:100D500086EC90E0909362028093610214E010931D
:100D60006302B3E0B0936402A7E0A0936502F5E0EC
:100D7000F0936602E1E0E09367021092F0021092B5
:100D8000EF022093F1023093F2024093F30250936A
:100D9000F4027093EE026093ED0210920E038091C4
:100DA0000E0380930D0310920C0380910C0380932B
:100DB0000B038DEC90E09093FA028093F9028CEC97
:100DC00090E09093FC028093FB0288EC90E090937B
:100DD000FE028093FD0289EC90E0909300038093E3
:100DE000FF028AEC90E090930203809301038EEC63
:100DF00090E0909304038093030310930503B09352
:100E00000603A0930703F0930803E09309031092ED
:100E10009203109291032093930330939403409391
:100E20009503509396037093900360938F031092F1
:100E3000B0038091B0038093AF031092AE03809112
:100E4000AE038093AD0385ED90E090939C03809377
:100E50009B0384ED90E090939E0380939D0380ED2F
:100E600090E09093A00380939F0381ED90E0909396
:100E7000A2038093A10382ED90E09093A40380935A
:100E8000A30386ED90E09093A6038093A5031093AF
:100E9000A703B093A803A093A903F093AA03E09338
:100EA000AB03109234041092330420933504309332
:100EB000360440933704509338047093320460939F
:100EC0003104109252048091520480935104109284
:100ED00050048091500480934F0485E391E09093F7
:100EE0003E0480933D0484E391E09093400480931A
:100EF0003F0480E391E0909342048093410481E3B6
:100F000091E0909344048093430482E391E09093B2
:100F100046048093450486E391E0909348048093CF
:100F2000470410934904B0934A04A0934B04F093F0
:100F30004C04E0934D041F910895CF92DF92EF92FD
:100F4000FF920F931F93CF93DF937C016B018A0174
:100F5000C0E0D0E00FC0D6016D916D01D701ED91D9
:100F6000FC910190F081E02DC7011995C80FD91FA0
:100F7000015010400115110571F7CE01DF91CF919D
:100F80001F910F91FF90EF90DF90CF900895CF9336
:100F9000DF930E9463080E945403CDE4D4E00E94D2
:100FA00043032097E1F30E944D04F9CF08950E9476
:100FB000E00A08950E94430A08951F920F920FB607
:100FC0000F9211242F933F938F939F93AF93BF93CF
:100FD0008091D7049091D804A091D904B091DA04FB
:100FE0003091DB040196A11DB11D232F2D5F2D37FC
:100FF00020F02D570196A11DB11D2093DB04809395
:10100000D7049093D804A093D904B093DA048091C4
:10101000D3049091D404A091D504B091D604019644
:10102000A11DB11D8093D3049093D404A093D50443
:10103000B093D604BF91AF919F918F913F912F9123
:101040000F900FBE0F901F9018958FB7F8942091B6
:10105000D7043091D8044091D9045091DA048FBF5D
:10106000B901CA0108959FB7F8942091D304309133
:10107000D4044091D5045091D60486B5A89B06C0EF
:101080008F3F21F02F5F3F4F4F4F5F4F9FBF542F38
:10109000432F322F2227280F311D411D511D82E081
:1010A000220F331F441F551F8A95D1F7B901CA017A
:1010B0000895019739F0880F991F880F991F02979B
:1010C0000197F1F70895789484B5826084BD84B562
:1010D000816084BD85B5826085BD85B5816085BD33
:1010E000EEE6F0E0808181608083E1E8F0E010824C
:1010F000808182608083808181608083E0E8F0E08D
:10110000808181608083E1EBF0E080818460808376
:10111000E0EBF0E0808181608083E1E9F0E08081B4
:1011200082608083808181608083E0E9F0E080815B
:1011300081608083E1EAF0E0808182608083808149
:1011400081608083E0EAF0E0808181608083E1E279
:10115000F1E0808182608083808181608083E0E231
:10116000F1E0808181608083EAE7F0E08081846043
:1011700080838081826080838081816080838081A0
:10118000806880831092C1000895EF92FF920F93C0
:101190001F93CF93DF937B018C013FB7F89480912D
:1011A000D3049091D404A091D504B091D60426B56F
:1011B000A89B05C02F3F19F00196A11DB11D3FBF8F
:1011C000BA2FA92F982F8827820F911DA11DB11D1D
:1011D00052E0880F991FAA1FBB1F5A95D1F7EC0147
:1011E00030C00E94780B3FB7F8948091D30490915F
:1011F000D404A091D504B091D60426B5A89B05C00F
:101200002F3F19F00196A11DB11D3FBFBA2FA92F85
:10121000982F8827820F911DA11DB11D32E0880FE4
:10122000991FAA1FBB1F3A95D1F78C1B9D0B885E97
:101230009340B8F20894E108F10801091109C85176
:10124000DC4FE114F1040105110559F6DF91CF914E
:101250001F910F91FF90EF900895CF93DF93482F48
:1012600050E0CA0188589E4FFC0134914E5C5E4F9D
:10127000FA018491882369F190E0880F991FFC019D
:10128000EC51FF4FA591B491FC01E250FF4FC59185
:10129000D491662351F42FB7F8948C91932F9095A5
:1012A00089238C93888189230BC0623061F42FB726
:1012B000F8948C91932F909589238C938881832B1C
:1012C00088832FBF06C09FB7F8948C91832B8C9393
:1012D0009FBFDF91CF910895893009F449C08A30CA
:1012E000A0F4843051F1853040F4823079F18330BC
:1012F00000F5813009F063C026C0873079F188306D
:1013000098F5863009F05BC025C08D3009F442C0E5
:101310008E3028F48B30B1F18C30C0F52DC0803187
:1013200009F442C0813109F445C08F3009F047C04B
:1013300037C0809180008F7703C0809180008F7DBF
:1013400080938000089584B58F7702C084B58F7D27
:1013500084BD08958091B0008F7703C08091B00064
:101360008F7D8093B0000895809190008F7707C0A3
:10137000809190008F7D03C080919000877F809343
:10138000900008958091A0008F7707C08091A00001
:101390008F7D03C08091A000877F8093A000089577
:1013A000809120018F7703C0809120018F7D8093F1
:1013B0002001089580912001877F80932001089566
:1013C000FF920F931F93F62E482F50E0CA018254CC
:1013D0009E4FFC012491CA0188589E4FFC01149134
:1013E0004E5C5E4FFA0104910023C9F0222319F0EC
:1013F000822F0E946C09E02FF0E0EE0FFF1FE250F9
:10140000FF4FA591B4919FB7F894FF2021F48C91E0
:101410001095812302C08C91812B8C939FBF1F91CB
:101420000F91FF9008950F931F93482F50E0CA012A
:1014300082549E4FFC012491CA0188589E4FFC01A2
:1014400004914E5C5E4FFA011491112319F420E0CF
:1014500030E015C0222319F0822F0E946C09812FE1
:1014600090E0880F991F885E9E4FFC01A591B49172
:101470008C9120E030E0802311F021E030E0C901C0
:101480001F910F9108950F931F93CF93DF93BC018A
:101490008230910510F462E070E0E091DE04F0919A
:1014A000DF0440E050E0A0E0B0E024C08081918102
:1014B00086179707D0F08617970771F4828193817A
:1014C000109729F013969C938E9312972CC09093AB
:1014D000DF048093DE0427C04115510519F08417FD
:1014E000950718F48D01AC01EF01DF018281938132
:1014F0009C01F9013097D1F641155105F9F0CA0167
:10150000861B970B8430910580F48A819B8101159D
:10151000110521F0F8019383828304C09093DF04C6
:101520008093DE04FE01329645C0FE01E80FF91FEC
:10153000619371930297998388833CC08091DC0406
:101540009091DD04892B41F4809108029091090269
:101550009093DD048093DC0440910A0250910B02C9
:101560004115510541F44DB75EB780910602909147
:101570000702481B590B2091DC043091DD0424172D
:101580003507B0F4CA01821B930B8617970780F0CA
:10159000AB014E5F5F4F8417950750F0420F531F0A
:1015A0005093DD044093DC04F9016193719302C010
:1015B000E0E0F0E0CF01DF91CF911F910F9108950E
:1015C000CF93DF939C01009709F48FC0EC01229721
:1015D0001B821A826091DE047091DF04611571052F
:1015E00081F488819981820F931F2091DC043091CE
:1015F000DD042817390739F5D093DD04C093DC04E6
:1016000074C0DB0140E050E0AC17BD0708F1BB83BC
:10161000AA83FE0121913191E20FF31FAE17BF079C
:1016200079F48D919C911197280F391F2E5F3F4FB0
:101630003983288312968D919C9113979B838A837B
:101640004115510571F4D093DF04C093DE044DC001
:1016500012968D919C911397AD01009711F0DC01CA
:10166000D3CFDA011396DC93CE931297FA0121912E
:101670003191E20FF31FCE17DF0769F4888199815A
:10168000280F391F2E5F3F4FFA01318320838A8153
:101690009B8193838283E0E0F0E0DB0112968D91E1
:1016A0009C911397009719F0BC01FD01F6CFAB0197
:1016B0004E5F5F4FDB018D919C91840F951F2091B0
:1016C000DC043091DD042817390779F4309729F4C8
:1016D0001092DF041092DE0402C013821282425084
:1016E00050405093DD044093DC04DF91CF91089586
:1016F0000895A1E21A2EAA1BBB1BFD010DC0AA1F53
:10170000BB1FEE1FFF1FA217B307E407F50720F06A
:10171000A21BB30BE40BF50B661F771F881F991FE5
:101720001A9469F760957095809590959B01AC012E
:10173000BD01CF010895EE0FFF1F0590F491E02D3C
:10174000199412E0C8E0D2E004C0FE010E949D0B93
:0C1750002296CA30D107C9F7F894FFCFE9
:10175C00565A310000028000E00400000000000036
:10176C0001022C02350200000000D6076902BB0200
:10177C00000000002B069D07E105FD05ED051B068D
:00000001FF
