:100000000C9405010C9432010C9432010C943201D1
:100010000C9432010C9432010C9432010C94320194
:100020000C9432010C9432010C9432010C94320184
:100030000C9432010C9432010C9432010C94320174
:100040000C9432010C9432010C9432010C94320164
:100050000C9432010C9432010C9432010C94E3079D
:100060000C9432010C9464030C9490040C943201AF
:100070000C9432010C9432010C9432010C94320134
:100080000C9432010C9432010C9432010C94320124
:100090000C94A0030C94C4040C9432010C9432010F
:1000A0000C9432010C9432010C9432010C94320104
:1000B0000C9432010C9432010C9432010C943201F4
:1000C0000C9432010C9432010C9432010C94DC0338
:1000D0000C94F8040C9432010C9418040C942C0524
:1000E0000C94320100002100240027002A002D007A
:1000F0003000330001010000040107010A01000083
:100100002200250028002B002E00310034000201BF
:100110000000050108010B0100002000230026005B
:1001200029002C002F00320000010000030106010D
:10013000090105050505070508080808020202026D
:100140000A0A080804040404010101010101010173
:100150000303030303030303040707070C0C0C0C3E
:100160000C0C0C0C02020202060606060606060627
:100170000B0B0B0B0B0B0B0B0102102020080810B4
:100180002040102040800201020108040201010207
:1001900004081020408080402010080402018004E0
:1001A000020180402010080402010804020101023B
:1001B0000408102040800102040810204080000044
:1001C000090A02080B0C0D070603040100000000D9
:1001D000000000000000000000000000000000001F
:1001E0000000000000000000000011100F000000DF
:1001F00000000000000000000000000000000000FF
:100200000000000042036D063B0311241FBECFEF28
:10021000D1E2DEBFCDBF00E00CBF12E0A0E0B2E053
:10022000E8E6F7E100E00BBF02C007900D92A433AF
:10023000B107D9F71BBE14E0A4E3B2E001C01D92E0
:10024000A43EB107E1F712E0C8E0D2E004C0229773
:10025000FE010E94A30BC430D107C9F70E94CD074D
:100260000C94A70B0C9400002F923F925F926F9218
:100270007F928F929F92AF92BF92CF92DF92EF9236
:10028000FF920F931F93DF93CF9300D00F920F92A3
:10029000CDB7DEB73C01962E19821A821B821C82D2
:1002A0001D82862F61E00E943309892D60E00E9443
:1002B000E60962E170E080E090E00E94CB08892DC1
:1002C00061E00E94E60988E290E00E945F08892DC3
:1002D00060E00E94330900E117E205C00115110535
:1002E000A1F101501040892D0E94190A892BB1F308
:1002F00000E117E205C00115110539F10150104068
:10030000892D0E94190A0197B1F306C00115110544
:10031000E1F0015010400AC027E0822E5524AA24A3
:10032000BB2491E0292E312C00E117E2892D0E9497
:10033000190A892B59F30E9439086B017C0100E1ED
:1003400017E208C00115110519F42EEF3FEF41C067
:1003500001501040892D0E94190A019799F30E94BB
:1003600039086C197D098E099F096932710581056B
:10037000910580F0E1E0F0E0EC0FFD1FE50DF11DCF
:100380009101082C02C0220F331F0A94E2F78081EA
:10039000822B8083882021F4539487E0882E01C02B
:1003A0008A940894A11CB11C88E2A816B10409F033
:1003B000BBCF8981F301808311829B819283138259
:1003C000980F8D81891719F420E030E002C02FEFDB
:1003D0003FEFC9010F900F900F900F900F90CF91AA
:1003E000DF911F910F91FF90EF90DF90CF90BF9022
:1003F000AF909F908F907F906F905F903F902F90E5
:10040000089581E090E00895CF93DF93EC0169892E
:100410007A8984E392E00E943401ED85FE85892B80
:10042000A9F482E090E09183808393838283EF85B7
:10043000F889809136029091370291838083809170
:100440003402909135029583848306C081E090E068
:100450009183808393838283DF91CF910895FC0100
:1004600080E192E091838083CF010E94660208952B
:100470000F931F938C0180E192E0F80191838083B8
:10048000C8010E946602C8010E94DD071F910F91FA
:100490000895CF92DF92EF92FF920F931F937C010A
:1004A0006B0162E008E813E120E030E00E94CA023C
:1004B00080E192E0F70191838083D28AC18A1F9103
:1004C0000F91FF90EF90DF90CF900895FC018CE1A9
:1004D00092E0918380830895FC018CE192E0918306
:1004E0008083089580E090E00895EF92FF920F934B
:1004F0001F93CF93DF93EC010E942B087B018C01AB
:1005000089859A85AB85BC85A8019701281B390B85
:100510004A0B5B0B8D819E81AF81B8852817390707
:100520004A075B0710F480E005C0E986FA860B876E
:100530001C8781E0DF91CF911F910F91FF90EF9089
:1005400008950F931F93CF93DF93EC018B010E94CB
:100550007502882339F0E881F9810190F081E02D5E
:10056000CE011995000F111F000F111FEF85F8899B
:10057000E00FF11F80819181DF91CF911F910F9149
:100580000895FC018CE192E091838083CF010E9469
:10059000DD070895BF92CF92DF92EF92FF920F9303
:1005A0001F93CF93DF93EC01B62E680179018CE1A4
:1005B00092E0998388836A835C834B83062F10E0E3
:1005C000C801880F991F880F991F0E94E007988B18
:1005D0008F87C801880F991F0E94E0079E878D872B
:1005E000CD82DE82EF82F8860E942B08685E73401F
:1005F0008040904069877A878B879C8720E080E0E5
:1006000090E008C0ED85FE85E80FF91F1182108289
:100610002F5F02962B15B0F3DF91CF911F910F91B1
:10062000FF90EF90DF90CF90BF90089581309105BB
:10063000C1F46F5F7F4FF1F4809104029091050245
:1006400090934C0280934B0290934E0280934D0204
:1006500088E392E061E070E04BE452E00E944902DE
:100660000895892B39F46F5F7F4F21F488E392E07E
:100670000E942F02089580E090E06FEF7FEF0E94CC
:100680001603089581E090E06FEF7FEF0E9416035C
:1006900008950F931F9308E312E0C80160E070E033
:1006A0000E94A102C80161E070E00E94A1021F91B6
:1006B0000F9108958FE492E040E051EE60E070E029
:1006C0000E946005089508951F920F920FB60F9231
:1006D0000BB60F9211242F933F934F938F939F93B9
:1006E000EF93FF938091C00082FD19C04091C60036
:1006F00080916D02282F30E02F5F3F4F2F733070B5
:1007000080916E0290E02817390759F0E0916D0250
:10071000F0E0E15BFD4F42A320936D0202C08091A7
:10072000C600FF91EF919F918F914F913F912F9133
:100730000F900BBE0F900FBE0F901F90189508954D
:100740001F920F920FB60F920BB60F9211242F9398
:100750003F934F938F939F93EF93FF938091C800A4
:1007600082FD19C04091CE0080910F03282F30E008
:100770002F5F3F4F2F7330708091100390E0281748
:10078000390759F0E0910F03F0E0EF50FD4F42A31D
:1007900020930F0302C08091CE00FF91EF919F91B3
:1007A0008F914F913F912F910F900BBE0F900FBEE5
:1007B0000F901F90189508951F920F920FB60F92E9
:1007C0000BB60F9211242F933F934F938F939F93C8
:1007D000EF93FF938091D00082FD19C04091D60025
:1007E0008091B103282F30E02F5F3F4F2F7330707F
:1007F0008091B20390E02817390759F0E091B103D6
:10080000F0E0ED56FC4F42A32093B10302C080916B
:10081000D600FF91EF919F918F914F913F912F9132
:100820000F900BBE0F900FBE0F901F90189508955C
:100830001F920F920FB60F920BB60F9211242F93A7
:100840003F934F938F939F93EF93FF93809130014A
:1008500082FD19C04091360180915304282F30E069
:100860002F5F3F4F2F7330708091540490E0281712
:10087000390759F0E0915304F0E0EB5CFB4F42A3E1
:100880002093530402C080913601FF91EF919F9114
:100890008F914F913F912F910F900BBE0F900FBEF4
:1008A0000F901F90189580916D0220916E0290E03C
:1008B000805C9F4F821B91098F739070892B11F080
:1008C0000E94630380910F032091100390E0805CED
:1008D0009F4F821B91098F739070892B11F00E949A
:1008E0009F038091B1032091B20390E0805C9F4F01
:1008F000821B91098F739070892B11F00E94DB038A
:10090000809153042091540490E0805C9F4F821B9F
:1009100091098F739070892B11F00E94170408952C
:100920001F920F920FB60F920BB60F9211242F93B6
:100930008F939F93EF93FF9390916F02809170023A
:10094000981731F48091C1008F7D8093C10010C051
:10095000E0917002F0E0EF54FD4F20818091700231
:1009600090E001968F739070809370022093C60080
:10097000FF91EF919F918F912F910F900BBE0F9050
:100980000FBE0F901F9018951F920F920FB60F92E7
:100990000BB60F9211242F938F939F93EF93FF9396
:1009A0009091110380911203981731F48091C9003E
:1009B0008F7D8093C90010C0E0911203F0E0ED5AE2
:1009C000FC4F20818091120390E001968F7390700C
:1009D000809312032093CE00FF91EF919F918F910E
:1009E0002F910F900BBE0F900FBE0F901F90189578
:1009F0001F920F920FB60F920BB60F9211242F93E6
:100A00008F939F93EF93FF939091B3038091B403DF
:100A1000981731F48091D1008F7D8093D10010C060
:100A2000E091B403F0E0EB50FC4F20818091B403DF
:100A300090E001968F7390708093B4032093D6005A
:100A4000FF91EF919F918F912F910F900BBE0F907F
:100A50000FBE0F901F9018951F920F920FB60F9216
:100A60000BB60F9211242F938F939F93EF93FF93C5
:100A70009091550480915604981731F4809131017A
:100A80008F7D8093310110C0E0915604F0E0E9566B
:100A9000FB4F20818091560490E001968F739070F7
:100AA0008093560420933601FF91EF919F918F918F
:100AB0002F910F900BBE0F900FBE0F901F901895A7
:100AC000AF92BF92DF92EF92FF920F931F93CF935B
:100AD000DF93EC017A018B01DD24403081EE580771
:100AE00080E0680780E0780711F0DD24D39491E07E
:100AF000A92EB12CE889F989DD2069F0C5010C8C9B
:100B000002C0880F991F0A94E2F7808360E079E0C1
:100B10008DE390E005C0108260E874E88EE190E01B
:100B2000A80197010E947F0B215030404040504067
:100B3000569547953795279580E12030380720F066
:100B4000DD2011F0DD24D6CFEC85FD853083EE85E8
:100B5000FF8520831D8EEA89FB89408121E030E0FA
:100B6000C901088C02C0880F991F0A94E2F7482B2C
:100B70004083EA89FB894081C901098C02C0880F42
:100B8000991F0A94E2F7482B4083EA89FB89408148
:100B9000C9010A8C02C0880F991F0A94E2F7482BFA
:100BA0004083EA89FB8980810B8C02C0220F331FAE
:100BB0000A94E2F7209528232083DF91CF911F919B
:100BC0000F91FF90EF90DF90BF90AF900895FC01E0
:100BD000268D878D30E0205C3F4F281B31092F7315
:100BE0003070C9010895FC01968D878D981719F40E
:100BF0002FEF3FEF06C0878DE80FF11D82A1282F50
:100C000030E0C9010895DC015E969C915E975F9685
:100C10008C915F97981719F42FEF3FEF10C05F96F4
:100C20008C915F97FD01E80FF11D92A15F968C9169
:100C30005F978F5F8F735F968C93292F30E0C90188
:100C40000895DC015D968C915D97882339F050966C
:100C5000ED91FC915197808186FFF9CF5D961C92B2
:100C60000895DC0190968C919097282F30E02F5FAB
:100C70003F4F2F73307091968C91919790E0281789
:100C80003907C9F390968C919097FD01E80FF11DFB
:100C9000EE59FF4F608390962C9390975296ED916A
:100CA000FC915397208181E090E05B960C905B97DC
:100CB00002C0880F991F0A94E2F7282B208381E055
:100CC0005D968C935D975096ED91FC915197808144
:100CD0008064808381E090E008951F931092520217
:100CE0001092510228EE33E040E050E0209353028E
:100CF00030935402409355025093560268E272E0DA
:100D00007093500260934F021092700280917002B3
:100D100080936F0210926E0280916E0280936D023A
:100D200085EC90E090935C0280935B0284EC90E011
:100D300090935E0280935D0280EC90E0909360025D
:100D400080935F0281EC90E0909362028093610255
:100D500082EC90E0909364028093630286EC90E0D2
:100D6000909366028093650214E010936702B3E0EB
:100D7000B0936802A7E0A0936902F5E0F0936A02DD
:100D8000E1E0E0936B021092F4021092F3022093E0
:100D9000F5023093F6024093F7025093F8027093F5
:100DA000F2026093F1021092120380911203809379
:100DB0001103109210038091100380930F038DECA8
:100DC00090E09093FE028093FD028CEC90E0909373
:100DD00000038093FF0288EC90E0909302038093DD
:100DE000010389EC90E090930403809303038AEC61
:100DF00090E090930603809305038EEC90E090932F
:100E000008038093070310930903B0930A03A09388
:100E10000B03F0930C03E0930D03109296031092D2
:100E2000950320939703309398034093990350932D
:100E30009A0370939403609393031092B403809188
:100E4000B4038093B3031092B2038091B2038093F2
:100E5000B10385ED90E09093A00380939F0384ED10
:100E600090E09093A2038093A10380ED90E0909393
:100E7000A4038093A30381ED90E09093A603809355
:100E8000A50382ED90E09093A8038093A70386EDDD
:100E900090E09093AA038093A9031093AB03B093BF
:100EA000AC03A093AD03F093AE03E093AF031092B5
:100EB0003804109237042093390430933A04409355
:100EC0003B0450933C0470933604609335041092B5
:100ED00056048091560480935504109254048091D6
:100EE00054048093530485E391E0909342048093EB
:100EF000410484E391E0909344048093430480E3AD
:100F000091E0909346048093450481E391E09093AF
:100F100048048093470482E391E090934A048093CD
:100F2000490486E391E090934C0480934B04109322
:100F30004D04B0934E04A0934F04F0935004E093FB
:100F400051041F910895CF92DF92EF92FF920F9379
:100F50001F93CF93DF937C016B018A01C0E0D0E047
:100F60000FC0D6016D916D01D701ED91FC910190FB
:100F7000F081E02DC7011995C80FD91F015010400D
:100F80000115110571F7CE01DF91CF911F910F91DE
:100F9000FF90EF90DF90CF900895CF93DF930E9462
:100FA00069080E945A03C3E5D4E00E9449032097D0
:100FB000E1F30E945304F9CF08950E94E60A0895D0
:100FC0000E94490A08951F920F920FB60F921124A2
:100FD0002F933F938F939F93AF93BF938091DB04A5
:100FE0009091DC04A091DD04B091DE043091DF0427
:100FF0000196A11DB11D232F2D5F2D3720F02D57F8
:101000000196A11DB11D2093DF048093DB04909312
:10101000DC04A093DD04B093DE048091D7049091AA
:10102000D804A091D904B091DA040196A11DB11D94
:101030008093D7049093D804A093D904B093DA0492
:10104000BF91AF919F918F913F912F910F900FBEC4
:101050000F901F9018958FB7F8942091DB04309172
:10106000DC044091DD045091DE048FBFB901CA0158
:1010700008959FB7F8942091D7043091D8044091F7
:10108000D9045091DA0486B5A89B06C08F3F21F0A1
:101090002F5F3F4F4F4F5F4F9FBF542F432F322F34
:1010A0002227280F311D411D511D82E0220F331FC1
:1010B000441F551F8A95D1F7B901CA0108950197B8
:1010C00039F0880F991F880F991F02970197F1F740
:1010D0000895789484B5826084BD84B5816084BDB0
:1010E00085B5826085BD85B5816085BDEEE6F0E0A1
:1010F000808181608083E1E8F0E0108280818260FD
:101100008083808181608083E0E8F0E0808181607D
:101110008083E1EBF0E0808184608083E0EBF0E0AD
:10112000808181608083E1E9F0E08081826080835A
:10113000808181608083E0E9F0E08081816080834C
:10114000E1EAF0E080818260808380818160808339
:10115000E0EAF0E0808181608083E1E2F1E080817B
:1011600082608083808181608083E0E2F1E0808121
:1011700081608083EAE7F0E0808184608083808101
:1011800082608083808181608083808180688083A9
:101190001092C1000895EF92FF920F931F93CF9387
:1011A000DF937B018C013FB7F8948091D704909135
:1011B000D804A091D904B091DA0426B5A89B05C043
:1011C0002F3F19F00196A11DB11D3FBFBA2FA92FC6
:1011D000982F8827820F911DA11DB11D52E0880F05
:1011E000991FAA1FBB1F5A95D1F7EC0130C00E946E
:1011F0007E0B3FB7F8948091D7049091D804A091CA
:10120000D904B091DA0426B5A89B05C02F3F19F088
:101210000196A11DB11D3FBFBA2FA92F982F882776
:10122000820F911DA11DB11D32E0880F991FAA1FC9
:10123000BB1F3A95D1F78C1B9D0B885E9340B8F28B
:101240000894E108F10801091109C851DC4FE114C3
:10125000F1040105110559F6DF91CF911F910F910E
:10126000FF90EF900895CF93DF93482F50E0CA018D
:1012700088589E4FFC0134914E5C5E4FFA01849178
:10128000882369F190E0880F991FFC01EC51FF4F12
:10129000A591B491FC01E250FF4FC591D491662312
:1012A00051F42FB7F8948C91932F909589238C93B8
:1012B000888189230BC0623061F42FB7F8948C9138
:1012C000932F909589238C938881832B88832FBFBC
:1012D00006C09FB7F8948C91832B8C939FBFDF91AE
:1012E000CF910895893009F449C08A30A0F4843040
:1012F00051F1853040F4823079F1833000F581304E
:1013000009F063C026C0873079F1883098F58630BF
:1013100009F05BC025C08D3009F442C08E3028F43E
:101320008B30B1F18C30C0F52DC0803109F442C052
:10133000813109F445C08F3009F047C037C0809132
:1013400080008F7703C0809180008F7D8093800024
:10135000089584B58F7702C084B58F7D84BD0895CC
:101360008091B0008F7703C08091B0008F7D809313
:10137000B0000895809190008F7707C08091900011
:101380008F7D03C080919000877F809390000895A7
:101390008091A0008F7707C08091A0008F7D03C04F
:1013A0008091A000877F8093A00008958091200104
:1013B0008F7703C0809120018F7D80932001089555
:1013C00080912001877F809320010895FF920F93E1
:1013D0001F93F62E482F50E0CA0182549E4FFC0105
:1013E0002491CA0188589E4FFC0114914E5C5E4FB7
:1013F000FA0104910023C9F0222319F0822F0E94E0
:101400007209E02FF0E0EE0FFF1FE250FF4FA591B1
:10141000B4919FB7F894FF2021F48C91109581230B
:1014200002C08C91812B8C939FBF1F910F91FF90D5
:1014300008950F931F93482F50E0CA0182549E4F86
:10144000FC012491CA0188589E4FFC0104914E5C16
:101450005E4FFA011491112319F420E030E015C019
:10146000222319F0822F0E947209812F90E0880FA9
:10147000991F885E9E4FFC01A591B4918C9120E04C
:1014800030E0802311F021E030E0C9011F910F917D
:1014900008950F931F93CF93DF93BC018230910582
:1014A00010F462E070E0E091E204F091E30440E0C7
:1014B00050E0A0E0B0E024C08081918186179707BA
:1014C000D0F08617970771F482819381109729F0E5
:1014D00013969C938E9312972CC09093E304809361
:1014E000E20427C04115510519F08417950718F437
:1014F0008D01AC01EF01DF01828193819C01F90133
:101500003097D1F641155105F9F0CA01861B970BAA
:101510008430910580F48A819B810115110521F0A9
:10152000F8019383828304C09093E3048093E204E0
:10153000FE01329645C0FE01E80FF91F61937193D9
:101540000297998388833CC08091E0049091E104E4
:10155000892B41F480910802909109029093E10453
:101560008093E00440910A0250910B02411551050D
:1015700041F44DB75EB78091060290910702481B77
:10158000590B2091E0043091E10424173507B0F4A1
:10159000CA01821B930B8617970780F0AB014E5F41
:1015A0005F4F8417950750F0420F531F5093E1048B
:1015B0004093E004F9016193719302C0E0E0F0E030
:1015C000CF01DF91CF911F910F910895CF93DF93BA
:1015D0009C01009709F48FC0EC0122971B821A82AC
:1015E0006091E2047091E3046115710581F48881D2
:1015F0009981820F931F2091E0043091E104281714
:10160000390739F5D093E104C093E00474C0DB01DD
:1016100040E050E0AC17BD0708F1BB83AA83FE0190
:1016200021913191E20FF31FAE17BF0779F48D912D
:101630009C911197280F391F2E5F3F4F39832883C4
:1016400012968D919C9113979B838A834115510526
:1016500071F4D093E304C093E2044DC012968D91CF
:101660009C911397AD01009711F0DC01D3CFDA0103
:101670001396DC93CE931297FA0121913191E20FE8
:10168000F31FCE17DF0769F488819981280F391F6E
:101690002E5F3F4FFA01318320838A819B819383A0
:1016A0008283E0E0F0E0DB0112968D919C9113972C
:1016B000009719F0BC01FD01F6CFAB014E5F5F4F03
:1016C000DB018D919C91840F951F2091E004309156
:1016D000E1042817390779F4309729F41092E304CC
:1016E0001092E20402C01382128242505040509382
:1016F000E1044093E004DF91CF9108950895A1E2C1
:101700001A2EAA1BBB1BFD010DC0AA1FBB1FEE1F7B
:10171000FF1FA217B307E407F50720F0A21BB30BC6
:10172000E40BF50B661F771F881F991F1A9469F742
:1017300060957095809590959B01AC01BD01CF019E
:101740000895EE0FFF1F0590F491E02D199412E01B
:10175000C8E0D2E004C0FE010E94A30B2296CA306A
:08176000D107C9F7F894FFCF8F
:10176800565A310000028000E40400000000000026
:1017780004022F023802010200000000DC076C029C
:10178800C1027202000000003106A307E705030644
:04179800F30521062E
:00000001FF
